{
  "_format": "hh-sol-artifact-1",
  "contractName": "BActions",
  "sourceName": "contracts/BActions.sol",
  "abi": [
    {
      "inputs": [
        {
          "internalType": "contract ConfigurableRightsPool",
          "name": "crp",
          "type": "address"
        },
        {
          "internalType": "contract ERC20",
          "name": "token",
          "type": "address"
        },
        {
          "internalType": "uint256",
          "name": "tokenAmountIn",
          "type": "uint256"
        }
      ],
      "name": "applyAddToken",
      "outputs": [],
      "stateMutability": "nonpayable",
      "type": "function"
    },
    {
      "inputs": [
        {
          "internalType": "contract ConfigurableRightsPool",
          "name": "crp",
          "type": "address"
        },
        {
          "internalType": "contract ERC20",
          "name": "token",
          "type": "address"
        },
        {
          "internalType": "uint256",
          "name": "balance",
          "type": "uint256"
        },
        {
          "internalType": "uint256",
          "name": "denormalizedWeight",
          "type": "uint256"
        }
      ],
      "name": "commitAddToken",
      "outputs": [],
      "stateMutability": "nonpayable",
      "type": "function"
    },
    {
      "inputs": [
        {
          "internalType": "contract BFactory",
          "name": "factory",
          "type": "address"
        },
        {
          "internalType": "address[]",
          "name": "tokens",
          "type": "address[]"
        },
        {
          "internalType": "uint256[]",
          "name": "balances",
          "type": "uint256[]"
        },
        {
          "internalType": "uint256[]",
          "name": "weights",
          "type": "uint256[]"
        },
        {
          "internalType": "uint256",
          "name": "swapFee",
          "type": "uint256"
        },
        {
          "internalType": "bool",
          "name": "finalize",
          "type": "bool"
        }
      ],
      "name": "create",
      "outputs": [
        {
          "internalType": "contract BPool",
          "name": "pool",
          "type": "address"
        }
      ],
      "stateMutability": "nonpayable",
      "type": "function"
    },
    {
      "inputs": [
        {
          "internalType": "contract CRPFactory",
          "name": "factory",
          "type": "address"
        },
        {
          "internalType": "contract BFactory",
          "name": "kFactory",
          "type": "address"
        },
        {
          "components": [
            {
              "internalType": "string",
              "name": "poolTokenSymbol",
              "type": "string"
            },
            {
              "internalType": "string",
              "name": "poolTokenName",
              "type": "string"
            },
            {
              "internalType": "address[]",
              "name": "constituentTokens",
              "type": "address[]"
            },
            {
              "internalType": "uint256[]",
              "name": "tokenBalances",
              "type": "uint256[]"
            },
            {
              "internalType": "uint256[]",
              "name": "tokenWeights",
              "type": "uint256[]"
            },
            {
              "internalType": "uint256",
              "name": "swapFee",
              "type": "uint256"
            }
          ],
          "internalType": "struct ConfigurableRightsPool.PoolParams",
          "name": "poolParams",
          "type": "tuple"
        },
        {
          "components": [
            {
              "internalType": "uint256",
              "name": "initialSupply",
              "type": "uint256"
            },
            {
              "internalType": "uint256",
              "name": "minimumWeightChangeBlockPeriod",
              "type": "uint256"
            },
            {
              "internalType": "uint256",
              "name": "addTokenTimeLockInBlocks",
              "type": "uint256"
            }
          ],
          "internalType": "struct ConfigurableRightsPool.CrpParams",
          "name": "crpParams",
          "type": "tuple"
        },
        {
          "components": [
            {
              "internalType": "bool",
              "name": "canPauseSwapping",
              "type": "bool"
            },
            {
              "internalType": "bool",
              "name": "canChangeSwapFee",
              "type": "bool"
            },
            {
              "internalType": "bool",
              "name": "canChangeWeights",
              "type": "bool"
            },
            {
              "internalType": "bool",
              "name": "canAddRemoveTokens",
              "type": "bool"
            },
            {
              "internalType": "bool",
              "name": "canWhitelistLPs",
              "type": "bool"
            },
            {
              "internalType": "bool",
              "name": "canChangeCap",
              "type": "bool"
            }
          ],
          "internalType": "struct RightsManager.Rights",
          "name": "rights",
          "type": "tuple"
        }
      ],
      "name": "createSmartPool",
      "outputs": [
        {
          "internalType": "contract ConfigurableRightsPool",
          "name": "crp",
          "type": "address"
        }
      ],
      "stateMutability": "nonpayable",
      "type": "function"
    },
    {
      "inputs": [
        {
          "internalType": "contract ConfigurableRightsPool",
          "name": "crp",
          "type": "address"
        },
        {
          "internalType": "contract ERC20",
          "name": "token",
          "type": "address"
        },
        {
          "internalType": "uint256",
          "name": "newWeight",
          "type": "uint256"
        },
        {
          "internalType": "uint256",
          "name": "poolAmountIn",
          "type": "uint256"
        }
      ],
      "name": "decreaseWeight",
      "outputs": [],
      "stateMutability": "nonpayable",
      "type": "function"
    },
    {
      "inputs": [
        {
          "internalType": "contract BPool",
          "name": "pool",
          "type": "address"
        }
      ],
      "name": "finalize",
      "outputs": [],
      "stateMutability": "nonpayable",
      "type": "function"
    },
    {
      "inputs": [
        {
          "internalType": "contract ConfigurableRightsPool",
          "name": "crp",
          "type": "address"
        },
        {
          "internalType": "contract ERC20",
          "name": "token",
          "type": "address"
        },
        {
          "internalType": "uint256",
          "name": "newWeight",
          "type": "uint256"
        },
        {
          "internalType": "uint256",
          "name": "tokenAmountIn",
          "type": "uint256"
        }
      ],
      "name": "increaseWeight",
      "outputs": [],
      "stateMutability": "nonpayable",
      "type": "function"
    },
    {
      "inputs": [
        {
          "internalType": "contract BPool",
          "name": "pool",
          "type": "address"
        },
        {
          "internalType": "uint256",
          "name": "poolAmountOut",
          "type": "uint256"
        },
        {
          "internalType": "uint256[]",
          "name": "maxAmountsIn",
          "type": "uint256[]"
        }
      ],
      "name": "joinPool",
      "outputs": [],
      "stateMutability": "nonpayable",
      "type": "function"
    },
    {
      "inputs": [
        {
          "internalType": "contract ConfigurableRightsPool",
          "name": "pool",
          "type": "address"
        },
        {
          "internalType": "uint256",
          "name": "poolAmountOut",
          "type": "uint256"
        },
        {
          "internalType": "uint256[]",
          "name": "maxAmountsIn",
          "type": "uint256[]"
        }
      ],
      "name": "joinSmartPool",
      "outputs": [],
      "stateMutability": "nonpayable",
      "type": "function"
    },
    {
      "inputs": [
        {
          "internalType": "contract AbstractPool",
          "name": "pool",
          "type": "address"
        },
        {
          "internalType": "contract ERC20",
          "name": "token",
          "type": "address"
        },
        {
          "internalType": "uint256",
          "name": "tokenAmountIn",
          "type": "uint256"
        },
        {
          "internalType": "uint256",
          "name": "minPoolAmountOut",
          "type": "uint256"
        }
      ],
      "name": "joinswapExternAmountIn",
      "outputs": [],
      "stateMutability": "nonpayable",
      "type": "function"
    },
    {
      "inputs": [
        {
          "internalType": "contract ConfigurableRightsPool",
          "name": "crp",
          "type": "address"
        },
        {
          "internalType": "contract ERC20",
          "name": "token",
          "type": "address"
        },
        {
          "internalType": "uint256",
          "name": "poolAmountIn",
          "type": "uint256"
        }
      ],
      "name": "removeToken",
      "outputs": [],
      "stateMutability": "nonpayable",
      "type": "function"
    },
    {
      "inputs": [
        {
          "internalType": "contract ConfigurableRightsPool",
          "name": "crp",
          "type": "address"
        },
        {
          "internalType": "address",
          "name": "provider",
          "type": "address"
        }
      ],
      "name": "removeWhitelistedLiquidityProvider",
      "outputs": [],
      "stateMutability": "nonpayable",
      "type": "function"
    },
    {
      "inputs": [
        {
          "internalType": "contract ConfigurableRightsPool",
          "name": "crp",
          "type": "address"
        },
        {
          "internalType": "uint256",
          "name": "newCap",
          "type": "uint256"
        }
      ],
      "name": "setCap",
      "outputs": [],
      "stateMutability": "nonpayable",
      "type": "function"
    },
    {
      "inputs": [
        {
          "internalType": "contract AbstractPool",
          "name": "pool",
          "type": "address"
        },
        {
          "internalType": "address",
          "name": "newController",
          "type": "address"
        }
      ],
      "name": "setController",
      "outputs": [],
      "stateMutability": "nonpayable",
      "type": "function"
    },
    {
      "inputs": [
        {
          "internalType": "contract AbstractPool",
          "name": "pool",
          "type": "address"
        },
        {
          "internalType": "bool",
          "name": "publicSwap",
          "type": "bool"
        }
      ],
      "name": "setPublicSwap",
      "outputs": [],
      "stateMutability": "nonpayable",
      "type": "function"
    },
    {
      "inputs": [
        {
          "internalType": "contract AbstractPool",
          "name": "pool",
          "type": "address"
        },
        {
          "internalType": "uint256",
          "name": "newFee",
          "type": "uint256"
        }
      ],
      "name": "setSwapFee",
      "outputs": [],
      "stateMutability": "nonpayable",
      "type": "function"
    },
    {
      "inputs": [
        {
          "internalType": "contract BPool",
          "name": "pool",
          "type": "address"
        },
        {
          "internalType": "address[]",
          "name": "tokens",
          "type": "address[]"
        },
        {
          "internalType": "uint256[]",
          "name": "balances",
          "type": "uint256[]"
        },
        {
          "internalType": "uint256[]",
          "name": "denorms",
          "type": "uint256[]"
        }
      ],
      "name": "setTokens",
      "outputs": [],
      "stateMutability": "nonpayable",
      "type": "function"
    },
    {
      "inputs": [
        {
          "internalType": "contract ConfigurableRightsPool",
          "name": "crp",
          "type": "address"
        },
        {
          "internalType": "uint256[]",
          "name": "newWeights",
          "type": "uint256[]"
        },
        {
          "internalType": "uint256",
          "name": "startBlock",
          "type": "uint256"
        },
        {
          "internalType": "uint256",
          "name": "endBlock",
          "type": "uint256"
        }
      ],
      "name": "updateWeightsGradually",
      "outputs": [],
      "stateMutability": "nonpayable",
      "type": "function"
    },
    {
      "inputs": [
        {
          "internalType": "contract ConfigurableRightsPool",
          "name": "crp",
          "type": "address"
        },
        {
          "internalType": "address",
          "name": "provider",
          "type": "address"
        }
      ],
      "name": "whitelistLiquidityProvider",
      "outputs": [],
      "stateMutability": "nonpayable",
      "type": "function"
    }
  ],
  "bytecode": "0x608060405234801561001057600080fd5b506130e7806100206000396000f3fe608060405234801561001057600080fd5b50600436106101515760003560e01c806384f3859b116100cd578063a7f28da711610081578063c152e57911610066578063c152e5791461029e578063c1762b15146102b1578063e0d945bf146102c457610151565b8063a7f28da714610278578063c037f39c1461028b57610151565b8063991991c7116100b2578063991991c71461023f5780639c11bd17146102525780639fbbf3ba1461026557610151565b806384f3859b146102195780638a5c57df1461022c57610151565b80634ef39b75116101245780637b7d6c68116101095780637b7d6c68146101e057806380ad2cf3146101f357806381bd5cd71461020657610151565b80634ef39b75146101ba578063674f8d8e146101cd57610151565b80631a78a275146101565780631eccc1851461017f5780632c91a59114610194578063333fbeef146101a7575b600080fd5b610169610164366004612879565b6102d7565b6040516101769190612cf8565b60405180910390f35b61019261018d3660046127dc565b610781565b005b6101926101a2366004612a03565b6107e3565b6101926101b5366004612aec565b610912565b6101926101c83660046126ba565b610957565b6101926101db366004612809565b610abe565b6101926101ee3660046127a4565b610cd3565b61019261020136600461284e565b610d18565b610192610214366004612809565b610d5d565b610192610227366004612b63565b610e9c565b61019261023a366004612a03565b6110c7565b61019261024d36600461284e565b611102565b610192610260366004612afe565b61112e565b610192610273366004612809565b6111b2565b610192610286366004612aec565b611233565b610192610299366004612b63565b611278565b6101696102ac366004612a5d565b6113aa565b6101926102bf366004612809565b611712565b6101926102d236600461295a565b6118f8565b60008786146103015760405162461bcd60e51b81526004016102f890612eb9565b60405180910390fd5b8784146103205760405162461bcd60e51b81526004016102f890612eb9565b896001600160a01b031663d556c5dc6040518163ffffffff1660e01b8152600401602060405180830381600087803b15801561035b57600080fd5b505af115801561036f573d6000803e3d6000fd5b505050506040513d601f19601f82011682018060405250810190610393919061293e565b6040516334e1990760e01b81529091506001600160a01b038216906334e19907906103c2908690600401612f27565b600060405180830381600087803b1580156103dc57600080fd5b505af11580156103f0573d6000803e3d6000fd5b5050505060005b888110156105a45760008a8a8381811061040d57fe5b905060200201602081019061042291906126ba565b9050806001600160a01b03166323b872dd33308c8c8781811061044157fe5b905060200201356040518463ffffffff1660e01b815260040161046693929190612d0c565b602060405180830381600087803b15801561048057600080fd5b505af1158015610494573d6000803e3d6000fd5b505050506040513d601f19601f820116820180604052508101906104b89190612788565b6104d45760405162461bcd60e51b81526004016102f890612ef0565b6104f181848b8b868181106104e557fe5b90506020020135612116565b826001600160a01b031663e4e1e5388c8c8581811061050c57fe5b905060200201602081019061052191906126ba565b8b8b8681811061052d57fe5b905060200201358a8a8781811061054057fe5b905060200201356040518463ffffffff1660e01b815260040161056593929190612e66565b600060405180830381600087803b15801561057f57600080fd5b505af1158015610593573d6000803e3d6000fd5b5050600190930192506103f7915050565b50811561071457806001600160a01b0316634bb278f36040518163ffffffff1660e01b8152600401600060405180830381600087803b1580156105e657600080fd5b505af11580156105fa573d6000803e3d6000fd5b50506040516370a0823160e01b81526001600160a01b038416925063a9059cbb9150339083906370a0823190610634903090600401612cf8565b60206040518083038186803b15801561064c57600080fd5b505afa158015610660573d6000803e3d6000fd5b505050506040513d601f19601f820116820180604052508101906106849190612ba3565b6040518363ffffffff1660e01b81526004016106a1929190612d30565b602060405180830381600087803b1580156106bb57600080fd5b505af11580156106cf573d6000803e3d6000fd5b505050506040513d601f19601f820116820180604052508101906106f39190612788565b61070f5760405162461bcd60e51b81526004016102f890612ef0565b610774565b6040516324dacaa960e11b81526001600160a01b038216906349b595529061074190600190600401612eae565b600060405180830381600087803b15801561075b57600080fd5b505af115801561076f573d6000803e3d6000fd5b505050505b9998505050505050505050565b6040516324dacaa960e11b81526001600160a01b038316906349b59552906107ad908490600401612eae565b600060405180830381600087803b1580156107c757600080fd5b505af11580156107db573d6000803e3d6000fd5b505050505050565b6060846001600160a01b031663b64ef17b6040518163ffffffff1660e01b815260040160206040518083038186803b15801561081e57600080fd5b505afa158015610832573d6000803e3d6000fd5b505050506040513d601f19601f82011682018060405250810190610856919061293e565b6001600160a01b031663cc77828d6040518163ffffffff1660e01b815260040160006040518083038186803b15801561088e57600080fd5b505afa1580156108a2573d6000803e3d6000fd5b505050506040513d6000823e601f3d908101601f191682016040526108ca91908101906126dd565b905061090b8582868686808060200260200160405190810160405280939291908181526020018383602002808284376000920191909152506122b992505050565b5050505050565b6040517fc83a1c2d0000000000000000000000000000000000000000000000000000000081526001600160a01b0383169063c83a1c2d906107ad908490600401612cf8565b806001600160a01b0316634bb278f36040518163ffffffff1660e01b8152600401600060405180830381600087803b15801561099257600080fd5b505af11580156109a6573d6000803e3d6000fd5b50506040516370a0823160e01b81526001600160a01b038416925063a9059cbb9150339083906370a08231906109e0903090600401612cf8565b60206040518083038186803b1580156109f857600080fd5b505afa158015610a0c573d6000803e3d6000fd5b505050506040513d601f19601f82011682018060405250810190610a309190612ba3565b6040518363ffffffff1660e01b8152600401610a4d929190612d30565b602060405180830381600087803b158015610a6757600080fd5b505af1158015610a7b573d6000803e3d6000fd5b505050506040513d601f19601f82011682018060405250810190610a9f9190612788565b610abb5760405162461bcd60e51b81526004016102f890612ef0565b50565b6040516323b872dd60e01b81526001600160a01b038516906323b872dd90610aee90339030908690600401612d0c565b602060405180830381600087803b158015610b0857600080fd5b505af1158015610b1c573d6000803e3d6000fd5b505050506040513d601f19601f82011682018060405250810190610b409190612788565b610b5c5760405162461bcd60e51b81526004016102f890612ef0565b604051639776e94b60e01b81526001600160a01b03851690639776e94b90610b8a9086908690600401612d30565b600060405180830381600087803b158015610ba457600080fd5b505af1158015610bb8573d6000803e3d6000fd5b50506040516370a0823160e01b81526001600160a01b038616925063a9059cbb9150339083906370a0823190610bf2903090600401612cf8565b60206040518083038186803b158015610c0a57600080fd5b505afa158015610c1e573d6000803e3d6000fd5b505050506040513d601f19601f82011682018060405250810190610c429190612ba3565b6040518363ffffffff1660e01b8152600401610c5f929190612d30565b602060405180830381600087803b158015610c7957600080fd5b505af1158015610c8d573d6000803e3d6000fd5b505050506040513d601f19601f82011682018060405250810190610cb19190612788565b610ccd5760405162461bcd60e51b81526004016102f890612ef0565b50505050565b6040517f92eefe9b0000000000000000000000000000000000000000000000000000000081526001600160a01b038316906392eefe9b906107ad908490600401612cf8565b6040517f47786d370000000000000000000000000000000000000000000000000000000081526001600160a01b038316906347786d37906107ad908490600401612f27565b6040516323b872dd60e01b81526001600160a01b038416906323b872dd90610d8d90339030908690600401612d0c565b602060405180830381600087803b158015610da757600080fd5b505af1158015610dbb573d6000803e3d6000fd5b505050506040513d601f19601f82011682018060405250810190610ddf9190612788565b610dfb5760405162461bcd60e51b81526004016102f890612ef0565b610e06838583612116565b604051639776e94b60e01b81526001600160a01b03851690639776e94b90610e349086908690600401612d30565b600060405180830381600087803b158015610e4e57600080fd5b505af1158015610e62573d6000803e3d6000fd5b50506040516370a0823160e01b81526001600160a01b038716925063a9059cbb9150339083906370a0823190610bf2903090600401612cf8565b6040516323b872dd60e01b81526001600160a01b038416906323b872dd90610ecc90339030908690600401612d0c565b602060405180830381600087803b158015610ee657600080fd5b505af1158015610efa573d6000803e3d6000fd5b505050506040513d601f19601f82011682018060405250810190610f1e9190612788565b610f3a5760405162461bcd60e51b81526004016102f890612ef0565b6040517f5fa7b5840000000000000000000000000000000000000000000000000000000081526001600160a01b03841690635fa7b58490610f7f908590600401612cf8565b600060405180830381600087803b158015610f9957600080fd5b505af1158015610fad573d6000803e3d6000fd5b50506040516370a0823160e01b81526001600160a01b038516925063a9059cbb9150339083906370a0823190610fe7903090600401612cf8565b60206040518083038186803b158015610fff57600080fd5b505afa158015611013573d6000803e3d6000fd5b505050506040513d601f19601f820116820180604052508101906110379190612ba3565b6040518363ffffffff1660e01b8152600401611054929190612d30565b602060405180830381600087803b15801561106e57600080fd5b505af1158015611082573d6000803e3d6000fd5b505050506040513d601f19601f820116820180604052508101906110a69190612788565b6110c25760405162461bcd60e51b81526004016102f890612ef0565b505050565b6060846001600160a01b031663be3bbd2e6040518163ffffffff1660e01b815260040160006040518083038186803b15801561088e57600080fd5b6040516334e1990760e01b81526001600160a01b038316906334e19907906107ad908490600401612f27565b6040517f246bc19b0000000000000000000000000000000000000000000000000000000081526001600160a01b0386169063246bc19b90611179908790879087908790600401612e87565b600060405180830381600087803b15801561119357600080fd5b505af11580156111a7573d6000803e3d6000fd5b505050505050505050565b6040517f4c20d2090000000000000000000000000000000000000000000000000000000081526001600160a01b03851690634c20d209906111fb90869086908690600401612e66565b600060405180830381600087803b15801561121557600080fd5b505af1158015611229573d6000803e3d6000fd5b5050505050505050565b6040517fe2762d4b0000000000000000000000000000000000000000000000000000000081526001600160a01b0383169063e2762d4b906107ad908490600401612cf8565b6040516323b872dd60e01b81526001600160a01b038316906323b872dd906112a890339030908690600401612d0c565b602060405180830381600087803b1580156112c257600080fd5b505af11580156112d6573d6000803e3d6000fd5b505050506040513d601f19601f820116820180604052508101906112fa9190612788565b6113165760405162461bcd60e51b81526004016102f890612ef0565b611321828483612116565b826001600160a01b031663c275d81b6040518163ffffffff1660e01b8152600401600060405180830381600087803b15801561135c57600080fd5b505af1158015611370573d6000803e3d6000fd5b50506040516370a0823160e01b81526001600160a01b038616925063a9059cbb9150339083906370a0823190610fe7903090600401612cf8565b60006113b96060850185612f93565b90506113c86040860186612f93565b9050146113e75760405162461bcd60e51b81526004016102f890612eb9565b6113f46080850185612f93565b90506114036040860186612f93565b9050146114225760405162461bcd60e51b81526004016102f890612eb9565b6040517f4420002b0000000000000000000000000000000000000000000000000000000081526001600160a01b03871690634420002b9061146b90889088908790600401612d63565b602060405180830381600087803b15801561148557600080fd5b505af1158015611499573d6000803e3d6000fd5b505050506040513d601f19601f820116820180604052508101906114bd919061293e565b905060005b6114cf6040860186612f93565b90508110156115e85760006114e76040870187612f93565b838181106114f157fe5b905060200201602081019061150691906126ba565b90506001600160a01b0381166323b872dd333061152660608b018b612f93565b8781811061153057fe5b905060200201356040518463ffffffff1660e01b815260040161155593929190612d0c565b602060405180830381600087803b15801561156f57600080fd5b505af1158015611583573d6000803e3d6000fd5b505050506040513d601f19601f820116820180604052508101906115a79190612788565b6115c35760405162461bcd60e51b81526004016102f890612ef0565b6115df81846115d560608a018a612f93565b868181106104e557fe5b506001016114c2565b50604080517fc3391d270000000000000000000000000000000000000000000000000000000081526001600160a01b0383169163c3391d279161163a9187359160208901359189013590600401612f7d565b600060405180830381600087803b15801561165457600080fd5b505af1158015611668573d6000803e3d6000fd5b505060405163a9059cbb60e01b81526001600160a01b038416925063a9059cbb915061169b903390873590600401612d30565b602060405180830381600087803b1580156116b557600080fd5b505af11580156116c9573d6000803e3d6000fd5b505050506040513d601f19601f820116820180604052508101906116ed9190612788565b6117095760405162461bcd60e51b81526004016102f890612ef0565b95945050505050565b6040516323b872dd60e01b81526001600160a01b038416906323b872dd9061174290339030908790600401612d0c565b602060405180830381600087803b15801561175c57600080fd5b505af1158015611770573d6000803e3d6000fd5b505050506040513d601f19601f820116820180604052508101906117949190612788565b6117b05760405162461bcd60e51b81526004016102f890612ef0565b6117bb838584612116565b6040517f5db342770000000000000000000000000000000000000000000000000000000081526000906001600160a01b03861690635db342779061180790879087908790600401612e66565b602060405180830381600087803b15801561182157600080fd5b505af1158015611835573d6000803e3d6000fd5b505050506040513d601f19601f820116820180604052508101906118599190612ba3565b60405163a9059cbb60e01b81529091506001600160a01b0386169063a9059cbb9061188a9033908590600401612d30565b602060405180830381600087803b1580156118a457600080fd5b505af11580156118b8573d6000803e3d6000fd5b505050506040513d601f19601f820116820180604052508101906118dc9190612788565b61090b5760405162461bcd60e51b81526004016102f890612ef0565b8483146119175760405162461bcd60e51b81526004016102f890612eb9565b8481146119365760405162461bcd60e51b81526004016102f890612eb9565b60005b8581101561122957600087878381811061194f57fe5b905060200201602081019061196491906126ba565b9050886001600160a01b0316632f37b62489898581811061198157fe5b905060200201602081019061199691906126ba565b6040518263ffffffff1660e01b81526004016119b29190612cf8565b60206040518083038186803b1580156119ca57600080fd5b505afa1580156119de573d6000803e3d6000fd5b505050506040513d601f19601f82011682018060405250810190611a029190612788565b15611e0f57886001600160a01b031663f8b2cb4f898985818110611a2257fe5b9050602002016020810190611a3791906126ba565b6040518263ffffffff1660e01b8152600401611a539190612cf8565b60206040518083038186803b158015611a6b57600080fd5b505afa158015611a7f573d6000803e3d6000fd5b505050506040513d601f19601f82011682018060405250810190611aa39190612ba3565b868684818110611aaf57fe5b905060200201351115611cc357806001600160a01b03166323b872dd33308c6001600160a01b031663f8b2cb4f8d8d89818110611ae857fe5b9050602002016020810190611afd91906126ba565b6040518263ffffffff1660e01b8152600401611b199190612cf8565b60206040518083038186803b158015611b3157600080fd5b505afa158015611b45573d6000803e3d6000fd5b505050506040513d601f19601f82011682018060405250810190611b699190612ba3565b8a8a88818110611b7557fe5b90506020020135036040518463ffffffff1660e01b8152600401611b9b93929190612d0c565b602060405180830381600087803b158015611bb557600080fd5b505af1158015611bc9573d6000803e3d6000fd5b505050506040513d601f19601f82011682018060405250810190611bed9190612788565b611c095760405162461bcd60e51b81526004016102f890612ef0565b611cc3818a8b6001600160a01b031663f8b2cb4f8c8c88818110611c2957fe5b9050602002016020810190611c3e91906126ba565b6040518263ffffffff1660e01b8152600401611c5a9190612cf8565b60206040518083038186803b158015611c7257600080fd5b505afa158015611c86573d6000803e3d6000fd5b505050506040513d601f19601f82011682018060405250810190611caa9190612ba3565b898987818110611cb657fe5b9050602002013503612116565b620f4240868684818110611cd357fe5b905060200201351115611d8b57886001600160a01b0316633fdddaa2898985818110611cfb57fe5b9050602002016020810190611d1091906126ba565b888886818110611d1c57fe5b90506020020135878787818110611d2f57fe5b905060200201356040518463ffffffff1660e01b8152600401611d5493929190612e66565b600060405180830381600087803b158015611d6e57600080fd5b505af1158015611d82573d6000803e3d6000fd5b50505050611e0a565b886001600160a01b031663cf5e7bd3898985818110611da657fe5b9050602002016020810190611dbb91906126ba565b6040518263ffffffff1660e01b8152600401611dd79190612cf8565b600060405180830381600087803b158015611df157600080fd5b505af1158015611e05573d6000803e3d6000fd5b505050505b611f77565b806001600160a01b03166323b872dd3330898987818110611e2c57fe5b905060200201356040518463ffffffff1660e01b8152600401611e5193929190612d0c565b602060405180830381600087803b158015611e6b57600080fd5b505af1158015611e7f573d6000803e3d6000fd5b505050506040513d601f19601f82011682018060405250810190611ea39190612788565b611ebf5760405162461bcd60e51b81526004016102f890612ef0565b611ed0818a8888868181106104e557fe5b886001600160a01b031663e4e1e538898985818110611eeb57fe5b9050602002016020810190611f0091906126ba565b888886818110611f0c57fe5b90506020020135878787818110611f1f57fe5b905060200201356040518463ffffffff1660e01b8152600401611f4493929190612e66565b600060405180830381600087803b158015611f5e57600080fd5b505af1158015611f72573d6000803e3d6000fd5b505050505b6040516370a0823160e01b81526000906001600160a01b038316906370a0823190611fa6903090600401612cf8565b60206040518083038186803b158015611fbe57600080fd5b505afa158015611fd2573d6000803e3d6000fd5b505050506040513d601f19601f82011682018060405250810190611ff69190612ba3565b111561210d576040516370a0823160e01b81526001600160a01b0382169063a9059cbb90339083906370a0823190612032903090600401612cf8565b60206040518083038186803b15801561204a57600080fd5b505afa15801561205e573d6000803e3d6000fd5b505050506040513d601f19601f820116820180604052508101906120829190612ba3565b6040518363ffffffff1660e01b815260040161209f929190612d30565b602060405180830381600087803b1580156120b957600080fd5b505af11580156120cd573d6000803e3d6000fd5b505050506040513d601f19601f820116820180604052508101906120f19190612788565b61210d5760405162461bcd60e51b81526004016102f890612ef0565b50600101611939565b6040517fdd62ed3e0000000000000000000000000000000000000000000000000000000081526000906001600160a01b0385169063dd62ed3e906121609030908790600401612d49565b60206040518083038186803b15801561217857600080fd5b505afa15801561218c573d6000803e3d6000fd5b505050506040513d601f19601f820116820180604052508101906121b09190612ba3565b11156122395760405163095ea7b360e01b81526001600160a01b0384169063095ea7b3906121e5908590600090600401612d30565b602060405180830381600087803b1580156121ff57600080fd5b505af1158015612213573d6000803e3d6000fd5b505050506040513d601f19601f820116820180604052508101906122379190612788565b505b60405163095ea7b360e01b81526001600160a01b0384169063095ea7b3906122679085908590600401612d30565b602060405180830381600087803b15801561228157600080fd5b505af1158015612295573d6000803e3d6000fd5b505050506040513d601f19601f82011682018060405250810190610ccd9190612788565b82518151146122da5760405162461bcd60e51b81526004016102f890612eb9565b60005b83518110156123d65760008482815181106122f457fe5b60200260200101519050806001600160a01b03166323b872dd333086868151811061231b57fe5b60200260200101516040518463ffffffff1660e01b815260040161234193929190612d0c565b602060405180830381600087803b15801561235b57600080fd5b505af115801561236f573d6000803e3d6000fd5b505050506040513d601f19601f820116820180604052508101906123939190612788565b6123af5760405162461bcd60e51b81526004016102f890612ef0565b6123cd81878585815181106123c057fe5b6020026020010151612116565b506001016122dd565b506040517f4f69c0d40000000000000000000000000000000000000000000000000000000081526001600160a01b03851690634f69c0d49061241e9085908590600401612f30565b600060405180830381600087803b15801561243857600080fd5b505af115801561244c573d6000803e3d6000fd5b5050505060005b835181101561261257600084828151811061246a57fe5b602002602001015190506000816001600160a01b03166370a08231306040518263ffffffff1660e01b81526004016124a29190612cf8565b60206040518083038186803b1580156124ba57600080fd5b505afa1580156124ce573d6000803e3d6000fd5b505050506040513d601f19601f820116820180604052508101906124f29190612ba3565b1115612609576040516370a0823160e01b81526001600160a01b0382169063a9059cbb90339083906370a082319061252e903090600401612cf8565b60206040518083038186803b15801561254657600080fd5b505afa15801561255a573d6000803e3d6000fd5b505050506040513d601f19601f8201168201806040525081019061257e9190612ba3565b6040518363ffffffff1660e01b815260040161259b929190612d30565b602060405180830381600087803b1580156125b557600080fd5b505af11580156125c9573d6000803e3d6000fd5b505050506040513d601f19601f820116820180604052508101906125ed9190612788565b6126095760405162461bcd60e51b81526004016102f890612ef0565b50600101612453565b506040516370a0823160e01b81526001600160a01b0385169063a9059cbb90339083906370a0823190610bf2903090600401612cf8565b80516126548161308e565b92915050565b60008083601f84011261266b578182fd5b50813567ffffffffffffffff811115612682578182fd5b602083019150836020808302850101111561269c57600080fd5b9250929050565b600060c082840312156126b4578081fd5b50919050565b6000602082840312156126cb578081fd5b81356126d68161308e565b9392505050565b600060208083850312156126ef578182fd5b825167ffffffffffffffff80821115612706578384fd5b818501915085601f830112612719578384fd5b815181811115612727578485fd5b8381029150612737848301612fda565b8181528481019084860184860187018a1015612751578788fd5b8795505b8386101561277b576127678a82612649565b835260019590950194918601918601612755565b5098975050505050505050565b600060208284031215612799578081fd5b81516126d6816130a3565b600080604083850312156127b6578081fd5b82356127c18161308e565b915060208301356127d18161308e565b809150509250929050565b600080604083850312156127ee578182fd5b82356127f98161308e565b915060208301356127d1816130a3565b6000806000806080858703121561281e578182fd5b84356128298161308e565b935060208501356128398161308e565b93969395505050506040820135916060013590565b60008060408385031215612860578182fd5b823561286b8161308e565b946020939093013593505050565b600080600080600080600080600060c08a8c031215612896578485fd5b89356128a18161308e565b985060208a013567ffffffffffffffff808211156128bd578687fd5b6128c98d838e0161265a565b909a50985060408c01359150808211156128e1578687fd5b6128ed8d838e0161265a565b909850965060608c0135915080821115612905578586fd5b506129128c828d0161265a565b90955093505060808a0135915060a08a013561292d816130a3565b809150509295985092959850929598565b60006020828403121561294f578081fd5b81516126d68161308e565b60008060008060008060006080888a031215612974578081fd5b873561297f8161308e565b9650602088013567ffffffffffffffff8082111561299b578283fd5b6129a78b838c0161265a565b909850965060408a01359150808211156129bf578283fd5b6129cb8b838c0161265a565b909650945060608a01359150808211156129e3578283fd5b506129f08a828b0161265a565b989b979a50959850939692959293505050565b60008060008060608587031215612a18578182fd5b8435612a238161308e565b935060208501359250604085013567ffffffffffffffff811115612a45578283fd5b612a518782880161265a565b95989497509550505050565b6000806000806000858703610180811215612a76578384fd5b8635612a818161308e565b95506020870135612a918161308e565b9450604087013567ffffffffffffffff811115612aac578485fd5b612ab889828a016126a3565b9450506060605f1982011215612acc578182fd5b50606086019150612ae08760c088016126a3565b90509295509295909350565b600080604083850312156127b6578182fd5b600080600080600060808688031215612b15578283fd5b8535612b208161308e565b9450602086013567ffffffffffffffff811115612b3b578384fd5b612b478882890161265a565b9699909850959660408101359660609091013595509350505050565b600080600060608486031215612b77578081fd5b8335612b828161308e565b92506020840135612b928161308e565b929592945050506040919091013590565b600060208284031215612bb4578081fd5b5051919050565b60008284526020808501945082825b85811015612bf8578135612bdd8161308e565b6001600160a01b031687529582019590820190600101612bca565b509495945050505050565b60008284527f07ffffffffffffffffffffffffffffffffffffffffffffffffffffffffffffff831115612c34578081fd5b6020830280836020870137939093016020019283525090919050565b60008284528282602086013780602084860101526020601f19601f85011685010190509392505050565b8035612c85816130a3565b151582526020810135612c97816130a3565b151560208301526040810135612cac816130a3565b151560408301526060810135612cc1816130a3565b151560608301526080810135612cd6816130a3565b1515608083015260a0810135612ceb816130a3565b80151560a0840152505050565b6001600160a01b0391909116815260200190565b6001600160a01b039384168152919092166020820152604081019190915260600190565b6001600160a01b03929092168252602082015260400190565b6001600160a01b0392831681529116602082015260400190565b60006101006001600160a01b0386168352806020840152612d848586613049565b60c083860152612d996101c086018284612c50565b92505050612daa6020860186613049565b60ff198086850301610120870152612dc3848385612c50565b9350612dd26040890189613001565b935091508086850301610140870152612dec848484612bbb565b9350612dfb6060890189613001565b935091508086850301610160870152612e15848484612c03565b9350612e246080890189613001565b93509150808685030161018087015250612e3f838383612c03565b60a08801356101a08701529350612e5e92505060408401905084612c7a565b949350505050565b6001600160a01b039390931683526020830191909152604082015260600190565b600060608252612e9b606083018688612c03565b6020830194909452506040015292915050565b901515815260200190565b60208082526013908201527f4552525f4c454e4754485f4d49534d4154434800000000000000000000000000604082015260600190565b60208082526013908201527f4552525f5452414e534645525f4641494c454400000000000000000000000000604082015260600190565b90815260200190565b60006040820184835260206040818501528185518084526060860191508287019350845b81811015612f7057845183529383019391830191600101612f54565b5090979650505050505050565b9283526020830191909152604082015260600190565b6000808335601e19843603018112612fa9578283fd5b83018035915067ffffffffffffffff821115612fc3578283fd5b602090810192508102360382131561269c57600080fd5b60405181810167ffffffffffffffff81118282101715612ff957600080fd5b604052919050565b6000808335601e19843603018112613017578283fd5b830160208101925035905067ffffffffffffffff81111561303757600080fd5b60208102360383131561269c57600080fd5b6000808335601e1984360301811261305f578283fd5b830160208101925035905067ffffffffffffffff81111561307f57600080fd5b80360383131561269c57600080fd5b6001600160a01b0381168114610abb57600080fd5b8015158114610abb57600080fdfea2646970667358221220fdd052d5cae8769a92e7f904aa9d597ee277050ed6000f267c770268092ac37c64736f6c634300060c0033",
  "linkReferences": {},
  "deployedLinkReferences": {}
}