{
  "_format": "hh-sol-artifact-1",
  "contractName": "SmartPoolManager",
  "sourceName": "contracts/test/SmartPoolManager.sol",
  "abi": [
    {
      "inputs": [
        {
          "internalType": "contract ConfigurableRightsPool",
          "name": "self",
          "type": "ConfigurableRightsPool"
        },
        {
          "internalType": "contract IBPool",
          "name": "BPool",
          "type": "IBPool"
        },
        {
          "internalType": "uint256",
          "name": "poolAmountIn",
          "type": "uint256"
        },
        {
          "internalType": "uint256[]",
          "name": "minAmountsOut",
          "type": "uint256[]"
        }
      ],
      "name": "exitPool",
      "outputs": [
        {
          "internalType": "uint256",
          "name": "exitFee",
          "type": "uint256"
        },
        {
          "internalType": "uint256",
          "name": "pAiAfterExitFee",
          "type": "uint256"
        },
        {
          "internalType": "uint256[]",
          "name": "actualAmountsOut",
          "type": "uint256[]"
        }
      ],
      "stateMutability": "view",
      "type": "function"
    },
    {
      "inputs": [
        {
          "internalType": "contract ConfigurableRightsPool",
          "name": "self",
          "type": "ConfigurableRightsPool"
        },
        {
          "internalType": "contract IBPool",
          "name": "BPool",
          "type": "IBPool"
        },
        {
          "internalType": "address",
          "name": "tokenOut",
          "type": "address"
        },
        {
          "internalType": "uint256",
          "name": "tokenAmountOut",
          "type": "uint256"
        },
        {
          "internalType": "uint256",
          "name": "maxPoolAmountIn",
          "type": "uint256"
        }
      ],
      "name": "exitswapExternAmountOut",
      "outputs": [
        {
          "internalType": "uint256",
          "name": "exitFee",
          "type": "uint256"
        },
        {
          "internalType": "uint256",
          "name": "poolAmountIn",
          "type": "uint256"
        }
      ],
      "stateMutability": "view",
      "type": "function"
    },
    {
      "inputs": [
        {
          "internalType": "contract ConfigurableRightsPool",
          "name": "self",
          "type": "ConfigurableRightsPool"
        },
        {
          "internalType": "contract IBPool",
          "name": "BPool",
          "type": "IBPool"
        },
        {
          "internalType": "address",
          "name": "tokenOut",
          "type": "address"
        },
        {
          "internalType": "uint256",
          "name": "poolAmountIn",
          "type": "uint256"
        },
        {
          "internalType": "uint256",
          "name": "minAmountOut",
          "type": "uint256"
        }
      ],
      "name": "exitswapPoolAmountIn",
      "outputs": [
        {
          "internalType": "uint256",
          "name": "exitFee",
          "type": "uint256"
        },
        {
          "internalType": "uint256",
          "name": "tokenAmountOut",
          "type": "uint256"
        }
      ],
      "stateMutability": "view",
      "type": "function"
    },
    {
      "inputs": [
        {
          "internalType": "contract ConfigurableRightsPool",
          "name": "self",
          "type": "ConfigurableRightsPool"
        },
        {
          "internalType": "contract IBPool",
          "name": "BPool",
          "type": "IBPool"
        },
        {
          "internalType": "uint256",
          "name": "poolAmountOut",
          "type": "uint256"
        },
        {
          "internalType": "uint256[]",
          "name": "maxAmountsIn",
          "type": "uint256[]"
        }
      ],
      "name": "joinPool",
      "outputs": [
        {
          "internalType": "uint256[]",
          "name": "actualAmountsIn",
          "type": "uint256[]"
        }
      ],
      "stateMutability": "view",
      "type": "function"
    },
    {
      "inputs": [
        {
          "internalType": "contract ConfigurableRightsPool",
          "name": "self",
          "type": "ConfigurableRightsPool"
        },
        {
          "internalType": "contract IBPool",
          "name": "BPool",
          "type": "IBPool"
        },
        {
          "internalType": "address",
          "name": "tokenIn",
          "type": "address"
        },
        {
          "internalType": "uint256",
          "name": "tokenAmountIn",
          "type": "uint256"
        },
        {
          "internalType": "uint256",
          "name": "minPoolAmountOut",
          "type": "uint256"
        }
      ],
      "name": "joinswapExternAmountIn",
      "outputs": [
        {
          "internalType": "uint256",
          "name": "poolAmountOut",
          "type": "uint256"
        }
      ],
      "stateMutability": "view",
      "type": "function"
    },
    {
      "inputs": [
        {
          "internalType": "contract ConfigurableRightsPool",
          "name": "self",
          "type": "ConfigurableRightsPool"
        },
        {
          "internalType": "contract IBPool",
          "name": "BPool",
          "type": "IBPool"
        },
        {
          "internalType": "address",
          "name": "tokenIn",
          "type": "address"
        },
        {
          "internalType": "uint256",
          "name": "poolAmountOut",
          "type": "uint256"
        },
        {
          "internalType": "uint256",
          "name": "maxAmountIn",
          "type": "uint256"
        }
      ],
      "name": "joinswapPoolAmountOut",
      "outputs": [
        {
          "internalType": "uint256",
          "name": "tokenAmountIn",
          "type": "uint256"
        }
      ],
      "stateMutability": "view",
      "type": "function"
    }
  ],
  "bytecode": "0x614185610026600b82828239805160001a60731461001957fe5b30600052607381538281f3fe73000000000000000000000000000000000000000030146080604052600436106100f45760003560e01c80637386a32411610096578063c8ebc9ab11610070578063c8ebc9ab14610238578063cfc312091461024b578063d8731c331461026b578063e8eb23761461028b576100f4565b80637386a324146101e557806377d44349146101f8578063b489ec1914610218576100f4565b806344ec7c68116100d257806344ec7c68146101645780635977141d1461018457806368c3dd2a146101a45780636f50bd5d146101c5576100f4565b80631135eba0146100f95780631c1af1361461012257806341768e0b14610144575b600080fd5b61010c61010736600461381c565b6102ad565b6040516101199190613aa0565b60405180910390f35b81801561012e57600080fd5b5061014261013d3660046135e5565b61057b565b005b81801561015057600080fd5b5061014261015f36600461388d565b610587565b81801561017057600080fd5b5061014261017f366004613772565b6109d0565b81801561019057600080fd5b5061014261019f36600461394d565b6110bb565b6101b76101b23660046137c2565b6113b4565b6040516101199291906140be565b6101d86101d33660046137c2565b6117fa565b60405161011991906140b5565b6101b76101f33660046137c2565b611c32565b81801561020457600080fd5b5061014261021336600461361d565b61202b565b81801561022457600080fd5b506101426102333660046138d2565b61206c565b6101d86102463660046137c2565b61227d565b81801561025757600080fd5b50610142610266366004613728565b61266b565b81801561027757600080fd5b50610142610286366004613922565b612abe565b61029e61029936600461381c565b612e40565b604051610119939291906140cc565b606080856001600160a01b031663cc77828d6040518163ffffffff1660e01b815260040160006040518083038186803b1580156102e957600080fd5b505afa1580156102fd573d6000803e3d6000fd5b505050506040513d6000823e601f3d908101601f19168201604052610325919081019061365d565b805190915083146103515760405162461bcd60e51b815260040161034890613ca0565b60405180910390fd5b6000876001600160a01b03166318160ddd6040518163ffffffff1660e01b815260040160206040518083038186803b15801561038c57600080fd5b505afa1580156103a0573d6000803e3d6000fd5b505050506040513d601f19601f820116820180604052508101906103c491906139c2565b905060006103dc876103d7846001613119565b613154565b9050806103fb5760405162461bcd60e51b815260040161034890613bfb565b825167ffffffffffffffff8111801561041357600080fd5b5060405190808252806020026020018201604052801561043d578160200160208202803683370190505b50935060005b835181101561056e57600084828151811061045a57fe5b6020026020010151905060008a6001600160a01b031663f8b2cb4f836040518263ffffffff1660e01b81526004016104929190613a14565b60206040518083038186803b1580156104aa57600080fd5b505afa1580156104be573d6000803e3d6000fd5b505050506040513d601f19601f820116820180604052508101906104e291906139c2565b905060006104fa856104f58460016131f0565b61321c565b9050806105195760405162461bcd60e51b815260040161034890613bfb565b89898581811061052557fe5b9050602002013581111561054b5760405162461bcd60e51b815260040161034890613db3565b8088858151811061055857fe5b6020908102919091010152505050600101610443565b5050505095945050505050565b61058481613292565b50565b8054600160a01b900460ff166105af5760405162461bcd60e51b815260040161034890613ab3565b816105be438360010154613119565b10156105dc5760405162461bcd60e51b815260040161034890613efd565b6000846001600160a01b03166318160ddd6040518163ffffffff1660e01b815260040160206040518083038186803b15801561061757600080fd5b505afa15801561062b573d6000803e3d6000fd5b505050506040513d601f19601f8201168201806040525081019061064f91906139c2565b905060006106d561066483856002015461321c565b866001600160a01b031663936c34776040518163ffffffff1660e01b815260040160206040518083038186803b15801561069d57600080fd5b505afa1580156106b1573d6000803e3d6000fd5b505050506040513d601f19601f820116820180604052508101906103d791906139c2565b835460ff60a01b1981168555604080517f3018205f00000000000000000000000000000000000000000000000000000000815290519293506000926001600160a01b03928316926323b872dd92908b1691633018205f91600480820192602092909190829003018186803b15801561074c57600080fd5b505afa158015610760573d6000803e3d6000fd5b505050506040513d601f19601f820116820180604052508101906107849190613601565b8987600301546040518463ffffffff1660e01b81526004016107a893929190613a28565b602060405180830381600087803b1580156107c257600080fd5b505af11580156107d6573d6000803e3d6000fd5b505050506040513d601f19601f820116820180604052508101906107fa9190613708565b9050806108195760405162461bcd60e51b815260040161034890614010565b8354610831906001600160a01b031687600019613334565b9050806108505760405162461bcd60e51b815260040161034890614010565b8354600385015460028601546040517fe4e1e5380000000000000000000000000000000000000000000000000000000081526001600160a01b03808b169463e4e1e538946108a5949190921692600401613a7f565b600060405180830381600087803b1580156108bf57600080fd5b505af11580156108d3573d6000803e3d6000fd5b50506040517f4ba578820000000000000000000000000000000000000000000000000000000081526001600160a01b038a169250634ba57882915061091c9085906004016140b5565b600060405180830381600087803b15801561093657600080fd5b505af115801561094a573d6000803e3d6000fd5b50506040517f095dcccc0000000000000000000000000000000000000000000000000000000081526001600160a01b038a16925063095dcccc91506109959033908690600401613a4c565b600060405180830381600087803b1580156109af57600080fd5b505af11580156109c3573d6000803e3d6000fd5b5050505050505050505050565b670de0b6b3a76400008110156109f85760405162461bcd60e51b815260040161034890613e8f565b6802b5e3af16b1880000811115610a215760405162461bcd60e51b815260040161034890613c32565b604051634a46c67360e11b81526000906001600160a01b0385169063948d8ce690610a50908690600401613a14565b60206040518083038186803b158015610a6857600080fd5b505afa158015610a7c573d6000803e3d6000fd5b505050506040513d601f19601f82011682018060405250810190610aa091906139c2565b905081811415610ab057506110b5565b60405163f8b2cb4f60e01b81526000906001600160a01b0386169063f8b2cb4f90610adf908790600401613a14565b60206040518083038186803b158015610af757600080fd5b505afa158015610b0b573d6000803e3d6000fd5b505050506040513d601f19601f82011682018060405250810190610b2f91906139c2565b90506000866001600160a01b03166318160ddd6040518163ffffffff1660e01b815260040160206040518083038186803b158015610b6c57600080fd5b505afa158015610b80573d6000803e3d6000fd5b505050506040513d601f19601f82011682018060405250810190610ba491906139c2565b90506000866001600160a01b031663936c34776040518163ffffffff1660e01b815260040160206040518083038186803b158015610be157600080fd5b505afa158015610bf5573d6000803e3d6000fd5b505050506040513d601f19601f82011682018060405250810190610c1991906139c2565b905060008060008087891015610e8057610c33888a613119565b9150610c43866104f58488613154565b9350610c53876104f5848b613154565b9250610c5f8784613119565b905064e8d4a51000811015610c865760405162461bcd60e51b815260040161034890613d0e565b6040517f3fdddaa20000000000000000000000000000000000000000000000000000000081526001600160a01b038c1690633fdddaa290610ccf908d9085908e90600401613a7f565b600060405180830381600087803b158015610ce957600080fd5b505af1158015610cfd573d6000803e3d6000fd5b505060405163a9059cbb60e01b8152600092506001600160a01b038d16915063a9059cbb90610d329033908890600401613a4c565b602060405180830381600087803b158015610d4c57600080fd5b505af1158015610d60573d6000803e3d6000fd5b505050506040513d601f19601f82011682018060405250810190610d849190613708565b905080610da35760405162461bcd60e51b815260040161034890614010565b6040517f55c32a230000000000000000000000000000000000000000000000000000000081526001600160a01b038e16906355c32a2390610dea9033908990600401613a4c565b600060405180830381600087803b158015610e0457600080fd5b505af1158015610e18573d6000803e3d6000fd5b505050508c6001600160a01b031663220eb760866040518263ffffffff1660e01b8152600401610e4891906140b5565b600060405180830381600087803b158015610e6257600080fd5b505af1158015610e76573d6000803e3d6000fd5b50505050506110ac565b610e8a8989613119565b91506802b5e3af16b1880000610ea086846131f0565b1115610ebe5760405162461bcd60e51b815260040161034890613c69565b610ecc866104f58488613154565b9350610edc876104f5848b613154565b925060008a6001600160a01b03166323b872dd3330876040518463ffffffff1660e01b8152600401610f1093929190613a28565b602060405180830381600087803b158015610f2a57600080fd5b505af1158015610f3e573d6000803e3d6000fd5b505050506040513d601f19601f82011682018060405250810190610f629190613708565b905080610f815760405162461bcd60e51b815260040161034890614010565b8b6001600160a01b0316633fdddaa28c610f9b8b886131f0565b8d6040518463ffffffff1660e01b8152600401610fba93929190613a7f565b600060405180830381600087803b158015610fd457600080fd5b505af1158015610fe8573d6000803e3d6000fd5b505050508c6001600160a01b0316634ba57882866040518263ffffffff1660e01b815260040161101891906140b5565b600060405180830381600087803b15801561103257600080fd5b505af1158015611046573d6000803e3d6000fd5b505050508c6001600160a01b031663095dcccc33876040518363ffffffff1660e01b8152600401611078929190613a4c565b600060405180830381600087803b15801561109257600080fd5b505af11580156110a6573d6000803e3d6000fd5b50505050505b50505050505050505b50505050565b806110c68385613119565b10156110e45760405162461bcd60e51b815260040161034890613b21565b8143106111035760405162461bcd60e51b815260040161034890613aea565b6060876001600160a01b031663cc77828d6040518163ffffffff1660e01b815260040160006040518083038186803b15801561113e57600080fd5b505afa158015611152573d6000803e3d6000fd5b505050506040513d6000823e601f3d908101601f1916820160405261117a919081019061365d565b8051909150851461119d5760405162461bcd60e51b815260040161034890613b56565b6000815167ffffffffffffffff811180156111b757600080fd5b506040519080825280602002602001820160405280156111e1578160200160208202803683370190505b5080516111f89160028b01916020909101906134fd565b5060005b825181101561134a576802b5e3af16b188000088888381811061121b57fe5b9050602002013511156112405760405162461bcd60e51b815260040161034890613ec6565b670de0b6b3a764000088888381811061125557fe5b90506020020135101561127a5760405162461bcd60e51b815260040161034890613dea565b6112968289898481811061128a57fe5b905060200201356131f0565b9150896001600160a01b031663948d8ce68483815181106112b357fe5b60200260200101516040518263ffffffff1660e01b81526004016112d79190613a14565b60206040518083038186803b1580156112ef57600080fd5b505afa158015611303573d6000803e3d6000fd5b505050506040513d601f19601f8201168201806040525081019061132791906139c2565b89600201828154811061133657fe5b6000918252602090912001556001016111fc565b506802b5e3af16b18800008111156113745760405162461bcd60e51b815260040161034890613c69565b844311801561138257508343105b1561138f57438855611393565b8488555b600188018490556113a8600389018888613548565b50505050505050505050565b600080856001600160a01b0316632f37b624866040518263ffffffff1660e01b81526004016113e39190613a14565b60206040518083038186803b1580156113fb57600080fd5b505afa15801561140f573d6000803e3d6000fd5b505050506040513d601f19601f820116820180604052508101906114339190613708565b61144f5760405162461bcd60e51b815260040161034890613e58565b60405163f8b2cb4f60e01b81526001600160a01b03871690638929801290829063f8b2cb4f90611483908a90600401613a14565b60206040518083038186803b15801561149b57600080fd5b505afa1580156114af573d6000803e3d6000fd5b505050506040513d601f19601f820116820180604052508101906114d391906139c2565b604051634a46c67360e11b81526001600160a01b038a169063948d8ce6906114ff908b90600401613a14565b60206040518083038186803b15801561151757600080fd5b505afa15801561152b573d6000803e3d6000fd5b505050506040513d601f19601f8201168201806040525081019061154f91906139c2565b8a6001600160a01b03166318160ddd6040518163ffffffff1660e01b815260040160206040518083038186803b15801561158857600080fd5b505afa15801561159c573d6000803e3d6000fd5b505050506040513d601f19601f820116820180604052508101906115c091906139c2565b8a6001600160a01b031663936c34776040518163ffffffff1660e01b815260040160206040518083038186803b1580156115f957600080fd5b505afa15801561160d573d6000803e3d6000fd5b505050506040513d601f19601f8201168201806040525081019061163191906139c2565b898c6001600160a01b031663d4cadf686040518163ffffffff1660e01b815260040160206040518083038186803b15801561166b57600080fd5b505afa15801561167f573d6000803e3d6000fd5b505050506040513d601f19601f820116820180604052508101906116a391906139c2565b6040518763ffffffff1660e01b81526004016116c4969594939291906140eb565b60206040518083038186803b1580156116dc57600080fd5b505afa1580156116f0573d6000803e3d6000fd5b505050506040513d601f19601f8201168201806040525081019061171491906139c2565b9050828110156117365760405162461bcd60e51b815260040161034890613cd7565b60405163f8b2cb4f60e01b81526117c4906001600160a01b0388169063f8b2cb4f90611766908990600401613a14565b60206040518083038186803b15801561177e57600080fd5b505afa158015611792573d6000803e3d6000fd5b505050506040513d601f19601f820116820180604052508101906117b691906139c2565b6704a03ce68d21555661321c565b8111156117e35760405162461bcd60e51b815260040161034890613e21565b6117ee84600061321c565b91509550959350505050565b604051630bcded8960e21b81526000906001600160a01b03861690632f37b62490611829908790600401613a14565b60206040518083038186803b15801561184157600080fd5b505afa158015611855573d6000803e3d6000fd5b505050506040513d601f19601f820116820180604052508101906118799190613708565b6118955760405162461bcd60e51b815260040161034890613e58565b60405163f8b2cb4f60e01b8152611923906001600160a01b0387169063f8b2cb4f906118c5908890600401613a14565b60206040518083038186803b1580156118dd57600080fd5b505afa1580156118f1573d6000803e3d6000fd5b505050506040513d601f19601f8201168201806040525081019061191591906139c2565b6706f05b59d3b2000061321c565b8311156119425760405162461bcd60e51b815260040161034890613bc4565b60405163f8b2cb4f60e01b81526001600160a01b03861690638656b65390829063f8b2cb4f90611976908990600401613a14565b60206040518083038186803b15801561198e57600080fd5b505afa1580156119a2573d6000803e3d6000fd5b505050506040513d601f19601f820116820180604052508101906119c691906139c2565b604051634a46c67360e11b81526001600160a01b0389169063948d8ce6906119f2908a90600401613a14565b60206040518083038186803b158015611a0a57600080fd5b505afa158015611a1e573d6000803e3d6000fd5b505050506040513d601f19601f82011682018060405250810190611a4291906139c2565b896001600160a01b03166318160ddd6040518163ffffffff1660e01b815260040160206040518083038186803b158015611a7b57600080fd5b505afa158015611a8f573d6000803e3d6000fd5b505050506040513d601f19601f82011682018060405250810190611ab391906139c2565b896001600160a01b031663936c34776040518163ffffffff1660e01b815260040160206040518083038186803b158015611aec57600080fd5b505afa158015611b00573d6000803e3d6000fd5b505050506040513d601f19601f82011682018060405250810190611b2491906139c2565b888b6001600160a01b031663d4cadf686040518163ffffffff1660e01b815260040160206040518083038186803b158015611b5e57600080fd5b505afa158015611b72573d6000803e3d6000fd5b505050506040513d601f19601f82011682018060405250810190611b9691906139c2565b6040518763ffffffff1660e01b8152600401611bb7969594939291906140eb565b60206040518083038186803b158015611bcf57600080fd5b505afa158015611be3573d6000803e3d6000fd5b505050506040513d601f19601f82011682018060405250810190611c0791906139c2565b905081811015611c295760405162461bcd60e51b815260040161034890613cd7565b95945050505050565b600080856001600160a01b0316632f37b624866040518263ffffffff1660e01b8152600401611c619190613a14565b60206040518083038186803b158015611c7957600080fd5b505afa158015611c8d573d6000803e3d6000fd5b505050506040513d601f19601f82011682018060405250810190611cb19190613708565b611ccd5760405162461bcd60e51b815260040161034890613e58565b60405163f8b2cb4f60e01b8152611cfd906001600160a01b0388169063f8b2cb4f90611766908990600401613a14565b841115611d1c5760405162461bcd60e51b815260040161034890613e21565b60405163f8b2cb4f60e01b81526001600160a01b038716906382f652ad90829063f8b2cb4f90611d50908a90600401613a14565b60206040518083038186803b158015611d6857600080fd5b505afa158015611d7c573d6000803e3d6000fd5b505050506040513d601f19601f82011682018060405250810190611da091906139c2565b604051634a46c67360e11b81526001600160a01b038a169063948d8ce690611dcc908b90600401613a14565b60206040518083038186803b158015611de457600080fd5b505afa158015611df8573d6000803e3d6000fd5b505050506040513d601f19601f82011682018060405250810190611e1c91906139c2565b8a6001600160a01b03166318160ddd6040518163ffffffff1660e01b815260040160206040518083038186803b158015611e5557600080fd5b505afa158015611e69573d6000803e3d6000fd5b505050506040513d601f19601f82011682018060405250810190611e8d91906139c2565b8a6001600160a01b031663936c34776040518163ffffffff1660e01b815260040160206040518083038186803b158015611ec657600080fd5b505afa158015611eda573d6000803e3d6000fd5b505050506040513d601f19601f82011682018060405250810190611efe91906139c2565b898c6001600160a01b031663d4cadf686040518163ffffffff1660e01b815260040160206040518083038186803b158015611f3857600080fd5b505afa158015611f4c573d6000803e3d6000fd5b505050506040513d601f19601f82011682018060405250810190611f7091906139c2565b6040518763ffffffff1660e01b8152600401611f91969594939291906140eb565b60206040518083038186803b158015611fa957600080fd5b505afa158015611fbd573d6000803e3d6000fd5b505050506040513d601f19601f82011682018060405250810190611fe191906139c2565b9050806120005760405162461bcd60e51b815260040161034890613bfb565b828111156120205760405162461bcd60e51b815260040161034890613db3565b6117ee81600061321c565b60005b818110156120675761205f83838381811061204557fe5b905060200201602081019061205a91906135e5565b613292565b60010161202e565b505050565b604051630bcded8960e21b81526001600160a01b03861690632f37b62490612098908790600401613a14565b60206040518083038186803b1580156120b057600080fd5b505afa1580156120c4573d6000803e3d6000fd5b505050506040513d601f19601f820116820180604052508101906120e89190613708565b156121055760405162461bcd60e51b815260040161034890613b8d565b6802b5e3af16b188000082111561212e5760405162461bcd60e51b815260040161034890613ec6565b670de0b6b3a76400008210156121565760405162461bcd60e51b815260040161034890613dea565b670de0b6b3a76400006032026121dc866001600160a01b031663936c34776040518163ffffffff1660e01b815260040160206040518083038186803b15801561219e57600080fd5b505afa1580156121b2573d6000803e3d6000fd5b505050506040513d601f19601f820116820180604052508101906121d691906139c2565b846131f0565b11156121fa5760405162461bcd60e51b815260040161034890613c69565b64e8d4a5100083101561221f5760405162461bcd60e51b815260040161034890613fd9565b805460038201939093556002810191909155436001820155600160a01b7fffffffffffffffffffffffff00000000000000000000000000000000000000009092166001600160a01b03939093169290921760ff60a01b191617905550565b604051630bcded8960e21b81526000906001600160a01b03861690632f37b624906122ac908790600401613a14565b60206040518083038186803b1580156122c457600080fd5b505afa1580156122d8573d6000803e3d6000fd5b505050506040513d601f19601f820116820180604052508101906122fc9190613708565b6123185760405162461bcd60e51b815260040161034890613e58565b60405163f8b2cb4f60e01b81526001600160a01b03861690635c1bbaf790829063f8b2cb4f9061234c908990600401613a14565b60206040518083038186803b15801561236457600080fd5b505afa158015612378573d6000803e3d6000fd5b505050506040513d601f19601f8201168201806040525081019061239c91906139c2565b604051634a46c67360e11b81526001600160a01b0389169063948d8ce6906123c8908a90600401613a14565b60206040518083038186803b1580156123e057600080fd5b505afa1580156123f4573d6000803e3d6000fd5b505050506040513d601f19601f8201168201806040525081019061241891906139c2565b896001600160a01b03166318160ddd6040518163ffffffff1660e01b815260040160206040518083038186803b15801561245157600080fd5b505afa158015612465573d6000803e3d6000fd5b505050506040513d601f19601f8201168201806040525081019061248991906139c2565b896001600160a01b031663936c34776040518163ffffffff1660e01b815260040160206040518083038186803b1580156124c257600080fd5b505afa1580156124d6573d6000803e3d6000fd5b505050506040513d601f19601f820116820180604052508101906124fa91906139c2565b888b6001600160a01b031663d4cadf686040518163ffffffff1660e01b815260040160206040518083038186803b15801561253457600080fd5b505afa158015612548573d6000803e3d6000fd5b505050506040513d601f19601f8201168201806040525081019061256c91906139c2565b6040518763ffffffff1660e01b815260040161258d969594939291906140eb565b60206040518083038186803b1580156125a557600080fd5b505afa1580156125b9573d6000803e3d6000fd5b505050506040513d601f19601f820116820180604052508101906125dd91906139c2565b9050806125fc5760405162461bcd60e51b815260040161034890613bfb565b8181111561261c5760405162461bcd60e51b815260040161034890613db3565b60405163f8b2cb4f60e01b815261264c906001600160a01b0387169063f8b2cb4f906118c5908890600401613a14565b811115611c295760405162461bcd60e51b815260040161034890613bc4565b6000836001600160a01b03166318160ddd6040518163ffffffff1660e01b815260040160206040518083038186803b1580156126a657600080fd5b505afa1580156126ba573d6000803e3d6000fd5b505050506040513d601f19601f820116820180604052508101906126de91906139c2565b9050600061279e61276583866001600160a01b031663948d8ce6876040518263ffffffff1660e01b81526004016127159190613a14565b60206040518083038186803b15801561272d57600080fd5b505afa158015612741573d6000803e3d6000fd5b505050506040513d601f19601f820116820180604052508101906104f591906139c2565b856001600160a01b031663936c34776040518163ffffffff1660e01b815260040160206040518083038186803b15801561069d57600080fd5b90506000846001600160a01b031663f8b2cb4f856040518263ffffffff1660e01b81526004016127ce9190613a14565b60206040518083038186803b1580156127e657600080fd5b505afa1580156127fa573d6000803e3d6000fd5b505050506040513d601f19601f8201168201806040525081019061281e91906139c2565b6040517fcf5e7bd30000000000000000000000000000000000000000000000000000000081529091506001600160a01b0386169063cf5e7bd390612866908790600401613a14565b600060405180830381600087803b15801561288057600080fd5b505af1158015612894573d6000803e3d6000fd5b505050506000846001600160a01b031663a9059cbb886001600160a01b0316633018205f6040518163ffffffff1660e01b815260040160206040518083038186803b1580156128e257600080fd5b505afa1580156128f6573d6000803e3d6000fd5b505050506040513d601f19601f8201168201806040525081019061291a9190613601565b846040518363ffffffff1660e01b8152600401612938929190613a4c565b602060405180830381600087803b15801561295257600080fd5b505af1158015612966573d6000803e3d6000fd5b505050506040513d601f19601f8201168201806040525081019061298a9190613708565b9050806129a95760405162461bcd60e51b815260040161034890614010565b866001600160a01b03166355c32a23886001600160a01b0316633018205f6040518163ffffffff1660e01b815260040160206040518083038186803b1580156129f157600080fd5b505afa158015612a05573d6000803e3d6000fd5b505050506040513d601f19601f82011682018060405250810190612a299190613601565b856040518363ffffffff1660e01b8152600401612a47929190613a4c565b600060405180830381600087803b158015612a6157600080fd5b505af1158015612a75573d6000803e3d6000fd5b50506040517f220eb7600000000000000000000000000000000000000000000000000000000081526001600160a01b038a16925063220eb76091506109959086906004016140b5565b8054612ac957612e3c565b8054431015612aea5760405162461bcd60e51b815260040161034890613d45565b60008160010154431115612b0357506001810154612b06565b50435b6000612b1a83600101548460000154613119565b90506000612b2c838560000154613119565b905060008060006060886001600160a01b031663cc77828d6040518163ffffffff1660e01b815260040160006040518083038186803b158015612b6e57600080fd5b505afa158015612b82573d6000803e3d6000fd5b505050506040513d6000823e601f3d908101601f19168201604052612baa919081019061365d565b905060005b8151811015612e2357886003018181548110612bc757fe5b9060005260206000200154896002018281548110612be157fe5b906000526020600020015414612e1b57886002018181548110612c0057fe5b9060005260206000200154896003018281548110612c1a57fe5b90600052602060002001541015612ca857612c67896002018281548110612c3d57fe5b90600052602060002001548a6003018381548110612c5757fe5b9060005260206000200154613119565b9450612c738588613154565b9350612ca1896002018281548110612c8757fe5b9060005260206000200154612c9c888761321c565b613119565b9250612d11565b612cd4896003018281548110612cba57fe5b90600052602060002001548a6002018381548110612c5757fe5b9450612ce08588613154565b9350612d0e896002018281548110612cf457fe5b9060005260206000200154612d09888761321c565b6131f0565b92505b60008a6001600160a01b031663f8b2cb4f848481518110612d2e57fe5b60200260200101516040518263ffffffff1660e01b8152600401612d529190613a14565b60206040518083038186803b158015612d6a57600080fd5b505afa158015612d7e573d6000803e3d6000fd5b505050506040513d601f19601f82011682018060405250810190612da291906139c2565b90508a6001600160a01b0316633fdddaa2848481518110612dbf57fe5b602002602001015183876040518463ffffffff1660e01b8152600401612de793929190613a7f565b600060405180830381600087803b158015612e0157600080fd5b505af1158015612e15573d6000803e3d6000fd5b50505050505b600101612baf565b5087600101544310612e3457600088555b505050505050505b5050565b600080606080876001600160a01b031663cc77828d6040518163ffffffff1660e01b815260040160006040518083038186803b158015612e7f57600080fd5b505afa158015612e93573d6000803e3d6000fd5b505050506040513d6000823e601f3d908101601f19168201604052612ebb919081019061365d565b80519091508514612ede5760405162461bcd60e51b815260040161034890613ca0565b6000896001600160a01b03166318160ddd6040518163ffffffff1660e01b815260040160206040518083038186803b158015612f1957600080fd5b505afa158015612f2d573d6000803e3d6000fd5b505050506040513d601f19601f82011682018060405250810190612f5191906139c2565b9050612f5e88600061321c565b9450612f6a8886613119565b93506000612f7d856103d78460016131f0565b905080612f9c5760405162461bcd60e51b815260040161034890613bfb565b825167ffffffffffffffff81118015612fb457600080fd5b50604051908082528060200260200182016040528015612fde578160200160208202803683370190505b50935060005b835181101561310a576000848281518110612ffb57fe5b6020026020010151905060008c6001600160a01b031663f8b2cb4f836040518263ffffffff1660e01b81526004016130339190613a14565b60206040518083038186803b15801561304b57600080fd5b505afa15801561305f573d6000803e3d6000fd5b505050506040513d601f19601f8201168201806040525081019061308391906139c2565b90506000613096856104f5846001613119565b9050806130b55760405162461bcd60e51b815260040161034890613bfb565b8b8b858181106130c157fe5b905060200201358110156130e75760405162461bcd60e51b815260040161034890613cd7565b808885815181106130f457fe5b6020908102919091010152505050600101612fe4565b50505050955095509592505050565b600080600061312885856134d8565b91509150801561314a5760405162461bcd60e51b815260040161034890614047565b5090505b92915050565b6000816131735760405162461bcd60e51b815260040161034890613fa2565b826131805750600061314e565b670de0b6b3a76400008381029084828161319657fe5b04146131b45760405162461bcd60e51b815260040161034890613d7c565b600283048101818110156131da5760405162461bcd60e51b815260040161034890613d7c565b60008482816131e557fe5b049695505050505050565b6000828201838110156132155760405162461bcd60e51b81526004016103489061407e565b9392505050565b60008261322b5750600061314e565b8282028284828161323857fe5b04146132565760405162461bcd60e51b815260040161034890613f34565b6706f05b59d3b200008101818110156132815760405162461bcd60e51b815260040161034890613f34565b6000670de0b6b3a7640000826131e5565b60405163a9059cbb60e01b81526000906001600160a01b0383169063a9059cbb906132c39033908590600401613a4c565b602060405180830381600087803b1580156132dd57600080fd5b505af11580156132f1573d6000803e3d6000fd5b505050506040513d601f19601f820116820180604052508101906133159190613708565b905080612e3c5760405162461bcd60e51b815260040161034890613f6b565b600080846001600160a01b031663dd62ed3e30866040518363ffffffff1660e01b8152600401613365929190613a65565b60206040518083038186803b15801561337d57600080fd5b505afa158015613391573d6000803e3d6000fd5b505050506040513d601f19601f820116820180604052508101906133b591906139c2565b9050828114156133c9576001915050613215565b80156134585760405163095ea7b360e01b81526001600160a01b0386169063095ea7b3906133fe908790600090600401613a4c565b602060405180830381600087803b15801561341857600080fd5b505af115801561342c573d6000803e3d6000fd5b505050506040513d601f19601f820116820180604052508101906134509190613708565b915050613215565b60405163095ea7b360e01b81526001600160a01b0386169063095ea7b3906134869087908790600401613a4c565b602060405180830381600087803b1580156134a057600080fd5b505af11580156134b4573d6000803e3d6000fd5b505050506040513d601f19601f82011682018060405250810190611c299190613708565b6000808383116134ee57505080820360006134f6565b505081810360015b9250929050565b828054828255906000526020600020908101928215613538579160200282015b8281111561353857825182559160200191906001019061351d565b50613544929150613583565b5090565b828054828255906000526020600020908101928215613538579160200282015b82811115613538578235825591602001919060010190613568565b5b808211156135445760008155600101613584565b805161314e8161413a565b60008083601f8401126135b4578182fd5b50813567ffffffffffffffff8111156135cb578182fd5b60208301915083602080830285010111156134f657600080fd5b6000602082840312156135f6578081fd5b81356132158161413a565b600060208284031215613612578081fd5b81516132158161413a565b6000806020838503121561362f578081fd5b823567ffffffffffffffff811115613645578182fd5b613651858286016135a3565b90969095509350505050565b6000602080838503121561366f578182fd5b825167ffffffffffffffff80821115613686578384fd5b818501915085601f830112613699578384fd5b8151818111156136a7578485fd5b83810291506136b7848301614113565b8181528481019084860184860187018a10156136d1578788fd5b8795505b838610156136fb576136e78a82613598565b8352600195909501949186019186016136d5565b5098975050505050505050565b600060208284031215613719578081fd5b81518015158114613215578182fd5b60008060006060848603121561373c578081fd5b83356137478161413a565b925060208401356137578161413a565b915060408401356137678161413a565b809150509250925092565b60008060008060808587031215613787578081fd5b84356137928161413a565b935060208501356137a28161413a565b925060408501356137b28161413a565b9396929550929360600135925050565b600080600080600060a086880312156137d9578081fd5b85356137e48161413a565b945060208601356137f48161413a565b935060408601356138048161413a565b94979396509394606081013594506080013592915050565b600080600080600060808688031215613833578081fd5b853561383e8161413a565b9450602086013561384e8161413a565b935060408601359250606086013567ffffffffffffffff811115613870578182fd5b61387c888289016135a3565b969995985093965092949392505050565b600080600080608085870312156138a2578384fd5b84356138ad8161413a565b935060208501356138bd8161413a565b93969395505050506040820135916060013590565b600080600080600060a086880312156138e9578283fd5b85356138f48161413a565b945060208601356139048161413a565b94979496505050506040830135926060810135926080909101359150565b60008060408385031215613934578182fd5b823561393f8161413a565b946020939093013593505050565b600080600080600080600060c0888a031215613967578485fd5b87356139728161413a565b965060208801359550604088013567ffffffffffffffff811115613994578586fd5b6139a08a828b016135a3565b989b979a50986060810135976080820135975060a09091013595509350505050565b6000602082840312156139d3578081fd5b5051919050565b6000815180845260208085019450808401835b83811015613a09578151875295820195908201906001016139ed565b509495945050505050565b6001600160a01b0391909116815260200190565b6001600160a01b039384168152919092166020820152604081019190915260600190565b6001600160a01b03929092168252602082015260400190565b6001600160a01b0392831681529116602082015260400190565b6001600160a01b039390931683526020830191909152604082015260600190565b60006020825261321560208301846139da565b60208082526013908201527f4552525f4e4f5f544f4b454e5f434f4d4d495400000000000000000000000000604082015260600190565b6020808252601e908201527f4552525f4752414455414c5f5550444154455f54494d455f54524156454c0000604082015260600190565b6020808252818101527f4552525f5745494748545f4348414e47455f54494d455f42454c4f575f4d494e604082015260600190565b6020808252601a908201527f4552525f53544152545f574549474854535f4d49534d41544348000000000000604082015260600190565b6020808252600c908201527f4552525f49535f424f554e440000000000000000000000000000000000000000604082015260600190565b60208082526010908201527f4552525f4d41585f494e5f524154494f00000000000000000000000000000000604082015260600190565b6020808252600f908201527f4552525f4d4154485f415050524f580000000000000000000000000000000000604082015260600190565b6020808252600e908201527f4552525f4d41585f574549474854000000000000000000000000000000000000604082015260600190565b60208082526014908201527f4552525f4d41585f544f54414c5f574549474854000000000000000000000000604082015260600190565b60208082526014908201527f4552525f414d4f554e54535f4d49534d41544348000000000000000000000000604082015260600190565b6020808252600d908201527f4552525f4c494d49545f4f555400000000000000000000000000000000000000604082015260600190565b6020808252600f908201527f4552525f4d494e5f42414c414e43450000000000000000000000000000000000604082015260600190565b60208082526011908201527f4552525f43414e545f504f4b455f594554000000000000000000000000000000604082015260600190565b60208082526010908201527f4552525f4449565f494e5445524e414c00000000000000000000000000000000604082015260600190565b6020808252600c908201527f4552525f4c494d49545f494e0000000000000000000000000000000000000000604082015260600190565b60208082526014908201527f4552525f5745494748545f42454c4f575f4d494e000000000000000000000000604082015260600190565b60208082526011908201527f4552525f4d41585f4f55545f524154494f000000000000000000000000000000604082015260600190565b6020808252600d908201527f4552525f4e4f545f424f554e4400000000000000000000000000000000000000604082015260600190565b6020808252600e908201527f4552525f4d494e5f574549474854000000000000000000000000000000000000604082015260600190565b60208082526014908201527f4552525f5745494748545f41424f56455f4d4158000000000000000000000000604082015260600190565b6020808252601b908201527f4552525f54494d454c4f434b5f5354494c4c5f434f554e54494e470000000000604082015260600190565b60208082526010908201527f4552525f4d554c5f4f564552464c4f5700000000000000000000000000000000604082015260600190565b60208082526017908201527f4552525f4e4f4e434f4e464f524d494e475f544f4b454e000000000000000000604082015260600190565b6020808252600c908201527f4552525f4449565f5a45524f0000000000000000000000000000000000000000604082015260600190565b60208082526015908201527f4552525f42414c414e43455f42454c4f575f4d494e0000000000000000000000604082015260600190565b6020808252600f908201527f4552525f45524332305f46414c53450000000000000000000000000000000000604082015260600190565b60208082526011908201527f4552525f5355425f554e444552464c4f57000000000000000000000000000000604082015260600190565b60208082526010908201527f4552525f4144445f4f564552464c4f5700000000000000000000000000000000604082015260600190565b90815260200190565b918252602082015260400190565b600084825283602083015260606040830152611c2960608301846139da565b958652602086019490945260408501929092526060840152608083015260a082015260c00190565b60405181810167ffffffffffffffff8111828210171561413257600080fd5b604052919050565b6001600160a01b038116811461058457600080fdfea2646970667358221220bf726796bc8e5cb4b8f47e51d25caf25467ab2a4a142af96e66eb7f89ab9ebef64736f6c634300060c0033",
  "linkReferences": {},
  "deployedLinkReferences": {}
}