{
  "_format": "hh-sol-artifact-1",
  "contractName": "DSAuth",
  "sourceName": "contracts/DSProxyFactory.sol",
  "abi": [
    {
      "inputs": [],
      "stateMutability": "nonpayable",
      "type": "constructor"
    },
    {
      "anonymous": false,
      "inputs": [
        {
          "indexed": true,
          "internalType": "address",
          "name": "authority",
          "type": "address"
        }
      ],
      "name": "LogSetAuthority",
      "type": "event"
    },
    {
      "anonymous": false,
      "inputs": [
        {
          "indexed": true,
          "internalType": "address",
          "name": "owner",
          "type": "address"
        }
      ],
      "name": "LogSetOwner",
      "type": "event"
    },
    {
      "inputs": [],
      "name": "authority",
      "outputs": [
        {
          "internalType": "contract DSAuthority",
          "name": "",
          "type": "address"
        }
      ],
      "stateMutability": "view",
      "type": "function"
    },
    {
      "inputs": [],
      "name": "owner",
      "outputs": [
        {
          "internalType": "address",
          "name": "",
          "type": "address"
        }
      ],
      "stateMutability": "view",
      "type": "function"
    },
    {
      "inputs": [
        {
          "internalType": "contract DSAuthority",
          "name": "authority_",
          "type": "address"
        }
      ],
      "name": "setAuthority",
      "outputs": [],
      "stateMutability": "nonpayable",
      "type": "function"
    },
    {
      "inputs": [
        {
          "internalType": "address",
          "name": "owner_",
          "type": "address"
        }
      ],
      "name": "setOwner",
      "outputs": [],
      "stateMutability": "nonpayable",
      "type": "function"
    }
  ],
  "bytecode": "0x608060405234801561001057600080fd5b50600180546001600160a01b031916339081179091556040517fce241d7ca1f669fee44b6fc00b8eba2df3bb514eed0f6f668f8f89096e81ed9490600090a26103ed8061005e6000396000f3fe608060405234801561001057600080fd5b506004361061004c5760003560e01c806313af4035146100515780637a9e5e4b146100795780638da5cb5b1461009f578063bf7e214f146100c3575b600080fd5b6100776004803603602081101561006757600080fd5b50356001600160a01b03166100cb565b005b6100776004803603602081101561008f57600080fd5b50356001600160a01b03166101a7565b6100a761027f565b604080516001600160a01b039092168252519081900360200190f35b6100a761028e565b6100f9336000357fffffffff000000000000000000000000000000000000000000000000000000001661029d565b61014a576040805162461bcd60e51b815260206004820152601460248201527f64732d617574682d756e617574686f72697a6564000000000000000000000000604482015290519081900360640190fd5b6001805473ffffffffffffffffffffffffffffffffffffffff19166001600160a01b0383811691909117918290556040519116907fce241d7ca1f669fee44b6fc00b8eba2df3bb514eed0f6f668f8f89096e81ed9490600090a250565b6101d5336000357fffffffff000000000000000000000000000000000000000000000000000000001661029d565b610226576040805162461bcd60e51b815260206004820152601460248201527f64732d617574682d756e617574686f72697a6564000000000000000000000000604482015290519081900360640190fd5b6000805473ffffffffffffffffffffffffffffffffffffffff19166001600160a01b03838116919091178083556040519116917f1abebea81bfa2637f28358c371278fb15ede7ea8dd28d2e03b112ff6d936ada491a250565b6001546001600160a01b031681565b6000546001600160a01b031681565b60006001600160a01b0383163014156102b8575060016103b1565b6001546001600160a01b03848116911614156102d6575060016103b1565b6000546001600160a01b03166102ee575060006103b1565b600054604080517fb70096130000000000000000000000000000000000000000000000000000000081526001600160a01b0386811660048301523060248301527fffffffff00000000000000000000000000000000000000000000000000000000861660448301529151919092169163b7009613916064808301926020929190829003018186803b15801561038257600080fd5b505afa158015610396573d6000803e3d6000fd5b505050506040513d60208110156103ac57600080fd5b505190505b9291505056fea2646970667358221220d4653a06eab88bd3538fcf34b46d38bc64928a604ad4f6bb19b3accdf6a15bc764736f6c634300060c0033",
  "linkReferences": {},
  "deployedLinkReferences": {}
}