{
  "_format": "hh-sol-artifact-1",
  "contractName": "PCToken",
  "sourceName": "contracts/test/PCToken.sol",
  "abi": [
    {
      "inputs": [
        {
          "internalType": "string",
          "name": "tokenSymbol",
          "type": "string"
        },
        {
          "internalType": "string",
          "name": "tokenName",
          "type": "string"
        }
      ],
      "stateMutability": "nonpayable",
      "type": "constructor"
    },
    {
      "anonymous": false,
      "inputs": [
        {
          "indexed": true,
          "internalType": "address",
          "name": "owner",
          "type": "address"
        },
        {
          "indexed": true,
          "internalType": "address",
          "name": "spender",
          "type": "address"
        },
        {
          "indexed": false,
          "internalType": "uint256",
          "name": "value",
          "type": "uint256"
        }
      ],
      "name": "Approval",
      "type": "event"
    },
    {
      "anonymous": false,
      "inputs": [
        {
          "indexed": true,
          "internalType": "address",
          "name": "from",
          "type": "address"
        },
        {
          "indexed": true,
          "internalType": "address",
          "name": "to",
          "type": "address"
        },
        {
          "indexed": false,
          "internalType": "uint256",
          "name": "value",
          "type": "uint256"
        }
      ],
      "name": "Transfer",
      "type": "event"
    },
    {
      "inputs": [],
      "name": "DECIMALS",
      "outputs": [
        {
          "internalType": "uint8",
          "name": "",
          "type": "uint8"
        }
      ],
      "stateMutability": "view",
      "type": "function"
    },
    {
      "inputs": [],
      "name": "NAME",
      "outputs": [
        {
          "internalType": "string",
          "name": "",
          "type": "string"
        }
      ],
      "stateMutability": "view",
      "type": "function"
    },
    {
      "inputs": [
        {
          "internalType": "address",
          "name": "owner",
          "type": "address"
        },
        {
          "internalType": "address",
          "name": "spender",
          "type": "address"
        }
      ],
      "name": "allowance",
      "outputs": [
        {
          "internalType": "uint256",
          "name": "",
          "type": "uint256"
        }
      ],
      "stateMutability": "view",
      "type": "function"
    },
    {
      "inputs": [
        {
          "internalType": "address",
          "name": "spender",
          "type": "address"
        },
        {
          "internalType": "uint256",
          "name": "amount",
          "type": "uint256"
        }
      ],
      "name": "approve",
      "outputs": [
        {
          "internalType": "bool",
          "name": "",
          "type": "bool"
        }
      ],
      "stateMutability": "nonpayable",
      "type": "function"
    },
    {
      "inputs": [
        {
          "internalType": "address",
          "name": "account",
          "type": "address"
        }
      ],
      "name": "balanceOf",
      "outputs": [
        {
          "internalType": "uint256",
          "name": "",
          "type": "uint256"
        }
      ],
      "stateMutability": "view",
      "type": "function"
    },
    {
      "inputs": [],
      "name": "decimals",
      "outputs": [
        {
          "internalType": "uint8",
          "name": "",
          "type": "uint8"
        }
      ],
      "stateMutability": "pure",
      "type": "function"
    },
    {
      "inputs": [
        {
          "internalType": "address",
          "name": "spender",
          "type": "address"
        },
        {
          "internalType": "uint256",
          "name": "amount",
          "type": "uint256"
        }
      ],
      "name": "decreaseApproval",
      "outputs": [
        {
          "internalType": "bool",
          "name": "",
          "type": "bool"
        }
      ],
      "stateMutability": "nonpayable",
      "type": "function"
    },
    {
      "inputs": [
        {
          "internalType": "address",
          "name": "spender",
          "type": "address"
        },
        {
          "internalType": "uint256",
          "name": "amount",
          "type": "uint256"
        }
      ],
      "name": "increaseApproval",
      "outputs": [
        {
          "internalType": "bool",
          "name": "",
          "type": "bool"
        }
      ],
      "stateMutability": "nonpayable",
      "type": "function"
    },
    {
      "inputs": [],
      "name": "name",
      "outputs": [
        {
          "internalType": "string",
          "name": "",
          "type": "string"
        }
      ],
      "stateMutability": "view",
      "type": "function"
    },
    {
      "inputs": [],
      "name": "symbol",
      "outputs": [
        {
          "internalType": "string",
          "name": "",
          "type": "string"
        }
      ],
      "stateMutability": "view",
      "type": "function"
    },
    {
      "inputs": [],
      "name": "totalSupply",
      "outputs": [
        {
          "internalType": "uint256",
          "name": "",
          "type": "uint256"
        }
      ],
      "stateMutability": "view",
      "type": "function"
    },
    {
      "inputs": [
        {
          "internalType": "address",
          "name": "recipient",
          "type": "address"
        },
        {
          "internalType": "uint256",
          "name": "amount",
          "type": "uint256"
        }
      ],
      "name": "transfer",
      "outputs": [
        {
          "internalType": "bool",
          "name": "",
          "type": "bool"
        }
      ],
      "stateMutability": "nonpayable",
      "type": "function"
    },
    {
      "inputs": [
        {
          "internalType": "address",
          "name": "sender",
          "type": "address"
        },
        {
          "internalType": "address",
          "name": "recipient",
          "type": "address"
        },
        {
          "internalType": "uint256",
          "name": "amount",
          "type": "uint256"
        }
      ],
      "name": "transferFrom",
      "outputs": [
        {
          "internalType": "bool",
          "name": "",
          "type": "bool"
        }
      ],
      "stateMutability": "nonpayable",
      "type": "function"
    }
  ],
  "bytecode": "0x60806040523480156200001157600080fd5b5060405162000cd338038062000cd3833981810160405260408110156200003757600080fd5b81019080805160405193929190846401000000008211156200005857600080fd5b9083019060208201858111156200006e57600080fd5b82516401000000008111828201881017156200008957600080fd5b82525081516020918201929091019080838360005b83811015620000b85781810151838201526020016200009e565b50505050905090810190601f168015620000e65780820380516001836020036101000a031916815260200191505b50604052602001805160405193929190846401000000008211156200010a57600080fd5b9083019060208201858111156200012057600080fd5b82516401000000008111828201881017156200013b57600080fd5b82525081516020918201929091019080838360005b838110156200016a57818101518382015260200162000150565b50505050905090810190601f168015620001985780820380516001836020036101000a031916815260200191505b5060405250508251620001b491506003906020850190620001d3565b508051620001ca906004906020840190620001d3565b5050506200026f565b828054600181600116156101000203166002900490600052602060002090601f016020900481019282601f106200021657805160ff191683800117855562000246565b8280016001018555821562000246579182015b828111156200024657825182559160200191906001019062000229565b506200025492915062000258565b5090565b5b8082111562000254576000815560010162000259565b610a54806200027f6000396000f3fe608060405234801561001057600080fd5b50600436106100df5760003560e01c8063661884631161008c578063a3f4df7e11610066578063a3f4df7e14610271578063a9059cbb14610279578063d73dd623146102a5578063dd62ed3e146102d1576100df565b8063661884631461021757806370a082311461024357806395d89b4114610269576100df565b806323b872dd116100bd57806323b872dd146101bb5780632e0f2625146101f1578063313ce5671461020f576100df565b806306fdde03146100e4578063095ea7b31461016157806318160ddd146101a1575b600080fd5b6100ec6102ff565b6040805160208082528351818301528351919283929083019185019080838360005b8381101561012657818101518382015260200161010e565b50505050905090810190601f1680156101535780820380516001836020036101000a031916815260200191505b509250505060405180910390f35b61018d6004803603604081101561017757600080fd5b506001600160a01b038135169060200135610395565b604080519115158252519081900360200190f35b6101a96103fb565b60408051918252519081900360200190f35b61018d600480360360608110156101d157600080fd5b506001600160a01b03813581169160208101359091169060400135610401565b6101f96105a5565b6040805160ff9092168252519081900360200190f35b6101f96105aa565b61018d6004803603604081101561022d57600080fd5b506001600160a01b0381351690602001356105af565b6101a96004803603602081101561025957600080fd5b50356001600160a01b0316610698565b6100ec6106b3565b6100ec610714565b61018d6004803603604081101561028f57600080fd5b506001600160a01b03813516906020013561074d565b61018d600480360360408110156102bb57600080fd5b506001600160a01b0381351690602001356107be565b6101a9600480360360408110156102e757600080fd5b506001600160a01b0381358116916020013516610851565b60048054604080516020601f600260001961010060018816150201909516949094049384018190048102820181019092528281526060939092909183018282801561038b5780601f106103605761010080835404028352916020019161038b565b820191906000526020600020905b81548152906001019060200180831161036e57829003601f168201915b5050505050905090565b3360008181526002602090815260408083206001600160a01b038716808552908352818420869055815186815291519394909390927f8c5be1e5ebec7d5bd14f71427d1e84f3dd0314c0f7b2291e5b200ac8c7c3b925928290030190a350600192915050565b60005490565b60006001600160a01b03831661045e576040805162461bcd60e51b815260206004820152601060248201527f4552525f5a45524f5f4144445245535300000000000000000000000000000000604482015290519081900360640190fd5b336001600160a01b038516148061049857506001600160a01b03841660009081526002602090815260408083203384529091529020548211155b6104e9576040805162461bcd60e51b815260206004820152601660248201527f4552525f5043544f4b454e5f4241445f43414c4c455200000000000000000000604482015290519081900360640190fd5b6104f484848461087c565b6001600160a01b038416600081815260026020908152604080832033808552925290912054911480159061052a57506000198114155b1561059a57610539818461092a565b6001600160a01b03868116600090815260026020908152604080832033808552908352928190208590558051948552519288169391927f8c5be1e5ebec7d5bd14f71427d1e84f3dd0314c0f7b2291e5b200ac8c7c3b9259281900390910190a35b506001949350505050565b601281565b601290565b3360009081526002602090815260408083206001600160a01b0386168452909152812054808310610603573360009081526002602090815260408083206001600160a01b0388168452909152812055610632565b61060d818461092a565b3360009081526002602090815260408083206001600160a01b03891684529091529020555b3360008181526002602090815260408083206001600160a01b0389168085529083529281902054815190815290519293927f8c5be1e5ebec7d5bd14f71427d1e84f3dd0314c0f7b2291e5b200ac8c7c3b925929181900390910190a35060019392505050565b6001600160a01b031660009081526001602052604090205490565b60038054604080516020601f600260001961010060018816150201909516949094049384018190048102820181019092528281526060939092909183018282801561038b5780601f106103605761010080835404028352916020019161038b565b6040518060400160405280601381526020017f4b616c616e63657220536d61727420506f6f6c0000000000000000000000000081525081565b60006001600160a01b0383166107aa576040805162461bcd60e51b815260206004820152601060248201527f4552525f5a45524f5f4144445245535300000000000000000000000000000000604482015290519081900360640190fd5b6107b533848461087c565b50600192915050565b3360009081526002602090815260408083206001600160a01b03861684529091528120546107ec9083610998565b3360008181526002602090815260408083206001600160a01b0389168085529083529281902085905580519485525191937f8c5be1e5ebec7d5bd14f71427d1e84f3dd0314c0f7b2291e5b200ac8c7c3b925929081900390910190a350600192915050565b6001600160a01b03918216600090815260026020908152604080832093909416825291909152205490565b6001600160a01b03831660009081526001602052604090205461089f908261092a565b6001600160a01b0380851660009081526001602052604080822093909355908416815220546108ce9082610998565b6001600160a01b0380841660008181526001602090815260409182902094909455805185815290519193928716927fddf252ad1be2c89b69c2b068fc378daa952ba7f163c4a11628f55a4df523b3ef92918290030190a3505050565b600080600061093985856109f9565b915091508015610990576040805162461bcd60e51b815260206004820152601160248201527f4552525f5355425f554e444552464c4f57000000000000000000000000000000604482015290519081900360640190fd5b509392505050565b6000828201838110156109f2576040805162461bcd60e51b815260206004820152601060248201527f4552525f4144445f4f564552464c4f5700000000000000000000000000000000604482015290519081900360640190fd5b9392505050565b600080838311610a0f5750508082036000610a17565b505081810360015b925092905056fea2646970667358221220b562f11f52268b36504687218bc6250d0d5cdd1d6a00836105ff8b377c5e614364736f6c634300060c0033",
  "linkReferences": {},
  "deployedLinkReferences": {}
}