{
  "_format": "hh-sol-artifact-1",
  "contractName": "CRPFactory",
  "sourceName": "contracts/test/CRPFactory.sol",
  "abi": [
    {
      "anonymous": false,
      "inputs": [
        {
          "indexed": true,
          "internalType": "address",
          "name": "caller",
          "type": "address"
        },
        {
          "indexed": true,
          "internalType": "address",
          "name": "pool",
          "type": "address"
        }
      ],
      "name": "LogNewCrp",
      "type": "event"
    },
    {
      "inputs": [
        {
          "internalType": "address",
          "name": "addr",
          "type": "address"
        }
      ],
      "name": "isCrp",
      "outputs": [
        {
          "internalType": "bool",
          "name": "",
          "type": "bool"
        }
      ],
      "stateMutability": "view",
      "type": "function"
    },
    {
      "inputs": [
        {
          "internalType": "address",
          "name": "factoryAddress",
          "type": "address"
        },
        {
          "components": [
            {
              "internalType": "string",
              "name": "poolTokenSymbol",
              "type": "string"
            },
            {
              "internalType": "string",
              "name": "poolTokenName",
              "type": "string"
            },
            {
              "internalType": "address[]",
              "name": "constituentTokens",
              "type": "address[]"
            },
            {
              "internalType": "uint256[]",
              "name": "tokenBalances",
              "type": "uint256[]"
            },
            {
              "internalType": "uint256[]",
              "name": "tokenWeights",
              "type": "uint256[]"
            },
            {
              "internalType": "uint256",
              "name": "swapFee",
              "type": "uint256"
            }
          ],
          "internalType": "struct ConfigurableRightsPool.PoolParams",
          "name": "poolParams",
          "type": "tuple"
        },
        {
          "components": [
            {
              "internalType": "bool",
              "name": "canPauseSwapping",
              "type": "bool"
            },
            {
              "internalType": "bool",
              "name": "canChangeSwapFee",
              "type": "bool"
            },
            {
              "internalType": "bool",
              "name": "canChangeWeights",
              "type": "bool"
            },
            {
              "internalType": "bool",
              "name": "canAddRemoveTokens",
              "type": "bool"
            },
            {
              "internalType": "bool",
              "name": "canWhitelistLPs",
              "type": "bool"
            },
            {
              "internalType": "bool",
              "name": "canChangeCap",
              "type": "bool"
            }
          ],
          "internalType": "struct RightsManager.Rights",
          "name": "rights",
          "type": "tuple"
        }
      ],
      "name": "newCrp",
      "outputs": [
        {
          "internalType": "contract ConfigurableRightsPool",
          "name": "",
          "type": "address"
        }
      ],
      "stateMutability": "nonpayable",
      "type": "function"
    }
  ],
  "bytecode": "0x608060405234801561001057600080fd5b50615e8f806100206000396000f3fe60806040523480156200001157600080fd5b50600436106200003a5760003560e01c80634420002b146200003f578063dc19e842146200006e575b600080fd5b6200005662000050366004620002f2565b62000094565b604051620000659190620004a7565b60405180910390f35b620000856200007f366004620002cd565b6200026b565b604051620000659190620005d4565b60006002620000a7604085018562000684565b90501015620000d35760405162461bcd60e51b8152600401620000ca906200064d565b60405180910390fd5b620000e2604084018462000684565b9050620000f3606085018562000684565b905014620001155760405162461bcd60e51b8152600401620000ca9062000616565b62000124604084018462000684565b905062000135608085018562000684565b905014620001575760405162461bcd60e51b8152600401620000ca90620005df565b60008484846040516200016a9062000289565b6200017893929190620004bb565b604051809103906000f08015801562000195573d6000803e3d6000fd5b506040519091506001600160a01b0382169033907f8aaa45dbe91f274e1c80489691f3d62dbf595d587fcc6a989fa27696e7c2a23290600090a36001600160a01b03811660008181526020819052604090819020805460ff19166001179055517f92eefe9b0000000000000000000000000000000000000000000000000000000081526392eefe9b906200022e903390600401620004a7565b600060405180830381600087803b1580156200024957600080fd5b505af11580156200025e573d6000803e3d6000fd5b5092979650505050505050565b6001600160a01b031660009081526020819052604090205460ff1690565b6156df806200077b83390190565b80356001600160a01b0381168114620002af57600080fd5b92915050565b600060c08284031215620002c7578081fd5b50919050565b600060208284031215620002df578081fd5b620002eb838362000297565b9392505050565b6000806000610100848603121562000308578182fd5b62000314858562000297565b9250602084013567ffffffffffffffff81111562000330578283fd5b6200033e86828701620002b5565b925050620003508560408601620002b5565b90509250925092565b60008284526020808501945082825b858110156200039a578282016001600160a01b0362000388828562000297565b16885296830196915060010162000368565b509495945050505050565b60008284527f07ffffffffffffffffffffffffffffffffffffffffffffffffffffffffffffff831115620003d7578081fd5b6020830280836020870137939093016020019283525090919050565b60008284528282602086013780602084860101526020601f19601f85011685010190509392505050565b80356200042a8162000768565b1515825260208101356200043e8162000768565b151560208301526040810135620004558162000768565b1515604083015260608101356200046c8162000768565b151560608301526080810135620004838162000768565b1515608083015260a08101356200049a8162000768565b80151560a0840152505050565b6001600160a01b0391909116815260200190565b60006101006001600160a01b0386168352806020840152620004de858662000720565b60c083860152620004f56101c086018284620003f3565b9250505062000508602086018662000720565b60ff19808685030161012087015262000523848385620003f3565b9350620005346040890189620006d5565b9350915080868503016101408701526200055084848462000359565b9350620005616060890189620006d5565b9350915080868503016101608701526200057d848484620003a5565b93506200058e6080890189620006d5565b93509150808685030161018087015250620005ab838383620003a5565b60a08801356101a08701529350620005cc925050604084019050846200041d565b949350505050565b901515815260200190565b6020808252601a908201527f4552525f53544152545f574549474854535f4d49534d41544348000000000000604082015260600190565b6020808252601b908201527f4552525f53544152545f42414c414e4345535f4d49534d415443480000000000604082015260600190565b60208082526012908201527f4552525f544f4f5f4645575f544f4b454e530000000000000000000000000000604082015260600190565b6000808335601e198436030181126200069b578283fd5b83018035915067ffffffffffffffff821115620006b6578283fd5b6020908101925081023603821315620006ce57600080fd5b9250929050565b6000808335601e19843603018112620006ec578283fd5b830160208101925035905067ffffffffffffffff8111156200070d57600080fd5b602081023603831315620006ce57600080fd5b6000808335601e1984360301811262000737578283fd5b830160208101925035905067ffffffffffffffff8111156200075857600080fd5b803603831315620006ce57600080fd5b80151581146200077757600080fd5b5056fe60806040523480156200001157600080fd5b50604051620056df380380620056df8339810160408190526200003491620006c7565b815160208084015182519091620000519160039185019062000337565b5080516200006790600490602084019062000337565b5050600580546001600160a01b03191633179055506001600655620f4240670de0b6b3a7640000048260a001511015620000be5760405162461bcd60e51b8152600401620000b590620008ef565b60405180910390fd5b60a082015167016345785d8a00001015620000ed5760405162461bcd60e51b8152600401620000b590620008ef565b81604001515182606001515114620001195760405162461bcd60e51b8152600401620000b5906200088c565b81604001515182608001515114620001455760405162461bcd60e51b8152600401620000b59062000855565b600282604001515110156200016e5760405162461bcd60e51b8152600401620000b590620008c3565b60088260400151511115620001975760405162461bcd60e51b8152600401620000b59062000926565b60408083015190516377d4434960e01b815273__$e96043af6c48d87fb9cdacaab16e6b8b21$__916377d4434991620001d4919060040162000806565b60006040518083038186803b158015620001ed57600080fd5b505af415801562000202573d6000803e3d6000fd5b5050600780546001600160a01b0319166001600160a01b03871617905550508051600980546020808501516040808701516060880151608089015160a08a015160ff199097169815159890981761ff001916610100941515949094029390931762ff0000191662010000911515919091021763ff00000019166301000000921515929092029190911760ff60201b1916640100000000951515959095029490941760ff60281b1916650100000000009215159290920291909117909155908301518051620002d5926013920190620003bc565b5060608201518051620002f19160149160209091019062000422565b5060a082015160125562015f906015556101f4601655608082015180516200032291600c9160209091019062000422565b50506000600a555050600019601855620009b6565b828054600181600116156101000203166002900490600052602060002090601f016020900481019282601f106200037a57805160ff1916838001178555620003aa565b82800160010185558215620003aa579182015b82811115620003aa5782518255916020019190600101906200038d565b50620003b89291506200045f565b5090565b82805482825590600052602060002090810192821562000414579160200282015b828111156200041457825182546001600160a01b0319166001600160a01b03909116178255602090920191600190910190620003dd565b50620003b892915062000476565b828054828255906000526020600020908101928215620003aa5791602002820182811115620003aa5782518255916020019190600101906200038d565b5b80821115620003b8576000815560010162000460565b5b80821115620003b85780546001600160a01b031916815560010162000477565b80516001600160a01b0381168114620004af57600080fd5b92915050565b600082601f830112620004c6578081fd5b8151620004dd620004d78262000984565b6200095d565b818152915060208083019084810181840286018201871015620004ff57600080fd5b60005b848110156200052a5762000517888362000497565b8452928201929082019060010162000502565b505050505092915050565b600082601f83011262000546578081fd5b815162000557620004d78262000984565b8181529150602080830190848101818402860182018710156200057957600080fd5b60005b848110156200052a578151845292820192908201906001016200057c565b600082601f830112620005ab578081fd5b81516001600160401b03811115620005c1578182fd5b6020620005d7601f8301601f191682016200095d565b92508183528481838601011115620005ee57600080fd5b60005b828110156200060e578481018201518482018301528101620005f1565b82811115620006205760008284860101525b50505092915050565b600060c082840312156200063b578081fd5b6200064760c06200095d565b905081516200065681620009a4565b815260208201516200066881620009a4565b602082015260408201516200067d81620009a4565b604082015260608201516200069281620009a4565b60608201526080820151620006a781620009a4565b608082015260a0820151620006bc81620009a4565b60a082015292915050565b60008060006101008486031215620006dd578283fd5b620006e9858562000497565b60208501519093506001600160401b038082111562000706578384fd5b9085019060c082880312156200071a578384fd5b6200072660c06200095d565b82518281111562000735578586fd5b62000743898286016200059a565b82525060208301518281111562000758578586fd5b62000766898286016200059a565b6020830152506040830151828111156200077e578586fd5b6200078c89828601620004b5565b604083015250606083015182811115620007a4578586fd5b620007b28982860162000535565b606083015250608083015182811115620007ca578586fd5b620007d88982860162000535565b60808301525060a083015160a0820152809450505050620007fd856040860162000629565b90509250925092565b6020808252825182820181905260009190848201906040850190845b81811015620008495783516001600160a01b03168352928401929184019160010162000822565b50909695505050505050565b6020808252601a908201527f4552525f53544152545f574549474854535f4d49534d41544348000000000000604082015260600190565b6020808252601b908201527f4552525f53544152545f42414c414e4345535f4d49534d415443480000000000604082015260600190565b6020808252601290820152714552525f544f4f5f4645575f544f4b454e5360701b604082015260600190565b60208082526014908201527f4552525f494e56414c49445f535741505f464545000000000000000000000000604082015260600190565b60208082526013908201527f4552525f544f4f5f4d414e595f544f4b454e5300000000000000000000000000604082015260600190565b6040518181016001600160401b03811182821017156200097c57600080fd5b604052919050565b60006001600160401b038211156200099a578081fd5b5060209081020190565b8015158114620009b357600080fd5b50565b614d1980620009c66000396000f3fe608060405234801561001057600080fd5b506004361061036d5760003560e01c806374983a0d116101d3578063b02f0b7311610104578063dd62ed3e116100a2578063e7f1a5541161007c578063e7f1a554146106e7578063e854f53d146106ef578063f226b528146106f7578063fde924f7146106ff5761036d565b8063dd62ed3e146106b9578063e211b875146106cc578063e2762d4b146106d45761036d565b8063c3391d27116100de578063c3391d2714610667578063c42bd05a1461067a578063c83a1c2d14610693578063d73dd623146106a65761036d565b8063b02f0b7314610644578063b64ef17b14610657578063c275d81b1461065f5761036d565b80639776e94b11610171578063a3f4df7e1161014b578063a3f4df7e14610619578063a835a0de14610621578063a9059cbb14610629578063a9502d621461063c5761036d565b80639776e94b146105e4578063980e8db6146105f75780639d829c2b146106115761036d565b806389f55db6116101ad57806389f55db6146105ae57806392eefe9b146105b6578063948d8ce6146105c957806395d89b41146105dc5761036d565b806374983a0d14610580578063806c6f87146105885780638259e6a01461059b5761036d565b806337c6f4d9116102ad57806355c32a231161024b5780635fa7b584116102255780635fa7b5841461053457806366188463146105475780636d06dfa01461055a57806370a082311461056d5761036d565b806355c32a23146104f85780635a8342d81461050b5780635db34277146105215761036d565b806349b595521161028757806349b59552146104ac5780634ba57882146104bf5780634c20d209146104d25780634f69c0d4146104e55761036d565b806337c6f4d91461047357806346ab38f11461048657806347786d37146104995761036d565b8063220eb7601161031a5780632e0f2625116102f45780632e0f26251461042e5780633018205f14610443578063313ce5671461045857806334e19907146104605761036d565b8063220eb760146103f557806323b872dd14610408578063246bc19b1461041b5761036d565b8063095ea7b31161034b578063095ea7b3146103c55780630ce27925146103e557806318160ddd146103ed5761036d565b806302c967481461037257806306fdde031461039b578063095dcccc146103b0575b600080fd5b610385610380366004614003565b610707565b6040516103929190614c54565b60405180910390f35b6103a36108e7565b60405161039291906145c9565b6103c36103be366004613fd8565b61097d565b005b6103d86103d3366004613fd8565b6109aa565b60405161039291906143fe565b610385610a14565b610385610a1a565b6103c36104033660046141cd565b610a20565b6103d8610416366004613f98565b610a4b565b6103c36104293660046140d0565b610b8b565b610436610d38565b6040516103929190614c6b565b61044b610d3d565b6040516103929190614344565b610436610d4c565b6103c361046e3660046141cd565b610d51565b6103d86104813660046141ae565b610e96565b610385610494366004614003565b610f44565b6103c36104a73660046141cd565b61110b565b6103c36104ba36600461415a565b611239565b6103c36104cd3660046141cd565b61133f565b6103c36104e0366004614003565b611367565b6103c36104f33660046141fd565b6115ba565b6103c3610506366004613fd8565b6119c6565b6105136119ef565b604051610392929190614c5d565b61038561052f366004614003565b6119f8565b6103c3610542366004613f44565b611bd7565b6103d8610555366004613fd8565b611d6b565b610385610568366004614003565b611e57565b61038561057b366004613f44565b612036565b61044b612051565b6103d8610596366004613f44565b612069565b6103c36105a93660046141cd565b6120b3565b61044b612150565b6103c36105c4366004613f44565b61215f565b6103856105d7366004613f44565b612218565b6103a36122e5565b6103c36105f2366004613fd8565b612346565b6105ff6124de565b60405161039296959493929190614409565b61044b61251a565b6103a3612532565b61038561256b565b6103d8610637366004613fd8565b612571565b61044b6125ad565b6103c36106523660046141fd565b6125c5565b61044b61298b565b6103c361299a565b6103c36106753660046142b8565b612b12565b610682612bdb565b604051610392959493929190614396565b6103c36106a1366004613f44565b612c02565b6103d86106b4366004613fd8565b612cf6565b6103856106c7366004613f60565b612d7c565b6103c3612da7565b6103c36106e2366004613f44565b612eb7565b610385612fdf565b610385612fe5565b610385612feb565b6103d8612ff2565b60405160009033906001600160e01b0319833516906107299084903690614439565b60405180910390a26002600654141561075d5760405162461bcd60e51b8152600401610754906148ae565b60405180910390fd5b60026006556008546001600160a01b031661078a5760405162461bcd60e51b815260040161075490614809565b6008546040517f7386a324000000000000000000000000000000000000000000000000000000008152600091829173__$e96043af6c48d87fb9cdacaab16e6b8b21$__91637386a324916107f49130916001600160a01b03909116908b908b908b906004016144b5565b604080518083038186803b15801561080b57600080fd5b505af415801561081f573d6000803e3d6000fd5b505050506040513d601f19601f820116820180604052508101906108439190614247565b91509150809250600061085684846130ca565b9050866001600160a01b0316336001600160a01b03167fc62fc35ac75e3bff532648e2859a3e1694002cfa357614ae8e034df7f83db5e98860405161089b9190614c54565b60405180910390a36108ad33856119e5565b6108b681610a3f565b6007546108cc906001600160a01b03168461099c565b6108d7873388613103565b5050505b60016006559392505050565b60048054604080516020601f60026000196101006001881615020190951694909404938401819004810282018101909252828152606093909290918301828280156109735780601f1061094857610100808354040283529160200191610973565b820191906000526020600020905b81548152906001019060200180831161095657829003601f168201915b5050505050905090565b33301461099c5760405162461bcd60e51b81526004016107549061461c565b6109a68282613365565b5050565b3360008181526002602090815260408083206001600160a01b038716808552925280832085905551919290917f8c5be1e5ebec7d5bd14f71427d1e84f3dd0314c0f7b2291e5b200ac8c7c3b92590610a03908690614c54565b60405180910390a350600192915050565b60185481565b60005490565b333014610a3f5760405162461bcd60e51b81526004016107549061461c565b610a4881613370565b50565b60006001600160a01b038316610a735760405162461bcd60e51b81526004016107549061472d565b336001600160a01b0385161480610aad57506001600160a01b03841660009081526002602090815260408083203384529091529020548211155b610ac95760405162461bcd60e51b8152600401610754906149f8565b610ad48484846133ea565b6001600160a01b0384166000818152600260209081526040808320338085529252909120549114801590610b0a57506000198114155b15610b7e57610b1981846130ca565b6001600160a01b0386811660009081526002602090815260408083203380855292529182902084905590519187169290917f8c5be1e5ebec7d5bd14f71427d1e84f3dd0314c0f7b2291e5b200ac8c7c3b92591610b7591614c54565b60405180910390a35b60019150505b9392505050565b336001600160a01b03166000356001600160e01b0319166001600160e01b031916600036604051610bbd929190614439565b60405180910390a260026006541415610be85760405162461bcd60e51b8152600401610754906148ae565b60026006556005546001600160a01b03163314610c175760405162461bcd60e51b81526004016107549061461c565b6008546001600160a01b0316610c3f5760405162461bcd60e51b815260040161075490614809565b60095462010000900460ff16610c675760405162461bcd60e51b81526004016107549061479b565b600e54600160a01b900460ff1615610c915760405162461bcd60e51b815260040161075490614a2f565b6008546015546040517f5977141d00000000000000000000000000000000000000000000000000000000815273__$e96043af6c48d87fb9cdacaab16e6b8b21$__92635977141d92610cfd926001600160a01b0390921691600a918a918a918a918a9190600401614581565b60006040518083038186803b158015610d1557600080fd5b505af4158015610d29573d6000803e3d6000fd5b50506001600655505050505050565b601281565b6005546001600160a01b031690565b601290565b336001600160a01b03166000356001600160e01b0319166001600160e01b031916600036604051610d83929190614439565b60405180910390a260026006541415610dae5760405162461bcd60e51b8152600401610754906148ae565b60026006556005546001600160a01b03163314610ddd5760405162461bcd60e51b81526004016107549061461c565b6008546001600160a01b0316610e055760405162461bcd60e51b815260040161075490614809565b600954610100900460ff16610e2c5760405162461bcd60e51b815260040161075490614b79565b6008546040516334e1990760e01b81526001600160a01b03909116906334e1990790610e5c908490600401614c54565b600060405180830381600087803b158015610e7657600080fd5b505af1158015610e8a573d6000803e3d6000fd5b50506001600655505050565b6040517f4583544a00000000000000000000000000000000000000000000000000000000815260009073__$4323222ec72a623ac42d9f8e8ff9d2ac3c$__90634583544a90610eec906009908690600401614be7565b60206040518083038186803b158015610f0457600080fd5b505af4158015610f18573d6000803e3d6000fd5b505050506040513d601f19601f82011682018060405250810190610f3c9190614176565b90505b919050565b60405160009033906001600160e01b031983351690610f669084903690614439565b60405180910390a260026006541415610f915760405162461bcd60e51b8152600401610754906148ae565b60026006556008546001600160a01b0316610fbe5760405162461bcd60e51b815260040161075490614809565b6008546040517f68c3dd2a000000000000000000000000000000000000000000000000000000008152600091829173__$e96043af6c48d87fb9cdacaab16e6b8b21$__916368c3dd2a916110289130916001600160a01b03909116908b908b908b906004016144b5565b604080518083038186803b15801561103f57600080fd5b505af4158015611053573d6000803e3d6000fd5b505050506040513d601f19601f820116820180604052508101906110779190614247565b91509150809250600061108a86846130ca565b9050866001600160a01b0316336001600160a01b03167fc62fc35ac75e3bff532648e2859a3e1694002cfa357614ae8e034df7f83db5e9866040516110cf9190614c54565b60405180910390a36110e133876119e5565b6110ea81610a3f565b600754611100906001600160a01b03168461099c565b6108d7873386613103565b336001600160a01b03166000356001600160e01b0319166001600160e01b03191660003660405161113d929190614439565b60405180910390a2600260065414156111685760405162461bcd60e51b8152600401610754906148ae565b60026006556008546001600160a01b03166111955760405162461bcd60e51b815260040161075490614809565b6005546001600160a01b031633146111bf5760405162461bcd60e51b81526004016107549061461c565b60095465010000000000900460ff166111ea5760405162461bcd60e51b815260040161075490614953565b336001600160a01b03167f6bc200110c7794738d401810b22ef824a2044a8ccb022d4ad8769840370331f560185483604051611227929190614c5d565b60405180910390a26018556001600655565b336001600160a01b03166000356001600160e01b0319166001600160e01b03191660003660405161126b929190614439565b60405180910390a2600260065414156112965760405162461bcd60e51b8152600401610754906148ae565b60026006556005546001600160a01b031633146112c55760405162461bcd60e51b81526004016107549061461c565b6008546001600160a01b03166112ed5760405162461bcd60e51b815260040161075490614809565b60095460ff1661130f5760405162461bcd60e51b815260040161075490614ad4565b6008546040516324dacaa960e11b81526001600160a01b03909116906349b5955290610e5c9084906004016143fe565b33301461135e5760405162461bcd60e51b81526004016107549061461c565b610a488161349b565b336001600160a01b03166000356001600160e01b0319166001600160e01b031916600036604051611399929190614439565b60405180910390a2600260065414156113c45760405162461bcd60e51b8152600401610754906148ae565b60026006556005546001600160a01b031633146113f35760405162461bcd60e51b81526004016107549061461c565b6008546001600160a01b031661141b5760405162461bcd60e51b815260040161075490614809565b6009546301000000900460ff166114445760405162461bcd60e51b815260040161075490614653565b600a54156114645760405162461bcd60e51b815260040161075490614bb0565b6040517f1c1af13600000000000000000000000000000000000000000000000000000000815273__$e96043af6c48d87fb9cdacaab16e6b8b21$__90631c1af136906114b4908690600401614344565b60006040518083038186803b1580156114cc57600080fd5b505af41580156114e0573d6000803e3d6000fd5b50506040513392503091506001600160a01b038616907f33b043686b9408a355896fe90b2f8ecc86a41d87d1554ef65a739948b4f23e2790600090a46008546040517fb489ec1900000000000000000000000000000000000000000000000000000000815273__$e96043af6c48d87fb9cdacaab16e6b8b21$__9163b489ec1991611580916001600160a01b031690879087908790600e90600401614550565b60006040518083038186803b15801561159857600080fd5b505af41580156115ac573d6000803e3d6000fd5b505060016006555050505050565b336001600160a01b03166000356001600160e01b0319166001600160e01b0319166000366040516115ec929190614439565b60405180910390a2600260065414156116175760405162461bcd60e51b8152600401610754906148ae565b60026006556008546001600160a01b03166116445760405162461bcd60e51b815260040161075490614809565b6008546040805163fde924f760e01b815290516000926001600160a01b03169163fde924f7916004808301926020929190829003018186803b15801561168957600080fd5b505afa15801561169d573d6000803e3d6000fd5b505050506040513d601f19601f820116820180604052508101906116c19190614176565b6008546040516324dacaa960e11b81529192506001600160a01b0316906349b59552906116f3906000906004016143fe565b600060405180830381600087803b15801561170d57600080fd5b505af1158015611721573d6000803e3d6000fd5b5050600954640100000000900460ff1615915081905061175057503360009081526017602052604090205460ff165b61176c5760405162461bcd60e51b8152600401610754906146bf565b6008546040517f1135eba000000000000000000000000000000000000000000000000000000000815260609173__$e96043af6c48d87fb9cdacaab16e6b8b21$__91631135eba0916117d29130916001600160a01b0316908a908a908a906004016144e9565b60006040518083038186803b1580156117ea57600080fd5b505af41580156117fe573d6000803e3d6000fd5b505050506040513d6000823e601f3d908101601f19168201604052611826919081019061411f565b90506060600860009054906101000a90046001600160a01b03166001600160a01b031663cc77828d6040518163ffffffff1660e01b815260040160006040518083038186803b15801561187857600080fd5b505afa15801561188c573d6000803e3d6000fd5b505050506040513d6000823e601f3d908101601f191682016040526118b49190810190614037565b905060005b81518110156119525760008282815181106118d057fe5b6020026020010151905060008483815181106118e857fe5b60200260200101519050816001600160a01b0316336001600160a01b03167fea39e3b35c5cd8937999ed5f7fbab30acd562a931fc4a887fed2a47c3074aa72836040516119359190614c54565b60405180910390a36119488233836134c8565b50506001016118b9565b5061195c8661135e565b611966338761099c565b50506008546040516324dacaa960e11b81526001600160a01b03909116906349b59552906119989084906004016143fe565b600060405180830381600087803b1580156119b257600080fd5b505af1158015610d29573d6000803e3d6000fd5b3330146119e55760405162461bcd60e51b81526004016107549061461c565b6109a68282613711565b600a54600b5482565b60405160009033906001600160e01b031983351690611a1a9084903690614439565b60405180910390a260026006541415611a455760405162461bcd60e51b8152600401610754906148ae565b60026006556008546001600160a01b0316611a725760405162461bcd60e51b815260040161075490614809565b600954640100000000900460ff161580611a9b57503360009081526017602052604090205460ff165b611ab75760405162461bcd60e51b8152600401610754906146bf565b6008546040517f6f50bd5d00000000000000000000000000000000000000000000000000000000815273__$e96043af6c48d87fb9cdacaab16e6b8b21$__91636f50bd5d91611b1c9130916001600160a01b03909116908990899089906004016144b5565b60206040518083038186803b158015611b3457600080fd5b505af4158015611b48573d6000803e3d6000fd5b505050506040513d601f19601f82011682018060405250810190611b6c91906141e5565b9050836001600160a01b0316336001600160a01b03167fea39e3b35c5cd8937999ed5f7fbab30acd562a931fc4a887fed2a47c3074aa7285604051611bb19190614c54565b60405180910390a3611bc28161135e565b611bcc338261099c565b6108db8433856134c8565b336001600160a01b03166000356001600160e01b0319166001600160e01b031916600036604051611c09929190614439565b60405180910390a260026006541415611c345760405162461bcd60e51b8152600401610754906148ae565b60026006556005546001600160a01b03163314611c635760405162461bcd60e51b81526004016107549061461c565b6008546001600160a01b0316611c8b5760405162461bcd60e51b815260040161075490614809565b6009546301000000900460ff16611cb45760405162461bcd60e51b815260040161075490614653565b600e54600160a01b900460ff1615611cde5760405162461bcd60e51b815260040161075490614a66565b6008546040517fcfc3120900000000000000000000000000000000000000000000000000000000815273__$e96043af6c48d87fb9cdacaab16e6b8b21$__9163cfc3120991611d3f9130916001600160a01b03909116908690600401614468565b60006040518083038186803b158015611d5757600080fd5b505af4158015610e8a573d6000803e3d6000fd5b3360009081526002602090815260408083206001600160a01b0386168452909152812054808310611dbf573360009081526002602090815260408083206001600160a01b0388168452909152812055611dee565b611dc981846130ca565b3360009081526002602090815260408083206001600160a01b03891684529091529020555b3360008181526002602090815260408083206001600160a01b0389168085529252918290205491519092917f8c5be1e5ebec7d5bd14f71427d1e84f3dd0314c0f7b2291e5b200ac8c7c3b92591611e459190614c54565b60405180910390a35060019392505050565b60405160009033906001600160e01b031983351690611e799084903690614439565b60405180910390a260026006541415611ea45760405162461bcd60e51b8152600401610754906148ae565b60026006556008546001600160a01b0316611ed15760405162461bcd60e51b815260040161075490614809565b600954640100000000900460ff161580611efa57503360009081526017602052604090205460ff165b611f165760405162461bcd60e51b8152600401610754906146bf565b6008546040517fc8ebc9ab00000000000000000000000000000000000000000000000000000000815273__$e96043af6c48d87fb9cdacaab16e6b8b21$__9163c8ebc9ab91611f7b9130916001600160a01b03909116908990899089906004016144b5565b60206040518083038186803b158015611f9357600080fd5b505af4158015611fa7573d6000803e3d6000fd5b505050506040513d601f19601f82011682018060405250810190611fcb91906141e5565b9050836001600160a01b0316336001600160a01b03167fea39e3b35c5cd8937999ed5f7fbab30acd562a931fc4a887fed2a47c3074aa72836040516120109190614c54565b60405180910390a36120218361135e565b61202b338461099c565b6108db8433836134c8565b6001600160a01b031660009081526001602052604090205490565b73__$4323222ec72a623ac42d9f8e8ff9d2ac3c$__90565b600954600090640100000000900460ff16156120a157506001600160a01b03811660009081526017602052604090205460ff16610f3f565b506001600160a01b0381161515610f3f565b6005546001600160a01b031633146120dd5760405162461bcd60e51b81526004016107549061461c565b336001600160a01b03166000356001600160e01b0319166001600160e01b03191660003660405161210f929190614439565b60405180910390a26002600654141561213a5760405162461bcd60e51b8152600401610754906148ae565b60026006556121488161371c565b506001600655565b6007546001600160a01b031681565b6005546001600160a01b031633146121895760405162461bcd60e51b81526004016107549061461c565b6001600160a01b0381166121af5760405162461bcd60e51b81526004016107549061472d565b6005546040516001600160a01b038084169216907f8be0079c531659141344cd1fd0a4f28419497f9722a3daafe3b4186f6b6457e090600090a36005805473ffffffffffffffffffffffffffffffffffffffff19166001600160a01b0392909216919091179055565b60006002600654141561223d5760405162461bcd60e51b8152600401610754906148e5565b6008546001600160a01b03166122655760405162461bcd60e51b815260040161075490614809565b600854604051634a46c67360e11b81526001600160a01b039091169063948d8ce690612295908590600401614344565b60206040518083038186803b1580156122ad57600080fd5b505afa1580156122c1573d6000803e3d6000fd5b505050506040513d601f19601f82011682018060405250810190610f3c91906141e5565b60038054604080516020601f60026000196101006001881615020190951694909404938401819004810282018101909252828152606093909290918301828280156109735780601f1061094857610100808354040283529160200191610973565b336001600160a01b03166000356001600160e01b0319166001600160e01b031916600036604051612378929190614439565b60405180910390a2600260065414156123a35760405162461bcd60e51b8152600401610754906148ae565b60026006556005546001600160a01b031633146123d25760405162461bcd60e51b81526004016107549061461c565b6008546001600160a01b03166123fa5760405162461bcd60e51b815260040161075490614809565b60095462010000900460ff166124225760405162461bcd60e51b81526004016107549061479b565b600a54156124425760405162461bcd60e51b815260040161075490614bb0565b6008546040517f44ec7c6800000000000000000000000000000000000000000000000000000000815273__$e96043af6c48d87fb9cdacaab16e6b8b21$__916344ec7c68916124a59130916001600160a01b03909116908790879060040161448b565b60006040518083038186803b1580156124bd57600080fd5b505af41580156124d1573d6000803e3d6000fd5b5050600160065550505050565b60095460ff8082169161010081048216916201000082048116916301000000810482169164010000000082048116916501000000000090041686565b73__$e96043af6c48d87fb9cdacaab16e6b8b21$__90565b6040518060400160405280601381526020017f4b616c616e63657220536d61727420506f6f6c0000000000000000000000000081525081565b6101f481565b60006001600160a01b0383166125995760405162461bcd60e51b81526004016107549061472d565b6125a43384846133ea565b50600192915050565b73__$e695d458eecabb5653f7bdd308e991d666$__90565b336001600160a01b03166000356001600160e01b0319166001600160e01b0319166000366040516125f7929190614439565b60405180910390a2600260065414156126225760405162461bcd60e51b8152600401610754906148ae565b60026006556008546001600160a01b031661264f5760405162461bcd60e51b815260040161075490614809565b6008546040805163fde924f760e01b815290516000926001600160a01b03169163fde924f7916004808301926020929190829003018186803b15801561269457600080fd5b505afa1580156126a8573d6000803e3d6000fd5b505050506040513d601f19601f820116820180604052508101906126cc9190614176565b6008546040516324dacaa960e11b81529192506001600160a01b0316906349b59552906126fe906000906004016143fe565b600060405180830381600087803b15801561271857600080fd5b505af115801561272c573d6000803e3d6000fd5b50506008546040517fe8eb23760000000000000000000000000000000000000000000000000000000081526000935083925060609173__$e96043af6c48d87fb9cdacaab16e6b8b21$__9163e8eb23769161279b9130916001600160a01b0316908c908c908c906004016144e9565b60006040518083038186803b1580156127b357600080fd5b505af41580156127c7573d6000803e3d6000fd5b505050506040513d6000823e601f3d908101601f191682016040526127ef919081019061426a565b9250925092506127ff33886119e5565b600754612815906001600160a01b03168461099c565b61281e82610a3f565b600854604080517fcc77828d00000000000000000000000000000000000000000000000000000000815290516060926001600160a01b03169163cc77828d916004808301926000929190829003018186803b15801561287c57600080fd5b505afa158015612890573d6000803e3d6000fd5b505050506040513d6000823e601f3d908101601f191682016040526128b89190810190614037565b905060005b81518110156129565760008282815181106128d457fe5b6020026020010151905060008483815181106128ec57fe5b60200260200101519050816001600160a01b0316336001600160a01b03167fc62fc35ac75e3bff532648e2859a3e1694002cfa357614ae8e034df7f83db5e9836040516129399190614c54565b60405180910390a361294c823383613103565b50506001016128bd565b50506008546040516324dacaa960e11b81526001600160a01b0390911693506349b595529250611998915084906004016143fe565b6008546001600160a01b031681565b336001600160a01b03166000356001600160e01b0319166001600160e01b0319166000366040516129cc929190614439565b60405180910390a2600260065414156129f75760405162461bcd60e51b8152600401610754906148ae565b60026006556005546001600160a01b03163314612a265760405162461bcd60e51b81526004016107549061461c565b6008546001600160a01b0316612a4e5760405162461bcd60e51b815260040161075490614809565b6009546301000000900460ff16612a775760405162461bcd60e51b815260040161075490614653565b6008546016546040517f41768e0b00000000000000000000000000000000000000000000000000000000815273__$e96043af6c48d87fb9cdacaab16e6b8b21$__926341768e0b92612adb9230926001600160a01b03169190600e90600401614527565b60006040518083038186803b158015612af357600080fd5b505af4158015612b07573d6000803e3d6000fd5b505060016006555050565b6005546001600160a01b03163314612b3c5760405162461bcd60e51b81526004016107549061461c565b336001600160a01b03166000356001600160e01b0319166001600160e01b031916600036604051612b6e929190614439565b60405180910390a260026006541415612b995760405162461bcd60e51b8152600401610754906148ae565b600260065580821015612bbe5760405162461bcd60e51b81526004016107549061468a565b60158290556016819055612bd18361371c565b5050600160065550565b600e54600f546010546011546001600160a01b03841693600160a01b900460ff1692919085565b6005546001600160a01b03163314612c2c5760405162461bcd60e51b81526004016107549061461c565b60026006541415612c4f5760405162461bcd60e51b8152600401610754906148ae565b60026006556040513390600080356001600160e01b03191691612c7491903690614439565b60405180910390a2600954640100000000900460ff16612ca65760405162461bcd60e51b815260040161075490614764565b6001600160a01b038116612ccc5760405162461bcd60e51b81526004016107549061491c565b6001600160a01b03166000908152601760205260409020805460ff19166001908117909155600655565b3360009081526002602090815260408083206001600160a01b0386168452909152812054612d249083613c2d565b3360008181526002602090815260408083206001600160a01b038916808552925291829020849055905190927f8c5be1e5ebec7d5bd14f71427d1e84f3dd0314c0f7b2291e5b200ac8c7c3b92591610a039190614c54565b6001600160a01b03918216600090815260026020908152604080832093909416825291909152205490565b336001600160a01b03166000356001600160e01b0319166001600160e01b031916600036604051612dd9929190614439565b60405180910390a260026006541415612e045760405162461bcd60e51b8152600401610754906148ae565b60026006556008546001600160a01b0316612e315760405162461bcd60e51b815260040161075490614809565b60095462010000900460ff16612e595760405162461bcd60e51b81526004016107549061479b565b6008546040517fd8731c3300000000000000000000000000000000000000000000000000000000815273__$e96043af6c48d87fb9cdacaab16e6b8b21$__9163d8731c3391612adb916001600160a01b031690600a906004016143c4565b6005546001600160a01b03163314612ee15760405162461bcd60e51b81526004016107549061461c565b60026006541415612f045760405162461bcd60e51b8152600401610754906148ae565b60026006556040513390600080356001600160e01b03191691612f2991903690614439565b60405180910390a2600954640100000000900460ff16612f5b5760405162461bcd60e51b815260040161075490614764565b6001600160a01b03811660009081526017602052604090205460ff16612f935760405162461bcd60e51b8152600401610754906147d2565b6001600160a01b038116612fb95760405162461bcd60e51b81526004016107549061491c565b6001600160a01b03166000908152601760205260409020805460ff191690556001600655565b60165481565b60155481565b62015f9081565b6000600260065414156130175760405162461bcd60e51b8152600401610754906148e5565b6008546001600160a01b031661303f5760405162461bcd60e51b815260040161075490614809565b600860009054906101000a90046001600160a01b03166001600160a01b031663fde924f76040518163ffffffff1660e01b815260040160206040518083038186803b15801561308d57600080fd5b505afa1580156130a1573d6000803e3d6000fd5b505050506040513d601f19601f820116820180604052508101906130c59190614176565b905090565b60008060006130d98585613c52565b9150915080156130fb5760405162461bcd60e51b815260040161075490614b0b565b509392505050565b6008546001600160a01b031661312b5760405162461bcd60e51b815260040161075490614809565b60085460405163f8b2cb4f60e01b81526000916001600160a01b03169063f8b2cb4f9061315c908790600401614344565b60206040518083038186803b15801561317457600080fd5b505afa158015613188573d6000803e3d6000fd5b505050506040513d601f19601f820116820180604052508101906131ac91906141e5565b600854604051634a46c67360e11b81529192506000916001600160a01b039091169063948d8ce6906131e2908890600401614344565b60206040518083038186803b1580156131fa57600080fd5b505afa15801561320e573d6000803e3d6000fd5b505050506040513d601f19601f8201168201806040525081019061323291906141e5565b6008549091506001600160a01b0316633fdddaa28661325185876130ca565b846040518463ffffffff1660e01b8152600401613270939291906143dd565b600060405180830381600087803b15801561328a57600080fd5b505af115801561329e573d6000803e3d6000fd5b50506040517fa9059cbb000000000000000000000000000000000000000000000000000000008152600092506001600160a01b038816915063a9059cbb906132ec90889088906004016143c4565b602060405180830381600087803b15801561330657600080fd5b505af115801561331a573d6000803e3d6000fd5b505050506040513d601f19601f8201168201806040525081019061333e9190614176565b90508061335d5760405162461bcd60e51b815260040161075490614a9d565b505050505050565b6109a63083836133ea565b3060009081526001602052604090205461338a90826130ca565b30600090815260016020526040812091909155546133a890826130ca565b600090815560405130907fddf252ad1be2c89b69c2b068fc378daa952ba7f163c4a11628f55a4df523b3ef906133df908590614c54565b60405180910390a350565b6001600160a01b03831660009081526001602052604090205461340d90826130ca565b6001600160a01b03808516600090815260016020526040808220939093559084168152205461343c9082613c2d565b6001600160a01b0380841660008181526001602052604090819020939093559151908516907fddf252ad1be2c89b69c2b068fc378daa952ba7f163c4a11628f55a4df523b3ef9061348e908590614c54565b60405180910390a3505050565b6134a481613c77565b6018546000541115610a485760405162461bcd60e51b8152600401610754906149c1565b6008546001600160a01b03166134f05760405162461bcd60e51b815260040161075490614809565b60085460405163f8b2cb4f60e01b81526000916001600160a01b03169063f8b2cb4f90613521908790600401614344565b60206040518083038186803b15801561353957600080fd5b505afa15801561354d573d6000803e3d6000fd5b505050506040513d601f19601f8201168201806040525081019061357191906141e5565b600854604051634a46c67360e11b81529192506000916001600160a01b039091169063948d8ce6906135a7908890600401614344565b60206040518083038186803b1580156135bf57600080fd5b505afa1580156135d3573d6000803e3d6000fd5b505050506040513d601f19601f820116820180604052508101906135f791906141e5565b90506000856001600160a01b03166323b872dd8630876040518463ffffffff1660e01b815260040161362b93929190614358565b602060405180830381600087803b15801561364557600080fd5b505af1158015613659573d6000803e3d6000fd5b505050506040513d601f19601f8201168201806040525081019061367d9190614176565b90508061369c5760405162461bcd60e51b815260040161075490614a9d565b6008546001600160a01b0316633fdddaa2876136b88688613c2d565b856040518463ffffffff1660e01b81526004016136d7939291906143dd565b600060405180830381600087803b1580156136f157600080fd5b505af1158015613705573d6000803e3d6000fd5b50505050505050505050565b6109a68230836133ea565b6008546001600160a01b0316156137455760405162461bcd60e51b815260040161075490614840565b68056bc75e2d6310000081101561376e5760405162461bcd60e51b815260040161075490614877565b6b033b2e3c9fd0803ce800000081111561379a5760405162461bcd60e51b8152600401610754906146f6565b60095465010000000000900460ff16156137b45760188190555b6137bd8161135e565b6137c7338261099c565b600760009054906101000a90046001600160a01b03166001600160a01b031663d556c5dc6040518163ffffffff1660e01b8152600401602060405180830381600087803b15801561381757600080fd5b505af115801561382b573d6000803e3d6000fd5b505050506040513d601f19601f8201168201806040525081019061384f9190614192565b6008805473ffffffffffffffffffffffffffffffffffffffff19166001600160a01b039283161790819055604080517fc6580d120000000000000000000000000000000000000000000000000000000081529051919092169163c6580d12916004808301926020929190829003018186803b1580156138cd57600080fd5b505afa1580156138e1573d6000803e3d6000fd5b505050506040513d601f19601f8201168201806040525081019061390591906141e5565b156139225760405162461bcd60e51b81526004016107549061498a565b60005b601354811015613b165760006013828154811061393e57fe5b6000918252602082200154601480546001600160a01b039092169350908490811061396557fe5b906000526020600020015490506000600a600201848154811061398457fe5b60009182526020822001546040517f23b872dd0000000000000000000000000000000000000000000000000000000081529092506001600160a01b038516906323b872dd906139db90339030908890600401614358565b602060405180830381600087803b1580156139f557600080fd5b505af1158015613a09573d6000803e3d6000fd5b505050506040513d601f19601f82011682018060405250810190613a2d9190614176565b905080613a4c5760405162461bcd60e51b815260040161075490614a9d565b600854613a68906001600160a01b038681169116600019613ce7565b905080613a875760405162461bcd60e51b815260040161075490614a9d565b6008546040517fe4e1e5380000000000000000000000000000000000000000000000000000000081526001600160a01b039091169063e4e1e53890613ad4908790879087906004016143dd565b600060405180830381600087803b158015613aee57600080fd5b505af1158015613b02573d6000803e3d6000fd5b505060019096019550613925945050505050565b505b60135415613b5f576013805480613b2b57fe5b6000828152602090208101600019908101805473ffffffffffffffffffffffffffffffffffffffff19169055019055613b18565b6008546012546040516334e1990760e01b81526001600160a01b03909216916334e1990791613b9091600401614c54565b600060405180830381600087803b158015613baa57600080fd5b505af1158015613bbe573d6000803e3d6000fd5b50506008546040516324dacaa960e11b81526001600160a01b0390911692506349b595529150613bf3906001906004016143fe565b600060405180830381600087803b158015613c0d57600080fd5b505af1158015613c21573d6000803e3d6000fd5b50506000601255505050565b600082820183811015610b845760405162461bcd60e51b815260040161075490614b42565b600080838311613c685750508082036000613c70565b505081810360015b9250929050565b30600090815260016020526040902054613c919082613c2d565b3060009081526001602052604081209190915554613caf9082613c2d565b60009081556040513091907fddf252ad1be2c89b69c2b068fc378daa952ba7f163c4a11628f55a4df523b3ef906133df908590614c54565b600080846001600160a01b031663dd62ed3e30866040518363ffffffff1660e01b8152600401613d1892919061437c565b60206040518083038186803b158015613d3057600080fd5b505afa158015613d44573d6000803e3d6000fd5b505050506040513d601f19601f82011682018060405250810190613d6891906141e5565b905082811415613d7c576001915050610b84565b8015613e0b5760405163095ea7b360e01b81526001600160a01b0386169063095ea7b390613db19087906000906004016143c4565b602060405180830381600087803b158015613dcb57600080fd5b505af1158015613ddf573d6000803e3d6000fd5b505050506040513d601f19601f82011682018060405250810190613e039190614176565b915050610b84565b60405163095ea7b360e01b81526001600160a01b0386169063095ea7b390613e3990879087906004016143c4565b602060405180830381600087803b158015613e5357600080fd5b505af1158015613e67573d6000803e3d6000fd5b505050506040513d601f19601f82011682018060405250810190613e8b9190614176565b95945050505050565b60008083601f840112613ea5578081fd5b50813567ffffffffffffffff811115613ebc578182fd5b6020830191508360208083028501011115613c7057600080fd5b600082601f830112613ee6578081fd5b8151613ef9613ef482614ca0565b614c79565b818152915060208083019084810181840286018201871015613f1a57600080fd5b60005b84811015613f3957815184529282019290820190600101613f1d565b505050505092915050565b600060208284031215613f55578081fd5b8135610b8481614cc0565b60008060408385031215613f72578081fd5b8235613f7d81614cc0565b91506020830135613f8d81614cc0565b809150509250929050565b600080600060608486031215613fac578081fd5b8335613fb781614cc0565b92506020840135613fc781614cc0565b929592945050506040919091013590565b60008060408385031215613fea578182fd5b8235613ff581614cc0565b946020939093013593505050565b600080600060608486031215614017578283fd5b833561402281614cc0565b95602085013595506040909401359392505050565b60006020808385031215614049578182fd5b825167ffffffffffffffff81111561405f578283fd5b8301601f8101851361406f578283fd5b805161407d613ef482614ca0565b8181528381019083850185840285018601891015614099578687fd5b8694505b838510156140c45780516140b081614cc0565b83526001949094019391850191850161409d565b50979650505050505050565b600080600080606085870312156140e5578081fd5b843567ffffffffffffffff8111156140fb578182fd5b61410787828801613e94565b90989097506020870135966040013595509350505050565b600060208284031215614130578081fd5b815167ffffffffffffffff811115614146578182fd5b61415284828501613ed6565b949350505050565b60006020828403121561416b578081fd5b8135610b8481614cd5565b600060208284031215614187578081fd5b8151610b8481614cd5565b6000602082840312156141a3578081fd5b8151610b8481614cc0565b6000602082840312156141bf578081fd5b813560068110610b84578182fd5b6000602082840312156141de578081fd5b5035919050565b6000602082840312156141f6578081fd5b5051919050565b600080600060408486031215614211578081fd5b83359250602084013567ffffffffffffffff81111561422e578182fd5b61423a86828701613e94565b9497909650939450505050565b60008060408385031215614259578182fd5b505080516020909101519092909150565b60008060006060848603121561427e578081fd5b8351925060208401519150604084015167ffffffffffffffff8111156142a2578182fd5b6142ae86828701613ed6565b9150509250925092565b6000806000606084860312156142cc578081fd5b505081359360208301359350604090920135919050565b60008284527f07ffffffffffffffffffffffffffffffffffffffffffffffffffffffffffffff831115614314578081fd5b6020830280836020870137939093016020019283525090919050565b15159052565b6006811061434057fe5b9052565b6001600160a01b0391909116815260200190565b6001600160a01b039384168152919092166020820152604081019190915260600190565b6001600160a01b0392831681529116602082015260400190565b6001600160a01b03959095168552921515602085015260408401919091526060830152608082015260a00190565b6001600160a01b03929092168252602082015260400190565b6001600160a01b039390931683526020830191909152604082015260600190565b901515815260200190565b9515158652931515602086015291151560408501521515606084015215156080830152151560a082015260c00190565b60006020825282602083015282846040840137818301604090810191909152601f909201601f19160101919050565b6001600160a01b0393841681529183166020830152909116604082015260600190565b6001600160a01b039485168152928416602084015292166040820152606081019190915260800190565b6001600160a01b03958616815293851660208501529190931660408301526060820192909252608081019190915260a00190565b60006001600160a01b0380881683528087166020840152508460408301526080606083015261451c6080830184866142e3565b979650505050505050565b6001600160a01b0394851681529290931660208301526040820152606081019190915260800190565b6001600160a01b03958616815293909416602084015260408301919091526060820152608081019190915260a00190565b60006001600160a01b038916825287602083015260c060408301526145aa60c0830187896142e3565b606083019590955250608081019290925260a090910152949350505050565b6000602080835283518082850152825b818110156145f5578581018301518582016040015282016145d9565b818111156146065783604083870101525b50601f01601f1916929092016040019392505050565b60208082526012908201527f4552525f4e4f545f434f4e54524f4c4c45520000000000000000000000000000604082015260600190565b6020808252601c908201527f4552525f43414e4e4f545f4144445f52454d4f56455f544f4b454e5300000000604082015260600190565b6020808252818101527f4552525f494e434f4e53495354454e545f544f4b454e5f54494d455f4c4f434b604082015260600190565b60208082526014908201527f4552525f4e4f545f4f4e5f57484954454c495354000000000000000000000000604082015260600190565b60208082526013908201527f4552525f494e49545f535550504c595f4d415800000000000000000000000000604082015260600190565b60208082526010908201527f4552525f5a45524f5f4144445245535300000000000000000000000000000000604082015260600190565b60208082526018908201527f4552525f43414e4e4f545f57484954454c4953545f4c50530000000000000000604082015260600190565b6020808252601c908201527f4552525f4e4f545f434f4e464947555241424c455f5745494748545300000000604082015260600190565b60208082526016908201527f4552525f4c505f4e4f545f57484954454c495354454400000000000000000000604082015260600190565b6020808252600f908201527f4552525f4e4f545f435245415445440000000000000000000000000000000000604082015260600190565b6020808252600e908201527f4552525f49535f43524541544544000000000000000000000000000000000000604082015260600190565b60208082526013908201527f4552525f494e49545f535550504c595f4d494e00000000000000000000000000604082015260600190565b6020808252600b908201527f4552525f5245454e545259000000000000000000000000000000000000000000604082015260600190565b60208082526010908201527f4552525f5245454e5452595f5649455700000000000000000000000000000000604082015260600190565b60208082526013908201527f4552525f494e56414c49445f4144445245535300000000000000000000000000604082015260600190565b60208082526015908201527f4552525f43414e4e4f545f4348414e47455f4341500000000000000000000000604082015260600190565b60208082526014908201527f4552525f4e4f4e5a45524f5f455849545f464545000000000000000000000000604082015260600190565b60208082526015908201527f4552525f4341505f4c494d49545f524541434845440000000000000000000000604082015260600190565b60208082526016908201527f4552525f5043544f4b454e5f4241445f43414c4c455200000000000000000000604082015260600190565b60208082526015908201527f4552525f50454e44494e475f544f4b454e5f4144440000000000000000000000604082015260600190565b6020808252601b908201527f4552525f52454d4f56455f574954485f4144445f50454e44494e470000000000604082015260600190565b6020808252600f908201527f4552525f45524332305f46414c53450000000000000000000000000000000000604082015260600190565b60208082526015908201527f4552525f4e4f545f5041555341424c455f535741500000000000000000000000604082015260600190565b60208082526011908201527f4552525f5355425f554e444552464c4f57000000000000000000000000000000604082015260600190565b60208082526010908201527f4552525f4144445f4f564552464c4f5700000000000000000000000000000000604082015260600190565b6020808252601d908201527f4552525f4e4f545f434f4e464947555241424c455f535741505f464545000000604082015260600190565b6020808252601c908201527f4552525f4e4f5f5550444154455f445552494e475f4752414455414c00000000604082015260600190565b600060e082019050835460ff80821615158452808260081c1615156020850152808260101c1615156040850152808260181c1615156060850152614c3360808501828460201c16614330565b614c4560a08501828460281c16614330565b5050610b8460c0830184614336565b90815260200190565b918252602082015260400190565b60ff91909116815260200190565b60405181810167ffffffffffffffff81118282101715614c9857600080fd5b604052919050565b600067ffffffffffffffff821115614cb6578081fd5b5060209081020190565b6001600160a01b0381168114610a4857600080fd5b8015158114610a4857600080fdfea264697066735822122037794f4a936ba55c70b82c33e012d88a1edd9d5b7dfd2580fc9dbd1b61bf8a8164736f6c634300060c0033a2646970667358221220611a2776a3a26a8c8ee9e3cebeb64583fa6b24b3324f587175688c11299c185364736f6c634300060c0033",
  "linkReferences": {
    "contracts/test/KalancerSafeMath.sol": {
      "KalancerSafeMath": [
        {
          "length": 20,
          "start": 14096
        }
      ]
    },
    "contracts/test/RightsManager.sol": {
      "RightsManager": [
        {
          "length": 20,
          "start": 8226
        },
        {
          "length": 20,
          "start": 12724
        }
      ]
    },
    "contracts/test/SmartPoolManager.sol": {
      "SmartPoolManager": [
        {
          "length": 20,
          "start": 2374
        },
        {
          "length": 20,
          "start": 6427
        },
        {
          "length": 20,
          "start": 7712
        },
        {
          "length": 20,
          "start": 8527
        },
        {
          "length": 20,
          "start": 9709
        },
        {
          "length": 20,
          "start": 9896
        },
        {
          "length": 20,
          "start": 10491
        },
        {
          "length": 20,
          "start": 11331
        },
        {
          "length": 20,
          "start": 11882
        },
        {
          "length": 20,
          "start": 12450
        },
        {
          "length": 20,
          "start": 13774
        },
        {
          "length": 20,
          "start": 13949
        },
        {
          "length": 20,
          "start": 14532
        },
        {
          "length": 20,
          "start": 15366
        },
        {
          "length": 20,
          "start": 16357
        }
      ]
    }
  },
  "deployedLinkReferences": {
    "contracts/test/KalancerSafeMath.sol": {
      "KalancerSafeMath": [
        {
          "length": 20,
          "start": 14064
        }
      ]
    },
    "contracts/test/RightsManager.sol": {
      "RightsManager": [
        {
          "length": 20,
          "start": 8194
        },
        {
          "length": 20,
          "start": 12692
        }
      ]
    },
    "contracts/test/SmartPoolManager.sol": {
      "SmartPoolManager": [
        {
          "length": 20,
          "start": 2342
        },
        {
          "length": 20,
          "start": 6395
        },
        {
          "length": 20,
          "start": 7680
        },
        {
          "length": 20,
          "start": 8495
        },
        {
          "length": 20,
          "start": 9677
        },
        {
          "length": 20,
          "start": 9864
        },
        {
          "length": 20,
          "start": 10459
        },
        {
          "length": 20,
          "start": 11299
        },
        {
          "length": 20,
          "start": 11850
        },
        {
          "length": 20,
          "start": 12418
        },
        {
          "length": 20,
          "start": 13742
        },
        {
          "length": 20,
          "start": 13917
        },
        {
          "length": 20,
          "start": 14500
        },
        {
          "length": 20,
          "start": 15334
        },
        {
          "length": 20,
          "start": 16325
        }
      ]
    }
  }
}