{
  "_format": "hh-sol-artifact-1",
  "contractName": "KMath",
  "sourceName": "contracts/test/KMath.sol",
  "abi": [
    {
      "inputs": [],
      "name": "BONE",
      "outputs": [
        {
          "internalType": "uint256",
          "name": "",
          "type": "uint256"
        }
      ],
      "stateMutability": "view",
      "type": "function"
    },
    {
      "inputs": [],
      "name": "BPOW_PRECISION",
      "outputs": [
        {
          "internalType": "uint256",
          "name": "",
          "type": "uint256"
        }
      ],
      "stateMutability": "view",
      "type": "function"
    },
    {
      "inputs": [],
      "name": "EXIT_FEE",
      "outputs": [
        {
          "internalType": "uint256",
          "name": "",
          "type": "uint256"
        }
      ],
      "stateMutability": "view",
      "type": "function"
    },
    {
      "inputs": [],
      "name": "INIT_POOL_SUPPLY",
      "outputs": [
        {
          "internalType": "uint256",
          "name": "",
          "type": "uint256"
        }
      ],
      "stateMutability": "view",
      "type": "function"
    },
    {
      "inputs": [],
      "name": "MAX_BOUND_TOKENS",
      "outputs": [
        {
          "internalType": "uint256",
          "name": "",
          "type": "uint256"
        }
      ],
      "stateMutability": "view",
      "type": "function"
    },
    {
      "inputs": [],
      "name": "MAX_BPOW_BASE",
      "outputs": [
        {
          "internalType": "uint256",
          "name": "",
          "type": "uint256"
        }
      ],
      "stateMutability": "view",
      "type": "function"
    },
    {
      "inputs": [],
      "name": "MAX_FEE",
      "outputs": [
        {
          "internalType": "uint256",
          "name": "",
          "type": "uint256"
        }
      ],
      "stateMutability": "view",
      "type": "function"
    },
    {
      "inputs": [],
      "name": "MAX_IN_RATIO",
      "outputs": [
        {
          "internalType": "uint256",
          "name": "",
          "type": "uint256"
        }
      ],
      "stateMutability": "view",
      "type": "function"
    },
    {
      "inputs": [],
      "name": "MAX_OUT_RATIO",
      "outputs": [
        {
          "internalType": "uint256",
          "name": "",
          "type": "uint256"
        }
      ],
      "stateMutability": "view",
      "type": "function"
    },
    {
      "inputs": [],
      "name": "MAX_TOTAL_WEIGHT",
      "outputs": [
        {
          "internalType": "uint256",
          "name": "",
          "type": "uint256"
        }
      ],
      "stateMutability": "view",
      "type": "function"
    },
    {
      "inputs": [],
      "name": "MAX_WEIGHT",
      "outputs": [
        {
          "internalType": "uint256",
          "name": "",
          "type": "uint256"
        }
      ],
      "stateMutability": "view",
      "type": "function"
    },
    {
      "inputs": [],
      "name": "MIN_BALANCE",
      "outputs": [
        {
          "internalType": "uint256",
          "name": "",
          "type": "uint256"
        }
      ],
      "stateMutability": "view",
      "type": "function"
    },
    {
      "inputs": [],
      "name": "MIN_BOUND_TOKENS",
      "outputs": [
        {
          "internalType": "uint256",
          "name": "",
          "type": "uint256"
        }
      ],
      "stateMutability": "view",
      "type": "function"
    },
    {
      "inputs": [],
      "name": "MIN_BPOW_BASE",
      "outputs": [
        {
          "internalType": "uint256",
          "name": "",
          "type": "uint256"
        }
      ],
      "stateMutability": "view",
      "type": "function"
    },
    {
      "inputs": [],
      "name": "MIN_FEE",
      "outputs": [
        {
          "internalType": "uint256",
          "name": "",
          "type": "uint256"
        }
      ],
      "stateMutability": "view",
      "type": "function"
    },
    {
      "inputs": [],
      "name": "MIN_WEIGHT",
      "outputs": [
        {
          "internalType": "uint256",
          "name": "",
          "type": "uint256"
        }
      ],
      "stateMutability": "view",
      "type": "function"
    },
    {
      "inputs": [
        {
          "internalType": "uint256",
          "name": "tokenBalanceIn",
          "type": "uint256"
        },
        {
          "internalType": "uint256",
          "name": "tokenWeightIn",
          "type": "uint256"
        },
        {
          "internalType": "uint256",
          "name": "tokenBalanceOut",
          "type": "uint256"
        },
        {
          "internalType": "uint256",
          "name": "tokenWeightOut",
          "type": "uint256"
        },
        {
          "internalType": "uint256",
          "name": "tokenAmountOut",
          "type": "uint256"
        },
        {
          "internalType": "uint256",
          "name": "swapFee",
          "type": "uint256"
        }
      ],
      "name": "calcInGivenOut",
      "outputs": [
        {
          "internalType": "uint256",
          "name": "tokenAmountIn",
          "type": "uint256"
        }
      ],
      "stateMutability": "pure",
      "type": "function"
    },
    {
      "inputs": [
        {
          "internalType": "uint256",
          "name": "tokenBalanceIn",
          "type": "uint256"
        },
        {
          "internalType": "uint256",
          "name": "tokenWeightIn",
          "type": "uint256"
        },
        {
          "internalType": "uint256",
          "name": "tokenBalanceOut",
          "type": "uint256"
        },
        {
          "internalType": "uint256",
          "name": "tokenWeightOut",
          "type": "uint256"
        },
        {
          "internalType": "uint256",
          "name": "tokenAmountIn",
          "type": "uint256"
        },
        {
          "internalType": "uint256",
          "name": "swapFee",
          "type": "uint256"
        }
      ],
      "name": "calcOutGivenIn",
      "outputs": [
        {
          "internalType": "uint256",
          "name": "tokenAmountOut",
          "type": "uint256"
        }
      ],
      "stateMutability": "pure",
      "type": "function"
    },
    {
      "inputs": [
        {
          "internalType": "uint256",
          "name": "tokenBalanceOut",
          "type": "uint256"
        },
        {
          "internalType": "uint256",
          "name": "tokenWeightOut",
          "type": "uint256"
        },
        {
          "internalType": "uint256",
          "name": "poolSupply",
          "type": "uint256"
        },
        {
          "internalType": "uint256",
          "name": "totalWeight",
          "type": "uint256"
        },
        {
          "internalType": "uint256",
          "name": "tokenAmountOut",
          "type": "uint256"
        },
        {
          "internalType": "uint256",
          "name": "swapFee",
          "type": "uint256"
        }
      ],
      "name": "calcPoolInGivenSingleOut",
      "outputs": [
        {
          "internalType": "uint256",
          "name": "poolAmountIn",
          "type": "uint256"
        }
      ],
      "stateMutability": "pure",
      "type": "function"
    },
    {
      "inputs": [
        {
          "internalType": "uint256",
          "name": "tokenBalanceIn",
          "type": "uint256"
        },
        {
          "internalType": "uint256",
          "name": "tokenWeightIn",
          "type": "uint256"
        },
        {
          "internalType": "uint256",
          "name": "poolSupply",
          "type": "uint256"
        },
        {
          "internalType": "uint256",
          "name": "totalWeight",
          "type": "uint256"
        },
        {
          "internalType": "uint256",
          "name": "tokenAmountIn",
          "type": "uint256"
        },
        {
          "internalType": "uint256",
          "name": "swapFee",
          "type": "uint256"
        }
      ],
      "name": "calcPoolOutGivenSingleIn",
      "outputs": [
        {
          "internalType": "uint256",
          "name": "poolAmountOut",
          "type": "uint256"
        }
      ],
      "stateMutability": "pure",
      "type": "function"
    },
    {
      "inputs": [
        {
          "internalType": "uint256",
          "name": "tokenBalanceIn",
          "type": "uint256"
        },
        {
          "internalType": "uint256",
          "name": "tokenWeightIn",
          "type": "uint256"
        },
        {
          "internalType": "uint256",
          "name": "poolSupply",
          "type": "uint256"
        },
        {
          "internalType": "uint256",
          "name": "totalWeight",
          "type": "uint256"
        },
        {
          "internalType": "uint256",
          "name": "poolAmountOut",
          "type": "uint256"
        },
        {
          "internalType": "uint256",
          "name": "swapFee",
          "type": "uint256"
        }
      ],
      "name": "calcSingleInGivenPoolOut",
      "outputs": [
        {
          "internalType": "uint256",
          "name": "tokenAmountIn",
          "type": "uint256"
        }
      ],
      "stateMutability": "pure",
      "type": "function"
    },
    {
      "inputs": [
        {
          "internalType": "uint256",
          "name": "tokenBalanceOut",
          "type": "uint256"
        },
        {
          "internalType": "uint256",
          "name": "tokenWeightOut",
          "type": "uint256"
        },
        {
          "internalType": "uint256",
          "name": "poolSupply",
          "type": "uint256"
        },
        {
          "internalType": "uint256",
          "name": "totalWeight",
          "type": "uint256"
        },
        {
          "internalType": "uint256",
          "name": "poolAmountIn",
          "type": "uint256"
        },
        {
          "internalType": "uint256",
          "name": "swapFee",
          "type": "uint256"
        }
      ],
      "name": "calcSingleOutGivenPoolIn",
      "outputs": [
        {
          "internalType": "uint256",
          "name": "tokenAmountOut",
          "type": "uint256"
        }
      ],
      "stateMutability": "pure",
      "type": "function"
    },
    {
      "inputs": [
        {
          "internalType": "uint256",
          "name": "tokenBalanceIn",
          "type": "uint256"
        },
        {
          "internalType": "uint256",
          "name": "tokenWeightIn",
          "type": "uint256"
        },
        {
          "internalType": "uint256",
          "name": "tokenBalanceOut",
          "type": "uint256"
        },
        {
          "internalType": "uint256",
          "name": "tokenWeightOut",
          "type": "uint256"
        },
        {
          "internalType": "uint256",
          "name": "swapFee",
          "type": "uint256"
        }
      ],
      "name": "calcSpotPrice",
      "outputs": [
        {
          "internalType": "uint256",
          "name": "spotPrice",
          "type": "uint256"
        }
      ],
      "stateMutability": "pure",
      "type": "function"
    }
  ],
  "bytecode": "0x608060405234801561001057600080fd5b50610e49806100206000396000f3fe608060405234801561001057600080fd5b506004361061018d5760003560e01c8063a221ee49116100e3578063bc694ea21161008c578063e4a28a5211610066578063e4a28a5214610192578063ec09302114610368578063f8d6aed4146103705761018d565b8063bc694ea214610358578063c36596a6146101b4578063c6580d12146103605761018d565b8063ba019dab116100bd578063ba019dab1461030d578063ba9530a614610315578063bc063e1a146103505761018d565b8063a221ee49146102c8578063b0e0d136146102fd578063b7b800a4146103055761018d565b806382f652ad11610145578063892980121161011f578063892980121461027d5780639381cd2b146102b8578063992e2a92146102c05761018d565b806382f652ad146101ff5780638656b6531461023a578063867378c5146102755761018d565b8063218b538211610176578063218b5382146101b45780635c1bbaf7146101bc57806376c7a3c7146101f75761018d565b806309a3bbe414610192578063189d00ca146101ac575b600080fd5b61019a6103ab565b60408051918252519081900360200190f35b61019a6103b8565b61019a6103cc565b61019a600480360360c08110156101d257600080fd5b5080359060208101359060408101359060608101359060808101359060a001356103d8565b61019a610490565b61019a600480360360c081101561021557600080fd5b5080359060208101359060408101359060608101359060808101359060a001356104a2565b61019a600480360360c081101561025057600080fd5b5080359060208101359060408101359060608101359060808101359060a00135610561565b61019a610602565b61019a600480360360c081101561029357600080fd5b5080359060208101359060408101359060608101359060808101359060a00135610616565b61019a6106c6565b61019a6106d3565b61019a600480360360a08110156102de57600080fd5b50803590602081013590604081013590606081013590608001356106df565b61019a610744565b61019a610749565b61019a61074e565b61019a600480360360c081101561032b57600080fd5b5080359060208101359060408101359060608101359060808101359060a00135610753565b61019a6107d4565b61019a6107e4565b61019a6107f0565b61019a6107f5565b61019a600480360360c081101561038657600080fd5b5080359060208101359060408101359060608101359060808101359060a00135610805565b6802b5e3af16b188000081565b6402540be400670de0b6b3a76400005b0481565b670de0b6b3a764000081565b6000806103e58786610888565b905060006103f387866109c8565b905060006104018289610888565b90506000610417670de0b6b3a764000085610888565b905060006104258383610a29565b90506000610433828e610b46565b90506000610441828f610c22565b9050600061046061045a670de0b6b3a76400008a610c22565b8b610b46565b905061047d82610478670de0b6b3a764000084610c22565b610888565b9f9e505050505050505050505050505050565b620f4240670de0b6b3a76400006103c8565b6000806104af8786610888565b905060006104c5670de0b6b3a764000083610c22565b905060006104d38286610b46565b905060006104ed87610478670de0b6b3a764000085610c22565b905060006104fb8c83610c22565b90506000610509828e610888565b905060006105178288610a29565b90506000610525828e610b46565b905060006105338e83610c22565b905061054c81610478670de0b6b3a76400006000610c22565b99505050505050505050509695505050505050565b60008061056e8786610888565b9050600061058d610587670de0b6b3a764000084610c22565b85610b46565b905060006105ac866105a7670de0b6b3a764000085610c22565b610b46565b905060006105ba8b836109c8565b905060006105c8828d610888565b905060006105d68287610a29565b905060006105e4828d610b46565b90506105f0818d610c22565b9e9d5050505050505050505050505050565b64e8d4a51000670de0b6b3a76400006103c8565b6000806106238786610888565b9050600061063e856105a7670de0b6b3a76400006000610c22565b9050600061064c8883610c22565b9050600061065a828a610888565b9050600061067982610674670de0b6b3a764000088610888565b610a29565b90506000610687828e610b46565b905060006106958e83610c22565b905060006106ae61045a670de0b6b3a76400008a610c22565b905061047d826105a7670de0b6b3a764000084610c22565b68056bc75e2d6310000081565b6704a03ce68d21555681565b6000806106ec8787610888565b905060006106fa8686610888565b905060006107088383610888565b9050600061072a670de0b6b3a7640000610478670de0b6b3a764000089610c22565b90506107368282610b46565b9a9950505050505050505050565b600881565b600281565b600181565b6000806107608786610888565b90506000610776670de0b6b3a764000085610c22565b90506107828582610b46565b905060006107948a6104788c856109c8565b905060006107a28285610a29565b905060006107b8670de0b6b3a764000083610c22565b90506107c48a82610b46565b9c9b505050505050505050505050565b600a670de0b6b3a76400006103c8565b671bc16d674ec7ffff81565b600081565b6002670de0b6b3a76400006103c8565b6000806108128588610888565b905060006108208786610c22565b9050600061082e8883610888565b9050600061083c8285610a29565b905061085081670de0b6b3a7640000610c22565b9050610864670de0b6b3a764000087610c22565b94506108796108738c83610b46565b86610888565b9b9a5050505050505050505050565b6000816108dc576040805162461bcd60e51b815260206004820152600c60248201527f4552525f4449565f5a45524f0000000000000000000000000000000000000000604482015290519081900360640190fd5b670de0b6b3a764000083028315806109045750670de0b6b3a764000084828161090157fe5b04145b610955576040805162461bcd60e51b815260206004820152601060248201527f4552525f4449565f494e5445524e414c00000000000000000000000000000000604482015290519081900360640190fd5b600283048101818110156109b0576040805162461bcd60e51b815260206004820152601060248201527f4552525f4449565f494e5445524e414c00000000000000000000000000000000604482015290519081900360640190fd5b60008482816109bb57fe5b0493505050505b92915050565b600082820183811015610a22576040805162461bcd60e51b815260206004820152601060248201527f4552525f4144445f4f564552464c4f5700000000000000000000000000000000604482015290519081900360640190fd5b9392505050565b60006001831015610a81576040805162461bcd60e51b815260206004820152601560248201527f4552525f42504f575f424153455f544f4f5f4c4f570000000000000000000000604482015290519081900360640190fd5b671bc16d674ec7ffff831115610ade576040805162461bcd60e51b815260206004820152601660248201527f4552525f42504f575f424153455f544f4f5f4849474800000000000000000000604482015290519081900360640190fd5b6000610ae983610c90565b90506000610af78483610c22565b90506000610b0d86610b0885610cab565b610cb9565b905081610b1e5792506109c2915050565b6000610b2f87846305f5e100610d10565b9050610b3b8282610b46565b979650505050505050565b6000828202831580610b60575082848281610b5d57fe5b04145b610bb1576040805162461bcd60e51b815260206004820152601060248201527f4552525f4d554c5f4f564552464c4f5700000000000000000000000000000000604482015290519081900360640190fd5b6706f05b59d3b20000810181811015610c11576040805162461bcd60e51b815260206004820152601060248201527f4552525f4d554c5f4f564552464c4f5700000000000000000000000000000000604482015290519081900360640190fd5b6000670de0b6b3a7640000826109bb565b6000806000610c318585610dee565b915091508015610c88576040805162461bcd60e51b815260206004820152601160248201527f4552525f5355425f554e444552464c4f57000000000000000000000000000000604482015290519081900360640190fd5b509392505050565b6000670de0b6b3a7640000610ca483610cab565b0292915050565b670de0b6b3a7640000900490565b60008060028306610cd257670de0b6b3a7640000610cd4565b835b90506002830492505b8215610a2257610ced8485610b46565b93506002830615610d0557610d028185610b46565b90505b600283049250610cdd565b6000828180610d2787670de0b6b3a7640000610dee565b9092509050670de0b6b3a764000080600060015b888410610ddf576000670de0b6b3a764000082029050600080610d6f8a610d6a85670de0b6b3a7640000610c22565b610dee565b91509150610d81876105a7848c610b46565b9650610d8d8784610888565b965086610d9c57505050610ddf565b8715610da6579315935b8015610db0579315935b8415610dc757610dc08688610c22565b9550610dd4565b610dd186886109c8565b95505b505050600101610d3b565b50909998505050505050505050565b600080828410610e045750508082036000610e0c565b505081810360015b925092905056fea26469706673582212202769584fcce31ad5965a521e7d768d394872cb2552f8dabc8ea4e99069bd9e8564736f6c634300060c0033",
  "linkReferences": {},
  "deployedLinkReferences": {}
}