{
  "contractName": "CRPFactory",
  "abi": [
    {
      "anonymous": false,
      "inputs": [
        {
          "indexed": true,
          "internalType": "address",
          "name": "caller",
          "type": "address"
        },
        {
          "indexed": true,
          "internalType": "address",
          "name": "pool",
          "type": "address"
        }
      ],
      "name": "LogNewCrp",
      "type": "event"
    },
    {
      "inputs": [
        {
          "internalType": "address",
          "name": "factoryAddress",
          "type": "address"
        },
        {
          "components": [
            {
              "internalType": "string",
              "name": "poolTokenSymbol",
              "type": "string"
            },
            {
              "internalType": "string",
              "name": "poolTokenName",
              "type": "string"
            },
            {
              "internalType": "address[]",
              "name": "constituentTokens",
              "type": "address[]"
            },
            {
              "internalType": "uint256[]",
              "name": "tokenBalances",
              "type": "uint256[]"
            },
            {
              "internalType": "uint256[]",
              "name": "tokenWeights",
              "type": "uint256[]"
            },
            {
              "internalType": "uint256",
              "name": "swapFee",
              "type": "uint256"
            }
          ],
          "internalType": "struct ConfigurableRightsPool.PoolParams",
          "name": "poolParams",
          "type": "tuple"
        },
        {
          "components": [
            {
              "internalType": "bool",
              "name": "canPauseSwapping",
              "type": "bool"
            },
            {
              "internalType": "bool",
              "name": "canChangeSwapFee",
              "type": "bool"
            },
            {
              "internalType": "bool",
              "name": "canChangeWeights",
              "type": "bool"
            },
            {
              "internalType": "bool",
              "name": "canAddRemoveTokens",
              "type": "bool"
            },
            {
              "internalType": "bool",
              "name": "canWhitelistLPs",
              "type": "bool"
            },
            {
              "internalType": "bool",
              "name": "canChangeCap",
              "type": "bool"
            }
          ],
          "internalType": "struct RightsManager.Rights",
          "name": "rights",
          "type": "tuple"
        }
      ],
      "name": "newCrp",
      "outputs": [
        {
          "internalType": "contract ConfigurableRightsPool",
          "name": "",
          "type": "address"
        }
      ],
      "stateMutability": "nonpayable",
      "type": "function"
    },
    {
      "inputs": [
        {
          "internalType": "address",
          "name": "addr",
          "type": "address"
        }
      ],
      "name": "isCrp",
      "outputs": [
        {
          "internalType": "bool",
          "name": "",
          "type": "bool"
        }
      ],
      "stateMutability": "view",
      "type": "function"
    }
  ],
  "bytecode": "0x608060405234801561001057600080fd5b50615b1c806100206000396000f3fe60806040523480156200001157600080fd5b50600436106200003a5760003560e01c80634420002b146200003f578063dc19e842146200006e575b600080fd5b6200005662000050366004620002d9565b62000094565b60405162000065919062000475565b60405180910390f35b620000856200007f366004620002b4565b62000252565b604051620000659190620005a4565b60006002620000a7604085018562000649565b90501015620000d35760405162461bcd60e51b8152600401620000ca906200061d565b60405180910390fd5b620000e2604084018462000649565b9050620000f3606085018562000649565b905014620001155760405162461bcd60e51b8152600401620000ca90620005e6565b62000124604084018462000649565b905062000135608085018562000649565b905014620001575760405162461bcd60e51b8152600401620000ca90620005af565b60008484846040516200016a9062000270565b620001789392919062000489565b604051809103906000f08015801562000195573d6000803e3d6000fd5b506040519091506001600160a01b0382169033907f8aaa45dbe91f274e1c80489691f3d62dbf595d587fcc6a989fa27696e7c2a23290600090a36001600160a01b03811660008181526020819052604090819020805460ff19166001179055516392eefe9b60e01b81526392eefe9b906200021590339060040162000475565b600060405180830381600087803b1580156200023057600080fd5b505af115801562000245573d6000803e3d6000fd5b5092979650505050505050565b6001600160a01b031660009081526020819052604090205460ff1690565b6153a7806200074083390190565b80356001600160a01b03811681146200029657600080fd5b92915050565b600060c08284031215620002ae578081fd5b50919050565b600060208284031215620002c6578081fd5b620002d283836200027e565b9392505050565b60008060006101008486031215620002ef578182fd5b620002fb85856200027e565b9250602084013567ffffffffffffffff81111562000317578283fd5b62000325868287016200029c565b9250506200033785604086016200029c565b90509250925092565b60008284526020808501945082825b8581101562000381578183016001600160a01b036200036f82856200027e565b1688529683019691506001016200034f565b509495945050505050565b81835260006001600160fb1b03831115620003a5578081fd5b6020830280836020870137939093016020019283525090919050565b60008284528282602086013780602084860101526020601f19601f85011685010190509392505050565b8035620003f8816200072d565b1515825260208101356200040c816200072d565b15156020830152604081013562000423816200072d565b1515604083015260608101356200043a816200072d565b15156060830152608081013562000451816200072d565b1515608083015260a081013562000468816200072d565b80151560a0840152505050565b6001600160a01b0391909116815260200190565b6001600160a01b038416815261010060208201819052600090620004ae8580620006e5565b60c083860152620004c56101c086018284620003c1565b92505050620004d86020860186620006e5565b60ff198086850301610120870152620004f3848385620003c1565b93506200050460408901896200069a565b9350915080868503016101408701526200052084848462000340565b93506200053160608901896200069a565b9350915080868503016101608701526200054d8484846200038c565b93506200055e60808901896200069a565b935091508086850301610180870152506200057b8383836200038c565b60a08801356101a087015293506200059c92505060408401905084620003eb565b949350505050565b901515815260200190565b6020808252601a908201527f4552525f53544152545f574549474854535f4d49534d41544348000000000000604082015260600190565b6020808252601b908201527f4552525f53544152545f42414c414e4345535f4d49534d415443480000000000604082015260600190565b6020808252601290820152714552525f544f4f5f4645575f544f4b454e5360701b604082015260600190565b6000808335601e1984360301811262000660578283fd5b83018035915067ffffffffffffffff8211156200067b578283fd5b60209081019250810236038213156200069357600080fd5b9250929050565b6000808335601e19843603018112620006b1578283fd5b830160208101925035905067ffffffffffffffff811115620006d257600080fd5b6020810236038313156200069357600080fd5b6000808335601e19843603018112620006fc578283fd5b830160208101925035905067ffffffffffffffff8111156200071d57600080fd5b8036038313156200069357600080fd5b80151581146200073c57600080fd5b5056fe60806040523480156200001157600080fd5b50604051620053a7380380620053a78339810160408190526200003491620006c7565b815160208084015182519091620000519160039185019062000337565b5080516200006790600490602084019062000337565b5050600580546001600160a01b03191633179055506001600655620f4240670de0b6b3a7640000048260a001511015620000be5760405162461bcd60e51b8152600401620000b590620008ef565b60405180910390fd5b60a082015167016345785d8a00001015620000ed5760405162461bcd60e51b8152600401620000b590620008ef565b81604001515182606001515114620001195760405162461bcd60e51b8152600401620000b5906200088c565b81604001515182608001515114620001455760405162461bcd60e51b8152600401620000b59062000855565b600282604001515110156200016e5760405162461bcd60e51b8152600401620000b590620008c3565b60088260400151511115620001975760405162461bcd60e51b8152600401620000b59062000926565b60408083015190516377d4434960e01b815273__SmartPoolManager______________________916377d4434991620001d4919060040162000806565b60006040518083038186803b158015620001ed57600080fd5b505af415801562000202573d6000803e3d6000fd5b5050600780546001600160a01b0319166001600160a01b03871617905550508051600980546020808501516040808701516060880151608089015160a08a015160ff199097169815159890981761ff001916610100941515949094029390931762ff0000191662010000911515919091021763ff00000019166301000000921515929092029190911760ff60201b1916640100000000951515959095029490941760ff60281b1916650100000000009215159290920291909117909155908301518051620002d5926013920190620003bc565b5060608201518051620002f19160149160209091019062000422565b5060a082015160125562015f906015556101f4601655608082015180516200032291600c9160209091019062000422565b50506000600a555050600019601855620009b6565b828054600181600116156101000203166002900490600052602060002090601f016020900481019282601f106200037a57805160ff1916838001178555620003aa565b82800160010185558215620003aa579182015b82811115620003aa5782518255916020019190600101906200038d565b50620003b89291506200045f565b5090565b82805482825590600052602060002090810192821562000414579160200282015b828111156200041457825182546001600160a01b0319166001600160a01b03909116178255602090920191600190910190620003dd565b50620003b892915062000476565b828054828255906000526020600020908101928215620003aa5791602002820182811115620003aa5782518255916020019190600101906200038d565b5b80821115620003b8576000815560010162000460565b5b80821115620003b85780546001600160a01b031916815560010162000477565b80516001600160a01b0381168114620004af57600080fd5b92915050565b600082601f830112620004c6578081fd5b8151620004dd620004d78262000984565b6200095d565b818152915060208083019084810181840286018201871015620004ff57600080fd5b60005b848110156200052a5762000517888362000497565b8452928201929082019060010162000502565b505050505092915050565b600082601f83011262000546578081fd5b815162000557620004d78262000984565b8181529150602080830190848101818402860182018710156200057957600080fd5b60005b848110156200052a578151845292820192908201906001016200057c565b600082601f830112620005ab578081fd5b81516001600160401b03811115620005c1578182fd5b6020620005d7601f8301601f191682016200095d565b92508183528481838601011115620005ee57600080fd5b60005b828110156200060e578481018201518482018301528101620005f1565b82811115620006205760008284860101525b50505092915050565b600060c082840312156200063b578081fd5b6200064760c06200095d565b905081516200065681620009a4565b815260208201516200066881620009a4565b602082015260408201516200067d81620009a4565b604082015260608201516200069281620009a4565b60608201526080820151620006a781620009a4565b608082015260a0820151620006bc81620009a4565b60a082015292915050565b60008060006101008486031215620006dd578283fd5b620006e9858562000497565b60208501519093506001600160401b038082111562000706578384fd5b9085019060c082880312156200071a578384fd5b6200072660c06200095d565b82518281111562000735578586fd5b62000743898286016200059a565b82525060208301518281111562000758578586fd5b62000766898286016200059a565b6020830152506040830151828111156200077e578586fd5b6200078c89828601620004b5565b604083015250606083015182811115620007a4578586fd5b620007b28982860162000535565b606083015250608083015182811115620007ca578586fd5b620007d88982860162000535565b60808301525060a083015160a0820152809450505050620007fd856040860162000629565b90509250925092565b6020808252825182820181905260009190848201906040850190845b81811015620008495783516001600160a01b03168352928401929184019160010162000822565b50909695505050505050565b6020808252601a908201527f4552525f53544152545f574549474854535f4d49534d41544348000000000000604082015260600190565b6020808252601b908201527f4552525f53544152545f42414c414e4345535f4d49534d415443480000000000604082015260600190565b6020808252601290820152714552525f544f4f5f4645575f544f4b454e5360701b604082015260600190565b60208082526014908201527f4552525f494e56414c49445f535741505f464545000000000000000000000000604082015260600190565b60208082526013908201527f4552525f544f4f5f4d414e595f544f4b454e5300000000000000000000000000604082015260600190565b6040518181016001600160401b03811182821017156200097c57600080fd5b604052919050565b60006001600160401b038211156200099a578081fd5b5060209081020190565b8015158114620009b357600080fd5b50565b6149e180620009c66000396000f3fe608060405234801561001057600080fd5b506004361061035d5760003560e01c806374983a0d116101d3578063b02f0b7311610104578063dd62ed3e116100a2578063e7f1a5541161007c578063e7f1a554146106d7578063e854f53d146106df578063f226b528146106e7578063fde924f7146106ef5761035d565b8063dd62ed3e146106a9578063e211b875146106bc578063e2762d4b146106c45761035d565b8063c3391d27116100de578063c3391d2714610657578063c42bd05a1461066a578063c83a1c2d14610683578063d73dd623146106965761035d565b8063b02f0b7314610634578063b03a9e9714610647578063c275d81b1461064f5761035d565b80639776e94b11610171578063a3f4df7e1161014b578063a3f4df7e14610609578063a835a0de14610611578063a9059cbb14610619578063a9502d621461062c5761035d565b80639776e94b146105d4578063980e8db6146105e75780639d829c2b146106015761035d565b806389f55db6116101ad57806389f55db61461059e57806392eefe9b146105a6578063948d8ce6146105b957806395d89b41146105cc5761035d565b806374983a0d14610570578063806c6f87146105785780638259e6a01461058b5761035d565b806337c6f4d9116102ad57806355c32a231161024b5780635fa7b584116102255780635fa7b5841461052457806366188463146105375780636d06dfa01461054a57806370a082311461055d5761035d565b806355c32a23146104e85780635a8342d8146104fb5780635db34277146105115761035d565b806349b595521161028757806349b595521461049c5780634ba57882146104af5780634c20d209146104c25780634f69c0d4146104d55761035d565b806337c6f4d91461046357806346ab38f11461047657806347786d37146104895761035d565b8063220eb7601161031a5780632e0f2625116102f45780632e0f26251461041e5780633018205f14610433578063313ce5671461044857806334e19907146104505761035d565b8063220eb760146103e557806323b872dd146103f8578063246bc19b1461040b5761035d565b806302c967481461036257806306fdde031461038b578063095dcccc146103a0578063095ea7b3146103b55780630ce27925146103d557806318160ddd146103dd575b600080fd5b610375610370366004613d98565b6106f7565b60405161038291906148f1565b60405180910390f35b6103936108be565b6040516103829190614337565b6103b36103ae366004613d6d565b610954565b005b6103c86103c3366004613d6d565b610981565b604051610382919061416c565b6103756109d9565b6103756109df565b6103b36103f3366004613f62565b6109e5565b6103c8610406366004613d2d565b610a10565b6103b3610419366004613e65565b610b3e565b610426610cd2565b6040516103829190614908565b61043b610cd7565b60405161038291906140b2565b610426610ce6565b6103b361045e366004613f62565b610ceb565b6103c8610471366004613f43565b610e30565b610375610484366004613d98565b610ec5565b6103b3610497366004613f62565b611073565b6103b36104aa366004613eef565b6111a1565b6103b36104bd366004613f62565b6112a7565b6103b36104d0366004613d98565b6112cf565b6103b36104e3366004613f92565b6114f0565b6103b36104f6366004613d6d565b6118e2565b61050361190b565b6040516103829291906148fa565b61037561051f366004613d98565b611914565b6103b3610532366004613cd9565b611ad9565b6103c8610545366004613d6d565b611c54565b610375610558366004613d98565b611d2e565b61037561056b366004613cd9565b611ef3565b61043b611f0e565b6103c8610586366004613cd9565b611f26565b6103b3610599366004613f62565b611f6f565b61043b61200c565b6103b36105b4366004613cd9565b61201b565b6103756105c7366004613cd9565b6120c7565b610393612194565b6103b36105e2366004613d6d565b6121f5565b6105ef612374565b60405161038296959493929190614177565b61043b6123af565b6103936123c7565b6103756123f6565b6103c8610627366004613d6d565b6123fc565b61043b612438565b6103b3610642366004613f92565b612450565b61043b6127e4565b6103b36127f3565b6103b361066536600461404d565b612952565b610672612a1b565b604051610382959493929190614104565b6103b3610691366004613cd9565b612a42565b6103c86106a4366004613d6d565b612b35565b6103756106b7366004613cf5565b612ba9565b6103b3612bd4565b6103b36106d2366004613cd9565b612ccb565b610375612df2565b610375612df8565b610375612dfe565b6103c8612e05565b60405160009033906001600160e01b03198335169061071990849036906141a7565b60405180910390a26002600654141561074d5760405162461bcd60e51b8152600401610744906145c3565b60405180910390fd5b60026006556008546001600160a01b031661077a5760405162461bcd60e51b815260040161074490614545565b60085460405163f0a3daf160e01b8152600091829173__SmartPoolManager______________________9163f0a3daf1916107cb9130916001600160a01b03909116908b908b908b90600401614223565b604080518083038186803b1580156107e257600080fd5b505af41580156107f6573d6000803e3d6000fd5b505050506040513d601f19601f8201168201806040525081019061081a9190613fdc565b91509150809250600061082d8484612edd565b9050866001600160a01b0316336001600160a01b03167fc62fc35ac75e3bff532648e2859a3e1694002cfa357614ae8e034df7f83db5e98860405161087291906148f1565b60405180910390a36108843385611901565b61088d81610a04565b6007546108a3906001600160a01b031684610973565b6108ae873388612f16565b5050505b60016006559392505050565b60048054604080516020601f600260001961010060018816150201909516949094049384018190048102820181019092528281526060939092909183018282801561094a5780601f1061091f5761010080835404028352916020019161094a565b820191906000526020600020905b81548152906001019060200180831161092d57829003601f168201915b5050505050905090565b3330146109735760405162461bcd60e51b81526004016107449061438a565b61097d828261315f565b5050565b3360008181526002602090815260408083206001600160a01b0387168085529252808320859055519192909160008051602061498c833981519152906109c89086906148f1565b60405180910390a350600192915050565b60185481565b60005490565b333014610a045760405162461bcd60e51b81526004016107449061438a565b610a0d8161316a565b50565b60006001600160a01b038316610a385760405162461bcd60e51b81526004016107449061447d565b336001600160a01b0385161480610a7257506001600160a01b03841660009081526002602090815260408083203384529091529020548211155b610a8e5760405162461bcd60e51b8152600401610744906146cb565b610a998484846131e4565b6001600160a01b0384166000818152600260209081526040808320338085529252909120549114801590610acf57506000198114155b15610b3157610ade8184612edd565b6001600160a01b03868116600090815260026020908152604080832033808552925291829020849055905191871692909160008051602061498c83398151915291610b28916148f1565b60405180910390a35b60019150505b9392505050565b336001600160a01b03166000356001600160e01b0319166001600160e01b031916600036604051610b709291906141a7565b60405180910390a260026006541415610b9b5760405162461bcd60e51b8152600401610744906145c3565b60026006556005546001600160a01b03163314610bca5760405162461bcd60e51b81526004016107449061438a565b6008546001600160a01b0316610bf25760405162461bcd60e51b815260040161074490614545565b60095462010000900460ff16610c1a5760405162461bcd60e51b8152600401610744906144de565b600e54600160a01b900460ff1615610c445760405162461bcd60e51b8152600401610744906146fb565b6008546015546040516395a82a1160e01b815273__SmartPoolManager______________________926395a82a1192610c97926001600160a01b0390921691600a918a918a918a918a91906004016142f0565b60006040518083038186803b158015610caf57600080fd5b505af4158015610cc3573d6000803e3d6000fd5b50506001600655505050505050565b601281565b6005546001600160a01b031690565b601290565b336001600160a01b03166000356001600160e01b0319166001600160e01b031916600036604051610d1d9291906141a7565b60405180910390a260026006541415610d485760405162461bcd60e51b8152600401610744906145c3565b60026006556005546001600160a01b03163314610d775760405162461bcd60e51b81526004016107449061438a565b6008546001600160a01b0316610d9f5760405162461bcd60e51b815260040161074490614545565b600954610100900460ff16610dc65760405162461bcd60e51b81526004016107449061480e565b6008546040516334e1990760e01b81526001600160a01b03909116906334e1990790610df69084906004016148f1565b600060405180830381600087803b158015610e1057600080fd5b505af1158015610e24573d6000803e3d6000fd5b50506001600655505050565b6040516322c1aa2560e11b815260009073__RightsManager_________________________90634583544a90610e6d90600990869060040161487c565b60206040518083038186803b158015610e8557600080fd5b505af4158015610e99573d6000803e3d6000fd5b505050506040513d601f19601f82011682018060405250810190610ebd9190613f0b565b90505b919050565b60405160009033906001600160e01b031983351690610ee790849036906141a7565b60405180910390a260026006541415610f125760405162461bcd60e51b8152600401610744906145c3565b60026006556008546001600160a01b0316610f3f5760405162461bcd60e51b815260040161074490614545565b600854604051632a2acbc560e11b8152600091829173__SmartPoolManager______________________91635455978a91610f909130916001600160a01b03909116908b908b908b90600401614223565b604080518083038186803b158015610fa757600080fd5b505af4158015610fbb573d6000803e3d6000fd5b505050506040513d601f19601f82011682018060405250810190610fdf9190613fdc565b915091508092506000610ff28684612edd565b9050866001600160a01b0316336001600160a01b03167fc62fc35ac75e3bff532648e2859a3e1694002cfa357614ae8e034df7f83db5e98660405161103791906148f1565b60405180910390a36110493387611901565b61105281610a04565b600754611068906001600160a01b031684610973565b6108ae873386612f16565b336001600160a01b03166000356001600160e01b0319166001600160e01b0319166000366040516110a59291906141a7565b60405180910390a2600260065414156110d05760405162461bcd60e51b8152600401610744906145c3565b60026006556008546001600160a01b03166110fd5760405162461bcd60e51b815260040161074490614545565b6005546001600160a01b031633146111275760405162461bcd60e51b81526004016107449061438a565b60095465010000000000900460ff166111525760405162461bcd60e51b81526004016107449061463f565b336001600160a01b03167f6bc200110c7794738d401810b22ef824a2044a8ccb022d4ad8769840370331f56018548360405161118f9291906148fa565b60405180910390a26018556001600655565b336001600160a01b03166000356001600160e01b0319166001600160e01b0319166000366040516111d39291906141a7565b60405180910390a2600260065414156111fe5760405162461bcd60e51b8152600401610744906145c3565b60026006556005546001600160a01b0316331461122d5760405162461bcd60e51b81526004016107449061438a565b6008546001600160a01b03166112555760405162461bcd60e51b815260040161074490614545565b60095460ff166112775760405162461bcd60e51b81526004016107449061478a565b6008546040516324dacaa960e11b81526001600160a01b03909116906349b5955290610df690849060040161416c565b3330146112c65760405162461bcd60e51b81526004016107449061438a565b610a0d81613295565b336001600160a01b03166000356001600160e01b0319166001600160e01b0319166000366040516113019291906141a7565b60405180910390a26002600654141561132c5760405162461bcd60e51b8152600401610744906145c3565b60026006556005546001600160a01b0316331461135b5760405162461bcd60e51b81526004016107449061438a565b6008546001600160a01b03166113835760405162461bcd60e51b815260040161074490614545565b6009546301000000900460ff166113ac5760405162461bcd60e51b8152600401610744906143b6565b600a54156113cc5760405162461bcd60e51b815260040161074490614845565b604051630e0d789b60e11b815273__SmartPoolManager______________________90631c1af136906114039086906004016140b2565b60006040518083038186803b15801561141b57600080fd5b505af415801561142f573d6000803e3d6000fd5b50506040513392503091506001600160a01b038616907f33b043686b9408a355896fe90b2f8ecc86a41d87d1554ef65a739948b4f23e2790600090a4600854604051635e9e8d4760e01b815273__SmartPoolManager______________________91635e9e8d47916114b6916001600160a01b031690879087908790600e906004016142bf565b60006040518083038186803b1580156114ce57600080fd5b505af41580156114e2573d6000803e3d6000fd5b505060016006555050505050565b336001600160a01b03166000356001600160e01b0319166001600160e01b0319166000366040516115229291906141a7565b60405180910390a26002600654141561154d5760405162461bcd60e51b8152600401610744906145c3565b60026006556008546001600160a01b031661157a5760405162461bcd60e51b815260040161074490614545565b6008546040805163fde924f760e01b815290516000926001600160a01b03169163fde924f7916004808301926020929190829003018186803b1580156115bf57600080fd5b505afa1580156115d3573d6000803e3d6000fd5b505050506040513d601f19601f820116820180604052508101906115f79190613f0b565b6008546040516324dacaa960e11b81529192506001600160a01b0316906349b59552906116299060009060040161416c565b600060405180830381600087803b15801561164357600080fd5b505af1158015611657573d6000803e3d6000fd5b5050600954600160201b900460ff1615915081905061168557503360009081526017602052604090205460ff165b6116a15760405162461bcd60e51b815260040161074490614422565b6008546040516351cd0ad360e11b815260609173__SmartPoolManager______________________9163a39a15a6916116ee9130916001600160a01b0316908a908a908a90600401614257565b60006040518083038186803b15801561170657600080fd5b505af415801561171a573d6000803e3d6000fd5b505050506040513d6000823e601f3d908101601f191682016040526117429190810190613eb4565b90506060600860009054906101000a90046001600160a01b03166001600160a01b031663cc77828d6040518163ffffffff1660e01b815260040160006040518083038186803b15801561179457600080fd5b505afa1580156117a8573d6000803e3d6000fd5b505050506040513d6000823e601f3d908101601f191682016040526117d09190810190613dcc565b905060005b815181101561186e5760008282815181106117ec57fe5b60200260200101519050600084838151811061180457fe5b60200260200101519050816001600160a01b0316336001600160a01b03167fea39e3b35c5cd8937999ed5f7fbab30acd562a931fc4a887fed2a47c3074aa728360405161185191906148f1565b60405180910390a36118648233836132c2565b50506001016117d5565b50611878866112c6565b6118823387610973565b50506008546040516324dacaa960e11b81526001600160a01b03909116906349b59552906118b490849060040161416c565b600060405180830381600087803b1580156118ce57600080fd5b505af1158015610cc3573d6000803e3d6000fd5b3330146119015760405162461bcd60e51b81526004016107449061438a565b61097d828261350b565b600a54600b5482565b60405160009033906001600160e01b03198335169061193690849036906141a7565b60405180910390a2600260065414156119615760405162461bcd60e51b8152600401610744906145c3565b60026006556008546001600160a01b031661198e5760405162461bcd60e51b815260040161074490614545565b600954600160201b900460ff1615806119b657503360009081526017602052604090205460ff165b6119d25760405162461bcd60e51b815260040161074490614422565b6008546040516352c2f87f60e11b815273__SmartPoolManager______________________9163a585f0fe91611a1e9130916001600160a01b0390911690899089908990600401614223565b60206040518083038186803b158015611a3657600080fd5b505af4158015611a4a573d6000803e3d6000fd5b505050506040513d601f19601f82011682018060405250810190611a6e9190613f7a565b9050836001600160a01b0316336001600160a01b03167fea39e3b35c5cd8937999ed5f7fbab30acd562a931fc4a887fed2a47c3074aa7285604051611ab391906148f1565b60405180910390a3611ac4816112c6565b611ace3382610973565b6108b28433856132c2565b336001600160a01b03166000356001600160e01b0319166001600160e01b031916600036604051611b0b9291906141a7565b60405180910390a260026006541415611b365760405162461bcd60e51b8152600401610744906145c3565b60026006556005546001600160a01b03163314611b655760405162461bcd60e51b81526004016107449061438a565b6008546001600160a01b0316611b8d5760405162461bcd60e51b815260040161074490614545565b6009546301000000900460ff16611bb65760405162461bcd60e51b8152600401610744906143b6565b600e54600160a01b900460ff1615611be05760405162461bcd60e51b81526004016107449061472a565b6008546040516301eb6f1b60e31b815273__SmartPoolManager______________________91630f5b78d891611c289130916001600160a01b039091169086906004016141d6565b60006040518083038186803b158015611c4057600080fd5b505af4158015610e24573d6000803e3d6000fd5b3360009081526002602090815260408083206001600160a01b0386168452909152812054808310611ca8573360009081526002602090815260408083206001600160a01b0388168452909152812055611cd7565b611cb28184612edd565b3360009081526002602090815260408083206001600160a01b03891684529091529020555b3360008181526002602090815260408083206001600160a01b03891680855292529182902054915190929160008051602061498c83398151915291611d1c91906148f1565b60405180910390a35060019392505050565b60405160009033906001600160e01b031983351690611d5090849036906141a7565b60405180910390a260026006541415611d7b5760405162461bcd60e51b8152600401610744906145c3565b60026006556008546001600160a01b0316611da85760405162461bcd60e51b815260040161074490614545565b600954600160201b900460ff161580611dd057503360009081526017602052604090205460ff165b611dec5760405162461bcd60e51b815260040161074490614422565b6008546040516331d5410560e01b815273__SmartPoolManager______________________916331d5410591611e389130916001600160a01b0390911690899089908990600401614223565b60206040518083038186803b158015611e5057600080fd5b505af4158015611e64573d6000803e3d6000fd5b505050506040513d601f19601f82011682018060405250810190611e889190613f7a565b9050836001600160a01b0316336001600160a01b03167fea39e3b35c5cd8937999ed5f7fbab30acd562a931fc4a887fed2a47c3074aa7283604051611ecd91906148f1565b60405180910390a3611ede836112c6565b611ee83384610973565b6108b28433836132c2565b6001600160a01b031660009081526001602052604090205490565b73__RightsManager_________________________90565b600954600090600160201b900460ff1615611f5d57506001600160a01b03811660009081526017602052604090205460ff16610ec0565b506001600160a01b0381161515610ec0565b6005546001600160a01b03163314611f995760405162461bcd60e51b81526004016107449061438a565b336001600160a01b03166000356001600160e01b0319166001600160e01b031916600036604051611fcb9291906141a7565b60405180910390a260026006541415611ff65760405162461bcd60e51b8152600401610744906145c3565b600260065561200481613516565b506001600655565b6007546001600160a01b031681565b6005546001600160a01b031633146120455760405162461bcd60e51b81526004016107449061438a565b6001600160a01b03811661206b5760405162461bcd60e51b81526004016107449061447d565b6005546040516001600160a01b038084169216907f8be0079c531659141344cd1fd0a4f28419497f9722a3daafe3b4186f6b6457e090600090a3600580546001600160a01b0319166001600160a01b0392909216919091179055565b6000600260065414156120ec5760405162461bcd60e51b8152600401610744906145e8565b6008546001600160a01b03166121145760405162461bcd60e51b815260040161074490614545565b600854604051634a46c67360e11b81526001600160a01b039091169063948d8ce6906121449085906004016140b2565b60206040518083038186803b15801561215c57600080fd5b505afa158015612170573d6000803e3d6000fd5b505050506040513d601f19601f82011682018060405250810190610ebd9190613f7a565b60038054604080516020601f600260001961010060018816150201909516949094049384018190048102820181019092528281526060939092909183018282801561094a5780601f1061091f5761010080835404028352916020019161094a565b336001600160a01b03166000356001600160e01b0319166001600160e01b0319166000366040516122279291906141a7565b60405180910390a2600260065414156122525760405162461bcd60e51b8152600401610744906145c3565b60026006556005546001600160a01b031633146122815760405162461bcd60e51b81526004016107449061438a565b6008546001600160a01b03166122a95760405162461bcd60e51b815260040161074490614545565b60095462010000900460ff166122d15760405162461bcd60e51b8152600401610744906144de565b600a54156122f15760405162461bcd60e51b815260040161074490614845565b600854604051631a232d1560e11b815273__SmartPoolManager______________________916334465a2a9161233b9130916001600160a01b0390911690879087906004016141f9565b60006040518083038186803b15801561235357600080fd5b505af4158015612367573d6000803e3d6000fd5b5050600160065550505050565b60095460ff80821691610100810482169162010000820481169163010000008104821691600160201b82048116916501000000000090041686565b73__SmartPoolManager______________________90565b6040518060400160405280601381526020017212d85b185b98d95c8814db585c9d08141bdbdb606a1b81525081565b6101f481565b60006001600160a01b0383166124245760405162461bcd60e51b81526004016107449061447d565b61242f3384846131e4565b50600192915050565b73__KalancerSafeMath______________________90565b336001600160a01b03166000356001600160e01b0319166001600160e01b0319166000366040516124829291906141a7565b60405180910390a2600260065414156124ad5760405162461bcd60e51b8152600401610744906145c3565b60026006556008546001600160a01b03166124da5760405162461bcd60e51b815260040161074490614545565b6008546040805163fde924f760e01b815290516000926001600160a01b03169163fde924f7916004808301926020929190829003018186803b15801561251f57600080fd5b505afa158015612533573d6000803e3d6000fd5b505050506040513d601f19601f820116820180604052508101906125579190613f0b565b6008546040516324dacaa960e11b81529192506001600160a01b0316906349b59552906125899060009060040161416c565b600060405180830381600087803b1580156125a357600080fd5b505af11580156125b7573d6000803e3d6000fd5b505060085460405163d971f17560e01b81526000935083925060609173__SmartPoolManager______________________9163d971f1759161260d9130916001600160a01b0316908c908c908c90600401614257565b60006040518083038186803b15801561262557600080fd5b505af4158015612639573d6000803e3d6000fd5b505050506040513d6000823e601f3d908101601f191682016040526126619190810190613fff565b9250925092506126713388611901565b600754612687906001600160a01b031684610973565b61269082610a04565b6008546040805163cc77828d60e01b815290516060926001600160a01b03169163cc77828d916004808301926000929190829003018186803b1580156126d557600080fd5b505afa1580156126e9573d6000803e3d6000fd5b505050506040513d6000823e601f3d908101601f191682016040526127119190810190613dcc565b905060005b81518110156127af57600082828151811061272d57fe5b60200260200101519050600084838151811061274557fe5b60200260200101519050816001600160a01b0316336001600160a01b03167fc62fc35ac75e3bff532648e2859a3e1694002cfa357614ae8e034df7f83db5e98360405161279291906148f1565b60405180910390a36127a5823383612f16565b5050600101612716565b50506008546040516324dacaa960e11b81526001600160a01b0390911693506349b5955292506118b49150849060040161416c565b6008546001600160a01b031681565b336001600160a01b03166000356001600160e01b0319166001600160e01b0319166000366040516128259291906141a7565b60405180910390a2600260065414156128505760405162461bcd60e51b8152600401610744906145c3565b60026006556005546001600160a01b0316331461287f5760405162461bcd60e51b81526004016107449061438a565b6008546001600160a01b03166128a75760405162461bcd60e51b815260040161074490614545565b6009546301000000900460ff166128d05760405162461bcd60e51b8152600401610744906143b6565b6008546016546040516353bb4f9b60e11b815273__SmartPoolManager______________________9263a7769f369261291b9230926001600160a01b03169190600e90600401614296565b60006040518083038186803b15801561293357600080fd5b505af4158015612947573d6000803e3d6000fd5b505060016006555050565b6005546001600160a01b0316331461297c5760405162461bcd60e51b81526004016107449061438a565b336001600160a01b03166000356001600160e01b0319166001600160e01b0319166000366040516129ae9291906141a7565b60405180910390a2600260065414156129d95760405162461bcd60e51b8152600401610744906145c3565b6002600655808210156129fe5760405162461bcd60e51b8152600401610744906143ed565b60158290556016819055612a1183613516565b5050600160065550565b600e54600f546010546011546001600160a01b03841693600160a01b900460ff1692919085565b6005546001600160a01b03163314612a6c5760405162461bcd60e51b81526004016107449061438a565b60026006541415612a8f5760405162461bcd60e51b8152600401610744906145c3565b60026006556040513390600080356001600160e01b03191691612ab4919036906141a7565b60405180910390a2600954600160201b900460ff16612ae55760405162461bcd60e51b8152600401610744906144a7565b6001600160a01b038116612b0b5760405162461bcd60e51b815260040161074490614612565b6001600160a01b03166000908152601760205260409020805460ff19166001908117909155600655565b3360009081526002602090815260408083206001600160a01b0386168452909152812054612b6390836139c2565b3360008181526002602090815260408083206001600160a01b0389168085529252918290208490559051909260008051602061498c833981519152916109c891906148f1565b6001600160a01b03918216600090815260026020908152604080832093909416825291909152205490565b336001600160a01b03166000356001600160e01b0319166001600160e01b031916600036604051612c069291906141a7565b60405180910390a260026006541415612c315760405162461bcd60e51b8152600401610744906145c3565b60026006556008546001600160a01b0316612c5e5760405162461bcd60e51b815260040161074490614545565b60095462010000900460ff16612c865760405162461bcd60e51b8152600401610744906144de565b600854604051633162772360e11b815273__SmartPoolManager______________________916362c4ee469161291b916001600160a01b031690600a90600401614132565b6005546001600160a01b03163314612cf55760405162461bcd60e51b81526004016107449061438a565b60026006541415612d185760405162461bcd60e51b8152600401610744906145c3565b60026006556040513390600080356001600160e01b03191691612d3d919036906141a7565b60405180910390a2600954600160201b900460ff16612d6e5760405162461bcd60e51b8152600401610744906144a7565b6001600160a01b03811660009081526017602052604090205460ff16612da65760405162461bcd60e51b815260040161074490614515565b6001600160a01b038116612dcc5760405162461bcd60e51b815260040161074490614612565b6001600160a01b03166000908152601760205260409020805460ff191690556001600655565b60165481565b60155481565b62015f9081565b600060026006541415612e2a5760405162461bcd60e51b8152600401610744906145e8565b6008546001600160a01b0316612e525760405162461bcd60e51b815260040161074490614545565b600860009054906101000a90046001600160a01b03166001600160a01b031663fde924f76040518163ffffffff1660e01b815260040160206040518083038186803b158015612ea057600080fd5b505afa158015612eb4573d6000803e3d6000fd5b505050506040513d601f19601f82011682018060405250810190612ed89190613f0b565b905090565b6000806000612eec85856139e7565b915091508015612f0e5760405162461bcd60e51b8152600401610744906147b9565b509392505050565b6008546001600160a01b0316612f3e5760405162461bcd60e51b815260040161074490614545565b60085460405163f8b2cb4f60e01b81526000916001600160a01b03169063f8b2cb4f90612f6f9087906004016140b2565b60206040518083038186803b158015612f8757600080fd5b505afa158015612f9b573d6000803e3d6000fd5b505050506040513d601f19601f82011682018060405250810190612fbf9190613f7a565b600854604051634a46c67360e11b81529192506000916001600160a01b039091169063948d8ce690612ff59088906004016140b2565b60206040518083038186803b15801561300d57600080fd5b505afa158015613021573d6000803e3d6000fd5b505050506040513d601f19601f820116820180604052508101906130459190613f7a565b6008549091506001600160a01b0316633fdddaa2866130648587612edd565b846040518463ffffffff1660e01b81526004016130839392919061414b565b600060405180830381600087803b15801561309d57600080fd5b505af11580156130b1573d6000803e3d6000fd5b505060405163a9059cbb60e01b8152600092506001600160a01b038816915063a9059cbb906130e69088908890600401614132565b602060405180830381600087803b15801561310057600080fd5b505af1158015613114573d6000803e3d6000fd5b505050506040513d601f19601f820116820180604052508101906131389190613f0b565b9050806131575760405162461bcd60e51b815260040161074490614761565b505050505050565b61097d3083836131e4565b306000908152600160205260409020546131849082612edd565b30600090815260016020526040812091909155546131a29082612edd565b600090815560405130907fddf252ad1be2c89b69c2b068fc378daa952ba7f163c4a11628f55a4df523b3ef906131d99085906148f1565b60405180910390a350565b6001600160a01b0383166000908152600160205260409020546132079082612edd565b6001600160a01b03808516600090815260016020526040808220939093559084168152205461323690826139c2565b6001600160a01b0380841660008181526001602052604090819020939093559151908516907fddf252ad1be2c89b69c2b068fc378daa952ba7f163c4a11628f55a4df523b3ef906132889085906148f1565b60405180910390a3505050565b61329e81613a0c565b6018546000541115610a0d5760405162461bcd60e51b81526004016107449061469c565b6008546001600160a01b03166132ea5760405162461bcd60e51b815260040161074490614545565b60085460405163f8b2cb4f60e01b81526000916001600160a01b03169063f8b2cb4f9061331b9087906004016140b2565b60206040518083038186803b15801561333357600080fd5b505afa158015613347573d6000803e3d6000fd5b505050506040513d601f19601f8201168201806040525081019061336b9190613f7a565b600854604051634a46c67360e11b81529192506000916001600160a01b039091169063948d8ce6906133a19088906004016140b2565b60206040518083038186803b1580156133b957600080fd5b505afa1580156133cd573d6000803e3d6000fd5b505050506040513d601f19601f820116820180604052508101906133f19190613f7a565b90506000856001600160a01b03166323b872dd8630876040518463ffffffff1660e01b8152600401613425939291906140c6565b602060405180830381600087803b15801561343f57600080fd5b505af1158015613453573d6000803e3d6000fd5b505050506040513d601f19601f820116820180604052508101906134779190613f0b565b9050806134965760405162461bcd60e51b815260040161074490614761565b6008546001600160a01b0316633fdddaa2876134b286886139c2565b856040518463ffffffff1660e01b81526004016134d19392919061414b565b600060405180830381600087803b1580156134eb57600080fd5b505af11580156134ff573d6000803e3d6000fd5b50505050505050505050565b61097d8230836131e4565b6008546001600160a01b03161561353f5760405162461bcd60e51b81526004016107449061456e565b68056bc75e2d631000008110156135685760405162461bcd60e51b815260040161074490614596565b6b033b2e3c9fd0803ce80000008111156135945760405162461bcd60e51b815260040161074490614450565b60095465010000000000900460ff16156135ae5760188190555b6135b7816112c6565b6135c13382610973565b600760009054906101000a90046001600160a01b03166001600160a01b03166369fd1f056040518163ffffffff1660e01b8152600401602060405180830381600087803b15801561361157600080fd5b505af1158015613625573d6000803e3d6000fd5b505050506040513d601f19601f820116820180604052508101906136499190613f27565b600880546001600160a01b0319166001600160a01b0392831617908190556040805163632c068960e11b81529051919092169163c6580d12916004808301926020929190829003018186803b1580156136a157600080fd5b505afa1580156136b5573d6000803e3d6000fd5b505050506040513d601f19601f820116820180604052508101906136d99190613f7a565b156136f65760405162461bcd60e51b81526004016107449061466e565b60005b6013548110156138b85760006013828154811061371257fe5b6000918252602082200154601480546001600160a01b039092169350908490811061373957fe5b906000526020600020015490506000600a600201848154811061375857fe5b60009182526020822001546040516323b872dd60e01b81529092506001600160a01b038516906323b872dd90613796903390309088906004016140c6565b602060405180830381600087803b1580156137b057600080fd5b505af11580156137c4573d6000803e3d6000fd5b505050506040513d601f19601f820116820180604052508101906137e89190613f0b565b9050806138075760405162461bcd60e51b815260040161074490614761565b600854613823906001600160a01b038681169116600019613a7c565b9050806138425760405162461bcd60e51b815260040161074490614761565b600854604051631c9c3ca760e31b81526001600160a01b039091169063e4e1e538906138769087908790879060040161414b565b600060405180830381600087803b15801561389057600080fd5b505af11580156138a4573d6000803e3d6000fd5b5050600190960195506136f9945050505050565b505b601354156138f45760138054806138cd57fe5b600082815260209020810160001990810180546001600160a01b03191690550190556138ba565b6008546012546040516334e1990760e01b81526001600160a01b03909216916334e1990791613925916004016148f1565b600060405180830381600087803b15801561393f57600080fd5b505af1158015613953573d6000803e3d6000fd5b50506008546040516324dacaa960e11b81526001600160a01b0390911692506349b5955291506139889060019060040161416c565b600060405180830381600087803b1580156139a257600080fd5b505af11580156139b6573d6000803e3d6000fd5b50506000601255505050565b600082820183811015610b375760405162461bcd60e51b8152600401610744906147e4565b6000808383116139fd5750508082036000613a05565b505081810360015b9250929050565b30600090815260016020526040902054613a2690826139c2565b3060009081526001602052604081209190915554613a4490826139c2565b60009081556040513091907fddf252ad1be2c89b69c2b068fc378daa952ba7f163c4a11628f55a4df523b3ef906131d99085906148f1565b600080846001600160a01b031663dd62ed3e30866040518363ffffffff1660e01b8152600401613aad9291906140ea565b60206040518083038186803b158015613ac557600080fd5b505afa158015613ad9573d6000803e3d6000fd5b505050506040513d601f19601f82011682018060405250810190613afd9190613f7a565b905082811415613b11576001915050610b37565b8015613ba05760405163095ea7b360e01b81526001600160a01b0386169063095ea7b390613b46908790600090600401614132565b602060405180830381600087803b158015613b6057600080fd5b505af1158015613b74573d6000803e3d6000fd5b505050506040513d601f19601f82011682018060405250810190613b989190613f0b565b915050610b37565b60405163095ea7b360e01b81526001600160a01b0386169063095ea7b390613bce9087908790600401614132565b602060405180830381600087803b158015613be857600080fd5b505af1158015613bfc573d6000803e3d6000fd5b505050506040513d601f19601f82011682018060405250810190613c209190613f0b565b95945050505050565b60008083601f840112613c3a578081fd5b50813567ffffffffffffffff811115613c51578182fd5b6020830191508360208083028501011115613a0557600080fd5b600082601f830112613c7b578081fd5b8151613c8e613c898261493d565b614916565b818152915060208083019084810181840286018201871015613caf57600080fd5b60005b84811015613cce57815184529282019290820190600101613cb2565b505050505092915050565b600060208284031215613cea578081fd5b8135610b3781614968565b60008060408385031215613d07578081fd5b8235613d1281614968565b91506020830135613d2281614968565b809150509250929050565b600080600060608486031215613d41578081fd5b8335613d4c81614968565b92506020840135613d5c81614968565b929592945050506040919091013590565b60008060408385031215613d7f578182fd5b8235613d8a81614968565b946020939093013593505050565b600080600060608486031215613dac578283fd5b8335613db781614968565b95602085013595506040909401359392505050565b60006020808385031215613dde578182fd5b825167ffffffffffffffff811115613df4578283fd5b8301601f81018513613e04578283fd5b8051613e12613c898261493d565b8181528381019083850185840285018601891015613e2e578687fd5b8694505b83851015613e59578051613e4581614968565b835260019490940193918501918501613e32565b50979650505050505050565b60008060008060608587031215613e7a578081fd5b843567ffffffffffffffff811115613e90578182fd5b613e9c87828801613c29565b90989097506020870135966040013595509350505050565b600060208284031215613ec5578081fd5b815167ffffffffffffffff811115613edb578182fd5b613ee784828501613c6b565b949350505050565b600060208284031215613f00578081fd5b8135610b378161497d565b600060208284031215613f1c578081fd5b8151610b378161497d565b600060208284031215613f38578081fd5b8151610b3781614968565b600060208284031215613f54578081fd5b813560068110610b37578182fd5b600060208284031215613f73578081fd5b5035919050565b600060208284031215613f8b578081fd5b5051919050565b600080600060408486031215613fa6578081fd5b83359250602084013567ffffffffffffffff811115613fc3578182fd5b613fcf86828701613c29565b9497909650939450505050565b60008060408385031215613fee578182fd5b505080516020909101519092909150565b600080600060608486031215614013578081fd5b8351925060208401519150604084015167ffffffffffffffff811115614037578182fd5b61404386828701613c6b565b9150509250925092565b600080600060608486031215614061578081fd5b505081359360208301359350604090920135919050565b81835260006001600160fb1b03831115614090578081fd5b6020830280836020870137939093016020019283525090919050565b15159052565b6001600160a01b0391909116815260200190565b6001600160a01b039384168152919092166020820152604081019190915260600190565b6001600160a01b0392831681529116602082015260400190565b6001600160a01b03959095168552921515602085015260408401919091526060830152608082015260a00190565b6001600160a01b03929092168252602082015260400190565b6001600160a01b039390931683526020830191909152604082015260600190565b901515815260200190565b9515158652931515602086015291151560408501521515606084015215156080830152151560a082015260c00190565b60006020825282602083015282846040840137818301604090810191909152601f909201601f19160101919050565b6001600160a01b0393841681529183166020830152909116604082015260600190565b6001600160a01b039485168152928416602084015292166040820152606081019190915260800190565b6001600160a01b03958616815293851660208501529190931660408301526060820192909252608081019190915260a00190565b6001600160a01b038681168252851660208201526040810184905260806060820181905260009061428b9083018486614078565b979650505050505050565b6001600160a01b0394851681529290931660208301526040820152606081019190915260800190565b6001600160a01b03958616815293909416602084015260408301919091526060820152608081019190915260a00190565b600060018060a01b038916825287602083015260c0604083015261431860c083018789614078565b606083019590955250608081019290925260a090910152949350505050565b6000602080835283518082850152825b8181101561436357858101830151858201604001528201614347565b818111156143745783604083870101525b50601f01601f1916929092016040019392505050565b60208082526012908201527122a9292fa727aa2fa1a7a72a2927a62622a960711b604082015260600190565b6020808252601c908201527f4552525f43414e4e4f545f4144445f52454d4f56455f544f4b454e5300000000604082015260600190565b6020808252818101527f4552525f494e434f4e53495354454e545f544f4b454e5f54494d455f4c4f434b604082015260600190565b60208082526014908201527311549497d393d517d3d397d5d2125511531254d560621b604082015260600190565b60208082526013908201527208aa4a4be929c92a8bea6aaa0a098b2be9a82b606b1b604082015260600190565b60208082526010908201526f4552525f5a45524f5f4144445245535360801b604082015260600190565b60208082526018908201527f4552525f43414e4e4f545f57484954454c4953545f4c50530000000000000000604082015260600190565b6020808252601c908201527f4552525f4e4f545f434f4e464947555241424c455f5745494748545300000000604082015260600190565b60208082526016908201527511549497d31417d393d517d5d2125511531254d5115160521b604082015260600190565b6020808252600f908201526e11549497d393d517d0d49150551151608a1b604082015260600190565b6020808252600e908201526d11549497d254d7d0d4915055115160921b604082015260600190565b60208082526013908201527222a9292fa4a724aa2fa9aaa828262cafa6a4a760691b604082015260600190565b6020808252600b908201526a4552525f5245454e54525960a81b604082015260600190565b60208082526010908201526f4552525f5245454e5452595f5649455760801b604082015260600190565b6020808252601390820152724552525f494e56414c49445f4144445245535360681b604082015260600190565b60208082526015908201527404552525f43414e4e4f545f4348414e47455f43415605c1b604082015260600190565b6020808252601490820152734552525f4e4f4e5a45524f5f455849545f46454560601b604082015260600190565b60208082526015908201527411549497d0d05417d31253525517d4915050d21151605a1b604082015260600190565b60208082526016908201527522a9292fa821aa27a5a2a72fa120a22fa1a0a62622a960511b604082015260600190565b60208082526015908201527411549497d4115391125391d7d513d2d15397d05111605a1b604082015260600190565b6020808252601b908201527f4552525f52454d4f56455f574954485f4144445f50454e44494e470000000000604082015260600190565b6020808252600f908201526e4552525f45524332305f46414c534560881b604082015260600190565b60208082526015908201527404552525f4e4f545f5041555341424c455f5357415605c1b604082015260600190565b6020808252601190820152704552525f5355425f554e444552464c4f5760781b604082015260600190565b60208082526010908201526f4552525f4144445f4f564552464c4f5760801b604082015260600190565b6020808252601d908201527f4552525f4e4f545f434f4e464947555241424c455f535741505f464545000000604082015260600190565b6020808252601c908201527f4552525f4e4f5f5550444154455f445552494e475f4752414455414c00000000604082015260600190565b600060e082019050835460ff80821615158452808260081c1615156020850152808260101c1615156040850152808260181c16151560608501526148c860808501828460201c166140ac565b6148da60a08501828460281c166140ac565b50506148e58361495d565b60c08301529392505050565b90815260200190565b918252602082015260400190565b60ff91909116815260200190565b60405181810167ffffffffffffffff8111828210171561493557600080fd5b604052919050565b600067ffffffffffffffff821115614953578081fd5b5060209081020190565b8060068110610ec057fe5b6001600160a01b0381168114610a0d57600080fd5b8015158114610a0d57600080fdfe8c5be1e5ebec7d5bd14f71427d1e84f3dd0314c0f7b2291e5b200ac8c7c3b925a26469706673582212203e9ac1fffb21a64a45c9317d800964a05fcdbd2733413789674eb8733662ac0c64736f6c634300060c0033a2646970667358221220298a58f67b69979d3fd1522d2a14fc3d6a07ea27aec3da16d0d64222412dea3164736f6c634300060c0033",
  "immutableReferences": {},
  "source": "// SPDX-License-Identifier: GPL-3.0-or-later\npragma solidity 0.6.12;\n\n// Needed to handle structures externally\npragma experimental ABIEncoderV2;\n\n// Imports\n\nimport \"./ConfigurableRightsPool.sol\";\n\n// Contracts\n\n/**\n * @author Kalancer Labs\n * @title Configurable Rights Pool Factory - create parameterized smart pools\n * @dev Rights are held in a corresponding struct in ConfigurableRightsPool\n *      Index values are as follows:\n *      0: canPauseSwapping - can setPublicSwap back to false after turning it on\n *                            by default, it is off on initialization and can only be turned on\n *      1: canChangeSwapFee - can setSwapFee after initialization (by default, it is fixed at create time)\n *      2: canChangeWeights - can bind new token weights (allowed by default in base pool)\n *      3: canAddRemoveTokens - can bind/unbind tokens (allowed by default in base pool)\n *      4: canWhitelistLPs - if set, only whitelisted addresses can join pools\n *                           (enables private pools with more than one LP)\n *      5: canChangeCap - can change the BSP cap (max # of pool tokens)\n */\ncontract CRPFactory {\n    // State variables\n\n    // Keep a list of all Configurable Rights Pools\n    mapping(address=>bool) private _isCrp;\n\n    // Event declarations\n\n    // Log the address of each new smart pool, and its creator\n    event LogNewCrp(\n        address indexed caller,\n        address indexed pool\n    );\n\n    // Function declarations\n\n    /**\n     * @notice Create a new CRP\n     * @dev emits a LogNewCRP event\n     * @param factoryAddress - the KFactory instance used to create the underlying pool\n     * @param poolParams - struct containing the names, tokens, weights, balances, and swap fee\n     * @param rights - struct of permissions, configuring this CRP instance (see above for definitions)\n     */\n    function newCrp(\n        address factoryAddress,\n        ConfigurableRightsPool.PoolParams calldata poolParams,\n        RightsManager.Rights calldata rights\n    )\n        external\n        returns (ConfigurableRightsPool)\n    {\n        require(poolParams.constituentTokens.length >= KalancerConstants.MIN_ASSET_LIMIT, \"ERR_TOO_FEW_TOKENS\");\n\n        // Arrays must be parallel\n        require(poolParams.tokenBalances.length == poolParams.constituentTokens.length, \"ERR_START_BALANCES_MISMATCH\");\n        require(poolParams.tokenWeights.length == poolParams.constituentTokens.length, \"ERR_START_WEIGHTS_MISMATCH\");\n\n        ConfigurableRightsPool crp = new ConfigurableRightsPool(\n            factoryAddress,\n            poolParams,\n            rights\n        );\n\n        emit LogNewCrp(msg.sender, address(crp));\n\n        _isCrp[address(crp)] = true;\n        // The caller is the controller of the CRP\n        // The CRP will be the controller of the underlying Core KPool\n        crp.setController(msg.sender);\n\n        return crp;\n    }\n\n    /**\n     * @notice Check to see if a given address is a CRP\n     * @param addr - address to check\n     * @return boolean indicating whether it is a CRP\n     */\n    function isCrp(address addr) external view returns (bool) {\n        return _isCrp[addr];\n    }\n}\n",
  "sourcePath": "/home/vyper/Downloads/Work Projects/avengers/kalancer-action/contracts/test/CRPFactory.sol",
  "compiler": {
    "name": "solc",
    "version": "0.6.12+commit.27d51765.Emscripten.clang"
  },
  "schemaVersion": "3.3.4",
  "updatedAt": "2021-03-26T12:33:52.768Z",
  "devdoc": {
    "author": "Kalancer Labs",
    "details": "Rights are held in a corresponding struct in ConfigurableRightsPool      Index values are as follows:      0: canPauseSwapping - can setPublicSwap back to false after turning it on                            by default, it is off on initialization and can only be turned on      1: canChangeSwapFee - can setSwapFee after initialization (by default, it is fixed at create time)      2: canChangeWeights - can bind new token weights (allowed by default in base pool)      3: canAddRemoveTokens - can bind/unbind tokens (allowed by default in base pool)      4: canWhitelistLPs - if set, only whitelisted addresses can join pools                           (enables private pools with more than one LP)      5: canChangeCap - can change the BSP cap (max # of pool tokens)",
    "kind": "dev",
    "methods": {
      "isCrp(address)": {
        "params": {
          "addr": "- address to check"
        },
        "returns": {
          "_0": "boolean indicating whether it is a CRP"
        }
      },
      "newCrp(address,(string,string,address[],uint256[],uint256[],uint256),(bool,bool,bool,bool,bool,bool))": {
        "details": "emits a LogNewCRP event",
        "params": {
          "factoryAddress": "- the KFactory instance used to create the underlying pool",
          "poolParams": "- struct containing the names, tokens, weights, balances, and swap fee",
          "rights": "- struct of permissions, configuring this CRP instance (see above for definitions)"
        }
      }
    },
    "title": "Configurable Rights Pool Factory - create parameterized smart pools",
    "version": 1
  },
  "userdoc": {
    "kind": "user",
    "methods": {
      "isCrp(address)": {
        "notice": "Check to see if a given address is a CRP"
      },
      "newCrp(address,(string,string,address[],uint256[],uint256[],uint256),(bool,bool,bool,bool,bool,bool))": {
        "notice": "Create a new CRP"
      }
    },
    "version": 1
  }
}