{
  "contractName": "DSProxyFactory",
  "abi": [
    {
      "inputs": [],
      "stateMutability": "nonpayable",
      "type": "constructor"
    },
    {
      "anonymous": false,
      "inputs": [
        {
          "indexed": true,
          "internalType": "address",
          "name": "sender",
          "type": "address"
        },
        {
          "indexed": true,
          "internalType": "address",
          "name": "owner",
          "type": "address"
        },
        {
          "indexed": false,
          "internalType": "address",
          "name": "proxy",
          "type": "address"
        },
        {
          "indexed": false,
          "internalType": "address",
          "name": "cache",
          "type": "address"
        }
      ],
      "name": "Created",
      "type": "event"
    },
    {
      "inputs": [],
      "name": "cache",
      "outputs": [
        {
          "internalType": "contract DSProxyCache",
          "name": "",
          "type": "address"
        }
      ],
      "stateMutability": "view",
      "type": "function",
      "constant": true
    },
    {
      "inputs": [
        {
          "internalType": "address",
          "name": "",
          "type": "address"
        }
      ],
      "name": "isProxy",
      "outputs": [
        {
          "internalType": "bool",
          "name": "",
          "type": "bool"
        }
      ],
      "stateMutability": "view",
      "type": "function",
      "constant": true
    },
    {
      "inputs": [],
      "name": "build",
      "outputs": [
        {
          "internalType": "address payable",
          "name": "proxy",
          "type": "address"
        }
      ],
      "stateMutability": "nonpayable",
      "type": "function"
    },
    {
      "inputs": [
        {
          "internalType": "address",
          "name": "owner",
          "type": "address"
        }
      ],
      "name": "build",
      "outputs": [
        {
          "internalType": "address payable",
          "name": "proxy",
          "type": "address"
        }
      ],
      "stateMutability": "nonpayable",
      "type": "function"
    }
  ],
  "bytecode": "0x608060405234801561001057600080fd5b5060405161001d9061005f565b604051809103906000f080158015610039573d6000803e3d6000fd5b50600180546001600160a01b0319166001600160a01b039290921691909117905561006c565b6102668061118b83390190565b6111108061007b6000396000f3fe608060405234801561001057600080fd5b506004361061004c5760003560e01c8063297103881461005157806360c7d2951461008b5780638e1a55fc146100af578063f3701da2146100b7575b600080fd5b6100776004803603602081101561006757600080fd5b50356001600160a01b03166100dd565b604080519115158252519081900360200190f35b6100936100f2565b604080516001600160a01b039092168252519081900360200190f35b610093610101565b610093600480360360208110156100cd57600080fd5b50356001600160a01b0316610111565b60006020819052908152604090205460ff1681565b6001546001600160a01b031681565b600061010c33610111565b905090565b6001546040516000916001600160a01b03169061012d9061023a565b6001600160a01b03909116815260405190819003602001906000f08015801561015a573d6000803e3d6000fd5b50600154604080516001600160a01b038085168252928316602082015281519394509185169233927f259b30ca39885c6d801a0b5dbc988640f3c25e2f37531fe138c5c5af8955d41b92908290030190a3806001600160a01b03166313af4035836040518263ffffffff1660e01b815260040180826001600160a01b03168152602001915050600060405180830381600087803b1580156101fa57600080fd5b505af115801561020e573d6000803e3d6000fd5b5050506001600160a01b0382166000908152602081905260409020805460ff1916600117905550919050565b610e93806102488339019056fe608060405234801561001057600080fd5b50604051610e93380380610e938339818101604052602081101561003357600080fd5b5051600180546001600160a01b031916339081179091556040517fce241d7ca1f669fee44b6fc00b8eba2df3bb514eed0f6f668f8f89096e81ed9490600090a261007c81610083565b50506102ca565b600061009a336001600160e01b03198335166101e1565b6100eb576040805162461bcd60e51b815260206004820152601460248201527f64732d617574682d756e617574686f72697a6564000000000000000000000000604482015290519081900360640190fd5b600435602435346001600160a01b03851661014d576040805162461bcd60e51b815260206004820152601f60248201527f64732d70726f78792d63616368652d616464726573732d726571756972656400604482015290519081900360640190fd5b600280546001600160a01b0387166001600160a01b0319909116179055600193508183336001600160a01b03166000356001600160e01b0319166001600160e01b0319168460003660405180848152602001806020018281038252848482818152602001925080828437600083820152604051601f909101601f1916909201829003965090945050505050a4505050919050565b60006001600160a01b0383163014156101fc575060016102c4565b6001546001600160a01b038481169116141561021a575060016102c4565b6000546001600160a01b0316610232575060006102c4565b6000546040805163b700961360e01b81526001600160a01b0386811660048301523060248301526001600160e01b0319861660448301529151919092169163b7009613916064808301926020929190829003018186803b15801561029557600080fd5b505afa1580156102a9573d6000803e3d6000fd5b505050506040513d60208110156102bf57600080fd5b505190505b92915050565b610bba806102d96000396000f3fe60806040526004361061007b5760003560e01c80637a9e5e4b1161004e5780637a9e5e4b146103c15780638da5cb5b146103f4578063948f507614610409578063bf7e214f146104505761007b565b806313af40351461007d5780631cff79cd146100b05780631f6a1eb9146101db57806360c7d29514610390575b005b34801561008957600080fd5b5061007b600480360360208110156100a057600080fd5b50356001600160a01b0316610465565b610166600480360360408110156100c657600080fd5b6001600160a01b0382351691908101906040810160208201356401000000008111156100f157600080fd5b82018360208201111561010357600080fd5b8035906020019184600183028401116401000000008311171561012557600080fd5b91908080601f016020809104026020016040519081016040528093929190818152602001838380828437600092019190915250929550610513945050505050565b6040805160208082528351818301528351919283929083019185019080838360005b838110156101a0578181015183820152602001610188565b50505050905090810190601f1680156101cd5780820380516001836020036101000a031916815260200191505b509250505060405180910390f35b610308600480360360408110156101f157600080fd5b81019060208101813564010000000081111561020c57600080fd5b82018360208201111561021e57600080fd5b8035906020019184600183028401116401000000008311171561024057600080fd5b91908080601f016020809104026020016040519081016040528093929190818152602001838380828437600092019190915250929594936020810193503591505064010000000081111561029357600080fd5b8201836020820111156102a557600080fd5b803590602001918460018302840111640100000000831117156102c757600080fd5b91908080601f016020809104026020016040519081016040528093929190818152602001838380828437600092019190915250929550610693945050505050565b60405180836001600160a01b0316815260200180602001828103825283818151815260200191508051906020019080838360005b8381101561035457818101518382015260200161033c565b50505050905090810190601f1680156103815780820380516001836020036101000a031916815260200191505b50935050505060405180910390f35b34801561039c57600080fd5b506103a561086e565b604080516001600160a01b039092168252519081900360200190f35b3480156103cd57600080fd5b5061007b600480360360208110156103e457600080fd5b50356001600160a01b031661087d565b34801561040057600080fd5b506103a5610927565b34801561041557600080fd5b5061043c6004803603602081101561042c57600080fd5b50356001600160a01b0316610936565b604080519115158252519081900360200190f35b34801561045c57600080fd5b506103a5610a8c565b61047b336000356001600160e01b031916610a9b565b6104c3576040805162461bcd60e51b8152602060048201526014602482015273191ccb585d5d1a0b5d5b985d5d1a1bdc9a5e995960621b604482015290519081900360640190fd5b600180546001600160a01b0319166001600160a01b0383811691909117918290556040519116907fce241d7ca1f669fee44b6fc00b8eba2df3bb514eed0f6f668f8f89096e81ed9490600090a250565b606061052b336000356001600160e01b031916610a9b565b610573576040805162461bcd60e51b8152602060048201526014602482015273191ccb585d5d1a0b5d5b985d5d1a1bdc9a5e995960621b604482015290519081900360640190fd5b600435602435346001600160a01b0386166105d5576040805162461bcd60e51b815260206004820181905260248201527f64732d70726f78792d7461726765742d616464726573732d7265717569726564604482015290519081900360640190fd5b600080865160208801896113885a03f43d6040519550601f19601f6020830101168601604052808652806000602088013e8115600181146106155761061c565b8160208801fd5b5050508183336001600160a01b03166000356001600160e01b0319166001600160e01b0319168460003660405180848152602001806020018281038252848482818152602001925080828437600083820152604051601f909101601f1916909201829003965090945050505050a450505092915050565b6002546040516322fd145760e21b81526020600482018181528551602484015285516000946060946001600160a01b0390911693638bf4515c93899390928392604490910191908501908083838c5b838110156106fa5781810151838201526020016106e2565b50505050905090810190601f1680156107275780820380516001836020036101000a031916815260200191505b509250505060206040518083038186803b15801561074457600080fd5b505afa158015610758573d6000803e3d6000fd5b505050506040513d602081101561076e57600080fd5b505191506001600160a01b03821661085b57600254604051633f6861d960e11b81526020600482018181528751602484015287516001600160a01b0390941693637ed0c3b293899383926044909201919085019080838360005b838110156107e05781810151838201526020016107c8565b50505050905090810190601f16801561080d5780820380516001836020036101000a031916815260200191505b5092505050602060405180830381600087803b15801561082c57600080fd5b505af1158015610840573d6000803e3d6000fd5b505050506040513d602081101561085657600080fd5b505191505b6108658284610513565b90509250929050565b6002546001600160a01b031681565b610893336000356001600160e01b031916610a9b565b6108db576040805162461bcd60e51b8152602060048201526014602482015273191ccb585d5d1a0b5d5b985d5d1a1bdc9a5e995960621b604482015290519081900360640190fd5b600080546001600160a01b0319166001600160a01b03838116919091178083556040519116917f1abebea81bfa2637f28358c371278fb15ede7ea8dd28d2e03b112ff6d936ada491a250565b6001546001600160a01b031681565b600061094e336000356001600160e01b031916610a9b565b610996576040805162461bcd60e51b8152602060048201526014602482015273191ccb585d5d1a0b5d5b985d5d1a1bdc9a5e995960621b604482015290519081900360640190fd5b600435602435346001600160a01b0385166109f8576040805162461bcd60e51b815260206004820152601f60248201527f64732d70726f78792d63616368652d616464726573732d726571756972656400604482015290519081900360640190fd5b600280546001600160a01b0387166001600160a01b0319909116179055600193508183336001600160a01b03166000356001600160e01b0319166001600160e01b0319168460003660405180848152602001806020018281038252848482818152602001925080828437600083820152604051601f909101601f1916909201829003965090945050505050a4505050919050565b6000546001600160a01b031681565b60006001600160a01b038316301415610ab657506001610b7e565b6001546001600160a01b0384811691161415610ad457506001610b7e565b6000546001600160a01b0316610aec57506000610b7e565b6000546040805163b700961360e01b81526001600160a01b0386811660048301523060248301526001600160e01b0319861660448301529151919092169163b7009613916064808301926020929190829003018186803b158015610b4f57600080fd5b505afa158015610b63573d6000803e3d6000fd5b505050506040513d6020811015610b7957600080fd5b505190505b9291505056fea2646970667358221220e8cf287bfe1e61fd01695e4c4605c0e6c062669345f3405994dcf06f5e9d942e64736f6c634300060c0033a26469706673582212205567bfd897ef95927039283f8d8db035ea05e1bae05bf9ebf3d90fa32bea15ef64736f6c634300060c0033608060405234801561001057600080fd5b50610246806100206000396000f3fe608060405234801561001057600080fd5b50600436106100365760003560e01c80637ed0c3b21461003b5780638bf4515c146100fd575b600080fd5b6100e16004803603602081101561005157600080fd5b81019060208101813564010000000081111561006c57600080fd5b82018360208201111561007e57600080fd5b803590602001918460018302840111640100000000831117156100a057600080fd5b91908080601f0160208091040260200160405190810160405280939291908181526020018383808284376000920191909152509295506101a3945050505050565b604080516001600160a01b039092168252519081900360200190f35b6100e16004803603602081101561011357600080fd5b81019060208101813564010000000081111561012e57600080fd5b82018360208201111561014057600080fd5b8035906020019184600183028401116401000000008311171561016257600080fd5b91908080601f0160208091040260200160405190810160405280939291908181526020018383808284376000920191909152509295506101ee945050505050565b60008151602083016000f09050803b156001811461003657508151602092830120600090815291829052604090912080546001600160a01b0319166001600160a01b03831617905590565b805160209182012060009081529081905260409020546001600160a01b03169056fea2646970667358221220b809edd77faf4129e5c832bba36d24c19d4ee88f917538eda0f107811b802f2e64736f6c634300060c0033",
  "immutableReferences": {},
  "source": "// SPDX-License-Identifier: GPL-3.0-or-later\npragma solidity 0.6.12;\n\ninterface DSAuthority {\n    function canCall(\n        address src, address dst, bytes4 sig\n    ) external view returns (bool);\n}\n\ncontract DSAuthEvents {\n    event LogSetAuthority (address indexed authority);\n    event LogSetOwner     (address indexed owner);\n}\n\ncontract DSAuth is DSAuthEvents {\n    DSAuthority  public  authority;\n    address      public  owner;\n\n    constructor() public {\n        owner = msg.sender;\n        emit LogSetOwner(msg.sender);\n    }\n\n    function setOwner(address owner_)\n        public\n        auth\n    {\n        owner = owner_;\n        emit LogSetOwner(owner);\n    }\n\n    function setAuthority(DSAuthority authority_)\n        public\n        auth\n    {\n        authority = authority_;\n        emit LogSetAuthority(address(authority));\n    }\n\n    modifier auth {\n        require(isAuthorized(msg.sender, msg.sig), \"ds-auth-unauthorized\");\n        _;\n    }\n\n    function isAuthorized(address src, bytes4 sig) internal view returns (bool) {\n        if (src == address(this)) {\n            return true;\n        } else if (src == owner) {\n            return true;\n        } else if (authority == DSAuthority(0)) {\n            return false;\n        } else {\n            return authority.canCall(src, address(this), sig);\n        }\n    }\n}\n\ncontract DSNote {\n    event LogNote(\n        bytes4   indexed  sig,\n        address  indexed  guy,\n        bytes32  indexed  foo,\n        bytes32  indexed  bar,\n        uint256           wad,\n        bytes             fax\n    ) anonymous;\n\n    modifier note {\n        bytes32 foo;\n        bytes32 bar;\n        uint256 wad;\n\n        assembly {\n            foo := calldataload(4)\n            bar := calldataload(36)\n            wad := callvalue()\n        }\n\n        _;\n\n        emit LogNote(msg.sig, msg.sender, foo, bar, wad, msg.data);\n    }\n}\n\n// DSProxy\n// Allows code execution using a persistant identity This can be very\n// useful to execute a sequence of atomic actions. Since the owner of\n// the proxy can be changed, this allows for dynamic ownership models\n// i.e. a multisig\ncontract DSProxy is DSAuth, DSNote {\n    DSProxyCache public cache;  // global cache for contracts\n\n    constructor(address _cacheAddr) public {\n        setCache(_cacheAddr);\n    }\n\n    fallback() external payable {\n    }\n\n    // use the proxy to execute calldata _data on contract _code\n    function execute(bytes memory _code, bytes memory _data)\n        public\n        payable\n        returns (address target, bytes memory response)\n    {\n        target = cache.read(_code);\n        if (target == address(0)) {\n            // deploy contract & store its address in cache\n            target = cache.write(_code);\n        }\n\n        response = execute(target, _data);\n    }\n\n    function execute(address _target, bytes memory _data)\n        public\n        auth\n        note\n        payable\n        returns (bytes memory response)\n    {\n        require(_target != address(0), \"ds-proxy-target-address-required\");\n\n        // call contract in current context\n        assembly {\n            let succeeded := delegatecall(sub(gas(), 5000), _target, add(_data, 0x20), mload(_data), 0, 0)\n            let size := returndatasize()\n\n            response := mload(0x40)\n            mstore(0x40, add(response, and(add(add(size, 0x20), 0x1f), not(0x1f))))\n            mstore(response, size)\n            returndatacopy(add(response, 0x20), 0, size)\n\n            switch iszero(succeeded)\n            case 1 {\n                // throw if delegatecall failed\n                revert(add(response, 0x20), size)\n            }\n        }\n    }\n\n    //set new cache\n    function setCache(address _cacheAddr)\n        public\n        auth\n        note\n        returns (bool)\n    {\n        require(_cacheAddr != address(0), \"ds-proxy-cache-address-required\");\n        cache = DSProxyCache(_cacheAddr);  // overwrite cache\n        return true;\n    }\n}\n\n// DSProxyFactory\n// This factory deploys new proxy instances through build()\n// Deployed proxy addresses are logged\ncontract DSProxyFactory {\n    event Created(address indexed sender, address indexed owner, address proxy, address cache);\n    mapping(address=>bool) public isProxy; //TBC\n    DSProxyCache public cache;\n\n    constructor() public {\n        cache = new DSProxyCache();\n    }\n\n    // deploys a new proxy instance\n    // sets owner of proxy to caller\n    function build() public returns (address payable proxy) {\n        proxy = build(msg.sender);\n    }\n\n    // deploys a new proxy instance\n    // sets custom owner of proxy\n    function build(address owner) public returns (address payable proxy) {\n        proxy = address(new DSProxy(address(cache)));\n        emit Created(msg.sender, owner, address(proxy), address(cache));\n        DSProxy(proxy).setOwner(owner);\n        isProxy[proxy] = true;\n    }\n}\n\n// DSProxyCache\n// This global cache stores addresses of contracts previously deployed\n// by a proxy. This saves gas from repeat deployment of the same\n// contracts and eliminates blockchain bloat.\n\n// By default, all proxies deployed from the same factory store\n// contracts in the same cache. The cache a proxy instance uses can be\n// changed.  The cache uses the sha3 hash of a contract's bytecode to\n// lookup the address\ncontract DSProxyCache {\n    mapping(bytes32 => address) cache;\n\n    function read(bytes memory _code) public view returns (address) {\n        bytes32 hash = keccak256(_code);\n        return cache[hash];\n    }\n\n    function write(bytes memory _code) public returns (address target) {\n        assembly {\n            target := create(0, add(_code, 0x20), mload(_code))\n            switch iszero(extcodesize(target))\n            case 1 {\n                // throw if contract failed to deploy\n                revert(0, 0)\n            }\n        }\n        bytes32 hash = keccak256(_code);\n        cache[hash] = target;\n    }\n}",
  "sourcePath": "/home/vyper/Downloads/Work Projects/avengers/kalancer-action/contracts/DSProxyFactory.sol",
  "compiler": {
    "name": "solc",
    "version": "0.6.12+commit.27d51765.Emscripten.clang"
  },
  "schemaVersion": "3.3.4",
  "updatedAt": "2021-03-27T11:47:47.687Z",
  "networkType": "ethereum",
  "devdoc": {
    "kind": "dev",
    "methods": {},
    "version": 1
  },
  "userdoc": {
    "kind": "user",
    "methods": {},
    "version": 1
  }
}