{
  "contractName": "KActions",
  "abi": [
    {
      "inputs": [
        {
          "internalType": "contract KFactory",
          "name": "factory",
          "type": "address"
        },
        {
          "internalType": "address[]",
          "name": "tokens",
          "type": "address[]"
        },
        {
          "internalType": "uint256[]",
          "name": "balances",
          "type": "uint256[]"
        },
        {
          "internalType": "uint256[]",
          "name": "weights",
          "type": "uint256[]"
        },
        {
          "internalType": "uint256",
          "name": "swapFee",
          "type": "uint256"
        },
        {
          "internalType": "bool",
          "name": "finalize",
          "type": "bool"
        }
      ],
      "name": "create",
      "outputs": [
        {
          "internalType": "contract KPool",
          "name": "pool",
          "type": "address"
        }
      ],
      "stateMutability": "nonpayable",
      "type": "function"
    },
    {
      "inputs": [
        {
          "internalType": "contract CRPFactory",
          "name": "factory",
          "type": "address"
        },
        {
          "internalType": "contract KFactory",
          "name": "kFactory",
          "type": "address"
        },
        {
          "components": [
            {
              "internalType": "string",
              "name": "poolTokenSymbol",
              "type": "string"
            },
            {
              "internalType": "string",
              "name": "poolTokenName",
              "type": "string"
            },
            {
              "internalType": "address[]",
              "name": "constituentTokens",
              "type": "address[]"
            },
            {
              "internalType": "uint256[]",
              "name": "tokenBalances",
              "type": "uint256[]"
            },
            {
              "internalType": "uint256[]",
              "name": "tokenWeights",
              "type": "uint256[]"
            },
            {
              "internalType": "uint256",
              "name": "swapFee",
              "type": "uint256"
            }
          ],
          "internalType": "struct ConfigurableRightsPool.PoolParams",
          "name": "poolParams",
          "type": "tuple"
        },
        {
          "components": [
            {
              "internalType": "uint256",
              "name": "initialSupply",
              "type": "uint256"
            },
            {
              "internalType": "uint256",
              "name": "minimumWeightChangeBlockPeriod",
              "type": "uint256"
            },
            {
              "internalType": "uint256",
              "name": "addTokenTimeLockInBlocks",
              "type": "uint256"
            }
          ],
          "internalType": "struct ConfigurableRightsPool.CrpParams",
          "name": "crpParams",
          "type": "tuple"
        },
        {
          "components": [
            {
              "internalType": "bool",
              "name": "canPauseSwapping",
              "type": "bool"
            },
            {
              "internalType": "bool",
              "name": "canChangeSwapFee",
              "type": "bool"
            },
            {
              "internalType": "bool",
              "name": "canChangeWeights",
              "type": "bool"
            },
            {
              "internalType": "bool",
              "name": "canAddRemoveTokens",
              "type": "bool"
            },
            {
              "internalType": "bool",
              "name": "canWhitelistLPs",
              "type": "bool"
            },
            {
              "internalType": "bool",
              "name": "canChangeCap",
              "type": "bool"
            }
          ],
          "internalType": "struct RightsManager.Rights",
          "name": "rights",
          "type": "tuple"
        }
      ],
      "name": "createSmartPool",
      "outputs": [
        {
          "internalType": "contract ConfigurableRightsPool",
          "name": "crp",
          "type": "address"
        }
      ],
      "stateMutability": "nonpayable",
      "type": "function"
    },
    {
      "inputs": [
        {
          "internalType": "contract KPool",
          "name": "pool",
          "type": "address"
        },
        {
          "internalType": "uint256",
          "name": "poolAmountOut",
          "type": "uint256"
        },
        {
          "internalType": "uint256[]",
          "name": "maxAmountsIn",
          "type": "uint256[]"
        }
      ],
      "name": "joinPool",
      "outputs": [],
      "stateMutability": "nonpayable",
      "type": "function"
    },
    {
      "inputs": [
        {
          "internalType": "contract ConfigurableRightsPool",
          "name": "pool",
          "type": "address"
        },
        {
          "internalType": "uint256",
          "name": "poolAmountOut",
          "type": "uint256"
        },
        {
          "internalType": "uint256[]",
          "name": "maxAmountsIn",
          "type": "uint256[]"
        }
      ],
      "name": "joinSmartPool",
      "outputs": [],
      "stateMutability": "nonpayable",
      "type": "function"
    },
    {
      "inputs": [
        {
          "internalType": "contract AbstractPool",
          "name": "pool",
          "type": "address"
        },
        {
          "internalType": "contract ERC20",
          "name": "token",
          "type": "address"
        },
        {
          "internalType": "uint256",
          "name": "tokenAmountIn",
          "type": "uint256"
        },
        {
          "internalType": "uint256",
          "name": "minPoolAmountOut",
          "type": "uint256"
        }
      ],
      "name": "joinswapExternAmountIn",
      "outputs": [],
      "stateMutability": "nonpayable",
      "type": "function"
    },
    {
      "inputs": [
        {
          "internalType": "contract AbstractPool",
          "name": "pool",
          "type": "address"
        },
        {
          "internalType": "bool",
          "name": "publicSwap",
          "type": "bool"
        }
      ],
      "name": "setPublicSwap",
      "outputs": [],
      "stateMutability": "nonpayable",
      "type": "function"
    },
    {
      "inputs": [
        {
          "internalType": "contract AbstractPool",
          "name": "pool",
          "type": "address"
        },
        {
          "internalType": "uint256",
          "name": "newFee",
          "type": "uint256"
        }
      ],
      "name": "setSwapFee",
      "outputs": [],
      "stateMutability": "nonpayable",
      "type": "function"
    },
    {
      "inputs": [
        {
          "internalType": "contract AbstractPool",
          "name": "pool",
          "type": "address"
        },
        {
          "internalType": "address",
          "name": "newController",
          "type": "address"
        }
      ],
      "name": "setController",
      "outputs": [],
      "stateMutability": "nonpayable",
      "type": "function"
    },
    {
      "inputs": [
        {
          "internalType": "contract KPool",
          "name": "pool",
          "type": "address"
        },
        {
          "internalType": "address[]",
          "name": "tokens",
          "type": "address[]"
        },
        {
          "internalType": "uint256[]",
          "name": "balances",
          "type": "uint256[]"
        },
        {
          "internalType": "uint256[]",
          "name": "denorms",
          "type": "uint256[]"
        }
      ],
      "name": "setTokens",
      "outputs": [],
      "stateMutability": "nonpayable",
      "type": "function"
    },
    {
      "inputs": [
        {
          "internalType": "contract KPool",
          "name": "pool",
          "type": "address"
        }
      ],
      "name": "finalize",
      "outputs": [],
      "stateMutability": "nonpayable",
      "type": "function"
    },
    {
      "inputs": [
        {
          "internalType": "contract ConfigurableRightsPool",
          "name": "crp",
          "type": "address"
        },
        {
          "internalType": "contract ERC20",
          "name": "token",
          "type": "address"
        },
        {
          "internalType": "uint256",
          "name": "newWeight",
          "type": "uint256"
        },
        {
          "internalType": "uint256",
          "name": "tokenAmountIn",
          "type": "uint256"
        }
      ],
      "name": "increaseWeight",
      "outputs": [],
      "stateMutability": "nonpayable",
      "type": "function"
    },
    {
      "inputs": [
        {
          "internalType": "contract ConfigurableRightsPool",
          "name": "crp",
          "type": "address"
        },
        {
          "internalType": "contract ERC20",
          "name": "token",
          "type": "address"
        },
        {
          "internalType": "uint256",
          "name": "newWeight",
          "type": "uint256"
        },
        {
          "internalType": "uint256",
          "name": "poolAmountIn",
          "type": "uint256"
        }
      ],
      "name": "decreaseWeight",
      "outputs": [],
      "stateMutability": "nonpayable",
      "type": "function"
    },
    {
      "inputs": [
        {
          "internalType": "contract ConfigurableRightsPool",
          "name": "crp",
          "type": "address"
        },
        {
          "internalType": "uint256[]",
          "name": "newWeights",
          "type": "uint256[]"
        },
        {
          "internalType": "uint256",
          "name": "startBlock",
          "type": "uint256"
        },
        {
          "internalType": "uint256",
          "name": "endBlock",
          "type": "uint256"
        }
      ],
      "name": "updateWeightsGradually",
      "outputs": [],
      "stateMutability": "nonpayable",
      "type": "function"
    },
    {
      "inputs": [
        {
          "internalType": "contract ConfigurableRightsPool",
          "name": "crp",
          "type": "address"
        },
        {
          "internalType": "uint256",
          "name": "newCap",
          "type": "uint256"
        }
      ],
      "name": "setCap",
      "outputs": [],
      "stateMutability": "nonpayable",
      "type": "function"
    },
    {
      "inputs": [
        {
          "internalType": "contract ConfigurableRightsPool",
          "name": "crp",
          "type": "address"
        },
        {
          "internalType": "contract ERC20",
          "name": "token",
          "type": "address"
        },
        {
          "internalType": "uint256",
          "name": "balance",
          "type": "uint256"
        },
        {
          "internalType": "uint256",
          "name": "denormalizedWeight",
          "type": "uint256"
        }
      ],
      "name": "commitAddToken",
      "outputs": [],
      "stateMutability": "nonpayable",
      "type": "function"
    },
    {
      "inputs": [
        {
          "internalType": "contract ConfigurableRightsPool",
          "name": "crp",
          "type": "address"
        },
        {
          "internalType": "contract ERC20",
          "name": "token",
          "type": "address"
        },
        {
          "internalType": "uint256",
          "name": "tokenAmountIn",
          "type": "uint256"
        }
      ],
      "name": "applyAddToken",
      "outputs": [],
      "stateMutability": "nonpayable",
      "type": "function"
    },
    {
      "inputs": [
        {
          "internalType": "contract ConfigurableRightsPool",
          "name": "crp",
          "type": "address"
        },
        {
          "internalType": "contract ERC20",
          "name": "token",
          "type": "address"
        },
        {
          "internalType": "uint256",
          "name": "poolAmountIn",
          "type": "uint256"
        }
      ],
      "name": "removeToken",
      "outputs": [],
      "stateMutability": "nonpayable",
      "type": "function"
    },
    {
      "inputs": [
        {
          "internalType": "contract ConfigurableRightsPool",
          "name": "crp",
          "type": "address"
        },
        {
          "internalType": "address",
          "name": "provider",
          "type": "address"
        }
      ],
      "name": "whitelistLiquidityProvider",
      "outputs": [],
      "stateMutability": "nonpayable",
      "type": "function"
    },
    {
      "inputs": [
        {
          "internalType": "contract ConfigurableRightsPool",
          "name": "crp",
          "type": "address"
        },
        {
          "internalType": "address",
          "name": "provider",
          "type": "address"
        }
      ],
      "name": "removeWhitelistedLiquidityProvider",
      "outputs": [],
      "stateMutability": "nonpayable",
      "type": "function"
    }
  ],
  "bytecode": "0x608060405234801561001057600080fd5b50612f60806100206000396000f3fe608060405234801561001057600080fd5b50600436106101215760003560e01c806384f3859b116100ad578063a7f28da711610071578063a7f28da714610248578063c037f39c1461025b578063c152e5791461026e578063c1762b1514610281578063e0d945bf1461029457610121565b806384f3859b146101e95780638a5c57df146101fc578063991991c71461020f5780639c11bd17146102225780639fbbf3ba1461023557610121565b80634ef39b75116100f45780634ef39b751461018a578063674f8d8e1461019d5780637b7d6c68146101b057806380ad2cf3146101c357806381bd5cd7146101d657610121565b80631a78a275146101265780631eccc1851461014f5780632c91a59114610164578063333fbeef14610177575b600080fd5b6101396101343660046128d9565b6102a7565b6040516101469190612b83565b60405180910390f35b61016261015d366004612680565b610751565b005b61016261017236600461287f565b6107b3565b6101626101853660046127c8565b6108e2565b61016261019836600461255e565b61090e565b6101626101ab3660046126ad565b610a75565b6101626101be366004612648565b610c8a565b6101626101d13660046126f2565b610cb6565b6101626101e43660046126ad565b610ce2565b6101626101f736600461283f565b610e21565b61016261020a36600461287f565b611033565b61016261021d3660046126f2565b61106e565b6101626102303660046127da565b61109a565b6101626102433660046126ad565b611105565b6101626102563660046127c8565b61116d565b61016261026936600461283f565b611199565b61013961027c36600461271d565b6112cb565b61016261028f3660046126ad565b611601565b6101626102a236600461299e565b6117ce565b60008786146102d15760405162461bcd60e51b81526004016102c890612d46565b60405180910390fd5b8784146102f05760405162461bcd60e51b81526004016102c890612d46565b896001600160a01b03166369fd1f056040518163ffffffff1660e01b8152600401602060405180830381600087803b15801561032b57600080fd5b505af115801561033f573d6000803e3d6000fd5b505050506040513d601f19601f8201168201806040525081019061036391906127ac565b6040516334e1990760e01b81529091506001600160a01b038216906334e1990790610392908690600401612da0565b600060405180830381600087803b1580156103ac57600080fd5b505af11580156103c0573d6000803e3d6000fd5b5050505060005b888110156105745760008a8a838181106103dd57fe5b90506020020160208101906103f2919061255e565b9050806001600160a01b03166323b872dd33308c8c8781811061041157fe5b905060200201356040518463ffffffff1660e01b815260040161043693929190612b97565b602060405180830381600087803b15801561045057600080fd5b505af1158015610464573d6000803e3d6000fd5b505050506040513d601f19601f82011682018060405250810190610488919061262c565b6104a45760405162461bcd60e51b81526004016102c890612d73565b6104c181848b8b868181106104b557fe5b90506020020135611fec565b826001600160a01b031663e4e1e5388c8c858181106104dc57fe5b90506020020160208101906104f1919061255e565b8b8b868181106104fd57fe5b905060200201358a8a8781811061051057fe5b905060200201356040518463ffffffff1660e01b815260040161053593929190612cf3565b600060405180830381600087803b15801561054f57600080fd5b505af1158015610563573d6000803e3d6000fd5b5050600190930192506103c7915050565b5081156106e457806001600160a01b0316634bb278f36040518163ffffffff1660e01b8152600401600060405180830381600087803b1580156105b657600080fd5b505af11580156105ca573d6000803e3d6000fd5b50506040516370a0823160e01b81526001600160a01b038416925063a9059cbb9150339083906370a0823190610604903090600401612b83565b60206040518083038186803b15801561061c57600080fd5b505afa158015610630573d6000803e3d6000fd5b505050506040513d601f19601f820116820180604052508101906106549190612a47565b6040518363ffffffff1660e01b8152600401610671929190612bbb565b602060405180830381600087803b15801561068b57600080fd5b505af115801561069f573d6000803e3d6000fd5b505050506040513d601f19601f820116820180604052508101906106c3919061262c565b6106df5760405162461bcd60e51b81526004016102c890612d73565b610744565b6040516324dacaa960e11b81526001600160a01b038216906349b595529061071190600190600401612d3b565b600060405180830381600087803b15801561072b57600080fd5b505af115801561073f573d6000803e3d6000fd5b505050505b9998505050505050505050565b6040516324dacaa960e11b81526001600160a01b038316906349b595529061077d908490600401612d3b565b600060405180830381600087803b15801561079757600080fd5b505af11580156107ab573d6000803e3d6000fd5b505050505050565b6060846001600160a01b031663b03a9e976040518163ffffffff1660e01b815260040160206040518083038186803b1580156107ee57600080fd5b505afa158015610802573d6000803e3d6000fd5b505050506040513d601f19601f8201168201806040525081019061082691906127ac565b6001600160a01b031663cc77828d6040518163ffffffff1660e01b815260040160006040518083038186803b15801561085e57600080fd5b505afa158015610872573d6000803e3d6000fd5b505050506040513d6000823e601f3d908101601f1916820160405261089a9190810190612581565b90506108db85828686868080602002602001604051908101604052809392919081815260200183836020028082843760009201919091525061217692505050565b5050505050565b60405163c83a1c2d60e01b81526001600160a01b0383169063c83a1c2d9061077d908490600401612b83565b806001600160a01b0316634bb278f36040518163ffffffff1660e01b8152600401600060405180830381600087803b15801561094957600080fd5b505af115801561095d573d6000803e3d6000fd5b50506040516370a0823160e01b81526001600160a01b038416925063a9059cbb9150339083906370a0823190610997903090600401612b83565b60206040518083038186803b1580156109af57600080fd5b505afa1580156109c3573d6000803e3d6000fd5b505050506040513d601f19601f820116820180604052508101906109e79190612a47565b6040518363ffffffff1660e01b8152600401610a04929190612bbb565b602060405180830381600087803b158015610a1e57600080fd5b505af1158015610a32573d6000803e3d6000fd5b505050506040513d601f19601f82011682018060405250810190610a56919061262c565b610a725760405162461bcd60e51b81526004016102c890612d73565b50565b6040516323b872dd60e01b81526001600160a01b038516906323b872dd90610aa590339030908690600401612b97565b602060405180830381600087803b158015610abf57600080fd5b505af1158015610ad3573d6000803e3d6000fd5b505050506040513d601f19601f82011682018060405250810190610af7919061262c565b610b135760405162461bcd60e51b81526004016102c890612d73565b604051639776e94b60e01b81526001600160a01b03851690639776e94b90610b419086908690600401612bbb565b600060405180830381600087803b158015610b5b57600080fd5b505af1158015610b6f573d6000803e3d6000fd5b50506040516370a0823160e01b81526001600160a01b038616925063a9059cbb9150339083906370a0823190610ba9903090600401612b83565b60206040518083038186803b158015610bc157600080fd5b505afa158015610bd5573d6000803e3d6000fd5b505050506040513d601f19601f82011682018060405250810190610bf99190612a47565b6040518363ffffffff1660e01b8152600401610c16929190612bbb565b602060405180830381600087803b158015610c3057600080fd5b505af1158015610c44573d6000803e3d6000fd5b505050506040513d601f19601f82011682018060405250810190610c68919061262c565b610c845760405162461bcd60e51b81526004016102c890612d73565b50505050565b6040516392eefe9b60e01b81526001600160a01b038316906392eefe9b9061077d908490600401612b83565b6040516347786d3760e01b81526001600160a01b038316906347786d379061077d908490600401612da0565b6040516323b872dd60e01b81526001600160a01b038416906323b872dd90610d1290339030908690600401612b97565b602060405180830381600087803b158015610d2c57600080fd5b505af1158015610d40573d6000803e3d6000fd5b505050506040513d601f19601f82011682018060405250810190610d64919061262c565b610d805760405162461bcd60e51b81526004016102c890612d73565b610d8b838583611fec565b604051639776e94b60e01b81526001600160a01b03851690639776e94b90610db99086908690600401612bbb565b600060405180830381600087803b158015610dd357600080fd5b505af1158015610de7573d6000803e3d6000fd5b50506040516370a0823160e01b81526001600160a01b038716925063a9059cbb9150339083906370a0823190610ba9903090600401612b83565b6040516323b872dd60e01b81526001600160a01b038416906323b872dd90610e5190339030908690600401612b97565b602060405180830381600087803b158015610e6b57600080fd5b505af1158015610e7f573d6000803e3d6000fd5b505050506040513d601f19601f82011682018060405250810190610ea3919061262c565b610ebf5760405162461bcd60e51b81526004016102c890612d73565b6040516317e9ed6160e21b81526001600160a01b03841690635fa7b58490610eeb908590600401612b83565b600060405180830381600087803b158015610f0557600080fd5b505af1158015610f19573d6000803e3d6000fd5b50506040516370a0823160e01b81526001600160a01b038516925063a9059cbb9150339083906370a0823190610f53903090600401612b83565b60206040518083038186803b158015610f6b57600080fd5b505afa158015610f7f573d6000803e3d6000fd5b505050506040513d601f19601f82011682018060405250810190610fa39190612a47565b6040518363ffffffff1660e01b8152600401610fc0929190612bbb565b602060405180830381600087803b158015610fda57600080fd5b505af1158015610fee573d6000803e3d6000fd5b505050506040513d601f19601f82011682018060405250810190611012919061262c565b61102e5760405162461bcd60e51b81526004016102c890612d73565b505050565b6060846001600160a01b031663be3bbd2e6040518163ffffffff1660e01b815260040160006040518083038186803b15801561085e57600080fd5b6040516334e1990760e01b81526001600160a01b038316906334e199079061077d908490600401612da0565b60405163246bc19b60e01b81526001600160a01b0386169063246bc19b906110cc908790879087908790600401612d14565b600060405180830381600087803b1580156110e657600080fd5b505af11580156110fa573d6000803e3d6000fd5b505050505050505050565b604051634c20d20960e01b81526001600160a01b03851690634c20d2099061113590869086908690600401612cf3565b600060405180830381600087803b15801561114f57600080fd5b505af1158015611163573d6000803e3d6000fd5b5050505050505050565b60405163e2762d4b60e01b81526001600160a01b0383169063e2762d4b9061077d908490600401612b83565b6040516323b872dd60e01b81526001600160a01b038316906323b872dd906111c990339030908690600401612b97565b602060405180830381600087803b1580156111e357600080fd5b505af11580156111f7573d6000803e3d6000fd5b505050506040513d601f19601f8201168201806040525081019061121b919061262c565b6112375760405162461bcd60e51b81526004016102c890612d73565b611242828483611fec565b826001600160a01b031663c275d81b6040518163ffffffff1660e01b8152600401600060405180830381600087803b15801561127d57600080fd5b505af1158015611291573d6000803e3d6000fd5b50506040516370a0823160e01b81526001600160a01b038616925063a9059cbb9150339083906370a0823190610f53903090600401612b83565b60006112da6060850185612e0c565b90506112e96040860186612e0c565b9050146113085760405162461bcd60e51b81526004016102c890612d46565b6113156080850185612e0c565b90506113246040860186612e0c565b9050146113435760405162461bcd60e51b81526004016102c890612d46565b604051634420002b60e01b81526001600160a01b03871690634420002b9061137390889088908790600401612bee565b602060405180830381600087803b15801561138d57600080fd5b505af11580156113a1573d6000803e3d6000fd5b505050506040513d601f19601f820116820180604052508101906113c591906127ac565b905060005b6113d76040860186612e0c565b90508110156114f05760006113ef6040870187612e0c565b838181106113f957fe5b905060200201602081019061140e919061255e565b90506001600160a01b0381166323b872dd333061142e60608b018b612e0c565b8781811061143857fe5b905060200201356040518463ffffffff1660e01b815260040161145d93929190612b97565b602060405180830381600087803b15801561147757600080fd5b505af115801561148b573d6000803e3d6000fd5b505050506040513d601f19601f820116820180604052508101906114af919061262c565b6114cb5760405162461bcd60e51b81526004016102c890612d73565b6114e781846114dd60608a018a612e0c565b868181106104b557fe5b506001016113ca565b506040805163c3391d2760e01b81526001600160a01b0383169163c3391d27916115299187359160208901359189013590600401612df6565b600060405180830381600087803b15801561154357600080fd5b505af1158015611557573d6000803e3d6000fd5b505060405163a9059cbb60e01b81526001600160a01b038416925063a9059cbb915061158a903390873590600401612bbb565b602060405180830381600087803b1580156115a457600080fd5b505af11580156115b8573d6000803e3d6000fd5b505050506040513d601f19601f820116820180604052508101906115dc919061262c565b6115f85760405162461bcd60e51b81526004016102c890612d73565b95945050505050565b6040516323b872dd60e01b81526001600160a01b038416906323b872dd9061163190339030908790600401612b97565b602060405180830381600087803b15801561164b57600080fd5b505af115801561165f573d6000803e3d6000fd5b505050506040513d601f19601f82011682018060405250810190611683919061262c565b61169f5760405162461bcd60e51b81526004016102c890612d73565b6116aa838584611fec565b604051635db3427760e01b81526000906001600160a01b03861690635db34277906116dd90879087908790600401612cf3565b602060405180830381600087803b1580156116f757600080fd5b505af115801561170b573d6000803e3d6000fd5b505050506040513d601f19601f8201168201806040525081019061172f9190612a47565b60405163a9059cbb60e01b81529091506001600160a01b0386169063a9059cbb906117609033908590600401612bbb565b602060405180830381600087803b15801561177a57600080fd5b505af115801561178e573d6000803e3d6000fd5b505050506040513d601f19601f820116820180604052508101906117b2919061262c565b6108db5760405162461bcd60e51b81526004016102c890612d73565b8483146117ed5760405162461bcd60e51b81526004016102c890612d46565b84811461180c5760405162461bcd60e51b81526004016102c890612d46565b60005b8581101561116357600087878381811061182557fe5b905060200201602081019061183a919061255e565b9050886001600160a01b0316632f37b62489898581811061185757fe5b905060200201602081019061186c919061255e565b6040518263ffffffff1660e01b81526004016118889190612b83565b60206040518083038186803b1580156118a057600080fd5b505afa1580156118b4573d6000803e3d6000fd5b505050506040513d601f19601f820116820180604052508101906118d8919061262c565b15611ce557886001600160a01b031663f8b2cb4f8989858181106118f857fe5b905060200201602081019061190d919061255e565b6040518263ffffffff1660e01b81526004016119299190612b83565b60206040518083038186803b15801561194157600080fd5b505afa158015611955573d6000803e3d6000fd5b505050506040513d601f19601f820116820180604052508101906119799190612a47565b86868481811061198557fe5b905060200201351115611b9957806001600160a01b03166323b872dd33308c6001600160a01b031663f8b2cb4f8d8d898181106119be57fe5b90506020020160208101906119d3919061255e565b6040518263ffffffff1660e01b81526004016119ef9190612b83565b60206040518083038186803b158015611a0757600080fd5b505afa158015611a1b573d6000803e3d6000fd5b505050506040513d601f19601f82011682018060405250810190611a3f9190612a47565b8a8a88818110611a4b57fe5b90506020020135036040518463ffffffff1660e01b8152600401611a7193929190612b97565b602060405180830381600087803b158015611a8b57600080fd5b505af1158015611a9f573d6000803e3d6000fd5b505050506040513d601f19601f82011682018060405250810190611ac3919061262c565b611adf5760405162461bcd60e51b81526004016102c890612d73565b611b99818a8b6001600160a01b031663f8b2cb4f8c8c88818110611aff57fe5b9050602002016020810190611b14919061255e565b6040518263ffffffff1660e01b8152600401611b309190612b83565b60206040518083038186803b158015611b4857600080fd5b505afa158015611b5c573d6000803e3d6000fd5b505050506040513d601f19601f82011682018060405250810190611b809190612a47565b898987818110611b8c57fe5b9050602002013503611fec565b620f4240868684818110611ba957fe5b905060200201351115611c6157886001600160a01b0316633fdddaa2898985818110611bd157fe5b9050602002016020810190611be6919061255e565b888886818110611bf257fe5b90506020020135878787818110611c0557fe5b905060200201356040518463ffffffff1660e01b8152600401611c2a93929190612cf3565b600060405180830381600087803b158015611c4457600080fd5b505af1158015611c58573d6000803e3d6000fd5b50505050611ce0565b886001600160a01b031663cf5e7bd3898985818110611c7c57fe5b9050602002016020810190611c91919061255e565b6040518263ffffffff1660e01b8152600401611cad9190612b83565b600060405180830381600087803b158015611cc757600080fd5b505af1158015611cdb573d6000803e3d6000fd5b505050505b611e4d565b806001600160a01b03166323b872dd3330898987818110611d0257fe5b905060200201356040518463ffffffff1660e01b8152600401611d2793929190612b97565b602060405180830381600087803b158015611d4157600080fd5b505af1158015611d55573d6000803e3d6000fd5b505050506040513d601f19601f82011682018060405250810190611d79919061262c565b611d955760405162461bcd60e51b81526004016102c890612d73565b611da6818a8888868181106104b557fe5b886001600160a01b031663e4e1e538898985818110611dc157fe5b9050602002016020810190611dd6919061255e565b888886818110611de257fe5b90506020020135878787818110611df557fe5b905060200201356040518463ffffffff1660e01b8152600401611e1a93929190612cf3565b600060405180830381600087803b158015611e3457600080fd5b505af1158015611e48573d6000803e3d6000fd5b505050505b6040516370a0823160e01b81526000906001600160a01b038316906370a0823190611e7c903090600401612b83565b60206040518083038186803b158015611e9457600080fd5b505afa158015611ea8573d6000803e3d6000fd5b505050506040513d601f19601f82011682018060405250810190611ecc9190612a47565b1115611fe3576040516370a0823160e01b81526001600160a01b0382169063a9059cbb90339083906370a0823190611f08903090600401612b83565b60206040518083038186803b158015611f2057600080fd5b505afa158015611f34573d6000803e3d6000fd5b505050506040513d601f19601f82011682018060405250810190611f589190612a47565b6040518363ffffffff1660e01b8152600401611f75929190612bbb565b602060405180830381600087803b158015611f8f57600080fd5b505af1158015611fa3573d6000803e3d6000fd5b505050506040513d601f19601f82011682018060405250810190611fc7919061262c565b611fe35760405162461bcd60e51b81526004016102c890612d73565b5060010161180f565b604051636eb1769f60e11b81526000906001600160a01b0385169063dd62ed3e9061201d9030908790600401612bd4565b60206040518083038186803b15801561203557600080fd5b505afa158015612049573d6000803e3d6000fd5b505050506040513d601f19601f8201168201806040525081019061206d9190612a47565b11156120f65760405163095ea7b360e01b81526001600160a01b0384169063095ea7b3906120a2908590600090600401612bbb565b602060405180830381600087803b1580156120bc57600080fd5b505af11580156120d0573d6000803e3d6000fd5b505050506040513d601f19601f820116820180604052508101906120f4919061262c565b505b60405163095ea7b360e01b81526001600160a01b0384169063095ea7b3906121249085908590600401612bbb565b602060405180830381600087803b15801561213e57600080fd5b505af1158015612152573d6000803e3d6000fd5b505050506040513d601f19601f82011682018060405250810190610c84919061262c565b82518151146121975760405162461bcd60e51b81526004016102c890612d46565b60005b83518110156122935760008482815181106121b157fe5b60200260200101519050806001600160a01b03166323b872dd33308686815181106121d857fe5b60200260200101516040518463ffffffff1660e01b81526004016121fe93929190612b97565b602060405180830381600087803b15801561221857600080fd5b505af115801561222c573d6000803e3d6000fd5b505050506040513d601f19601f82011682018060405250810190612250919061262c565b61226c5760405162461bcd60e51b81526004016102c890612d73565b61228a818785858151811061227d57fe5b6020026020010151611fec565b5060010161219a565b506040516313da703560e21b81526001600160a01b03851690634f69c0d4906122c29085908590600401612da9565b600060405180830381600087803b1580156122dc57600080fd5b505af11580156122f0573d6000803e3d6000fd5b5050505060005b83518110156124b657600084828151811061230e57fe5b602002602001015190506000816001600160a01b03166370a08231306040518263ffffffff1660e01b81526004016123469190612b83565b60206040518083038186803b15801561235e57600080fd5b505afa158015612372573d6000803e3d6000fd5b505050506040513d601f19601f820116820180604052508101906123969190612a47565b11156124ad576040516370a0823160e01b81526001600160a01b0382169063a9059cbb90339083906370a08231906123d2903090600401612b83565b60206040518083038186803b1580156123ea57600080fd5b505afa1580156123fe573d6000803e3d6000fd5b505050506040513d601f19601f820116820180604052508101906124229190612a47565b6040518363ffffffff1660e01b815260040161243f929190612bbb565b602060405180830381600087803b15801561245957600080fd5b505af115801561246d573d6000803e3d6000fd5b505050506040513d601f19601f82011682018060405250810190612491919061262c565b6124ad5760405162461bcd60e51b81526004016102c890612d73565b506001016122f7565b506040516370a0823160e01b81526001600160a01b0385169063a9059cbb90339083906370a0823190610ba9903090600401612b83565b80516124f881612f07565b92915050565b60008083601f84011261250f578182fd5b50813567ffffffffffffffff811115612526578182fd5b602083019150836020808302850101111561254057600080fd5b9250929050565b600060c08284031215612558578081fd5b50919050565b60006020828403121561256f578081fd5b813561257a81612f07565b9392505050565b60006020808385031215612593578182fd5b825167ffffffffffffffff808211156125aa578384fd5b818501915085601f8301126125bd578384fd5b8151818111156125cb578485fd5b83810291506125db848301612e53565b8181528481019084860184860187018a10156125f5578788fd5b8795505b8386101561261f5761260b8a826124ed565b8352600195909501949186019186016125f9565b5098975050505050505050565b60006020828403121561263d578081fd5b815161257a81612f1c565b6000806040838503121561265a578081fd5b823561266581612f07565b9150602083013561267581612f07565b809150509250929050565b60008060408385031215612692578182fd5b823561269d81612f07565b9150602083013561267581612f1c565b600080600080608085870312156126c2578182fd5b84356126cd81612f07565b935060208501356126dd81612f07565b93969395505050506040820135916060013590565b60008060408385031215612704578182fd5b823561270f81612f07565b946020939093013593505050565b6000806000806000858703610180811215612736578182fd5b863561274181612f07565b9550602087013561275181612f07565b9450604087013567ffffffffffffffff81111561276c578283fd5b61277889828a01612547565b9450506060605f198201121561278c578182fd5b506060860191506127a08760c08801612547565b90509295509295909350565b6000602082840312156127bd578081fd5b815161257a81612f07565b6000806040838503121561265a578182fd5b6000806000806000608086880312156127f1578283fd5b85356127fc81612f07565b9450602086013567ffffffffffffffff811115612817578384fd5b612823888289016124fe565b9699909850959660408101359660609091013595509350505050565b600080600060608486031215612853578081fd5b833561285e81612f07565b9250602084013561286e81612f07565b929592945050506040919091013590565b60008060008060608587031215612894578182fd5b843561289f81612f07565b935060208501359250604085013567ffffffffffffffff8111156128c1578283fd5b6128cd878288016124fe565b95989497509550505050565b600080600080600080600080600060c08a8c0312156128f6578687fd5b893561290181612f07565b985060208a013567ffffffffffffffff8082111561291d578889fd5b6129298d838e016124fe565b909a50985060408c0135915080821115612941578586fd5b61294d8d838e016124fe565b909850965060608c0135915080821115612965578586fd5b506129728c828d016124fe565b90955093505060808a0135915060a08a013561298d81612f1c565b809150509295985092959850929598565b60008060008060008060006080888a0312156129b8578081fd5b87356129c381612f07565b9650602088013567ffffffffffffffff808211156129df578283fd5b6129eb8b838c016124fe565b909850965060408a0135915080821115612a03578283fd5b612a0f8b838c016124fe565b909650945060608a0135915080821115612a27578283fd5b50612a348a828b016124fe565b989b979a50959850939692959293505050565b600060208284031215612a58578081fd5b5051919050565b60008284526020808501945082825b85811015612a9c578135612a8181612f07565b6001600160a01b031687529582019590820190600101612a6e565b509495945050505050565b81835260006001600160fb1b03831115612abf578081fd5b6020830280836020870137939093016020019283525090919050565b60008284528282602086013780602084860101526020601f19601f85011685010190509392505050565b8035612b1081612f1c565b151582526020810135612b2281612f1c565b151560208301526040810135612b3781612f1c565b151560408301526060810135612b4c81612f1c565b151560608301526080810135612b6181612f1c565b1515608083015260a0810135612b7681612f1c565b80151560a0840152505050565b6001600160a01b0391909116815260200190565b6001600160a01b039384168152919092166020820152604081019190915260600190565b6001600160a01b03929092168252602082015260400190565b6001600160a01b0392831681529116602082015260400190565b6001600160a01b038416815261010060208201819052600090612c118580612ec2565b60c083860152612c266101c086018284612adb565b92505050612c376020860186612ec2565b60ff198086850301610120870152612c50848385612adb565b9350612c5f6040890189612e7a565b935091508086850301610140870152612c79848484612a5f565b9350612c886060890189612e7a565b935091508086850301610160870152612ca2848484612aa7565b9350612cb16080890189612e7a565b93509150808685030161018087015250612ccc838383612aa7565b60a08801356101a08701529350612ceb92505060408401905084612b05565b949350505050565b6001600160a01b039390931683526020830191909152604082015260600190565b600060608252612d28606083018688612aa7565b6020830194909452506040015292915050565b901515815260200190565b60208082526013908201527208aa4a4be988a9c8ea890be9a92a69a82a8869606b1b604082015260600190565b60208082526013908201527211549497d514905394d1915497d19052531151606a1b604082015260600190565b90815260200190565b60006040820184835260206040818501528185518084526060860191508287019350845b81811015612de957845183529383019391830191600101612dcd565b5090979650505050505050565b9283526020830191909152604082015260600190565b6000808335601e19843603018112612e22578283fd5b83018035915067ffffffffffffffff821115612e3c578283fd5b602090810192508102360382131561254057600080fd5b60405181810167ffffffffffffffff81118282101715612e7257600080fd5b604052919050565b6000808335601e19843603018112612e90578283fd5b830160208101925035905067ffffffffffffffff811115612eb057600080fd5b60208102360383131561254057600080fd5b6000808335601e19843603018112612ed8578283fd5b830160208101925035905067ffffffffffffffff811115612ef857600080fd5b80360383131561254057600080fd5b6001600160a01b0381168114610a7257600080fd5b8015158114610a7257600080fdfea2646970667358221220964e10e0e3e5294f9edb2af661f4d0f1aa043a54910ef2d15ab89211a2eb857f64736f6c634300060c0033",
  "immutableReferences": {},
  "source": "// SPDX-License-Identifier: GPL-3.0-or-later\npragma solidity 0.6.12;\n\npragma experimental ABIEncoderV2;\n\nlibrary RightsManager {\n    struct Rights {\n        bool canPauseSwapping;\n        bool canChangeSwapFee;\n        bool canChangeWeights;\n        bool canAddRemoveTokens;\n        bool canWhitelistLPs;\n        bool canChangeCap;\n    }\n}\n\nabstract contract ERC20 {\n    function approve(address spender, uint amount) external virtual returns (bool);\n    function transfer(address dst, uint amt) external virtual returns (bool);\n    function transferFrom(address sender, address recipient, uint amount) external virtual returns (bool);\n    function balanceOf(address whom) external view virtual returns (uint);\n    function allowance(address, address) external view virtual returns (uint);\n}\n\nabstract contract KalancerOwnable {\n    function setController(address controller) external virtual;\n}\n\nabstract contract AbstractPool is ERC20, KalancerOwnable {\n    function setSwapFee(uint swapFee) external virtual;\n    function setPublicSwap(bool public_) external virtual;\n\n    function joinPool(uint poolAmountOut, uint[] calldata maxAmountsIn) external virtual;\n    function joinswapExternAmountIn(\n        address tokenIn, uint tokenAmountIn, uint minPoolAmountOut\n    ) external virtual returns (uint poolAmountOut);\n}\n\nabstract contract KPool is AbstractPool {\n    function finalize() external virtual;\n    function bind(address token, uint balance, uint denorm) external virtual;\n    function rebind(address token, uint balance, uint denorm) external virtual;\n    function unbind(address token) external virtual;\n    function isBound(address t) external view virtual returns (bool);\n    function getCurrentTokens() external view virtual returns (address[] memory);\n    function getFinalTokens() external view virtual returns(address[] memory);\n    function getBalance(address token) external view virtual returns (uint);\n}\n\nabstract contract KFactory {\n    function newKPool() external virtual returns (KPool);\n}\n\nabstract contract ConfigurableRightsPool is AbstractPool {\n    struct PoolParams {\n        string poolTokenSymbol;\n        string poolTokenName;\n        address[] constituentTokens;\n        uint[] tokenBalances;\n        uint[] tokenWeights;\n        uint swapFee;\n    }\n\n    struct CrpParams {\n        uint initialSupply;\n        uint minimumWeightChangeBlockPeriod;\n        uint addTokenTimeLockInBlocks;\n    }\n\n    function createPool(\n        uint initialSupply, uint minimumWeightChangeBlockPeriod, uint addTokenTimeLockInBlocks\n    ) external virtual;\n    function createPool(uint initialSupply) external virtual;\n    function setCap(uint newCap) external virtual;\n    function updateWeight(address token, uint newWeight) external virtual;\n    function updateWeightsGradually(\n        uint[] calldata newWeights, uint startBlock, uint endBlock\n    ) external virtual;\n    function commitAddToken(address token, uint balance, uint denormalizedWeight) external virtual;\n    function applyAddToken() external virtual;\n    function removeToken(address token) external virtual;\n    function whitelistLiquidityProvider(address provider) external virtual;\n    function removeWhitelistedLiquidityProvider(address provider) external virtual;\n    function kPool() external view virtual returns (KPool);\n}\n\nabstract contract CRPFactory {\n    function newCrp(\n        address factoryAddress,\n        ConfigurableRightsPool.PoolParams calldata params,\n        RightsManager.Rights calldata rights\n    ) external virtual returns (ConfigurableRightsPool);\n}\n/********************************** WARNING **********************************/\n//                                                                           //\n// This contract is only meant to be used in conjunction with ds-proxy.      //\n// Calling this contract directly will lead to loss of funds.                //\n//                                                                           //\n/********************************** WARNING **********************************/\n\ncontract KActions {\n\n    // --- Pool Creation ---\n\n    function create(\n        KFactory factory,\n        address[] calldata tokens,\n        uint[] calldata balances,\n        uint[] calldata weights,\n        uint swapFee,\n        bool finalize\n    ) external returns (KPool pool) {\n        require(tokens.length == balances.length, \"ERR_LENGTH_MISMATCH\");\n        require(tokens.length == weights.length, \"ERR_LENGTH_MISMATCH\");\n\n        pool = factory.newKPool();\n        pool.setSwapFee(swapFee);\n\n        for (uint i = 0; i < tokens.length; i++) {\n            ERC20 token = ERC20(tokens[i]);\n            require(token.transferFrom(msg.sender, address(this), balances[i]), \"ERR_TRANSFER_FAILED\");\n            _safeApprove(token, address(pool), balances[i]);\n            pool.bind(tokens[i], balances[i], weights[i]);\n        }\n\n        if (finalize) {\n            pool.finalize();\n            require(pool.transfer(msg.sender, pool.balanceOf(address(this))), \"ERR_TRANSFER_FAILED\");\n        } else {\n            pool.setPublicSwap(true);\n        }\n    }\n\n    function createSmartPool(\n        CRPFactory factory,\n        KFactory kFactory,\n        ConfigurableRightsPool.PoolParams calldata poolParams,\n        ConfigurableRightsPool.CrpParams calldata crpParams,\n        RightsManager.Rights calldata rights\n    ) external returns (ConfigurableRightsPool crp) {\n        require(\n            poolParams.constituentTokens.length == poolParams.tokenBalances.length,\n            \"ERR_LENGTH_MISMATCH\"\n        );\n        require(\n            poolParams.constituentTokens.length == poolParams.tokenWeights.length,\n            \"ERR_LENGTH_MISMATCH\"\n        );\n\n        crp = factory.newCrp(\n            address(kFactory),\n            poolParams,\n            rights\n        );\n\n        for (uint i = 0; i < poolParams.constituentTokens.length; i++) {\n            ERC20 token = ERC20(poolParams.constituentTokens[i]);\n            require(\n                token.transferFrom(msg.sender, address(this), poolParams.tokenBalances[i]),\n                \"ERR_TRANSFER_FAILED\"\n            );\n            _safeApprove(token, address(crp), poolParams.tokenBalances[i]);\n        }\n\n        crp.createPool(\n            crpParams.initialSupply,\n            crpParams.minimumWeightChangeBlockPeriod,\n            crpParams.addTokenTimeLockInBlocks\n        );\n        require(crp.transfer(msg.sender, crpParams.initialSupply), \"ERR_TRANSFER_FAILED\");\n        // DSProxy instance keeps pool ownership to enable management\n    }\n\n    // --- Joins ---\n\n    function joinPool(\n        KPool pool,\n        uint poolAmountOut,\n        uint[] calldata maxAmountsIn\n    ) external {\n        address[] memory tokens = pool.getFinalTokens();\n        _join(pool, tokens, poolAmountOut, maxAmountsIn);\n    }\n\n    function joinSmartPool(\n        ConfigurableRightsPool pool,\n        uint poolAmountOut,\n        uint[] calldata maxAmountsIn\n    ) external {\n        address[] memory tokens = pool.kPool().getCurrentTokens();\n        _join(pool, tokens, poolAmountOut, maxAmountsIn);\n    }\n\n    function joinswapExternAmountIn(\n        AbstractPool pool,\n        ERC20 token,\n        uint tokenAmountIn,\n        uint minPoolAmountOut\n    ) external {\n        require(token.transferFrom(msg.sender, address(this), tokenAmountIn), \"ERR_TRANSFER_FAILED\");\n        _safeApprove(token, address(pool), tokenAmountIn);\n        uint poolAmountOut = pool.joinswapExternAmountIn(address(token), tokenAmountIn, minPoolAmountOut);\n        require(pool.transfer(msg.sender, poolAmountOut), \"ERR_TRANSFER_FAILED\");\n    }\n\n    // --- Pool management (common) ---\n\n    function setPublicSwap(AbstractPool pool, bool publicSwap) external {\n        pool.setPublicSwap(publicSwap);\n    }\n\n    function setSwapFee(AbstractPool pool, uint newFee) external {\n        pool.setSwapFee(newFee);\n    }\n\n    function setController(AbstractPool pool, address newController) external {\n        pool.setController(newController);\n    }\n\n    // --- Private pool management ---\n\n    function setTokens(\n        KPool pool,\n        address[] calldata tokens,\n        uint[] calldata balances,\n        uint[] calldata denorms\n    ) external {\n        require(tokens.length == balances.length, \"ERR_LENGTH_MISMATCH\");\n        require(tokens.length == denorms.length, \"ERR_LENGTH_MISMATCH\");\n\n        for (uint i = 0; i < tokens.length; i++) {\n            ERC20 token = ERC20(tokens[i]);\n            if (pool.isBound(tokens[i])) {\n                if (balances[i] > pool.getBalance(tokens[i])) {\n                    require(\n                        token.transferFrom(msg.sender, address(this), balances[i] - pool.getBalance(tokens[i])),\n                        \"ERR_TRANSFER_FAILED\"\n                    );\n                    _safeApprove(token, address(pool), balances[i] - pool.getBalance(tokens[i]));\n                }\n                if (balances[i] > 10**6) {\n                    pool.rebind(tokens[i], balances[i], denorms[i]);\n                } else {\n                    pool.unbind(tokens[i]);\n                }\n\n            } else {\n                require(token.transferFrom(msg.sender, address(this), balances[i]), \"ERR_TRANSFER_FAILED\");\n                _safeApprove(token, address(pool), balances[i]);\n                pool.bind(tokens[i], balances[i], denorms[i]);\n            }\n\n            if (token.balanceOf(address(this)) > 0) {\n                require(token.transfer(msg.sender, token.balanceOf(address(this))), \"ERR_TRANSFER_FAILED\");\n            }\n\n        }\n    }\n\n    function finalize(KPool pool) external {\n        pool.finalize();\n        require(pool.transfer(msg.sender, pool.balanceOf(address(this))), \"ERR_TRANSFER_FAILED\");\n    }\n\n    // --- Smart pool management ---\n\n    function increaseWeight(\n        ConfigurableRightsPool crp,\n        ERC20 token,\n        uint newWeight,\n        uint tokenAmountIn\n    ) external {\n        require(token.transferFrom(msg.sender, address(this), tokenAmountIn), \"ERR_TRANSFER_FAILED\");\n        _safeApprove(token, address(crp), tokenAmountIn);\n        crp.updateWeight(address(token), newWeight);\n        require(crp.transfer(msg.sender, crp.balanceOf(address(this))), \"ERR_TRANSFER_FAILED\");\n    }\n\n    function decreaseWeight(\n        ConfigurableRightsPool crp,\n        ERC20 token,\n        uint newWeight,\n        uint poolAmountIn\n    ) external {\n        require(crp.transferFrom(msg.sender, address(this), poolAmountIn), \"ERR_TRANSFER_FAILED\");\n        crp.updateWeight(address(token), newWeight);\n        require(token.transfer(msg.sender, token.balanceOf(address(this))), \"ERR_TRANSFER_FAILED\");\n    }\n\n    function updateWeightsGradually(\n        ConfigurableRightsPool crp,\n        uint[] calldata newWeights,\n        uint startBlock,\n        uint endBlock\n    ) external {\n        crp.updateWeightsGradually(newWeights, startBlock, endBlock);\n    }\n\n    function setCap(\n        ConfigurableRightsPool crp,\n        uint newCap\n    ) external {\n        crp.setCap(newCap);\n    }\n\n    function commitAddToken(\n        ConfigurableRightsPool crp,\n        ERC20 token,\n        uint balance,\n        uint denormalizedWeight\n    ) external {\n        crp.commitAddToken(address(token), balance, denormalizedWeight);\n    }\n\n    function applyAddToken(\n        ConfigurableRightsPool crp,\n        ERC20 token,\n        uint tokenAmountIn\n    ) external {\n        require(token.transferFrom(msg.sender, address(this), tokenAmountIn), \"ERR_TRANSFER_FAILED\");\n        _safeApprove(token, address(crp), tokenAmountIn);\n        crp.applyAddToken();\n        require(crp.transfer(msg.sender, crp.balanceOf(address(this))), \"ERR_TRANSFER_FAILED\");\n    }\n\n    function removeToken(\n        ConfigurableRightsPool crp,\n        ERC20 token,\n        uint poolAmountIn\n    ) external {\n        require(crp.transferFrom(msg.sender, address(this), poolAmountIn), \"ERR_TRANSFER_FAILED\");\n        crp.removeToken(address(token));\n        require(token.transfer(msg.sender, token.balanceOf(address(this))), \"ERR_TRANSFER_FAILED\");\n    }\n\n    function whitelistLiquidityProvider(\n        ConfigurableRightsPool crp,\n        address provider\n    ) external {\n        crp.whitelistLiquidityProvider(provider);\n    }\n\n    function removeWhitelistedLiquidityProvider(\n        ConfigurableRightsPool crp,\n        address provider\n    ) external {\n        crp.removeWhitelistedLiquidityProvider(provider);\n    }\n\n    // --- Internals ---\n\n    function _safeApprove(ERC20 token, address spender, uint amount) internal {\n        if (token.allowance(address(this), spender) > 0) {\n            token.approve(spender, 0);\n        }\n        token.approve(spender, amount);\n    }\n\n    function _join(\n        AbstractPool pool,\n        address[] memory tokens,\n        uint poolAmountOut,\n        uint[] memory maxAmountsIn\n    ) internal {\n        require(maxAmountsIn.length == tokens.length, \"ERR_LENGTH_MISMATCH\");\n\n        for (uint i = 0; i < tokens.length; i++) {\n            ERC20 token = ERC20(tokens[i]);\n            require(token.transferFrom(msg.sender, address(this), maxAmountsIn[i]), \"ERR_TRANSFER_FAILED\");\n            _safeApprove(token, address(pool), maxAmountsIn[i]);\n        }\n        pool.joinPool(poolAmountOut, maxAmountsIn);\n        for (uint i = 0; i < tokens.length; i++) {\n            ERC20 token = ERC20(tokens[i]);\n            if (token.balanceOf(address(this)) > 0) {\n                require(token.transfer(msg.sender, token.balanceOf(address(this))), \"ERR_TRANSFER_FAILED\");\n            }\n        }\n        require(pool.transfer(msg.sender, pool.balanceOf(address(this))), \"ERR_TRANSFER_FAILED\");\n    }\n}\n",
  "sourcePath": "/home/vyper/Downloads/Work Projects/avengers/kalancer-action/contracts/KActions.sol",
  "compiler": {
    "name": "solc",
    "version": "0.6.12+commit.27d51765.Emscripten.clang"
  },
  "schemaVersion": "3.3.4",
  "updatedAt": "2021-03-26T12:33:52.831Z",
  "devdoc": {
    "kind": "dev",
    "methods": {},
    "version": 1
  },
  "userdoc": {
    "kind": "user",
    "methods": {},
    "version": 1
  }
}