{
  "contractName": "KFactory",
  "abi": [
    {
      "inputs": [],
      "stateMutability": "nonpayable",
      "type": "constructor"
    },
    {
      "anonymous": false,
      "inputs": [
        {
          "indexed": true,
          "internalType": "address",
          "name": "caller",
          "type": "address"
        },
        {
          "indexed": true,
          "internalType": "address",
          "name": "blabs",
          "type": "address"
        }
      ],
      "name": "LOG_BLABS",
      "type": "event"
    },
    {
      "anonymous": false,
      "inputs": [
        {
          "indexed": true,
          "internalType": "address",
          "name": "caller",
          "type": "address"
        },
        {
          "indexed": true,
          "internalType": "address",
          "name": "pool",
          "type": "address"
        }
      ],
      "name": "LOG_NEW_POOL",
      "type": "event"
    },
    {
      "inputs": [
        {
          "internalType": "address",
          "name": "b",
          "type": "address"
        }
      ],
      "name": "isKPool",
      "outputs": [
        {
          "internalType": "bool",
          "name": "",
          "type": "bool"
        }
      ],
      "stateMutability": "view",
      "type": "function"
    },
    {
      "inputs": [],
      "name": "newKPool",
      "outputs": [
        {
          "internalType": "contract KPool",
          "name": "",
          "type": "address"
        }
      ],
      "stateMutability": "nonpayable",
      "type": "function"
    },
    {
      "inputs": [],
      "name": "getBLabs",
      "outputs": [
        {
          "internalType": "address",
          "name": "",
          "type": "address"
        }
      ],
      "stateMutability": "view",
      "type": "function"
    },
    {
      "inputs": [
        {
          "internalType": "address",
          "name": "b",
          "type": "address"
        }
      ],
      "name": "setBLabs",
      "outputs": [],
      "stateMutability": "nonpayable",
      "type": "function"
    },
    {
      "inputs": [
        {
          "internalType": "contract KPool",
          "name": "pool",
          "type": "address"
        }
      ],
      "name": "collect",
      "outputs": [],
      "stateMutability": "nonpayable",
      "type": "function"
    }
  ],
  "bytecode": "0x608060405234801561001057600080fd5b50600180546001600160a01b03191633179055615b69806100326000396000f3fe608060405234801561001057600080fd5b50600436106100575760003560e01c806306ec16f81461005c57806336ffb1671461008457806369fd1f05146100a857806392c79275146100b0578063c6ce34fb146100ea575b600080fd5b6100826004803603602081101561007257600080fd5b50356001600160a01b0316610110565b005b61008c6102ad565b604080516001600160a01b039092168252519081900360200190f35b61008c6102bc565b6100d6600480360360208110156100c657600080fd5b50356001600160a01b031661039c565b604080519115158252519081900360200190f35b6100826004803603602081101561010057600080fd5b50356001600160a01b03166103ba565b6001546001600160a01b0316331461015f576040805162461bcd60e51b815260206004820152600d60248201526c4552525f4e4f545f424c41425360981b604482015290519081900360640190fd5b6000816001600160a01b03166370a08231306040518263ffffffff1660e01b815260040180826001600160a01b0316815260200191505060206040518083038186803b1580156101ae57600080fd5b505afa1580156101c2573d6000803e3d6000fd5b505050506040513d60208110156101d857600080fd5b50516001546040805163a9059cbb60e01b81526001600160a01b0392831660048201526024810184905290519293506000929185169163a9059cbb9160448082019260209290919082900301818787803b15801561023557600080fd5b505af1158015610249573d6000803e3d6000fd5b505050506040513d602081101561025f57600080fd5b50519050806102a8576040805162461bcd60e51b815260206004820152601060248201526f11549497d15490cc8c17d1905253115160821b604482015290519081900360640190fd5b505050565b6001546001600160a01b031690565b6000806040516102cb90610461565b604051809103906000f0801580156102e7573d6000803e3d6000fd5b506001600160a01b038116600081815260208190526040808220805460ff1916600117905551929350909133917f8ccec77b0cb63ac2cafd0f5de8cdfadab91ce656d262240ba8a6343bccc5f94591a3604080516392eefe9b60e01b815233600482015290516001600160a01b038316916392eefe9b91602480830192600092919082900301818387803b15801561037e57600080fd5b505af1158015610392573d6000803e3d6000fd5b5092935050505090565b6001600160a01b031660009081526020819052604090205460ff1690565b6001546001600160a01b03163314610409576040805162461bcd60e51b815260206004820152600d60248201526c4552525f4e4f545f424c41425360981b604482015290519081900360640190fd5b6040516001600160a01b0382169033907ff586fa6ee1fc42f5b727f3b214ccbd0b6d7e698c45d49ba32f224fbb8670155d90600090a3600180546001600160a01b0319166001600160a01b0392909216919091179055565b6156c58061046f8339019056fe60c0604052600f60808190526e25b4bbb4902837b7b6102a37b5b2b760891b60a0908152620000329160039190620000cc565b506040805180820190915260038082526212d41560ea1b60209092019182526200005f91600491620000cc565b506005805460ff191660121790553480156200007a57600080fd5b50600680546005805462010000600160b01b031916336201000081029190911790915564e8d4a510006007556001600160a01b03199091161760ff60a01b191690556008805460ff1916905562000168565b828054600181600116156101000203166002900490600052602060002090601f016020900481019282601f106200010f57805160ff19168380011785556200013f565b828001600101855582156200013f579182015b828111156200013f57825182559160200191906001019062000122565b506200014d92915062000151565b5090565b5b808211156200014d576000815560010162000152565b61554d80620001786000396000f3fe608060405234801561001057600080fd5b50600436106103d05760003560e01c80638d4e4083116101ff578063be3bbd2e1161011a578063dd62ed3e116100ad578063f1b8a9b71161007c578063f1b8a9b714610c63578063f8b2cb4f14610c89578063f8d6aed414610caf578063fde924f714610cea576103d0565b8063dd62ed3e14610bfb578063e4a28a52146104d6578063e4e1e53814610c29578063ec09302114610c5b576103d0565b8063cd2ed8fb116100e9578063cd2ed8fb14610b99578063cf5e7bd314610ba1578063d4cadf6814610bc7578063d73dd62314610bcf576103d0565b8063be3bbd2e14610b31578063c36596a61461054a578063c6580d1214610b89578063cc77828d14610b91576103d0565b8063a9059cbb11610192578063ba019dab11610161578063ba019dab14610ade578063ba9530a614610ae6578063bc063e1a14610b21578063bc694ea214610b29576103d0565b8063a9059cbb14610a2b578063b02f0b7314610a57578063b0e0d13614610ace578063b7b800a414610ad6576103d0565b8063948d8ce6116101ce578063948d8ce6146109c057806395d89b41146109e6578063992e2a92146109ee578063a221ee49146109f6576103d0565b80638d4e40831461098257806392eefe9b1461098a578063936c3477146109b05780639381cd2b146109b8576103d0565b806349b59552116102ef57806376c7a3c7116102825780638656b653116102515780638656b653146108de578063867378c51461091957806389298012146109215780638c28cbe81461095c576103d0565b806376c7a3c7146108025780637c5e9ea41461080a5780638201aa3f1461086357806382f652ad146108a3576103d0565b80635db34277116102be5780635db342771461074c578063661884631461077e5780636d06dfa0146107aa57806370a08231146107dc576103d0565b806349b59552146106735780634bb278f3146106925780634f69c0d41461069a5780635c1bbaf714610711576103d0565b8063218b538211610367578063313ce56711610336578063313ce567146105d257806334e19907146105f05780633fdddaa21461060f57806346ab38f114610641576103d0565b8063218b53821461054a57806323b872dd146105525780632f37b624146105885780633018205f146105ae576103d0565b80631446a7ff116103a35780631446a7ff146104de57806315e84af91461050c57806318160ddd1461053a578063189d00ca14610542576103d0565b806302c96748146103d557806306fdde0314610419578063095ea7b31461049657806309a3bbe4146104d6575b600080fd5b610407600480360360608110156103eb57600080fd5b506001600160a01b038135169060208101359060400135610cf2565b60408051918252519081900360200190f35b610421611052565b6040805160208082528351818301528351919283929083019185019080838360005b8381101561045b578181015183820152602001610443565b50505050905090810190601f1680156104885780820380516001836020036101000a031916815260200191505b509250505060405180910390f35b6104c2600480360360408110156104ac57600080fd5b506001600160a01b0381351690602001356110e8565b604080519115158252519081900360200190f35b61040761113d565b610407600480360360408110156104f457600080fd5b506001600160a01b038135811691602001351661114a565b6104076004803603604081101561052257600080fd5b506001600160a01b038135811691602001351661129f565b6104076113eb565b6104076113f1565b610407611405565b6104c26004803603606081101561056857600080fd5b506001600160a01b03813581169160208101359091169060400135611411565b6104c26004803603602081101561059e57600080fd5b50356001600160a01b031661156b565b6105b6611589565b604080516001600160a01b039092168252519081900360200190f35b6105da6115e7565b6040805160ff9092168252519081900360200190f35b61060d6004803603602081101561060657600080fd5b50356115f0565b005b61060d6004803603606081101561062557600080fd5b506001600160a01b0381351690602081013590604001356117ed565b6104076004803603606081101561065757600080fd5b506001600160a01b038135169060208101359060400135611bfa565b61060d6004803603602081101561068957600080fd5b50351515611ef9565b61060d61207c565b61060d600480360360408110156106b057600080fd5b813591908101906040810160208201356401000000008111156106d257600080fd5b8201836020820111156106e457600080fd5b8035906020019184602083028401116401000000008311171561070657600080fd5b509092509050612273565b610407600480360360c081101561072757600080fd5b5080359060208101359060408101359060608101359060808101359060a0013561256c565b6104076004803603606081101561076257600080fd5b506001600160a01b038135169060208101359060400135612624565b6104c26004803603604081101561079457600080fd5b506001600160a01b038135169060200135612907565b610407600480360360608110156107c057600080fd5b506001600160a01b0381351690602081013590604001356129df565b610407600480360360208110156107f257600080fd5b50356001600160a01b0316612cf0565b610407612d0b565b61084a600480360360a081101561082057600080fd5b506001600160a01b0381358116916020810135916040820135169060608101359060800135612d1d565b6040805192835260208301919091528051918290030190f35b61084a600480360360a081101561087957600080fd5b506001600160a01b03813581169160208101359160408201351690606081013590608001356131e0565b610407600480360360c08110156108b957600080fd5b5080359060208101359060408101359060608101359060808101359060a0013561368a565b610407600480360360c08110156108f457600080fd5b5080359060208101359060408101359060608101359060808101359060a00135613749565b6104076137ea565b610407600480360360c081101561093757600080fd5b5080359060208101359060408101359060608101359060808101359060a001356137fe565b61060d6004803603602081101561097257600080fd5b50356001600160a01b03166138ae565b6104c2613a62565b61060d600480360360208110156109a057600080fd5b50356001600160a01b0316613a6b565b610407613ba9565b610407613bfe565b610407600480360360208110156109d657600080fd5b50356001600160a01b0316613c0b565b610421613cd5565b610407613d36565b610407600480360360a0811015610a0c57600080fd5b5080359060208101359060408101359060608101359060800135613d42565b6104c260048036036040811015610a4157600080fd5b506001600160a01b038135169060200135613da7565b61060d60048036036040811015610a6d57600080fd5b81359190810190604081016020820135640100000000811115610a8f57600080fd5b820183602082011115610aa157600080fd5b80359060200191846020830284011164010000000083111715610ac357600080fd5b509092509050613dbd565b610407614104565b610407614109565b61040761410e565b610407600480360360c0811015610afc57600080fd5b5080359060208101359060408101359060608101359060808101359060a00135614113565b610407614194565b6104076141a4565b610b396141b0565b60408051602080825283518183015283519192839290830191858101910280838360005b83811015610b75578181015183820152602001610b5d565b505050509050019250505060405180910390f35b6104076142a8565b610b396142ad565b6104076142fb565b61060d60048036036020811015610bb757600080fd5b50356001600160a01b0316614301565b610407614683565b6104c260048036036040811015610be557600080fd5b506001600160a01b0381351690602001356146d8565b61040760048036036040811015610c1157600080fd5b506001600160a01b0381358116916020013516614759565b61060d60048036036060811015610c3f57600080fd5b506001600160a01b038135169060208101359060400135614784565b6104076149db565b61040760048036036020811015610c7957600080fd5b50356001600160a01b03166149eb565b61040760048036036020811015610c9f57600080fd5b50356001600160a01b0316614ac7565b610407600480360360c0811015610cc557600080fd5b5080359060208101359060408101359060608101359060808101359060a00135614b91565b6104c2614c14565b6000336001600160a01b03166000356001600160e01b0319166001600160e01b03191660003660405180806020018281038252848482818152602001925080828437600083820152604051601f909101601f19169092018290039550909350505050a2600554610100900460ff1615610da0576040805162461bcd60e51b815260206004820152600b60248201526a4552525f5245454e54525960a81b604482015290519081900360640190fd5b6005805461ff00191661010017905560085460ff16610dfa576040805162461bcd60e51b815260206004820152601160248201527011549497d393d517d19253905312569151607a1b604482015290519081900360640190fd5b6001600160a01b0384166000908152600a602052604090205460ff16610e57576040805162461bcd60e51b815260206004820152600d60248201526c11549497d393d517d093d55391609a1b604482015290519081900360640190fd5b6001600160a01b0384166000908152600a60205260409020600390810154610e8c91670de0b6b3a76400005b04600101614c24565b831115610ed4576040805162461bcd60e51b81526020600482015260116024820152704552525f4d41585f4f55545f524154494f60781b604482015290519081900360640190fd5b6001600160a01b0384166000908152600a6020526040902060038101546002808301549054600b54600754610f0e9493929190899061368a565b915081610f54576040805162461bcd60e51b815260206004820152600f60248201526e08aa4a4be9a82a890be82a0a0a49eb608b1b604482015290519081900360640190fd5b82821115610f98576040805162461bcd60e51b815260206004820152600c60248201526b22a9292fa624a6a4aa2fa4a760a11b604482015290519081900360640190fd5b610fa6816003015485614ced565b60038201556000610fb78382614c24565b6040805187815290519192506001600160a01b0388169133917fe74c91552b64c2e2e7bd255639e004e693bd3e1d01cc33e65610b86afcc1ffed919081900360200190a36110053384614d4f565b6110176110128483614ced565b614d5d565b600554611033906201000090046001600160a01b031682614d69565b61103e863387614d73565b50506005805461ff00191690559392505050565b60038054604080516020601f60026000196101006001881615020190951694909404938401819004810282018101909252828152606093909290918301828280156110de5780601f106110b3576101008083540402835291602001916110de565b820191906000526020600020905b8154815290600101906020018083116110c157829003601f168201915b5050505050905090565b3360008181526001602090815260408083206001600160a01b038716808552908352818420869055815186815291519394909390926000805160206154f8833981519152928290030190a35060015b92915050565b6802b5e3af16b188000081565b600554600090610100900460ff1615611198576040805162461bcd60e51b815260206004820152600b60248201526a4552525f5245454e54525960a81b604482015290519081900360640190fd5b6001600160a01b0383166000908152600a602052604090205460ff166111f5576040805162461bcd60e51b815260206004820152600d60248201526c11549497d393d517d093d55391609a1b604482015290519081900360640190fd5b6001600160a01b0382166000908152600a602052604090205460ff16611252576040805162461bcd60e51b815260206004820152600d60248201526c11549497d393d517d093d55391609a1b604482015290519081900360640190fd5b6001600160a01b038084166000908152600a602052604080822092851682528120600380840154600280860154928401549084015493946112969492939290613d42565b95945050505050565b600554600090610100900460ff16156112ed576040805162461bcd60e51b815260206004820152600b60248201526a4552525f5245454e54525960a81b604482015290519081900360640190fd5b6001600160a01b0383166000908152600a602052604090205460ff1661134a576040805162461bcd60e51b815260206004820152600d60248201526c11549497d393d517d093d55391609a1b604482015290519081900360640190fd5b6001600160a01b0382166000908152600a602052604090205460ff166113a7576040805162461bcd60e51b815260206004820152600d60248201526c11549497d393d517d093d55391609a1b604482015290519081900360640190fd5b6001600160a01b038084166000908152600a602052604080822092851682529020600380830154600280850154928401549084015460075461129694929190613d42565b60025490565b6402540be400670de0b6b3a76400005b0481565b670de0b6b3a764000081565b6000336001600160a01b038516148061144d57506001600160a01b03841660009081526001602090815260408083203384529091529020548211155b611496576040805162461bcd60e51b815260206004820152601560248201527422a9292fa12a27a5a2a72fa120a22fa1a0a62622a960591b604482015290519081900360640190fd5b6114a1848484614e44565b336001600160a01b038516148015906114df57506001600160a01b038416600090815260016020908152604080832033845290915290205460001914155b15611561576001600160a01b03841660009081526001602090815260408083203384529091529020546115129083614ced565b6001600160a01b03858116600090815260016020908152604080832033808552908352928190208590558051948552519287169391926000805160206154f88339815191529281900390910190a35b5060019392505050565b6001600160a01b03166000908152600a602052604090205460ff1690565b600554600090610100900460ff16156115d7576040805162461bcd60e51b815260206004820152600b60248201526a4552525f5245454e54525960a81b604482015290519081900360640190fd5b506006546001600160a01b031690565b60055460ff1690565b336001600160a01b03166000356001600160e01b0319166001600160e01b03191660003660405180806020018281038252848482818152602001925080828437600083820152604051601f909101601f19169092018290039550909350505050a2600554610100900460ff161561169c576040805162461bcd60e51b815260206004820152600b60248201526a4552525f5245454e54525960a81b604482015290519081900360640190fd5b6005805461ff00191661010017905560085460ff16156116f6576040805162461bcd60e51b815260206004820152601060248201526f11549497d254d7d1925390531256915160821b604482015290519081900360640190fd5b6006546001600160a01b0316331461174a576040805162461bcd60e51b815260206004820152601260248201527122a9292fa727aa2fa1a7a72a2927a62622a960711b604482015290519081900360640190fd5b64e8d4a51000811015611792576040805162461bcd60e51b815260206004820152600b60248201526a4552525f4d494e5f46454560a81b604482015290519081900360640190fd5b67016345785d8a00008111156117dd576040805162461bcd60e51b815260206004820152600b60248201526a4552525f4d41585f46454560a81b604482015290519081900360640190fd5b6007556005805461ff0019169055565b336001600160a01b03166000356001600160e01b0319166001600160e01b03191660003660405180806020018281038252848482818152602001925080828437600083820152604051601f909101601f19169092018290039550909350505050a2600554610100900460ff1615611899576040805162461bcd60e51b815260206004820152600b60248201526a4552525f5245454e54525960a81b604482015290519081900360640190fd5b6005805461ff001916610100179055600654336001600160a01b03909116146118fe576040805162461bcd60e51b815260206004820152601260248201527122a9292fa727aa2fa1a7a72a2927a62622a960711b604482015290519081900360640190fd5b6001600160a01b0383166000908152600a602052604090205460ff1661195b576040805162461bcd60e51b815260206004820152600d60248201526c11549497d393d517d093d55391609a1b604482015290519081900360640190fd5b60085460ff16156119a6576040805162461bcd60e51b815260206004820152601060248201526f11549497d254d7d1925390531256915160821b604482015290519081900360640190fd5b670de0b6b3a76400008110156119f4576040805162461bcd60e51b815260206004820152600e60248201526d11549497d3525397d5d15251d21560921b604482015290519081900360640190fd5b6802b5e3af16b1880000811115611a43576040805162461bcd60e51b815260206004820152600e60248201526d11549497d3505617d5d15251d21560921b604482015290519081900360640190fd5b620f4240821015611a8d576040805162461bcd60e51b815260206004820152600f60248201526e4552525f4d494e5f42414c414e434560881b604482015290519081900360640190fd5b6001600160a01b0383166000908152600a602052604090206002015480821115611b2457611ac6600b54611ac18484614ced565b614f54565b600b8190556802b5e3af16b18800001015611b1f576040805162461bcd60e51b815260206004820152601460248201527311549497d3505617d513d5105317d5d15251d21560621b604482015290519081900360640190fd5b611b45565b80821015611b4557611b41600b54611b3c8385614ced565b614ced565b600b555b6001600160a01b0384166000908152600a602052604090206002810183905560030180549084905580841115611b8e57611b898533611b848785614ced565b614fa1565b611be8565b80841015611be8576000611ba28286614ced565b90506000611bb1826000614c24565b9050611bc78733611bc28585614ced565b614d73565b600554611be59088906201000090046001600160a01b031683614d73565b50505b50506005805461ff0019169055505050565b6000336001600160a01b03166000356001600160e01b0319166001600160e01b03191660003660405180806020018281038252848482818152602001925080828437600083820152604051601f909101601f19169092018290039550909350505050a2600554610100900460ff1615611ca8576040805162461bcd60e51b815260206004820152600b60248201526a4552525f5245454e54525960a81b604482015290519081900360640190fd5b6005805461ff00191661010017905560085460ff16611d02576040805162461bcd60e51b815260206004820152601160248201527011549497d393d517d19253905312569151607a1b604482015290519081900360640190fd5b6001600160a01b0384166000908152600a602052604090205460ff16611d5f576040805162461bcd60e51b815260206004820152600d60248201526c11549497d393d517d093d55391609a1b604482015290519081900360640190fd5b6001600160a01b0384166000908152600a6020526040902060038101546002808301549054600b54600754611d99949392919089906137fe565b915082821015611de0576040805162461bcd60e51b815260206004820152600d60248201526c11549497d31253525517d3d555609a1b604482015290519081900360640190fd5b6001600160a01b0385166000908152600a60205260409020600390810154611e1091670de0b6b3a7640000610e83565b821115611e58576040805162461bcd60e51b81526020600482015260116024820152704552525f4d41585f4f55545f524154494f60781b604482015290519081900360640190fd5b611e66816003015483614ced565b60038201556000611e778582614c24565b6040805185815290519192506001600160a01b0388169133917fe74c91552b64c2e2e7bd255639e004e693bd3e1d01cc33e65610b86afcc1ffed919081900360200190a3611ec53386614d4f565b611ed26110128683614ced565b600554611eee906201000090046001600160a01b031682614d69565b61103e863385614d73565b336001600160a01b03166000356001600160e01b0319166001600160e01b03191660003660405180806020018281038252848482818152602001925080828437600083820152604051601f909101601f19169092018290039550909350505050a2600554610100900460ff1615611fa5576040805162461bcd60e51b815260206004820152600b60248201526a4552525f5245454e54525960a81b604482015290519081900360640190fd5b6005805461ff00191661010017905560085460ff1615611fff576040805162461bcd60e51b815260206004820152601060248201526f11549497d254d7d1925390531256915160821b604482015290519081900360640190fd5b6006546001600160a01b03163314612053576040805162461bcd60e51b815260206004820152601260248201527122a9292fa727aa2fa1a7a72a2927a62622a960711b604482015290519081900360640190fd5b60068054911515600160a01b0260ff60a01b199092169190911790556005805461ff0019169055565b336001600160a01b03166000356001600160e01b0319166001600160e01b03191660003660405180806020018281038252848482818152602001925080828437600083820152604051601f909101601f19169092018290039550909350505050a2600554610100900460ff1615612128576040805162461bcd60e51b815260206004820152600b60248201526a4552525f5245454e54525960a81b604482015290519081900360640190fd5b6005805461ff001916610100179055600654336001600160a01b039091161461218d576040805162461bcd60e51b815260206004820152601260248201527122a9292fa727aa2fa1a7a72a2927a62622a960711b604482015290519081900360640190fd5b60085460ff16156121d8576040805162461bcd60e51b815260206004820152601060248201526f11549497d254d7d1925390531256915160821b604482015290519081900360640190fd5b60095460021115612221576040805162461bcd60e51b815260206004820152600e60248201526d4552525f4d494e5f544f4b454e5360901b604482015290519081900360640190fd5b6008805460ff191660011790556006805460ff60a01b1916600160a01b17905561225368056bc75e2d63100000614ffa565b6122663368056bc75e2d63100000614d69565b6005805461ff0019169055565b336001600160a01b03166000356001600160e01b0319166001600160e01b03191660003660405180806020018281038252848482818152602001925080828437600083820152604051601f909101601f19169092018290039550909350505050a2600554610100900460ff161561231f576040805162461bcd60e51b815260206004820152600b60248201526a4552525f5245454e54525960a81b604482015290519081900360640190fd5b6005805461ff00191661010017905560085460ff16612379576040805162461bcd60e51b815260206004820152601160248201527011549497d393d517d19253905312569151607a1b604482015290519081900360640190fd5b60006123836113eb565b905060006123918583615003565b9050806123d7576040805162461bcd60e51b815260206004820152600f60248201526e08aa4a4be9a82a890be82a0a0a49eb608b1b604482015290519081900360640190fd5b60005b600954811015612558576000600982815481106123f357fe5b60009182526020808320909101546001600160a01b0316808352600a9091526040822060030154909250906124288583614c24565b90508061246e576040805162461bcd60e51b815260206004820152600f60248201526e08aa4a4be9a82a890be82a0a0a49eb608b1b604482015290519081900360640190fd5b87878581811061247a57fe5b905060200201358111156124c4576040805162461bcd60e51b815260206004820152600c60248201526b22a9292fa624a6a4aa2fa4a760a11b604482015290519081900360640190fd5b6001600160a01b0383166000908152600a60205260409020600301546124ea9082614f54565b6001600160a01b0384166000818152600a60209081526040918290206003019390935580518481529051919233927f63982df10efd8dfaaaa0fcc7f50b2d93b7cba26ccc48adee2873220d485dc39a9281900390910190a361254d833383614fa1565b5050506001016123da565b5061256285614ffa565b611be83386614d69565b6000806125798786615003565b905060006125878786614f54565b905060006125958289615003565b905060006125ab670de0b6b3a764000085615003565b905060006125b9838361510b565b905060006125c7828e614c24565b905060006125d5828f614ced565b905060006125f46125ee670de0b6b3a76400008a614ced565b8b614c24565b90506126118261260c670de0b6b3a764000084614ced565b615003565b9f9e505050505050505050505050505050565b6000336001600160a01b03166000356001600160e01b0319166001600160e01b03191660003660405180806020018281038252848482818152602001925080828437600083820152604051601f909101601f19169092018290039550909350505050a2600554610100900460ff16156126d2576040805162461bcd60e51b815260206004820152600b60248201526a4552525f5245454e54525960a81b604482015290519081900360640190fd5b6005805461ff00191661010017905560085460ff1661272c576040805162461bcd60e51b815260206004820152601160248201527011549497d393d517d19253905312569151607a1b604482015290519081900360640190fd5b6001600160a01b0384166000908152600a602052604090205460ff16612789576040805162461bcd60e51b815260206004820152600d60248201526c11549497d393d517d093d55391609a1b604482015290519081900360640190fd5b6001600160a01b0384166000908152600a60205260409020600301546127bb906002670de0b6b3a76400005b04614c24565b831115612802576040805162461bcd60e51b815260206004820152601060248201526f4552525f4d41585f494e5f524154494f60801b604482015290519081900360640190fd5b6001600160a01b0384166000908152600a6020526040902060038101546002808301549054600b5460075461283c94939291908990613749565b915082821015612883576040805162461bcd60e51b815260206004820152600d60248201526c11549497d31253525517d3d555609a1b604482015290519081900360640190fd5b612891816003015485614f54565b60038201556040805185815290516001600160a01b0387169133917f63982df10efd8dfaaaa0fcc7f50b2d93b7cba26ccc48adee2873220d485dc39a9181900360200190a36128df82614ffa565b6128e93383614d69565b6128f4853386614fa1565b506005805461ff00191690559392505050565b3360009081526001602090815260408083206001600160a01b03861684529091528120548083111561295c573360009081526001602090815260408083206001600160a01b038816845290915281205561298b565b6129668184614ced565b3360009081526001602090815260408083206001600160a01b03891684529091529020555b3360008181526001602090815260408083206001600160a01b0389168085529083529281902054815190815290519293926000805160206154f8833981519152929181900390910190a35060019392505050565b6000336001600160a01b03166000356001600160e01b0319166001600160e01b03191660003660405180806020018281038252848482818152602001925080828437600083820152604051601f909101601f19169092018290039550909350505050a2600554610100900460ff1615612a8d576040805162461bcd60e51b815260206004820152600b60248201526a4552525f5245454e54525960a81b604482015290519081900360640190fd5b6005805461ff00191661010017905560085460ff16612ae7576040805162461bcd60e51b815260206004820152601160248201527011549497d393d517d19253905312569151607a1b604482015290519081900360640190fd5b6001600160a01b0384166000908152600a602052604090205460ff16612b44576040805162461bcd60e51b815260206004820152600d60248201526c11549497d393d517d093d55391609a1b604482015290519081900360640190fd5b6001600160a01b0384166000908152600a6020526040902060038101546002808301549054600b54600754612b7e9493929190899061256c565b915081612bc4576040805162461bcd60e51b815260206004820152600f60248201526e08aa4a4be9a82a890be82a0a0a49eb608b1b604482015290519081900360640190fd5b82821115612c08576040805162461bcd60e51b815260206004820152600c60248201526b22a9292fa624a6a4aa2fa4a760a11b604482015290519081900360640190fd5b6001600160a01b0385166000908152600a6020526040902060030154612c38906002670de0b6b3a76400006127b5565b821115612c7f576040805162461bcd60e51b815260206004820152601060248201526f4552525f4d41585f494e5f524154494f60801b604482015290519081900360640190fd5b612c8d816003015483614f54565b60038201556040805183815290516001600160a01b0387169133917f63982df10efd8dfaaaa0fcc7f50b2d93b7cba26ccc48adee2873220d485dc39a9181900360200190a3612cdb84614ffa565b612ce53385614d69565b6128f4853384614fa1565b6001600160a01b031660009081526020819052604090205490565b620f4240670de0b6b3a7640000611401565b60408051602080825236908201819052600092839233926001600160e01b03198535169285929081908101848480828437600083820152604051601f909101601f19169092018290039550909350505050a2600554610100900460ff1615612dba576040805162461bcd60e51b815260206004820152600b60248201526a4552525f5245454e54525960a81b604482015290519081900360640190fd5b6005805461ff0019166101001790556001600160a01b0387166000908152600a602052604090205460ff16612e26576040805162461bcd60e51b815260206004820152600d60248201526c11549497d393d517d093d55391609a1b604482015290519081900360640190fd5b6001600160a01b0385166000908152600a602052604090205460ff16612e83576040805162461bcd60e51b815260206004820152600d60248201526c11549497d393d517d093d55391609a1b604482015290519081900360640190fd5b600654600160a01b900460ff16612ed7576040805162461bcd60e51b81526020600482015260136024820152724552525f535741505f4e4f545f5055424c494360681b604482015290519081900360640190fd5b6001600160a01b038088166000908152600a602052604080822092881682529020600380820154612f1091670de0b6b3a7640000610e83565b861115612f58576040805162461bcd60e51b81526020600482015260116024820152704552525f4d41585f4f55545f524154494f60781b604482015290519081900360640190fd5b6000612f798360030154846002015484600301548560020154600754613d42565b905085811115612fc6576040805162461bcd60e51b81526020600482015260136024820152724552525f4241445f4c494d49545f505249434560681b604482015290519081900360640190fd5b612fe683600301548460020154846003015485600201548b600754614b91565b94508885111561302c576040805162461bcd60e51b815260206004820152600c60248201526b22a9292fa624a6a4aa2fa4a760a11b604482015290519081900360640190fd5b61303a836003015486614f54565b8360030181905550613050826003015488614ced565b600380840182905584015460028086015490850154600754613073949190613d42565b9350808410156130bc576040805162461bcd60e51b815260206004820152600f60248201526e08aa4a4be9a82a890be82a0a0a49eb608b1b604482015290519081900360640190fd5b85841115613103576040805162461bcd60e51b815260206004820152600f60248201526e4552525f4c494d49545f505249434560881b604482015290519081900360640190fd5b61310d8588615003565b811115613153576040805162461bcd60e51b815260206004820152600f60248201526e08aa4a4be9a82a890be82a0a0a49eb608b1b604482015290519081900360640190fd5b876001600160a01b03168a6001600160a01b0316336001600160a01b03167f908fb5ee8f16c6bc9bc3690973819f32a4d4b10188134543c88706e0e1d43378888b604051808381526020018281526020019250505060405180910390a46131bb8a3387614fa1565b6131c6883389614d73565b5050506005805461ff001916905590969095509350505050565b60408051602080825236908201819052600092839233926001600160e01b03198535169285929081908101848480828437600083820152604051601f909101601f19169092018290039550909350505050a2600554610100900460ff161561327d576040805162461bcd60e51b815260206004820152600b60248201526a4552525f5245454e54525960a81b604482015290519081900360640190fd5b6005805461ff0019166101001790556001600160a01b0387166000908152600a602052604090205460ff166132e9576040805162461bcd60e51b815260206004820152600d60248201526c11549497d393d517d093d55391609a1b604482015290519081900360640190fd5b6001600160a01b0385166000908152600a602052604090205460ff16613346576040805162461bcd60e51b815260206004820152600d60248201526c11549497d393d517d093d55391609a1b604482015290519081900360640190fd5b600654600160a01b900460ff1661339a576040805162461bcd60e51b81526020600482015260136024820152724552525f535741505f4e4f545f5055424c494360681b604482015290519081900360640190fd5b6001600160a01b038088166000908152600a60205260408082209288168252902060038201546133d4906002670de0b6b3a76400006127b5565b88111561341b576040805162461bcd60e51b815260206004820152601060248201526f4552525f4d41585f494e5f524154494f60801b604482015290519081900360640190fd5b600061343c8360030154846002015484600301548560020154600754613d42565b905085811115613489576040805162461bcd60e51b81526020600482015260136024820152724552525f4241445f4c494d49545f505249434560681b604482015290519081900360640190fd5b6134a983600301548460020154846003015485600201548d600754614113565b9450868510156134f0576040805162461bcd60e51b815260206004820152600d60248201526c11549497d31253525517d3d555609a1b604482015290519081900360640190fd5b6134fe83600301548a614f54565b8360030181905550613514826003015486614ced565b600380840182905584015460028086015490850154600754613537949190613d42565b935080841015613580576040805162461bcd60e51b815260206004820152600f60248201526e08aa4a4be9a82a890be82a0a0a49eb608b1b604482015290519081900360640190fd5b858411156135c7576040805162461bcd60e51b815260206004820152600f60248201526e4552525f4c494d49545f505249434560881b604482015290519081900360640190fd5b6135d18986615003565b811115613617576040805162461bcd60e51b815260206004820152600f60248201526e08aa4a4be9a82a890be82a0a0a49eb608b1b604482015290519081900360640190fd5b876001600160a01b03168a6001600160a01b0316336001600160a01b03167f908fb5ee8f16c6bc9bc3690973819f32a4d4b10188134543c88706e0e1d433788c89604051808381526020018281526020019250505060405180910390a461367f8a338b614fa1565b6131c6883387614d73565b6000806136978786615003565b905060006136ad670de0b6b3a764000083614ced565b905060006136bb8286614c24565b905060006136d58761260c670de0b6b3a764000085614ced565b905060006136e38c83614ced565b905060006136f1828e615003565b905060006136ff828861510b565b9050600061370d828e614c24565b9050600061371b8e83614ced565b90506137348161260c670de0b6b3a76400006000614ced565b99505050505050505050509695505050505050565b6000806137568786615003565b9050600061377561376f670de0b6b3a764000084614ced565b85614c24565b905060006137948661378f670de0b6b3a764000085614ced565b614c24565b905060006137a28b83614f54565b905060006137b0828d615003565b905060006137be828761510b565b905060006137cc828d614c24565b90506137d8818d614ced565b9e9d5050505050505050505050505050565b64e8d4a51000670de0b6b3a7640000611401565b60008061380b8786615003565b905060006138268561378f670de0b6b3a76400006000614ced565b905060006138348883614ced565b90506000613842828a615003565b905060006138618261385c670de0b6b3a764000088615003565b61510b565b9050600061386f828e614c24565b9050600061387d8e83614ced565b905060006138966125ee670de0b6b3a76400008a614ced565b90506126118261378f670de0b6b3a764000084614ced565b336001600160a01b03166000356001600160e01b0319166001600160e01b03191660003660405180806020018281038252848482818152602001925080828437600083820152604051601f909101601f19169092018290039550909350505050a2600554610100900460ff161561395a576040805162461bcd60e51b815260206004820152600b60248201526a4552525f5245454e54525960a81b604482015290519081900360640190fd5b6005805461ff0019166101001790556001600160a01b0381166000908152600a602052604090205460ff166139c6576040805162461bcd60e51b815260206004820152600d60248201526c11549497d393d517d093d55391609a1b604482015290519081900360640190fd5b604080516370a0823160e01b815230600482015290516001600160a01b038316916370a08231916024808301926020929190829003018186803b158015613a0c57600080fd5b505afa158015613a20573d6000803e3d6000fd5b505050506040513d6020811015613a3657600080fd5b50516001600160a01b039091166000908152600a60205260409020600301556005805461ff0019169055565b60085460ff1690565b336001600160a01b03166000356001600160e01b0319166001600160e01b03191660003660405180806020018281038252848482818152602001925080828437600083820152604051601f909101601f19169092018290039550909350505050a2600554610100900460ff1615613b17576040805162461bcd60e51b815260206004820152600b60248201526a4552525f5245454e54525960a81b604482015290519081900360640190fd5b6005805461ff001916610100179055600654336001600160a01b0390911614613b7c576040805162461bcd60e51b815260206004820152601260248201527122a9292fa727aa2fa1a7a72a2927a62622a960711b604482015290519081900360640190fd5b600680546001600160a01b0319166001600160a01b03929092169190911790556005805461ff0019169055565b600554600090610100900460ff1615613bf7576040805162461bcd60e51b815260206004820152600b60248201526a4552525f5245454e54525960a81b604482015290519081900360640190fd5b50600b5490565b68056bc75e2d6310000081565b600554600090610100900460ff1615613c59576040805162461bcd60e51b815260206004820152600b60248201526a4552525f5245454e54525960a81b604482015290519081900360640190fd5b6001600160a01b0382166000908152600a602052604090205460ff16613cb6576040805162461bcd60e51b815260206004820152600d60248201526c11549497d393d517d093d55391609a1b604482015290519081900360640190fd5b506001600160a01b03166000908152600a602052604090206002015490565b60048054604080516020601f60026000196101006001881615020190951694909404938401819004810282018101909252828152606093909290918301828280156110de5780601f106110b3576101008083540402835291602001916110de565b6704a03ce68d21555681565b600080613d4f8787615003565b90506000613d5d8686615003565b90506000613d6b8383615003565b90506000613d8d670de0b6b3a764000061260c670de0b6b3a764000089614ced565b9050613d998282614c24565b9a9950505050505050505050565b6000613db4338484614e44565b50600192915050565b336001600160a01b03166000356001600160e01b0319166001600160e01b03191660003660405180806020018281038252848482818152602001925080828437600083820152604051601f909101601f19169092018290039550909350505050a2600554610100900460ff1615613e69576040805162461bcd60e51b815260206004820152600b60248201526a4552525f5245454e54525960a81b604482015290519081900360640190fd5b6005805461ff00191661010017905560085460ff16613ec3576040805162461bcd60e51b815260206004820152601160248201527011549497d393d517d19253905312569151607a1b604482015290519081900360640190fd5b6000613ecd6113eb565b90506000613edc856000614c24565b90506000613eea8683614ced565b90506000613ef88285615003565b905080613f3e576040805162461bcd60e51b815260206004820152600f60248201526e08aa4a4be9a82a890be82a0a0a49eb608b1b604482015290519081900360640190fd5b613f483388614d4f565b600554613f64906201000090046001600160a01b031684614d69565b613f6d82614d5d565b60005b6009548110156140ef57600060098281548110613f8957fe5b60009182526020808320909101546001600160a01b0316808352600a909152604082206003015490925090613fbe8583614c24565b905080614004576040805162461bcd60e51b815260206004820152600f60248201526e08aa4a4be9a82a890be82a0a0a49eb608b1b604482015290519081900360640190fd5b89898581811061401057fe5b9050602002013581101561405b576040805162461bcd60e51b815260206004820152600d60248201526c11549497d31253525517d3d555609a1b604482015290519081900360640190fd5b6001600160a01b0383166000908152600a60205260409020600301546140819082614ced565b6001600160a01b0384166000818152600a60209081526040918290206003019390935580518481529051919233927fe74c91552b64c2e2e7bd255639e004e693bd3e1d01cc33e65610b86afcc1ffed9281900390910190a36140e4833383614d73565b505050600101613f70565b50506005805461ff0019169055505050505050565b600881565b600281565b600181565b6000806141208786615003565b90506000614136670de0b6b3a764000085614ced565b90506141428582614c24565b905060006141548a61260c8c85614f54565b90506000614162828561510b565b90506000614178670de0b6b3a764000083614ced565b90506141848a82614c24565b9c9b505050505050505050505050565b600a670de0b6b3a7640000611401565b671bc16d674ec7ffff81565b600554606090610100900460ff16156141fe576040805162461bcd60e51b815260206004820152600b60248201526a4552525f5245454e54525960a81b604482015290519081900360640190fd5b60085460ff16614249576040805162461bcd60e51b815260206004820152601160248201527011549497d393d517d19253905312569151607a1b604482015290519081900360640190fd5b60098054806020026020016040519081016040528092919081815260200182805480156110de57602002820191906000526020600020905b81546001600160a01b03168152600190910190602001808311614281575050505050905090565b600081565b600554606090610100900460ff1615614249576040805162461bcd60e51b815260206004820152600b60248201526a4552525f5245454e54525960a81b604482015290519081900360640190fd5b60095490565b336001600160a01b03166000356001600160e01b0319166001600160e01b03191660003660405180806020018281038252848482818152602001925080828437600083820152604051601f909101601f19169092018290039550909350505050a2600554610100900460ff16156143ad576040805162461bcd60e51b815260206004820152600b60248201526a4552525f5245454e54525960a81b604482015290519081900360640190fd5b6005805461ff001916610100179055600654336001600160a01b0390911614614412576040805162461bcd60e51b815260206004820152601260248201527122a9292fa727aa2fa1a7a72a2927a62622a960711b604482015290519081900360640190fd5b6001600160a01b0381166000908152600a602052604090205460ff1661446f576040805162461bcd60e51b815260206004820152600d60248201526c11549497d393d517d093d55391609a1b604482015290519081900360640190fd5b60085460ff16156144ba576040805162461bcd60e51b815260206004820152601060248201526f11549497d254d7d1925390531256915160821b604482015290519081900360640190fd5b6001600160a01b0381166000908152600a6020526040812060030154906144e18282614c24565b600b546001600160a01b0385166000908152600a602052604090206002015491925061450c91614ced565b600b556001600160a01b0383166000908152600a602052604090206001015460098054600019810191908290811061454057fe5b600091825260209091200154600980546001600160a01b03909216918490811061456657fe5b9060005260206000200160006101000a8154816001600160a01b0302191690836001600160a01b0316021790555081600a6000600985815481106145a657fe5b60009182526020808320909101546001600160a01b0316835282019290925260400190206001015560098054806145d957fe5b60008281526020808220600019908401810180546001600160a01b031916905590920190925560408051608081018252838152808301848152818301858152606083018681526001600160a01b038c168752600a909552929094209051815460ff191690151517815592516001840155516002830155516003909101556146658533611bc28787614ced565b600554611be89086906201000090046001600160a01b031685614d73565b600554600090610100900460ff16156146d1576040805162461bcd60e51b815260206004820152600b60248201526a4552525f5245454e54525960a81b604482015290519081900360640190fd5b5060075490565b3360009081526001602090815260408083206001600160a01b03861684529091528120546147069083614f54565b3360008181526001602090815260408083206001600160a01b0389168085529083529281902085905580519485525191936000805160206154f8833981519152929081900390910190a350600192915050565b6001600160a01b03918216600090815260016020908152604080832093909416825291909152205490565b336001600160a01b03166000356001600160e01b0319166001600160e01b03191660003660405180806020018281038252848482818152602001925080828437600083820152604051601f909101601f19169092018290039550909350505050a26006546001600160a01b03163314614839576040805162461bcd60e51b815260206004820152601260248201527122a9292fa727aa2fa1a7a72a2927a62622a960711b604482015290519081900360640190fd5b6001600160a01b0383166000908152600a602052604090205460ff1615614896576040805162461bcd60e51b815260206004820152600c60248201526b11549497d254d7d093d5539160a21b604482015290519081900360640190fd5b60085460ff16156148e1576040805162461bcd60e51b815260206004820152601060248201526f11549497d254d7d1925390531256915160821b604482015290519081900360640190fd5b600954600811614929576040805162461bcd60e51b815260206004820152600e60248201526d4552525f4d41585f544f4b454e5360901b604482015290519081900360640190fd5b6040805160808101825260018082526009805460208085019182526000858701818152606087018281526001600160a01b038c16808452600a9094529782209651875460ff1916901515178755925186860155915160028601559451600390940193909355805491820181559091527f6e1540171b6c0c960b71a7020d9f60077f6af931a8bbf590da0223dacf75c7af0180546001600160a01b03191690911790556149d68383836117ed565b505050565b6002670de0b6b3a7640000611401565b600554600090610100900460ff1615614a39576040805162461bcd60e51b815260206004820152600b60248201526a4552525f5245454e54525960a81b604482015290519081900360640190fd5b6001600160a01b0382166000908152600a602052604090205460ff16614a96576040805162461bcd60e51b815260206004820152600d60248201526c11549497d393d517d093d55391609a1b604482015290519081900360640190fd5b6001600160a01b0382166000908152600a6020526040902060020154600b54614ac0908290615003565b9392505050565b600554600090610100900460ff1615614b15576040805162461bcd60e51b815260206004820152600b60248201526a4552525f5245454e54525960a81b604482015290519081900360640190fd5b6001600160a01b0382166000908152600a602052604090205460ff16614b72576040805162461bcd60e51b815260206004820152600d60248201526c11549497d393d517d093d55391609a1b604482015290519081900360640190fd5b506001600160a01b03166000908152600a602052604090206003015490565b600080614b9e8588615003565b90506000614bac8786614ced565b90506000614bba8883615003565b90506000614bc8828561510b565b9050614bdc81670de0b6b3a7640000614ced565b9050614bf0670de0b6b3a764000087614ced565b9450614c05614bff8c83614c24565b86615003565b9b9a5050505050505050505050565b600654600160a01b900460ff1690565b6000828202831580614c3e575082848281614c3b57fe5b04145b614c82576040805162461bcd60e51b815260206004820152601060248201526f4552525f4d554c5f4f564552464c4f5760801b604482015290519081900360640190fd5b6706f05b59d3b20000810181811015614cd5576040805162461bcd60e51b815260206004820152601060248201526f4552525f4d554c5f4f564552464c4f5760801b604482015290519081900360640190fd5b6000670de0b6b3a7640000825b049695505050505050565b6000806000614cfc8585615219565b915091508015614d47576040805162461bcd60e51b81526020600482015260116024820152704552525f5355425f554e444552464c4f5760781b604482015290519081900360640190fd5b509392505050565b614d59828261523e565b5050565b614d6681615249565b50565b614d598282615319565b6000836001600160a01b031663a9059cbb84846040518363ffffffff1660e01b815260040180836001600160a01b0316815260200182815260200192505050602060405180830381600087803b158015614dcc57600080fd5b505af1158015614de0573d6000803e3d6000fd5b505050506040513d6020811015614df657600080fd5b5051905080614e3e576040805162461bcd60e51b815260206004820152600f60248201526e4552525f45524332305f46414c534560881b604482015290519081900360640190fd5b50505050565b6001600160a01b038316600090815260208190526040902054811115614ea8576040805162461bcd60e51b815260206004820152601460248201527311549497d25394d551919250d251539517d0905360621b604482015290519081900360640190fd5b6001600160a01b038316600090815260208190526040902054614ecb9082614ced565b6001600160a01b038085166000908152602081905260408082209390935590841681522054614efa9082614f54565b6001600160a01b038084166000818152602081815260409182902094909455805185815290519193928716927fddf252ad1be2c89b69c2b068fc378daa952ba7f163c4a11628f55a4df523b3ef92918290030190a3505050565b600082820183811015614ac0576040805162461bcd60e51b815260206004820152601060248201526f4552525f4144445f4f564552464c4f5760801b604482015290519081900360640190fd5b604080516323b872dd60e01b81526001600160a01b0384811660048301523060248301526044820184905291516000928616916323b872dd91606480830192602092919082900301818787803b158015614dcc57600080fd5b614d6681615324565b600081615046576040805162461bcd60e51b815260206004820152600c60248201526b4552525f4449565f5a45524f60a01b604482015290519081900360640190fd5b670de0b6b3a7640000830283158061506e5750670de0b6b3a764000084828161506b57fe5b04145b6150b2576040805162461bcd60e51b815260206004820152601060248201526f11549497d1125597d25395115493905360821b604482015290519081900360640190fd5b60028304810181811015615100576040805162461bcd60e51b815260206004820152601060248201526f11549497d1125597d25395115493905360821b604482015290519081900360640190fd5b6000848281614ce257fe5b6000600183101561515b576040805162461bcd60e51b81526020600482015260156024820152744552525f42504f575f424153455f544f4f5f4c4f5760581b604482015290519081900360640190fd5b671bc16d674ec7ffff8311156151b1576040805162461bcd60e51b815260206004820152601660248201527508aa4a4be84a09eaebe8482a68abea89e9ebe90928e960531b604482015290519081900360640190fd5b60006151bc83615399565b905060006151ca8483614ced565b905060006151e0866151db856153b4565b6153c2565b9050816151f1579250611137915050565b600061520287846305f5e100615419565b905061520e8282614c24565b979650505050505050565b60008082841061522f5750508082036000615237565b505081810360015b9250929050565b614d59823083614e44565b306000908152602081905260409020548111156152a4576040805162461bcd60e51b815260206004820152601460248201527311549497d25394d551919250d251539517d0905360621b604482015290519081900360640190fd5b306000908152602081905260409020546152be9082614ced565b306000908152602081905260409020556002546152db9082614ced565b60025560408051828152905160009130917fddf252ad1be2c89b69c2b068fc378daa952ba7f163c4a11628f55a4df523b3ef9181900360200190a350565b614d59308383614e44565b3060009081526020819052604090205461533e9082614f54565b3060009081526020819052604090205560025461535b9082614f54565b60025560408051828152905130916000917fddf252ad1be2c89b69c2b068fc378daa952ba7f163c4a11628f55a4df523b3ef9181900360200190a350565b6000670de0b6b3a76400006153ad836153b4565b0292915050565b670de0b6b3a7640000900490565b600080600283066153db57670de0b6b3a76400006153dd565b835b90506002830492505b8215614ac0576153f68485614c24565b9350600283061561540e5761540b8185614c24565b90505b6002830492506153e6565b600082818061543087670de0b6b3a7640000615219565b9092509050670de0b6b3a764000080600060015b8884106154e8576000670de0b6b3a7640000820290506000806154788a61547385670de0b6b3a7640000614ced565b615219565b9150915061548a8761378f848c614c24565b96506154968784615003565b9650866154a5575050506154e8565b87156154af579315935b80156154b9579315935b84156154d0576154c98688614ced565b95506154dd565b6154da8688614f54565b95505b505050600101615444565b5090999850505050505050505056fe8c5be1e5ebec7d5bd14f71427d1e84f3dd0314c0f7b2291e5b200ac8c7c3b925a264697066735822122030ac75add392d92f728d160db6bfbaa422495ef3e2ff8fd9037758ef2df6494a64736f6c634300060c0033a2646970667358221220e0ab914955bf06eacd1d6b0a72b00312227e1cad7251da1b14fd6e613349469a64736f6c634300060c0033",
  "immutableReferences": {},
  "source": "// SPDX-License-Identifier: GPL-3.0-or-later\npragma solidity 0.6.12;\n\n// Builds new KPools, logging their addresses and providing `isKPool(address) -> (bool)`\n\nimport \"./KPool.sol\";\n\ncontract KFactory {\n    event LOG_NEW_POOL(\n        address indexed caller,\n        address indexed pool\n    );\n\n    event LOG_BLABS(\n        address indexed caller,\n        address indexed blabs\n    );\n\n    mapping(address=>bool) private _isKPool;\n\n    function isKPool(address b)\n        external view returns (bool)\n    {\n        return _isKPool[b];\n    }\n\n    function newKPool()\n        external\n        returns (KPool)\n    {\n        KPool kpool = new KPool();\n        _isKPool[address(kpool)] = true;\n        emit LOG_NEW_POOL(msg.sender, address(kpool));\n        kpool.setController(msg.sender);\n        return kpool;\n    }\n\n    address private _blabs;\n\n    constructor() public {\n        _blabs = msg.sender;\n    }\n\n    function getBLabs()\n        external view\n        returns (address)\n    {\n        return _blabs;\n    }\n\n    function setBLabs(address b)\n        external\n    {\n        require(msg.sender == _blabs, \"ERR_NOT_BLABS\");\n        emit LOG_BLABS(msg.sender, b);\n        _blabs = b;\n    }\n\n    function collect(KPool pool)\n        external \n    {\n        require(msg.sender == _blabs, \"ERR_NOT_BLABS\");\n        uint collected = IERC20(pool).balanceOf(address(this));\n        bool xfer = pool.transfer(_blabs, collected);\n        require(xfer, \"ERR_ERC20_FAILED\");\n    }\n}\n",
  "sourcePath": "/home/vyper/Downloads/Work Projects/avengers/kalancer-action/contracts/test/KFactory.sol",
  "compiler": {
    "name": "solc",
    "version": "0.6.12+commit.27d51765.Emscripten.clang"
  },
  "schemaVersion": "3.3.4",
  "updatedAt": "2021-03-26T12:33:52.850Z",
  "devdoc": {
    "kind": "dev",
    "methods": {},
    "version": 1
  },
  "userdoc": {
    "kind": "user",
    "methods": {},
    "version": 1
  }
}