{
  "contractName": "KMath",
  "abi": [
    {
      "inputs": [],
      "name": "BONE",
      "outputs": [
        {
          "internalType": "uint256",
          "name": "",
          "type": "uint256"
        }
      ],
      "stateMutability": "view",
      "type": "function"
    },
    {
      "inputs": [],
      "name": "BPOW_PRECISION",
      "outputs": [
        {
          "internalType": "uint256",
          "name": "",
          "type": "uint256"
        }
      ],
      "stateMutability": "view",
      "type": "function"
    },
    {
      "inputs": [],
      "name": "EXIT_FEE",
      "outputs": [
        {
          "internalType": "uint256",
          "name": "",
          "type": "uint256"
        }
      ],
      "stateMutability": "view",
      "type": "function"
    },
    {
      "inputs": [],
      "name": "INIT_POOL_SUPPLY",
      "outputs": [
        {
          "internalType": "uint256",
          "name": "",
          "type": "uint256"
        }
      ],
      "stateMutability": "view",
      "type": "function"
    },
    {
      "inputs": [],
      "name": "MAX_BOUND_TOKENS",
      "outputs": [
        {
          "internalType": "uint256",
          "name": "",
          "type": "uint256"
        }
      ],
      "stateMutability": "view",
      "type": "function"
    },
    {
      "inputs": [],
      "name": "MAX_BPOW_BASE",
      "outputs": [
        {
          "internalType": "uint256",
          "name": "",
          "type": "uint256"
        }
      ],
      "stateMutability": "view",
      "type": "function"
    },
    {
      "inputs": [],
      "name": "MAX_FEE",
      "outputs": [
        {
          "internalType": "uint256",
          "name": "",
          "type": "uint256"
        }
      ],
      "stateMutability": "view",
      "type": "function"
    },
    {
      "inputs": [],
      "name": "MAX_IN_RATIO",
      "outputs": [
        {
          "internalType": "uint256",
          "name": "",
          "type": "uint256"
        }
      ],
      "stateMutability": "view",
      "type": "function"
    },
    {
      "inputs": [],
      "name": "MAX_OUT_RATIO",
      "outputs": [
        {
          "internalType": "uint256",
          "name": "",
          "type": "uint256"
        }
      ],
      "stateMutability": "view",
      "type": "function"
    },
    {
      "inputs": [],
      "name": "MAX_TOTAL_WEIGHT",
      "outputs": [
        {
          "internalType": "uint256",
          "name": "",
          "type": "uint256"
        }
      ],
      "stateMutability": "view",
      "type": "function"
    },
    {
      "inputs": [],
      "name": "MAX_WEIGHT",
      "outputs": [
        {
          "internalType": "uint256",
          "name": "",
          "type": "uint256"
        }
      ],
      "stateMutability": "view",
      "type": "function"
    },
    {
      "inputs": [],
      "name": "MIN_BALANCE",
      "outputs": [
        {
          "internalType": "uint256",
          "name": "",
          "type": "uint256"
        }
      ],
      "stateMutability": "view",
      "type": "function"
    },
    {
      "inputs": [],
      "name": "MIN_BOUND_TOKENS",
      "outputs": [
        {
          "internalType": "uint256",
          "name": "",
          "type": "uint256"
        }
      ],
      "stateMutability": "view",
      "type": "function"
    },
    {
      "inputs": [],
      "name": "MIN_BPOW_BASE",
      "outputs": [
        {
          "internalType": "uint256",
          "name": "",
          "type": "uint256"
        }
      ],
      "stateMutability": "view",
      "type": "function"
    },
    {
      "inputs": [],
      "name": "MIN_FEE",
      "outputs": [
        {
          "internalType": "uint256",
          "name": "",
          "type": "uint256"
        }
      ],
      "stateMutability": "view",
      "type": "function"
    },
    {
      "inputs": [],
      "name": "MIN_WEIGHT",
      "outputs": [
        {
          "internalType": "uint256",
          "name": "",
          "type": "uint256"
        }
      ],
      "stateMutability": "view",
      "type": "function"
    },
    {
      "inputs": [
        {
          "internalType": "uint256",
          "name": "tokenBalanceIn",
          "type": "uint256"
        },
        {
          "internalType": "uint256",
          "name": "tokenWeightIn",
          "type": "uint256"
        },
        {
          "internalType": "uint256",
          "name": "tokenBalanceOut",
          "type": "uint256"
        },
        {
          "internalType": "uint256",
          "name": "tokenWeightOut",
          "type": "uint256"
        },
        {
          "internalType": "uint256",
          "name": "swapFee",
          "type": "uint256"
        }
      ],
      "name": "calcSpotPrice",
      "outputs": [
        {
          "internalType": "uint256",
          "name": "spotPrice",
          "type": "uint256"
        }
      ],
      "stateMutability": "pure",
      "type": "function"
    },
    {
      "inputs": [
        {
          "internalType": "uint256",
          "name": "tokenBalanceIn",
          "type": "uint256"
        },
        {
          "internalType": "uint256",
          "name": "tokenWeightIn",
          "type": "uint256"
        },
        {
          "internalType": "uint256",
          "name": "tokenBalanceOut",
          "type": "uint256"
        },
        {
          "internalType": "uint256",
          "name": "tokenWeightOut",
          "type": "uint256"
        },
        {
          "internalType": "uint256",
          "name": "tokenAmountIn",
          "type": "uint256"
        },
        {
          "internalType": "uint256",
          "name": "swapFee",
          "type": "uint256"
        }
      ],
      "name": "calcOutGivenIn",
      "outputs": [
        {
          "internalType": "uint256",
          "name": "tokenAmountOut",
          "type": "uint256"
        }
      ],
      "stateMutability": "pure",
      "type": "function"
    },
    {
      "inputs": [
        {
          "internalType": "uint256",
          "name": "tokenBalanceIn",
          "type": "uint256"
        },
        {
          "internalType": "uint256",
          "name": "tokenWeightIn",
          "type": "uint256"
        },
        {
          "internalType": "uint256",
          "name": "tokenBalanceOut",
          "type": "uint256"
        },
        {
          "internalType": "uint256",
          "name": "tokenWeightOut",
          "type": "uint256"
        },
        {
          "internalType": "uint256",
          "name": "tokenAmountOut",
          "type": "uint256"
        },
        {
          "internalType": "uint256",
          "name": "swapFee",
          "type": "uint256"
        }
      ],
      "name": "calcInGivenOut",
      "outputs": [
        {
          "internalType": "uint256",
          "name": "tokenAmountIn",
          "type": "uint256"
        }
      ],
      "stateMutability": "pure",
      "type": "function"
    },
    {
      "inputs": [
        {
          "internalType": "uint256",
          "name": "tokenBalanceIn",
          "type": "uint256"
        },
        {
          "internalType": "uint256",
          "name": "tokenWeightIn",
          "type": "uint256"
        },
        {
          "internalType": "uint256",
          "name": "poolSupply",
          "type": "uint256"
        },
        {
          "internalType": "uint256",
          "name": "totalWeight",
          "type": "uint256"
        },
        {
          "internalType": "uint256",
          "name": "tokenAmountIn",
          "type": "uint256"
        },
        {
          "internalType": "uint256",
          "name": "swapFee",
          "type": "uint256"
        }
      ],
      "name": "calcPoolOutGivenSingleIn",
      "outputs": [
        {
          "internalType": "uint256",
          "name": "poolAmountOut",
          "type": "uint256"
        }
      ],
      "stateMutability": "pure",
      "type": "function"
    },
    {
      "inputs": [
        {
          "internalType": "uint256",
          "name": "tokenBalanceIn",
          "type": "uint256"
        },
        {
          "internalType": "uint256",
          "name": "tokenWeightIn",
          "type": "uint256"
        },
        {
          "internalType": "uint256",
          "name": "poolSupply",
          "type": "uint256"
        },
        {
          "internalType": "uint256",
          "name": "totalWeight",
          "type": "uint256"
        },
        {
          "internalType": "uint256",
          "name": "poolAmountOut",
          "type": "uint256"
        },
        {
          "internalType": "uint256",
          "name": "swapFee",
          "type": "uint256"
        }
      ],
      "name": "calcSingleInGivenPoolOut",
      "outputs": [
        {
          "internalType": "uint256",
          "name": "tokenAmountIn",
          "type": "uint256"
        }
      ],
      "stateMutability": "pure",
      "type": "function"
    },
    {
      "inputs": [
        {
          "internalType": "uint256",
          "name": "tokenBalanceOut",
          "type": "uint256"
        },
        {
          "internalType": "uint256",
          "name": "tokenWeightOut",
          "type": "uint256"
        },
        {
          "internalType": "uint256",
          "name": "poolSupply",
          "type": "uint256"
        },
        {
          "internalType": "uint256",
          "name": "totalWeight",
          "type": "uint256"
        },
        {
          "internalType": "uint256",
          "name": "poolAmountIn",
          "type": "uint256"
        },
        {
          "internalType": "uint256",
          "name": "swapFee",
          "type": "uint256"
        }
      ],
      "name": "calcSingleOutGivenPoolIn",
      "outputs": [
        {
          "internalType": "uint256",
          "name": "tokenAmountOut",
          "type": "uint256"
        }
      ],
      "stateMutability": "pure",
      "type": "function"
    },
    {
      "inputs": [
        {
          "internalType": "uint256",
          "name": "tokenBalanceOut",
          "type": "uint256"
        },
        {
          "internalType": "uint256",
          "name": "tokenWeightOut",
          "type": "uint256"
        },
        {
          "internalType": "uint256",
          "name": "poolSupply",
          "type": "uint256"
        },
        {
          "internalType": "uint256",
          "name": "totalWeight",
          "type": "uint256"
        },
        {
          "internalType": "uint256",
          "name": "tokenAmountOut",
          "type": "uint256"
        },
        {
          "internalType": "uint256",
          "name": "swapFee",
          "type": "uint256"
        }
      ],
      "name": "calcPoolInGivenSingleOut",
      "outputs": [
        {
          "internalType": "uint256",
          "name": "poolAmountIn",
          "type": "uint256"
        }
      ],
      "stateMutability": "pure",
      "type": "function"
    }
  ],
  "bytecode": "0x608060405234801561001057600080fd5b50610d9c806100206000396000f3fe608060405234801561001057600080fd5b506004361061014d5760003560e01c8063a221ee49116100c3578063bc694ea21161007c578063bc694ea214610318578063c36596a614610174578063c6580d1214610320578063e4a28a5214610152578063ec09302114610328578063f8d6aed4146103305761014d565b8063a221ee4914610288578063b0e0d136146102bd578063b7b800a4146102c5578063ba019dab146102cd578063ba9530a6146102d5578063bc063e1a146103105761014d565b806382f652ad1161011557806382f652ad146101bf5780638656b653146101fa578063867378c514610235578063892980121461023d5780639381cd2b14610278578063992e2a92146102805761014d565b806309a3bbe414610152578063189d00ca1461016c578063218b5382146101745780635c1bbaf71461017c57806376c7a3c7146101b7575b600080fd5b61015a61036b565b60408051918252519081900360200190f35b61015a610378565b61015a61038c565b61015a600480360360c081101561019257600080fd5b5080359060208101359060408101359060608101359060808101359060a00135610398565b61015a610450565b61015a600480360360c08110156101d557600080fd5b5080359060208101359060408101359060608101359060808101359060a00135610462565b61015a600480360360c081101561021057600080fd5b5080359060208101359060408101359060608101359060808101359060a00135610521565b61015a6105c2565b61015a600480360360c081101561025357600080fd5b5080359060208101359060408101359060608101359060808101359060a001356105d6565b61015a610686565b61015a610693565b61015a600480360360a081101561029e57600080fd5b508035906020810135906040810135906060810135906080013561069f565b61015a610704565b61015a610709565b61015a61070e565b61015a600480360360c08110156102eb57600080fd5b5080359060208101359060408101359060608101359060808101359060a00135610713565b61015a610794565b61015a6107a4565b61015a6107b0565b61015a6107b5565b61015a600480360360c081101561034657600080fd5b5080359060208101359060408101359060608101359060808101359060a001356107c5565b6802b5e3af16b188000081565b6402540be400670de0b6b3a76400005b0481565b670de0b6b3a764000081565b6000806103a58786610848565b905060006103b3878661095d565b905060006103c18289610848565b905060006103d7670de0b6b3a764000085610848565b905060006103e583836109b1565b905060006103f3828e610abf565b90506000610401828f610b81565b9050600061042061041a670de0b6b3a76400008a610b81565b8b610abf565b905061043d82610438670de0b6b3a764000084610b81565b610848565b9f9e505050505050505050505050505050565b620f4240670de0b6b3a7640000610388565b60008061046f8786610848565b90506000610485670de0b6b3a764000083610b81565b905060006104938286610abf565b905060006104ad87610438670de0b6b3a764000085610b81565b905060006104bb8c83610b81565b905060006104c9828e610848565b905060006104d782886109b1565b905060006104e5828e610abf565b905060006104f38e83610b81565b905061050c81610438670de0b6b3a76400006000610b81565b99505050505050505050509695505050505050565b60008061052e8786610848565b9050600061054d610547670de0b6b3a764000084610b81565b85610abf565b9050600061056c86610567670de0b6b3a764000085610b81565b610abf565b9050600061057a8b8361095d565b90506000610588828d610848565b9050600061059682876109b1565b905060006105a4828d610abf565b90506105b0818d610b81565b9e9d5050505050505050505050505050565b64e8d4a51000670de0b6b3a7640000610388565b6000806105e38786610848565b905060006105fe85610567670de0b6b3a76400006000610b81565b9050600061060c8883610b81565b9050600061061a828a610848565b9050600061063982610634670de0b6b3a764000088610848565b6109b1565b90506000610647828e610abf565b905060006106558e83610b81565b9050600061066e61041a670de0b6b3a76400008a610b81565b905061043d82610567670de0b6b3a764000084610b81565b68056bc75e2d6310000081565b6704a03ce68d21555681565b6000806106ac8787610848565b905060006106ba8686610848565b905060006106c88383610848565b905060006106ea670de0b6b3a7640000610438670de0b6b3a764000089610b81565b90506106f68282610abf565b9a9950505050505050505050565b600881565b600281565b600181565b6000806107208786610848565b90506000610736670de0b6b3a764000085610b81565b90506107428582610abf565b905060006107548a6104388c8561095d565b9050600061076282856109b1565b90506000610778670de0b6b3a764000083610b81565b90506107848a82610abf565b9c9b505050505050505050505050565b600a670de0b6b3a7640000610388565b671bc16d674ec7ffff81565b600081565b6002670de0b6b3a7640000610388565b6000806107d28588610848565b905060006107e08786610b81565b905060006107ee8883610848565b905060006107fc82856109b1565b905061081081670de0b6b3a7640000610b81565b9050610824670de0b6b3a764000087610b81565b94506108396108338c83610abf565b86610848565b9b9a5050505050505050505050565b60008161088b576040805162461bcd60e51b815260206004820152600c60248201526b4552525f4449565f5a45524f60a01b604482015290519081900360640190fd5b670de0b6b3a764000083028315806108b35750670de0b6b3a76400008482816108b057fe5b04145b6108f7576040805162461bcd60e51b815260206004820152601060248201526f11549497d1125597d25395115493905360821b604482015290519081900360640190fd5b60028304810181811015610945576040805162461bcd60e51b815260206004820152601060248201526f11549497d1125597d25395115493905360821b604482015290519081900360640190fd5b600084828161095057fe5b0493505050505b92915050565b6000828201838110156109aa576040805162461bcd60e51b815260206004820152601060248201526f4552525f4144445f4f564552464c4f5760801b604482015290519081900360640190fd5b9392505050565b60006001831015610a01576040805162461bcd60e51b81526020600482015260156024820152744552525f42504f575f424153455f544f4f5f4c4f5760581b604482015290519081900360640190fd5b671bc16d674ec7ffff831115610a57576040805162461bcd60e51b815260206004820152601660248201527508aa4a4be84a09eaebe8482a68abea89e9ebe90928e960531b604482015290519081900360640190fd5b6000610a6283610be3565b90506000610a708483610b81565b90506000610a8686610a8185610bfe565b610c0c565b905081610a97579250610957915050565b6000610aa887846305f5e100610c63565b9050610ab48282610abf565b979650505050505050565b6000828202831580610ad9575082848281610ad657fe5b04145b610b1d576040805162461bcd60e51b815260206004820152601060248201526f4552525f4d554c5f4f564552464c4f5760801b604482015290519081900360640190fd5b6706f05b59d3b20000810181811015610b70576040805162461bcd60e51b815260206004820152601060248201526f4552525f4d554c5f4f564552464c4f5760801b604482015290519081900360640190fd5b6000670de0b6b3a764000082610950565b6000806000610b908585610d41565b915091508015610bdb576040805162461bcd60e51b81526020600482015260116024820152704552525f5355425f554e444552464c4f5760781b604482015290519081900360640190fd5b509392505050565b6000670de0b6b3a7640000610bf783610bfe565b0292915050565b670de0b6b3a7640000900490565b60008060028306610c2557670de0b6b3a7640000610c27565b835b90506002830492505b82156109aa57610c408485610abf565b93506002830615610c5857610c558185610abf565b90505b600283049250610c30565b6000828180610c7a87670de0b6b3a7640000610d41565b9092509050670de0b6b3a764000080600060015b888410610d32576000670de0b6b3a764000082029050600080610cc28a610cbd85670de0b6b3a7640000610b81565b610d41565b91509150610cd487610567848c610abf565b9650610ce08784610848565b965086610cef57505050610d32565b8715610cf9579315935b8015610d03579315935b8415610d1a57610d138688610b81565b9550610d27565b610d24868861095d565b95505b505050600101610c8e565b50909998505050505050505050565b600080828410610d575750508082036000610d5f565b505081810360015b925092905056fea26469706673582212208e77db49a8744d757145b3eeb7b38a6e43b649cd107f3ece68f582e6b6c5cc2c64736f6c634300060c0033",
  "immutableReferences": {},
  "source": "// SPDX-License-Identifier: GPL-3.0-or-later\npragma solidity 0.6.12;\n\nimport \"./KNum.sol\";\n\n\ncontract KMath is KConst, KNum {\n    /**********************************************************************************************\n    // calcSpotPrice                                                                             //\n    // sP = spotPrice                                                                            //\n    // bI = tokenBalanceIn                ( bI / wI )         1                                  //\n    // bO = tokenBalanceOut         sP =  -----------  *  ----------                             //\n    // wI = tokenWeightIn                 ( bO / wO )     ( 1 - sF )                             //\n    // wO = tokenWeightOut                                                                       //\n    // sF = swapFee                                                                              //\n    **********************************************************************************************/\n    function calcSpotPrice(\n        uint tokenBalanceIn,\n        uint tokenWeightIn,\n        uint tokenBalanceOut,\n        uint tokenWeightOut,\n        uint swapFee\n    )\n        public pure\n        returns (uint spotPrice)\n    {\n        uint numer = bdiv(tokenBalanceIn, tokenWeightIn);\n        uint denom = bdiv(tokenBalanceOut, tokenWeightOut);\n        uint ratio = bdiv(numer, denom);\n        uint scale = bdiv(BONE, bsub(BONE, swapFee));\n        return  (spotPrice = bmul(ratio, scale));\n    }\n\n    /**********************************************************************************************\n    // calcOutGivenIn                                                                            //\n    // aO = tokenAmountOut                                                                       //\n    // bO = tokenBalanceOut                                                                      //\n    // bI = tokenBalanceIn              /      /            bI             \\    (wI / wO) \\      //\n    // aI = tokenAmountIn    aO = bO * |  1 - | --------------------------  | ^            |     //\n    // wI = tokenWeightIn               \\      \\ ( bI + ( aI * ( 1 - sF )) /              /      //\n    // wO = tokenWeightOut                                                                       //\n    // sF = swapFee                                                                              //\n    **********************************************************************************************/\n    function calcOutGivenIn(\n        uint tokenBalanceIn,\n        uint tokenWeightIn,\n        uint tokenBalanceOut,\n        uint tokenWeightOut,\n        uint tokenAmountIn,\n        uint swapFee\n    )\n        public pure\n        returns (uint tokenAmountOut)\n    {\n        uint weightRatio = bdiv(tokenWeightIn, tokenWeightOut);\n        uint adjustedIn = bsub(BONE, swapFee);\n        adjustedIn = bmul(tokenAmountIn, adjustedIn);\n        uint y = bdiv(tokenBalanceIn, badd(tokenBalanceIn, adjustedIn));\n        uint foo = bpow(y, weightRatio);\n        uint bar = bsub(BONE, foo);\n        tokenAmountOut = bmul(tokenBalanceOut, bar);\n        return tokenAmountOut;\n    }\n\n    /**********************************************************************************************\n    // calcInGivenOut                                                                            //\n    // aI = tokenAmountIn                                                                        //\n    // bO = tokenBalanceOut               /  /     bO      \\    (wO / wI)      \\                 //\n    // bI = tokenBalanceIn          bI * |  | ------------  | ^            - 1  |                //\n    // aO = tokenAmountOut    aI =        \\  \\ ( bO - aO ) /                   /                 //\n    // wI = tokenWeightIn           --------------------------------------------                 //\n    // wO = tokenWeightOut                          ( 1 - sF )                                   //\n    // sF = swapFee                                                                              //\n    **********************************************************************************************/\n    function calcInGivenOut(\n        uint tokenBalanceIn,\n        uint tokenWeightIn,\n        uint tokenBalanceOut,\n        uint tokenWeightOut,\n        uint tokenAmountOut,\n        uint swapFee\n    )\n        public pure\n        returns (uint tokenAmountIn)\n    {\n        uint weightRatio = bdiv(tokenWeightOut, tokenWeightIn);\n        uint diff = bsub(tokenBalanceOut, tokenAmountOut);\n        uint y = bdiv(tokenBalanceOut, diff);\n        uint foo = bpow(y, weightRatio);\n        foo = bsub(foo, BONE);\n        tokenAmountIn = bsub(BONE, swapFee);\n        tokenAmountIn = bdiv(bmul(tokenBalanceIn, foo), tokenAmountIn);\n        return tokenAmountIn;\n    }\n\n    /**********************************************************************************************\n    // calcPoolOutGivenSingleIn                                                                  //\n    // pAo = poolAmountOut         /                                              \\              //\n    // tAi = tokenAmountIn        ///      /     //    wI \\      \\\\       \\     wI \\             //\n    // wI = tokenWeightIn        //| tAi *| 1 - || 1 - --  | * sF || + tBi \\    --  \\            //\n    // tW = totalWeight     pAo=||  \\      \\     \\\\    tW /      //         | ^ tW   | * pS - pS //\n    // tBi = tokenBalanceIn      \\\\  ------------------------------------- /        /            //\n    // pS = poolSupply            \\\\                    tBi               /        /             //\n    // sF = swapFee                \\                                              /              //\n    **********************************************************************************************/\n    function calcPoolOutGivenSingleIn(\n        uint tokenBalanceIn,\n        uint tokenWeightIn,\n        uint poolSupply,\n        uint totalWeight,\n        uint tokenAmountIn,\n        uint swapFee\n    )\n        public pure\n        returns (uint poolAmountOut)\n    {\n        // Charge the trading fee for the proportion of tokenAi\n        ///  which is implicitly traded to the other pool tokens.\n        // That proportion is (1- weightTokenIn)\n        // tokenAiAfterFee = tAi * (1 - (1-weightTi) * poolFee);\n        uint normalizedWeight = bdiv(tokenWeightIn, totalWeight);\n        uint zaz = bmul(bsub(BONE, normalizedWeight), swapFee); \n        uint tokenAmountInAfterFee = bmul(tokenAmountIn, bsub(BONE, zaz));\n\n        uint newTokenBalanceIn = badd(tokenBalanceIn, tokenAmountInAfterFee);\n        uint tokenInRatio = bdiv(newTokenBalanceIn, tokenBalanceIn);\n\n        // uint newPoolSupply = (ratioTi ^ weightTi) * poolSupply;\n        uint poolRatio = bpow(tokenInRatio, normalizedWeight);\n        uint newPoolSupply = bmul(poolRatio, poolSupply);\n        poolAmountOut = bsub(newPoolSupply, poolSupply);\n        return poolAmountOut;\n    }\n\n    /**********************************************************************************************\n    // calcSingleInGivenPoolOut                                                                  //\n    // tAi = tokenAmountIn              //(pS + pAo)\\     /    1    \\\\                           //\n    // pS = poolSupply                 || ---------  | ^ | --------- || * bI - bI                //\n    // pAo = poolAmountOut              \\\\    pS    /     \\(wI / tW)//                           //\n    // bI = balanceIn          tAi =  --------------------------------------------               //\n    // wI = weightIn                              /      wI  \\                                   //\n    // tW = totalWeight                          |  1 - ----  |  * sF                            //\n    // sF = swapFee                               \\      tW  /                                   //\n    **********************************************************************************************/\n    function calcSingleInGivenPoolOut(\n        uint tokenBalanceIn,\n        uint tokenWeightIn,\n        uint poolSupply,\n        uint totalWeight,\n        uint poolAmountOut,\n        uint swapFee\n    )\n        public pure\n        returns (uint tokenAmountIn)\n    {\n        uint normalizedWeight = bdiv(tokenWeightIn, totalWeight);\n        uint newPoolSupply = badd(poolSupply, poolAmountOut);\n        uint poolRatio = bdiv(newPoolSupply, poolSupply);\n      \n        //uint newBalTi = poolRatio^(1/weightTi) * balTi;\n        uint boo = bdiv(BONE, normalizedWeight); \n        uint tokenInRatio = bpow(poolRatio, boo);\n        uint newTokenBalanceIn = bmul(tokenInRatio, tokenBalanceIn);\n        uint tokenAmountInAfterFee = bsub(newTokenBalanceIn, tokenBalanceIn);\n        // Do reverse order of fees charged in joinswap_ExternAmountIn, this way \n        //     ``` pAo == joinswap_ExternAmountIn(Ti, joinswap_PoolAmountOut(pAo, Ti)) ```\n        //uint tAi = tAiAfterFee / (1 - (1-weightTi) * swapFee) ;\n        uint zar = bmul(bsub(BONE, normalizedWeight), swapFee);\n        tokenAmountIn = bdiv(tokenAmountInAfterFee, bsub(BONE, zar));\n        return tokenAmountIn;\n    }\n\n    /**********************************************************************************************\n    // calcSingleOutGivenPoolIn                                                                  //\n    // tAo = tokenAmountOut            /      /                                             \\\\   //\n    // bO = tokenBalanceOut           /      // pS - (pAi * (1 - eF)) \\     /    1    \\      \\\\  //\n    // pAi = poolAmountIn            | bO - || ----------------------- | ^ | --------- | * b0 || //\n    // ps = poolSupply                \\      \\\\          pS           /     \\(wO / tW)/      //  //\n    // wI = tokenWeightIn      tAo =   \\      \\                                             //   //\n    // tW = totalWeight                    /     /      wO \\       \\                             //\n    // sF = swapFee                    *  | 1 - |  1 - ---- | * sF  |                            //\n    // eF = exitFee                        \\     \\      tW /       /                             //\n    **********************************************************************************************/\n    function calcSingleOutGivenPoolIn(\n        uint tokenBalanceOut,\n        uint tokenWeightOut,\n        uint poolSupply,\n        uint totalWeight,\n        uint poolAmountIn,\n        uint swapFee\n    )\n        public pure\n        returns (uint tokenAmountOut)\n    {\n        uint normalizedWeight = bdiv(tokenWeightOut, totalWeight);\n        // charge exit fee on the pool token side\n        // pAiAfterExitFee = pAi*(1-exitFee)\n        uint poolAmountInAfterExitFee = bmul(poolAmountIn, bsub(BONE, EXIT_FEE));\n        uint newPoolSupply = bsub(poolSupply, poolAmountInAfterExitFee);\n        uint poolRatio = bdiv(newPoolSupply, poolSupply);\n     \n        // newBalTo = poolRatio^(1/weightTo) * balTo;\n        uint tokenOutRatio = bpow(poolRatio, bdiv(BONE, normalizedWeight));\n        uint newTokenBalanceOut = bmul(tokenOutRatio, tokenBalanceOut);\n\n        uint tokenAmountOutBeforeSwapFee = bsub(tokenBalanceOut, newTokenBalanceOut);\n\n        // charge swap fee on the output token side \n        //uint tAo = tAoBeforeSwapFee * (1 - (1-weightTo) * swapFee)\n        uint zaz = bmul(bsub(BONE, normalizedWeight), swapFee); \n        tokenAmountOut = bmul(tokenAmountOutBeforeSwapFee, bsub(BONE, zaz));\n        return tokenAmountOut;\n    }\n\n    /**********************************************************************************************\n    // calcPoolInGivenSingleOut                                                                  //\n    // pAi = poolAmountIn               // /               tAo             \\\\     / wO \\     \\   //\n    // bO = tokenBalanceOut            // | bO - -------------------------- |\\   | ---- |     \\  //\n    // tAo = tokenAmountOut      pS - ||   \\     1 - ((1 - (tO / tW)) * sF)/  | ^ \\ tW /  * pS | //\n    // ps = poolSupply                 \\\\ -----------------------------------/                /  //\n    // wO = tokenWeightOut  pAi =       \\\\               bO                 /                /   //\n    // tW = totalWeight           -------------------------------------------------------------  //\n    // sF = swapFee                                        ( 1 - eF )                            //\n    // eF = exitFee                                                                              //\n    **********************************************************************************************/\n    function calcPoolInGivenSingleOut(\n        uint tokenBalanceOut,\n        uint tokenWeightOut,\n        uint poolSupply,\n        uint totalWeight,\n        uint tokenAmountOut,\n        uint swapFee\n    )\n        public pure\n        returns (uint poolAmountIn)\n    {\n\n        // charge swap fee on the output token side \n        uint normalizedWeight = bdiv(tokenWeightOut, totalWeight);\n        //uint tAoBeforeSwapFee = tAo / (1 - (1-weightTo) * swapFee) ;\n        uint zoo = bsub(BONE, normalizedWeight);\n        uint zar = bmul(zoo, swapFee); \n        uint tokenAmountOutBeforeSwapFee = bdiv(tokenAmountOut, bsub(BONE, zar));\n\n        uint newTokenBalanceOut = bsub(tokenBalanceOut, tokenAmountOutBeforeSwapFee);\n        uint tokenOutRatio = bdiv(newTokenBalanceOut, tokenBalanceOut);\n\n        //uint newPoolSupply = (ratioTo ^ weightTo) * poolSupply;\n        uint poolRatio = bpow(tokenOutRatio, normalizedWeight);\n        uint newPoolSupply = bmul(poolRatio, poolSupply);\n        uint poolAmountInAfterExitFee = bsub(poolSupply, newPoolSupply);\n\n        // charge exit fee on the pool token side\n        // pAi = pAiAfterExitFee/(1-exitFee)\n        poolAmountIn = bdiv(poolAmountInAfterExitFee, bsub(BONE, EXIT_FEE));\n        return poolAmountIn;\n    }\n\n\n}\n",
  "sourcePath": "/home/vyper/Downloads/Work Projects/avengers/kalancer-action/contracts/test/KMath.sol",
  "compiler": {
    "name": "solc",
    "version": "0.6.12+commit.27d51765.Emscripten.clang"
  },
  "schemaVersion": "3.3.4",
  "updatedAt": "2021-03-26T12:33:52.914Z",
  "devdoc": {
    "kind": "dev",
    "methods": {},
    "version": 1
  },
  "userdoc": {
    "kind": "user",
    "methods": {},
    "version": 1
  }
}