{
  "contractName": "PCToken",
  "abi": [
    {
      "inputs": [
        {
          "internalType": "string",
          "name": "tokenSymbol",
          "type": "string"
        },
        {
          "internalType": "string",
          "name": "tokenName",
          "type": "string"
        }
      ],
      "stateMutability": "nonpayable",
      "type": "constructor"
    },
    {
      "anonymous": false,
      "inputs": [
        {
          "indexed": true,
          "internalType": "address",
          "name": "owner",
          "type": "address"
        },
        {
          "indexed": true,
          "internalType": "address",
          "name": "spender",
          "type": "address"
        },
        {
          "indexed": false,
          "internalType": "uint256",
          "name": "value",
          "type": "uint256"
        }
      ],
      "name": "Approval",
      "type": "event"
    },
    {
      "anonymous": false,
      "inputs": [
        {
          "indexed": true,
          "internalType": "address",
          "name": "from",
          "type": "address"
        },
        {
          "indexed": true,
          "internalType": "address",
          "name": "to",
          "type": "address"
        },
        {
          "indexed": false,
          "internalType": "uint256",
          "name": "value",
          "type": "uint256"
        }
      ],
      "name": "Transfer",
      "type": "event"
    },
    {
      "inputs": [],
      "name": "DECIMALS",
      "outputs": [
        {
          "internalType": "uint8",
          "name": "",
          "type": "uint8"
        }
      ],
      "stateMutability": "view",
      "type": "function"
    },
    {
      "inputs": [],
      "name": "NAME",
      "outputs": [
        {
          "internalType": "string",
          "name": "",
          "type": "string"
        }
      ],
      "stateMutability": "view",
      "type": "function"
    },
    {
      "inputs": [
        {
          "internalType": "address",
          "name": "owner",
          "type": "address"
        },
        {
          "internalType": "address",
          "name": "spender",
          "type": "address"
        }
      ],
      "name": "allowance",
      "outputs": [
        {
          "internalType": "uint256",
          "name": "",
          "type": "uint256"
        }
      ],
      "stateMutability": "view",
      "type": "function"
    },
    {
      "inputs": [
        {
          "internalType": "address",
          "name": "account",
          "type": "address"
        }
      ],
      "name": "balanceOf",
      "outputs": [
        {
          "internalType": "uint256",
          "name": "",
          "type": "uint256"
        }
      ],
      "stateMutability": "view",
      "type": "function"
    },
    {
      "inputs": [
        {
          "internalType": "address",
          "name": "spender",
          "type": "address"
        },
        {
          "internalType": "uint256",
          "name": "amount",
          "type": "uint256"
        }
      ],
      "name": "approve",
      "outputs": [
        {
          "internalType": "bool",
          "name": "",
          "type": "bool"
        }
      ],
      "stateMutability": "nonpayable",
      "type": "function"
    },
    {
      "inputs": [
        {
          "internalType": "address",
          "name": "spender",
          "type": "address"
        },
        {
          "internalType": "uint256",
          "name": "amount",
          "type": "uint256"
        }
      ],
      "name": "increaseApproval",
      "outputs": [
        {
          "internalType": "bool",
          "name": "",
          "type": "bool"
        }
      ],
      "stateMutability": "nonpayable",
      "type": "function"
    },
    {
      "inputs": [
        {
          "internalType": "address",
          "name": "spender",
          "type": "address"
        },
        {
          "internalType": "uint256",
          "name": "amount",
          "type": "uint256"
        }
      ],
      "name": "decreaseApproval",
      "outputs": [
        {
          "internalType": "bool",
          "name": "",
          "type": "bool"
        }
      ],
      "stateMutability": "nonpayable",
      "type": "function"
    },
    {
      "inputs": [
        {
          "internalType": "address",
          "name": "recipient",
          "type": "address"
        },
        {
          "internalType": "uint256",
          "name": "amount",
          "type": "uint256"
        }
      ],
      "name": "transfer",
      "outputs": [
        {
          "internalType": "bool",
          "name": "",
          "type": "bool"
        }
      ],
      "stateMutability": "nonpayable",
      "type": "function"
    },
    {
      "inputs": [
        {
          "internalType": "address",
          "name": "sender",
          "type": "address"
        },
        {
          "internalType": "address",
          "name": "recipient",
          "type": "address"
        },
        {
          "internalType": "uint256",
          "name": "amount",
          "type": "uint256"
        }
      ],
      "name": "transferFrom",
      "outputs": [
        {
          "internalType": "bool",
          "name": "",
          "type": "bool"
        }
      ],
      "stateMutability": "nonpayable",
      "type": "function"
    },
    {
      "inputs": [],
      "name": "totalSupply",
      "outputs": [
        {
          "internalType": "uint256",
          "name": "",
          "type": "uint256"
        }
      ],
      "stateMutability": "view",
      "type": "function"
    },
    {
      "inputs": [],
      "name": "name",
      "outputs": [
        {
          "internalType": "string",
          "name": "",
          "type": "string"
        }
      ],
      "stateMutability": "view",
      "type": "function"
    },
    {
      "inputs": [],
      "name": "symbol",
      "outputs": [
        {
          "internalType": "string",
          "name": "",
          "type": "string"
        }
      ],
      "stateMutability": "view",
      "type": "function"
    },
    {
      "inputs": [],
      "name": "decimals",
      "outputs": [
        {
          "internalType": "uint8",
          "name": "",
          "type": "uint8"
        }
      ],
      "stateMutability": "pure",
      "type": "function"
    }
  ],
  "bytecode": "0x60806040523480156200001157600080fd5b5060405162000c5738038062000c57833981810160405260408110156200003757600080fd5b81019080805160405193929190846401000000008211156200005857600080fd5b9083019060208201858111156200006e57600080fd5b82516401000000008111828201881017156200008957600080fd5b82525081516020918201929091019080838360005b83811015620000b85781810151838201526020016200009e565b50505050905090810190601f168015620000e65780820380516001836020036101000a031916815260200191505b50604052602001805160405193929190846401000000008211156200010a57600080fd5b9083019060208201858111156200012057600080fd5b82516401000000008111828201881017156200013b57600080fd5b82525081516020918201929091019080838360005b838110156200016a57818101518382015260200162000150565b50505050905090810190601f168015620001985780820380516001836020036101000a031916815260200191505b5060405250508251620001b491506003906020850190620001d3565b508051620001ca906004906020840190620001d3565b5050506200026f565b828054600181600116156101000203166002900490600052602060002090601f016020900481019282601f106200021657805160ff191683800117855562000246565b8280016001018555821562000246579182015b828111156200024657825182559160200191906001019062000229565b506200025492915062000258565b5090565b5b8082111562000254576000815560010162000259565b6109d8806200027f6000396000f3fe608060405234801561001057600080fd5b50600436106100cf5760003560e01c8063661884631161008c578063a3f4df7e11610066578063a3f4df7e14610261578063a9059cbb14610269578063d73dd62314610295578063dd62ed3e146102c1576100cf565b8063661884631461020757806370a082311461023357806395d89b4114610259576100cf565b806306fdde03146100d4578063095ea7b31461015157806318160ddd1461019157806323b872dd146101ab5780632e0f2625146101e1578063313ce567146101ff575b600080fd5b6100dc6102ef565b6040805160208082528351818301528351919283929083019185019080838360005b838110156101165781810151838201526020016100fe565b50505050905090810190601f1680156101435780820380516001836020036101000a031916815260200191505b509250505060405180910390f35b61017d6004803603604081101561016757600080fd5b506001600160a01b038135169060200135610385565b604080519115158252519081900360200190f35b6101996103d9565b60408051918252519081900360200190f35b61017d600480360360608110156101c157600080fd5b506001600160a01b038135811691602081013590911690604001356103df565b6101e961055d565b6040805160ff9092168252519081900360200190f35b6101e9610562565b61017d6004803603604081101561021d57600080fd5b506001600160a01b038135169060200135610567565b6101996004803603602081101561024957600080fd5b50356001600160a01b031661063e565b6100dc610659565b6100dc6106ba565b61017d6004803603604081101561027f57600080fd5b506001600160a01b0381351690602001356106e9565b61017d600480360360408110156102ab57600080fd5b506001600160a01b03813516906020013561074d565b610199600480360360408110156102d757600080fd5b506001600160a01b03813581169160200135166107ce565b60048054604080516020601f600260001961010060018816150201909516949094049384018190048102820181019092528281526060939092909183018282801561037b5780601f106103505761010080835404028352916020019161037b565b820191906000526020600020905b81548152906001019060200180831161035e57829003601f168201915b5050505050905090565b3360008181526002602090815260408083206001600160a01b03871680855290835281842086905581518681529151939490939092600080516020610983833981519152928290030190a350600192915050565b60005490565b60006001600160a01b03831661042f576040805162461bcd60e51b815260206004820152601060248201526f4552525f5a45524f5f4144445245535360801b604482015290519081900360640190fd5b336001600160a01b038516148061046957506001600160a01b03841660009081526002602090815260408083203384529091529020548211155b6104b3576040805162461bcd60e51b815260206004820152601660248201527522a9292fa821aa27a5a2a72fa120a22fa1a0a62622a960511b604482015290519081900360640190fd5b6104be8484846107f9565b6001600160a01b03841660008181526002602090815260408083203380855292529091205491148015906104f457506000198114155b156105525761050381846108a7565b6001600160a01b03868116600090815260026020908152604080832033808552908352928190208590558051948552519288169391926000805160206109838339815191529281900390910190a35b506001949350505050565b601281565b601290565b3360009081526002602090815260408083206001600160a01b03861684529091528120548083106105bb573360009081526002602090815260408083206001600160a01b03881684529091528120556105ea565b6105c581846108a7565b3360009081526002602090815260408083206001600160a01b03891684529091529020555b3360008181526002602090815260408083206001600160a01b038916808552908352928190205481519081529051929392600080516020610983833981519152929181900390910190a35060019392505050565b6001600160a01b031660009081526001602052604090205490565b60038054604080516020601f600260001961010060018816150201909516949094049384018190048102820181019092528281526060939092909183018282801561037b5780601f106103505761010080835404028352916020019161037b565b6040518060400160405280601381526020017212d85b185b98d95c8814db585c9d08141bdbdb606a1b81525081565b60006001600160a01b038316610739576040805162461bcd60e51b815260206004820152601060248201526f4552525f5a45524f5f4144445245535360801b604482015290519081900360640190fd5b6107443384846107f9565b50600192915050565b3360009081526002602090815260408083206001600160a01b038616845290915281205461077b9083610909565b3360008181526002602090815260408083206001600160a01b038916808552908352928190208590558051948552519193600080516020610983833981519152929081900390910190a350600192915050565b6001600160a01b03918216600090815260026020908152604080832093909416825291909152205490565b6001600160a01b03831660009081526001602052604090205461081c90826108a7565b6001600160a01b03808516600090815260016020526040808220939093559084168152205461084b9082610909565b6001600160a01b0380841660008181526001602090815260409182902094909455805185815290519193928716927fddf252ad1be2c89b69c2b068fc378daa952ba7f163c4a11628f55a4df523b3ef92918290030190a3505050565b60008060006108b6858561095d565b915091508015610901576040805162461bcd60e51b81526020600482015260116024820152704552525f5355425f554e444552464c4f5760781b604482015290519081900360640190fd5b509392505050565b600082820183811015610956576040805162461bcd60e51b815260206004820152601060248201526f4552525f4144445f4f564552464c4f5760801b604482015290519081900360640190fd5b9392505050565b600080838311610973575050808203600061097b565b505081810360015b925092905056fe8c5be1e5ebec7d5bd14f71427d1e84f3dd0314c0f7b2291e5b200ac8c7c3b925a264697066735822122058e2f244f9be5df8199f2dd11f289115e08689dcbe31df4d9667ef86e3a05db864736f6c634300060c0033",
  "immutableReferences": {},
  "source": "// SPDX-License-Identifier: GPL-3.0-or-later\npragma solidity 0.6.12;\n\n// Imports\n\nimport \"./KalancerSafeMath.sol\";\nimport \"./KalancerConstants.sol\";\nimport \"./IERC20.sol\";\n\n// Contracts\n\n/* solhint-disable func-order */\n\n/**\n * @author Kalancer Labs\n * @title Highly opinionated token implementation\n*/\ncontract PCToken is IERC20 {\n    using KalancerSafeMath for uint;\n\n    // State variables\n    string public constant NAME = \"Kalancer Smart Pool\";\n    uint8 public constant DECIMALS = 18;\n\n    // No leading underscore per naming convention (non-private)\n    // Cannot call totalSupply (name conflict)\n    // solhint-disable-next-line private-vars-leading-underscore\n    uint internal varTotalSupply;\n\n    mapping(address => uint) private _balance;\n    mapping(address => mapping(address => uint)) private _allowance;\n\n    string private _symbol;\n    string private _name;\n\n    // Event declarations\n\n    // See definitions above; must be redeclared to be emitted from this contract\n    event Approval(address indexed owner, address indexed spender, uint value);\n    event Transfer(address indexed from, address indexed to, uint value);\n\n    // Function declarations\n\n    /**\n     * @notice Base token constructor\n     * @param tokenSymbol - the token symbol\n     */\n    constructor (string memory tokenSymbol, string memory tokenName) public {\n        _symbol = tokenSymbol;\n        _name = tokenName;\n    }\n\n    // External functions\n\n    /**\n     * @notice Getter for allowance: amount spender will be allowed to spend on behalf of owner\n     * @param owner - owner of the tokens\n     * @param spender - entity allowed to spend the tokens\n     * @return uint - remaining amount spender is allowed to transfer\n     */\n    function allowance(address owner, address spender) external view override returns (uint) {\n        return _allowance[owner][spender];\n    }\n\n    /**\n     * @notice Getter for current account balance\n     * @param account - address we're checking the balance of\n     * @return uint - token balance in the account\n     */\n    function balanceOf(address account) external view override returns (uint) {\n        return _balance[account];\n    }\n\n    /**\n     * @notice Approve owner (sender) to spend a certain amount\n     * @dev emits an Approval event\n     * @param spender - entity the owner (sender) is approving to spend his tokens\n     * @param amount - number of tokens being approved\n     * @return bool - result of the approval (will always be true if it doesn't revert)\n     */\n    function approve(address spender, uint amount) external override returns (bool) {\n        /* In addition to the increase/decreaseApproval functions, could\n           avoid the \"approval race condition\" by only allowing calls to approve\n           when the current approval amount is 0\n        \n           require(_allowance[msg.sender][spender] == 0, \"ERR_RACE_CONDITION\");\n           Some token contracts (e.g., KNC), already revert if you call approve \n           on a non-zero allocation. To deal with these, we use the SafeApprove library\n           and safeApprove function when adding tokens to the pool.\n        */\n\n        _allowance[msg.sender][spender] = amount;\n\n        emit Approval(msg.sender, spender, amount);\n\n        return true;\n    }\n\n    /**\n     * @notice Increase the amount the spender is allowed to spend on behalf of the owner (sender)\n     * @dev emits an Approval event\n     * @param spender - entity the owner (sender) is approving to spend his tokens\n     * @param amount - number of tokens being approved\n     * @return bool - result of the approval (will always be true if it doesn't revert)\n     */\n    function increaseApproval(address spender, uint amount) external returns (bool) {\n        _allowance[msg.sender][spender] = KalancerSafeMath.badd(_allowance[msg.sender][spender], amount);\n\n        emit Approval(msg.sender, spender, _allowance[msg.sender][spender]);\n\n        return true;\n    }\n\n    /**\n     * @notice Decrease the amount the spender is allowed to spend on behalf of the owner (sender)\n     * @dev emits an Approval event\n     * @dev If you try to decrease it below the current limit, it's just set to zero (not an error)\n     * @param spender - entity the owner (sender) is approving to spend his tokens\n     * @param amount - number of tokens being approved\n     * @return bool - result of the approval (will always be true if it doesn't revert)\n     */\n    function decreaseApproval(address spender, uint amount) external returns (bool) {\n        uint oldValue = _allowance[msg.sender][spender];\n        // Gas optimization - if amount == oldValue (or is larger), set to zero immediately\n        if (amount >= oldValue) {\n            _allowance[msg.sender][spender] = 0;\n        } else {\n            _allowance[msg.sender][spender] = KalancerSafeMath.bsub(oldValue, amount);\n        }\n\n        emit Approval(msg.sender, spender, _allowance[msg.sender][spender]);\n\n        return true;\n    }\n\n    /**\n     * @notice Transfer the given amount from sender (caller) to recipient\n     * @dev _move emits a Transfer event if successful\n     * @param recipient - entity receiving the tokens\n     * @param amount - number of tokens being transferred\n     * @return bool - result of the transfer (will always be true if it doesn't revert)\n     */\n    function transfer(address recipient, uint amount) external override returns (bool) {\n        require(recipient != address(0), \"ERR_ZERO_ADDRESS\");\n\n        _move(msg.sender, recipient, amount);\n\n        return true;\n    }\n\n    /**\n     * @notice Transfer the given amount from sender to recipient\n     * @dev _move emits a Transfer event if successful; may also emit an Approval event\n     * @param sender - entity sending the tokens (must be caller or allowed to spend on behalf of caller)\n     * @param recipient - recipient of the tokens\n     * @param amount - number of tokens being transferred\n     * @return bool - result of the transfer (will always be true if it doesn't revert)\n     */\n    function transferFrom(address sender, address recipient, uint amount) external override returns (bool) {\n        require(recipient != address(0), \"ERR_ZERO_ADDRESS\");\n        require(msg.sender == sender || amount <= _allowance[sender][msg.sender], \"ERR_PCTOKEN_BAD_CALLER\");\n\n        _move(sender, recipient, amount);\n\n        // memoize for gas optimization\n        uint oldAllowance = _allowance[sender][msg.sender];\n\n        // If the sender is not the caller, adjust the allowance by the amount transferred\n        if (msg.sender != sender && oldAllowance != uint(-1)) {\n            _allowance[sender][msg.sender] = KalancerSafeMath.bsub(oldAllowance, amount);\n\n            emit Approval(msg.sender, recipient, _allowance[sender][msg.sender]);\n        }\n\n        return true;\n    }\n\n    // public functions\n\n    /**\n     * @notice Getter for the total supply\n     * @dev declared external for gas optimization\n     * @return uint - total number of tokens in existence\n     */\n    function totalSupply() external view override returns (uint) {\n        return varTotalSupply;\n    }\n\n    // Public functions\n\n    /**\n     * @dev Returns the name of the token.\n     *      We allow the user to set this name (as well as the symbol).\n     *      Alternatives are 1) A fixed string (original design)\n     *                       2) A fixed string plus the user-defined symbol\n     *                          return string(abi.encodePacked(NAME, \"-\", _symbol));\n     */\n    function name() external view returns (string memory) {\n        return _name;\n    }\n\n    /**\n     * @dev Returns the symbol of the token, usually a shorter version of the\n     * name.\n     */\n    function symbol() external view returns (string memory) {\n        return _symbol;\n    }\n\n    /**\n     * @dev Returns the number of decimals used to get its user representation.\n     * For example, if `decimals` equals `2`, a balance of `505` tokens should\n     * be displayed to a user as `5,05` (`505 / 10 ** 2`).\n     *\n     * Tokens usually opt for a value of 18, imitating the relationship between\n     * Ether and Wei. This is the value {ERC20} uses, unless {_setupDecimals} is\n     * called.\n     *\n     * NOTE: This information is only used for _display_ purposes: it in\n     * no way affects any of the arithmetic of the contract, including\n     * {IERC20-balanceOf} and {IERC20-transfer}.\n     */\n    function decimals() external pure returns (uint8) {\n        return DECIMALS;\n    }\n\n    // internal functions\n\n    // Mint an amount of new tokens, and add them to the balance (and total supply)\n    // Emit a transfer amount from the null address to this contract\n    function _mint(uint amount) internal virtual {\n        _balance[address(this)] = KalancerSafeMath.badd(_balance[address(this)], amount);\n        varTotalSupply = KalancerSafeMath.badd(varTotalSupply, amount);\n\n        emit Transfer(address(0), address(this), amount);\n    }\n\n    // Burn an amount of new tokens, and subtract them from the balance (and total supply)\n    // Emit a transfer amount from this contract to the null address\n    function _burn(uint amount) internal virtual {\n        // Can't burn more than we have\n        // Remove require for gas optimization - bsub will revert on underflow\n        // require(_balance[address(this)] >= amount, \"ERR_INSUFFICIENT_BAL\");\n\n        _balance[address(this)] = KalancerSafeMath.bsub(_balance[address(this)], amount);\n        varTotalSupply = KalancerSafeMath.bsub(varTotalSupply, amount);\n\n        emit Transfer(address(this), address(0), amount);\n    }\n\n    // Transfer tokens from sender to recipient\n    // Adjust balances, and emit a Transfer event\n    function _move(address sender, address recipient, uint amount) internal virtual {\n        // Can't send more than sender has\n        // Remove require for gas optimization - bsub will revert on underflow\n        // require(_balance[sender] >= amount, \"ERR_INSUFFICIENT_BAL\");\n\n        _balance[sender] = KalancerSafeMath.bsub(_balance[sender], amount);\n        _balance[recipient] = KalancerSafeMath.badd(_balance[recipient], amount);\n\n        emit Transfer(sender, recipient, amount);\n    }\n\n    // Transfer from this contract to recipient\n    // Emits a transfer event if successful\n    function _push(address recipient, uint amount) internal {\n        _move(address(this), recipient, amount);\n    }\n\n    // Transfer from recipient to this contract\n    // Emits a transfer event if successful\n    function _pull(address sender, uint amount) internal {\n        _move(sender, address(this), amount);\n    }\n}\n",
  "sourcePath": "/home/vyper/Downloads/Work Projects/avengers/kalancer-action/contracts/test/PCToken.sol",
  "compiler": {
    "name": "solc",
    "version": "0.6.12+commit.27d51765.Emscripten.clang"
  },
  "schemaVersion": "3.3.4",
  "updatedAt": "2021-03-26T12:33:52.956Z",
  "devdoc": {
    "author": "Kalancer Labs",
    "kind": "dev",
    "methods": {
      "allowance(address,address)": {
        "params": {
          "owner": "- owner of the tokens",
          "spender": "- entity allowed to spend the tokens"
        },
        "returns": {
          "_0": "uint - remaining amount spender is allowed to transfer"
        }
      },
      "approve(address,uint256)": {
        "details": "emits an Approval event",
        "params": {
          "amount": "- number of tokens being approved",
          "spender": "- entity the owner (sender) is approving to spend his tokens"
        },
        "returns": {
          "_0": "bool - result of the approval (will always be true if it doesn't revert)"
        }
      },
      "balanceOf(address)": {
        "params": {
          "account": "- address we're checking the balance of"
        },
        "returns": {
          "_0": "uint - token balance in the account"
        }
      },
      "constructor": {
        "params": {
          "tokenSymbol": "- the token symbol"
        }
      },
      "decimals()": {
        "details": "Returns the number of decimals used to get its user representation. For example, if `decimals` equals `2`, a balance of `505` tokens should be displayed to a user as `5,05` (`505 / 10 ** 2`). Tokens usually opt for a value of 18, imitating the relationship between Ether and Wei. This is the value {ERC20} uses, unless {_setupDecimals} is called. NOTE: This information is only used for _display_ purposes: it in no way affects any of the arithmetic of the contract, including {IERC20-balanceOf} and {IERC20-transfer}."
      },
      "decreaseApproval(address,uint256)": {
        "details": "emits an Approval eventIf you try to decrease it below the current limit, it's just set to zero (not an error)",
        "params": {
          "amount": "- number of tokens being approved",
          "spender": "- entity the owner (sender) is approving to spend his tokens"
        },
        "returns": {
          "_0": "bool - result of the approval (will always be true if it doesn't revert)"
        }
      },
      "increaseApproval(address,uint256)": {
        "details": "emits an Approval event",
        "params": {
          "amount": "- number of tokens being approved",
          "spender": "- entity the owner (sender) is approving to spend his tokens"
        },
        "returns": {
          "_0": "bool - result of the approval (will always be true if it doesn't revert)"
        }
      },
      "name()": {
        "details": "Returns the name of the token.      We allow the user to set this name (as well as the symbol).      Alternatives are 1) A fixed string (original design)                       2) A fixed string plus the user-defined symbol                          return string(abi.encodePacked(NAME, \"-\", _symbol));"
      },
      "symbol()": {
        "details": "Returns the symbol of the token, usually a shorter version of the name."
      },
      "totalSupply()": {
        "details": "declared external for gas optimization",
        "returns": {
          "_0": "uint - total number of tokens in existence"
        }
      },
      "transfer(address,uint256)": {
        "details": "_move emits a Transfer event if successful",
        "params": {
          "amount": "- number of tokens being transferred",
          "recipient": "- entity receiving the tokens"
        },
        "returns": {
          "_0": "bool - result of the transfer (will always be true if it doesn't revert)"
        }
      },
      "transferFrom(address,address,uint256)": {
        "details": "_move emits a Transfer event if successful; may also emit an Approval event",
        "params": {
          "amount": "- number of tokens being transferred",
          "recipient": "- recipient of the tokens",
          "sender": "- entity sending the tokens (must be caller or allowed to spend on behalf of caller)"
        },
        "returns": {
          "_0": "bool - result of the transfer (will always be true if it doesn't revert)"
        }
      }
    },
    "title": "Highly opinionated token implementation",
    "version": 1
  },
  "userdoc": {
    "kind": "user",
    "methods": {
      "allowance(address,address)": {
        "notice": "Getter for allowance: amount spender will be allowed to spend on behalf of owner"
      },
      "approve(address,uint256)": {
        "notice": "Approve owner (sender) to spend a certain amount"
      },
      "balanceOf(address)": {
        "notice": "Getter for current account balance"
      },
      "constructor": "Base token constructor",
      "decreaseApproval(address,uint256)": {
        "notice": "Decrease the amount the spender is allowed to spend on behalf of the owner (sender)"
      },
      "increaseApproval(address,uint256)": {
        "notice": "Increase the amount the spender is allowed to spend on behalf of the owner (sender)"
      },
      "totalSupply()": {
        "notice": "Getter for the total supply"
      },
      "transfer(address,uint256)": {
        "notice": "Transfer the given amount from sender (caller) to recipient"
      },
      "transferFrom(address,address,uint256)": {
        "notice": "Transfer the given amount from sender to recipient"
      }
    },
    "version": 1
  }
}