{
  "contractName": "SmartPoolManager",
  "abi": [
    {
      "inputs": [
        {
          "internalType": "contract ConfigurableRightsPool",
          "name": "self",
          "type": "ConfigurableRightsPool"
        },
        {
          "internalType": "contract IKPool",
          "name": "KPool",
          "type": "IKPool"
        },
        {
          "internalType": "uint256",
          "name": "poolAmountOut",
          "type": "uint256"
        },
        {
          "internalType": "uint256[]",
          "name": "maxAmountsIn",
          "type": "uint256[]"
        }
      ],
      "name": "joinPool",
      "outputs": [
        {
          "internalType": "uint256[]",
          "name": "actualAmountsIn",
          "type": "uint256[]"
        }
      ],
      "stateMutability": "view",
      "type": "function"
    },
    {
      "inputs": [
        {
          "internalType": "contract ConfigurableRightsPool",
          "name": "self",
          "type": "ConfigurableRightsPool"
        },
        {
          "internalType": "contract IKPool",
          "name": "KPool",
          "type": "IKPool"
        },
        {
          "internalType": "uint256",
          "name": "poolAmountIn",
          "type": "uint256"
        },
        {
          "internalType": "uint256[]",
          "name": "minAmountsOut",
          "type": "uint256[]"
        }
      ],
      "name": "exitPool",
      "outputs": [
        {
          "internalType": "uint256",
          "name": "exitFee",
          "type": "uint256"
        },
        {
          "internalType": "uint256",
          "name": "pAiAfterExitFee",
          "type": "uint256"
        },
        {
          "internalType": "uint256[]",
          "name": "actualAmountsOut",
          "type": "uint256[]"
        }
      ],
      "stateMutability": "view",
      "type": "function"
    },
    {
      "inputs": [
        {
          "internalType": "contract ConfigurableRightsPool",
          "name": "self",
          "type": "ConfigurableRightsPool"
        },
        {
          "internalType": "contract IKPool",
          "name": "KPool",
          "type": "IKPool"
        },
        {
          "internalType": "address",
          "name": "tokenIn",
          "type": "address"
        },
        {
          "internalType": "uint256",
          "name": "tokenAmountIn",
          "type": "uint256"
        },
        {
          "internalType": "uint256",
          "name": "minPoolAmountOut",
          "type": "uint256"
        }
      ],
      "name": "joinswapExternAmountIn",
      "outputs": [
        {
          "internalType": "uint256",
          "name": "poolAmountOut",
          "type": "uint256"
        }
      ],
      "stateMutability": "view",
      "type": "function"
    },
    {
      "inputs": [
        {
          "internalType": "contract ConfigurableRightsPool",
          "name": "self",
          "type": "ConfigurableRightsPool"
        },
        {
          "internalType": "contract IKPool",
          "name": "KPool",
          "type": "IKPool"
        },
        {
          "internalType": "address",
          "name": "tokenIn",
          "type": "address"
        },
        {
          "internalType": "uint256",
          "name": "poolAmountOut",
          "type": "uint256"
        },
        {
          "internalType": "uint256",
          "name": "maxAmountIn",
          "type": "uint256"
        }
      ],
      "name": "joinswapPoolAmountOut",
      "outputs": [
        {
          "internalType": "uint256",
          "name": "tokenAmountIn",
          "type": "uint256"
        }
      ],
      "stateMutability": "view",
      "type": "function"
    },
    {
      "inputs": [
        {
          "internalType": "contract ConfigurableRightsPool",
          "name": "self",
          "type": "ConfigurableRightsPool"
        },
        {
          "internalType": "contract IKPool",
          "name": "KPool",
          "type": "IKPool"
        },
        {
          "internalType": "address",
          "name": "tokenOut",
          "type": "address"
        },
        {
          "internalType": "uint256",
          "name": "poolAmountIn",
          "type": "uint256"
        },
        {
          "internalType": "uint256",
          "name": "minAmountOut",
          "type": "uint256"
        }
      ],
      "name": "exitswapPoolAmountIn",
      "outputs": [
        {
          "internalType": "uint256",
          "name": "exitFee",
          "type": "uint256"
        },
        {
          "internalType": "uint256",
          "name": "tokenAmountOut",
          "type": "uint256"
        }
      ],
      "stateMutability": "view",
      "type": "function"
    },
    {
      "inputs": [
        {
          "internalType": "contract ConfigurableRightsPool",
          "name": "self",
          "type": "ConfigurableRightsPool"
        },
        {
          "internalType": "contract IKPool",
          "name": "KPool",
          "type": "IKPool"
        },
        {
          "internalType": "address",
          "name": "tokenOut",
          "type": "address"
        },
        {
          "internalType": "uint256",
          "name": "tokenAmountOut",
          "type": "uint256"
        },
        {
          "internalType": "uint256",
          "name": "maxPoolAmountIn",
          "type": "uint256"
        }
      ],
      "name": "exitswapExternAmountOut",
      "outputs": [
        {
          "internalType": "uint256",
          "name": "exitFee",
          "type": "uint256"
        },
        {
          "internalType": "uint256",
          "name": "poolAmountIn",
          "type": "uint256"
        }
      ],
      "stateMutability": "view",
      "type": "function"
    }
  ],
  "bytecode": "0x613f74610026600b82828239805160001a60731461001957fe5b30600052607381538281f3fe73000000000000000000000000000000000000000030146080604052600436106100f45760003560e01c806377d4434911610096578063a585f0fe11610070578063a585f0fe14610245578063a7769f3614610258578063d971f17514610278578063f0a3daf11461029a576100f4565b806377d44349146101e557806395a82a1114610205578063a39a15a614610225576100f4565b806334465a2a116100d257806334465a2a146101645780635455978a146101845780635e9e8d47146101a557806362c4ee46146101c5576100f4565b80630f5b78d8146100f95780631c1af1361461011b57806331d541051461013b575b600080fd5b81801561010557600080fd5b50610119610114366004613640565b6102ad565b005b81801561012757600080fd5b506101196101363660046134fd565b610754565b61014e6101493660046136da565b610760565b60405161015b9190613ea4565b60405180910390f35b81801561017057600080fd5b5061011961017f36600461368a565b610bb5565b6101976101923660046136da565b61126e565b60405161015b929190613ead565b8180156101b157600080fd5b506101196101c03660046137ea565b6116b4565b8180156101d157600080fd5b506101196101e036600461383a565b6118ad565b8180156101f157600080fd5b50610119610200366004613535565b611c2f565b81801561021157600080fd5b50610119610220366004613865565b611c70565b610238610233366004613734565b611f69565b60405161015b91906139b8565b61014e6102533660046136da565b612224565b81801561026457600080fd5b506101196102733660046137a5565b6125f5565b61028b610286366004613734565b612967565b60405161015b93929190613ebb565b6101976102a83660046136da565b612c40565b6000836001600160a01b03166318160ddd6040518163ffffffff1660e01b815260040160206040518083038186803b1580156102e857600080fd5b505afa1580156102fc573d6000803e3d6000fd5b505050506040513d601f19601f8201168201806040525081019061032091906138da565b905060006104226103ac83866001600160a01b031663948d8ce6876040518263ffffffff1660e01b8152600401610357919061392c565b60206040518083038186803b15801561036f57600080fd5b505afa158015610383573d6000803e3d6000fd5b505050506040513d601f19601f820116820180604052508101906103a791906138da565b613035565b856001600160a01b031663936c34776040518163ffffffff1660e01b815260040160206040518083038186803b1580156103e557600080fd5b505afa1580156103f9573d6000803e3d6000fd5b505050506040513d601f19601f8201168201806040525081019061041d91906138da565b6130b4565b90506000846001600160a01b031663f8b2cb4f856040518263ffffffff1660e01b8152600401610452919061392c565b60206040518083038186803b15801561046a57600080fd5b505afa15801561047e573d6000803e3d6000fd5b505050506040513d601f19601f820116820180604052508101906104a291906138da565b60405163cf5e7bd360e01b81529091506001600160a01b0386169063cf5e7bd3906104d190879060040161392c565b600060405180830381600087803b1580156104eb57600080fd5b505af11580156104ff573d6000803e3d6000fd5b505050506000846001600160a01b031663a9059cbb886001600160a01b0316633018205f6040518163ffffffff1660e01b815260040160206040518083038186803b15801561054d57600080fd5b505afa158015610561573d6000803e3d6000fd5b505050506040513d601f19601f820116820180604052508101906105859190613519565b846040518363ffffffff1660e01b81526004016105a3929190613964565b602060405180830381600087803b1580156105bd57600080fd5b505af11580156105d1573d6000803e3d6000fd5b505050506040513d601f19601f820116820180604052508101906105f59190613620565b90508061061d5760405162461bcd60e51b815260040161061490613e26565b60405180910390fd5b866001600160a01b03166355c32a23886001600160a01b0316633018205f6040518163ffffffff1660e01b815260040160206040518083038186803b15801561066557600080fd5b505afa158015610679573d6000803e3d6000fd5b505050506040513d601f19601f8201168201806040525081019061069d9190613519565b856040518363ffffffff1660e01b81526004016106bb929190613964565b600060405180830381600087803b1580156106d557600080fd5b505af11580156106e9573d6000803e3d6000fd5b505060405163011075bb60e51b81526001600160a01b038a16925063220eb7609150610719908690600401613ea4565b600060405180830381600087803b15801561073357600080fd5b505af1158015610747573d6000803e3d6000fd5b5050505050505050505050565b61075d81613145565b50565b604051630bcded8960e21b81526000906001600160a01b03861690632f37b6249061078f90879060040161392c565b60206040518083038186803b1580156107a757600080fd5b505afa1580156107bb573d6000803e3d6000fd5b505050506040513d601f19601f820116820180604052508101906107df9190613620565b6107fb5760405162461bcd60e51b815260040161061490613cbc565b60405163f8b2cb4f60e01b81526001600160a01b03861690635c1bbaf790829063f8b2cb4f9061082f90899060040161392c565b60206040518083038186803b15801561084757600080fd5b505afa15801561085b573d6000803e3d6000fd5b505050506040513d601f19601f8201168201806040525081019061087f91906138da565b604051634a46c67360e11b81526001600160a01b0389169063948d8ce6906108ab908a9060040161392c565b60206040518083038186803b1580156108c357600080fd5b505afa1580156108d7573d6000803e3d6000fd5b505050506040513d601f19601f820116820180604052508101906108fb91906138da565b896001600160a01b03166318160ddd6040518163ffffffff1660e01b815260040160206040518083038186803b15801561093457600080fd5b505afa158015610948573d6000803e3d6000fd5b505050506040513d601f19601f8201168201806040525081019061096c91906138da565b896001600160a01b031663936c34776040518163ffffffff1660e01b815260040160206040518083038186803b1580156109a557600080fd5b505afa1580156109b9573d6000803e3d6000fd5b505050506040513d601f19601f820116820180604052508101906109dd91906138da565b888b6001600160a01b031663d4cadf686040518163ffffffff1660e01b815260040160206040518083038186803b158015610a1757600080fd5b505afa158015610a2b573d6000803e3d6000fd5b505050506040513d601f19601f82011682018060405250810190610a4f91906138da565b6040518763ffffffff1660e01b8152600401610a7096959493929190613eda565b60206040518083038186803b158015610a8857600080fd5b505afa158015610a9c573d6000803e3d6000fd5b505050506040513d601f19601f82011682018060405250810190610ac091906138da565b905080610adf5760405162461bcd60e51b815260040161061490613aeb565b81811115610aff5760405162461bcd60e51b815260040161061490613c3d565b60405163f8b2cb4f60e01b8152610b8d906001600160a01b0387169063f8b2cb4f90610b2f90889060040161392c565b60206040518083038186803b158015610b4757600080fd5b505afa158015610b5b573d6000803e3d6000fd5b505050506040513d601f19601f82011682018060405250810190610b7f91906138da565b6706f05b59d3b20000613035565b811115610bac5760405162461bcd60e51b815260040161061490613ac1565b95945050505050565b670de0b6b3a7640000811015610bdd5760405162461bcd60e51b815260040161061490613ce3565b6802b5e3af16b1880000811115610c065760405162461bcd60e51b815260040161061490613b14565b604051634a46c67360e11b81526000906001600160a01b0385169063948d8ce690610c3590869060040161392c565b60206040518083038186803b158015610c4d57600080fd5b505afa158015610c61573d6000803e3d6000fd5b505050506040513d601f19601f82011682018060405250810190610c8591906138da565b905081811415610c955750611268565b60405163f8b2cb4f60e01b81526000906001600160a01b0386169063f8b2cb4f90610cc490879060040161392c565b60206040518083038186803b158015610cdc57600080fd5b505afa158015610cf0573d6000803e3d6000fd5b505050506040513d601f19601f82011682018060405250810190610d1491906138da565b90506000866001600160a01b03166318160ddd6040518163ffffffff1660e01b815260040160206040518083038186803b158015610d5157600080fd5b505afa158015610d65573d6000803e3d6000fd5b505050506040513d601f19601f82011682018060405250810190610d8991906138da565b90506000866001600160a01b031663936c34776040518163ffffffff1660e01b815260040160206040518083038186803b158015610dc657600080fd5b505afa158015610dda573d6000803e3d6000fd5b505050506040513d601f19601f82011682018060405250810190610dfe91906138da565b90506000806000808789101561103357610e18888a6131e7565b9150610e28866103a784886130b4565b9350610e38876103a7848b6130b4565b9250610e4487846131e7565b905064e8d4a51000811015610e6b5760405162461bcd60e51b815260040161061490613bbf565b604051631feeed5160e11b81526001600160a01b038c1690633fdddaa290610e9b908d9085908e90600401613997565b600060405180830381600087803b158015610eb557600080fd5b505af1158015610ec9573d6000803e3d6000fd5b505060405163a9059cbb60e01b8152600092506001600160a01b038d16915063a9059cbb90610efe9033908890600401613964565b602060405180830381600087803b158015610f1857600080fd5b505af1158015610f2c573d6000803e3d6000fd5b505050506040513d601f19601f82011682018060405250810190610f509190613620565b905080610f6f5760405162461bcd60e51b815260040161061490613e26565b6040516355c32a2360e01b81526001600160a01b038e16906355c32a2390610f9d9033908990600401613964565b600060405180830381600087803b158015610fb757600080fd5b505af1158015610fcb573d6000803e3d6000fd5b505050508c6001600160a01b031663220eb760866040518263ffffffff1660e01b8152600401610ffb9190613ea4565b600060405180830381600087803b15801561101557600080fd5b505af1158015611029573d6000803e3d6000fd5b505050505061125f565b61103d89896131e7565b91506802b5e3af16b18800006110538684613220565b11156110715760405162461bcd60e51b815260040161061490613b3c565b61107f866103a784886130b4565b935061108f876103a7848b6130b4565b925060008a6001600160a01b03166323b872dd3330876040518463ffffffff1660e01b81526004016110c393929190613940565b602060405180830381600087803b1580156110dd57600080fd5b505af11580156110f1573d6000803e3d6000fd5b505050506040513d601f19601f820116820180604052508101906111159190613620565b9050806111345760405162461bcd60e51b815260040161061490613e26565b8b6001600160a01b0316633fdddaa28c61114e8b88613220565b8d6040518463ffffffff1660e01b815260040161116d93929190613997565b600060405180830381600087803b15801561118757600080fd5b505af115801561119b573d6000803e3d6000fd5b505050508c6001600160a01b0316634ba57882866040518263ffffffff1660e01b81526004016111cb9190613ea4565b600060405180830381600087803b1580156111e557600080fd5b505af11580156111f9573d6000803e3d6000fd5b505050508c6001600160a01b031663095dcccc33876040518363ffffffff1660e01b815260040161122b929190613964565b600060405180830381600087803b15801561124557600080fd5b505af1158015611259573d6000803e3d6000fd5b50505050505b50505050505050505b50505050565b600080856001600160a01b0316632f37b624866040518263ffffffff1660e01b815260040161129d919061392c565b60206040518083038186803b1580156112b557600080fd5b505afa1580156112c9573d6000803e3d6000fd5b505050506040513d601f19601f820116820180604052508101906112ed9190613620565b6113095760405162461bcd60e51b815260040161061490613cbc565b60405163f8b2cb4f60e01b81526001600160a01b03871690638929801290829063f8b2cb4f9061133d908a9060040161392c565b60206040518083038186803b15801561135557600080fd5b505afa158015611369573d6000803e3d6000fd5b505050506040513d601f19601f8201168201806040525081019061138d91906138da565b604051634a46c67360e11b81526001600160a01b038a169063948d8ce6906113b9908b9060040161392c565b60206040518083038186803b1580156113d157600080fd5b505afa1580156113e5573d6000803e3d6000fd5b505050506040513d601f19601f8201168201806040525081019061140991906138da565b8a6001600160a01b03166318160ddd6040518163ffffffff1660e01b815260040160206040518083038186803b15801561144257600080fd5b505afa158015611456573d6000803e3d6000fd5b505050506040513d601f19601f8201168201806040525081019061147a91906138da565b8a6001600160a01b031663936c34776040518163ffffffff1660e01b815260040160206040518083038186803b1580156114b357600080fd5b505afa1580156114c7573d6000803e3d6000fd5b505050506040513d601f19601f820116820180604052508101906114eb91906138da565b898c6001600160a01b031663d4cadf686040518163ffffffff1660e01b815260040160206040518083038186803b15801561152557600080fd5b505afa158015611539573d6000803e3d6000fd5b505050506040513d601f19601f8201168201806040525081019061155d91906138da565b6040518763ffffffff1660e01b815260040161157e96959493929190613eda565b60206040518083038186803b15801561159657600080fd5b505afa1580156115aa573d6000803e3d6000fd5b505050506040513d601f19601f820116820180604052508101906115ce91906138da565b9050828110156115f05760405162461bcd60e51b815260040161061490613b98565b60405163f8b2cb4f60e01b815261167e906001600160a01b0388169063f8b2cb4f9061162090899060040161392c565b60206040518083038186803b15801561163857600080fd5b505afa15801561164c573d6000803e3d6000fd5b505050506040513d601f19601f8201168201806040525081019061167091906138da565b6704a03ce68d215556613035565b81111561169d5760405162461bcd60e51b815260040161061490613c91565b6116a8846000613035565b91509550959350505050565b604051630bcded8960e21b81526001600160a01b03861690632f37b624906116e090879060040161392c565b60206040518083038186803b1580156116f857600080fd5b505afa15801561170c573d6000803e3d6000fd5b505050506040513d601f19601f820116820180604052508101906117309190613620565b1561174d5760405162461bcd60e51b815260040161061490613a9b565b6802b5e3af16b18800008211156117765760405162461bcd60e51b815260040161061490613d0b565b670de0b6b3a764000082101561179e5760405162461bcd60e51b815260040161061490613c63565b670de0b6b3a7640000603202611824866001600160a01b031663936c34776040518163ffffffff1660e01b815260040160206040518083038186803b1580156117e657600080fd5b505afa1580156117fa573d6000803e3d6000fd5b505050506040513d601f19601f8201168201806040525081019061181e91906138da565b84613220565b11156118425760405162461bcd60e51b815260040161061490613b3c565b64e8d4a510008310156118675760405162461bcd60e51b815260040161061490613df7565b805460038201939093556002810191909155436001820155600160a01b6001600160a01b03199092166001600160a01b03939093169290921760ff60a01b191617905550565b80546118b857611c2b565b80544310156118d95760405162461bcd60e51b815260040161061490613be8565b600081600101544311156118f2575060018101546118f5565b50435b6000611909836001015484600001546131e7565b9050600061191b8385600001546131e7565b905060008060006060886001600160a01b031663cc77828d6040518163ffffffff1660e01b815260040160006040518083038186803b15801561195d57600080fd5b505afa158015611971573d6000803e3d6000fd5b505050506040513d6000823e601f3d908101601f191682016040526119999190810190613575565b905060005b8151811015611c12578860030181815481106119b657fe5b90600052602060002001548960020182815481106119d057fe5b906000526020600020015414611c0a578860020181815481106119ef57fe5b9060005260206000200154896003018281548110611a0957fe5b90600052602060002001541015611a9757611a56896002018281548110611a2c57fe5b90600052602060002001548a6003018381548110611a4657fe5b90600052602060002001546131e7565b9450611a6285886130b4565b9350611a90896002018281548110611a7657fe5b9060005260206000200154611a8b8887613035565b6131e7565b9250611b00565b611ac3896003018281548110611aa957fe5b90600052602060002001548a6002018381548110611a4657fe5b9450611acf85886130b4565b9350611afd896002018281548110611ae357fe5b9060005260206000200154611af88887613035565b613220565b92505b60008a6001600160a01b031663f8b2cb4f848481518110611b1d57fe5b60200260200101516040518263ffffffff1660e01b8152600401611b41919061392c565b60206040518083038186803b158015611b5957600080fd5b505afa158015611b6d573d6000803e3d6000fd5b505050506040513d601f19601f82011682018060405250810190611b9191906138da565b90508a6001600160a01b0316633fdddaa2848481518110611bae57fe5b602002602001015183876040518463ffffffff1660e01b8152600401611bd693929190613997565b600060405180830381600087803b158015611bf057600080fd5b505af1158015611c04573d6000803e3d6000fd5b50505050505b60010161199e565b5087600101544310611c2357600088555b505050505050505b5050565b60005b81811015611c6b57611c63838383818110611c4957fe5b9050602002016020810190611c5e91906134fd565b613145565b600101611c32565b505050565b80611c7b83856131e7565b1015611c995760405162461bcd60e51b815260040161061490613a2f565b814310611cb85760405162461bcd60e51b8152600401610614906139f8565b6060876001600160a01b031663cc77828d6040518163ffffffff1660e01b815260040160006040518083038186803b158015611cf357600080fd5b505afa158015611d07573d6000803e3d6000fd5b505050506040513d6000823e601f3d908101601f19168201604052611d2f9190810190613575565b80519091508514611d525760405162461bcd60e51b815260040161061490613a64565b6000815167ffffffffffffffff81118015611d6c57600080fd5b50604051908082528060200260200182016040528015611d96578160200160208202803683370190505b508051611dad9160028b0191602090910190613415565b5060005b8251811015611eff576802b5e3af16b1880000888883818110611dd057fe5b905060200201351115611df55760405162461bcd60e51b815260040161061490613d0b565b670de0b6b3a7640000888883818110611e0a57fe5b905060200201351015611e2f5760405162461bcd60e51b815260040161061490613c63565b611e4b82898984818110611e3f57fe5b90506020020135613220565b9150896001600160a01b031663948d8ce6848381518110611e6857fe5b60200260200101516040518263ffffffff1660e01b8152600401611e8c919061392c565b60206040518083038186803b158015611ea457600080fd5b505afa158015611eb8573d6000803e3d6000fd5b505050506040513d601f19601f82011682018060405250810190611edc91906138da565b896002018281548110611eeb57fe5b600091825260209091200155600101611db1565b506802b5e3af16b1880000811115611f295760405162461bcd60e51b815260040161061490613b3c565b8443118015611f3757508343105b15611f4457438855611f48565b8488555b60018801849055611f5d600389018888613460565b50505050505050505050565b606080856001600160a01b031663cc77828d6040518163ffffffff1660e01b815260040160006040518083038186803b158015611fa557600080fd5b505afa158015611fb9573d6000803e3d6000fd5b505050506040513d6000823e601f3d908101601f19168201604052611fe19190810190613575565b805190915083146120045760405162461bcd60e51b815260040161061490613b6a565b6000876001600160a01b03166318160ddd6040518163ffffffff1660e01b815260040160206040518083038186803b15801561203f57600080fd5b505afa158015612053573d6000803e3d6000fd5b505050506040513d601f19601f8201168201806040525081019061207791906138da565b9050600061208a8761041d8460016131e7565b9050806120a95760405162461bcd60e51b815260040161061490613aeb565b825167ffffffffffffffff811180156120c157600080fd5b506040519080825280602002602001820160405280156120eb578160200160208202803683370190505b50935060005b835181101561221757600084828151811061210857fe5b6020026020010151905060008a6001600160a01b031663f8b2cb4f836040518263ffffffff1660e01b8152600401612140919061392c565b60206040518083038186803b15801561215857600080fd5b505afa15801561216c573d6000803e3d6000fd5b505050506040513d601f19601f8201168201806040525081019061219091906138da565b905060006121a3856103a7846001613220565b9050806121c25760405162461bcd60e51b815260040161061490613aeb565b8989858181106121ce57fe5b905060200201358111156121f45760405162461bcd60e51b815260040161061490613c3d565b8088858151811061220157fe5b60209081029190910101525050506001016120f1565b5050505095945050505050565b604051630bcded8960e21b81526000906001600160a01b03861690632f37b6249061225390879060040161392c565b60206040518083038186803b15801561226b57600080fd5b505afa15801561227f573d6000803e3d6000fd5b505050506040513d601f19601f820116820180604052508101906122a39190613620565b6122bf5760405162461bcd60e51b815260040161061490613cbc565b60405163f8b2cb4f60e01b81526122ef906001600160a01b0387169063f8b2cb4f90610b2f90889060040161392c565b83111561230e5760405162461bcd60e51b815260040161061490613ac1565b60405163f8b2cb4f60e01b81526001600160a01b03861690638656b65390829063f8b2cb4f9061234290899060040161392c565b60206040518083038186803b15801561235a57600080fd5b505afa15801561236e573d6000803e3d6000fd5b505050506040513d601f19601f8201168201806040525081019061239291906138da565b604051634a46c67360e11b81526001600160a01b0389169063948d8ce6906123be908a9060040161392c565b60206040518083038186803b1580156123d657600080fd5b505afa1580156123ea573d6000803e3d6000fd5b505050506040513d601f19601f8201168201806040525081019061240e91906138da565b896001600160a01b03166318160ddd6040518163ffffffff1660e01b815260040160206040518083038186803b15801561244757600080fd5b505afa15801561245b573d6000803e3d6000fd5b505050506040513d601f19601f8201168201806040525081019061247f91906138da565b896001600160a01b031663936c34776040518163ffffffff1660e01b815260040160206040518083038186803b1580156124b857600080fd5b505afa1580156124cc573d6000803e3d6000fd5b505050506040513d601f19601f820116820180604052508101906124f091906138da565b888b6001600160a01b031663d4cadf686040518163ffffffff1660e01b815260040160206040518083038186803b15801561252a57600080fd5b505afa15801561253e573d6000803e3d6000fd5b505050506040513d601f19601f8201168201806040525081019061256291906138da565b6040518763ffffffff1660e01b815260040161258396959493929190613eda565b60206040518083038186803b15801561259b57600080fd5b505afa1580156125af573d6000803e3d6000fd5b505050506040513d601f19601f820116820180604052508101906125d391906138da565b905081811015610bac5760405162461bcd60e51b815260040161061490613b98565b8054600160a01b900460ff1661261d5760405162461bcd60e51b8152600401610614906139cb565b8161262c4383600101546131e7565b101561264a5760405162461bcd60e51b815260040161061490613d39565b6000846001600160a01b03166318160ddd6040518163ffffffff1660e01b815260040160206040518083038186803b15801561268557600080fd5b505afa158015612699573d6000803e3d6000fd5b505050506040513d601f19601f820116820180604052508101906126bd91906138da565b9050600061270b6126d2838560020154613035565b866001600160a01b031663936c34776040518163ffffffff1660e01b815260040160206040518083038186803b1580156103e557600080fd5b835460ff60a01b198116855560408051633018205f60e01b815290519293506000926001600160a01b03928316926323b872dd92908b1691633018205f91600480820192602092909190829003018186803b15801561276957600080fd5b505afa15801561277d573d6000803e3d6000fd5b505050506040513d601f19601f820116820180604052508101906127a19190613519565b8987600301546040518463ffffffff1660e01b81526004016127c593929190613940565b602060405180830381600087803b1580156127df57600080fd5b505af11580156127f3573d6000803e3d6000fd5b505050506040513d601f19601f820116820180604052508101906128179190613620565b9050806128365760405162461bcd60e51b815260040161061490613e26565b835461284e906001600160a01b03168760001961324c565b90508061286d5760405162461bcd60e51b815260040161061490613e26565b835460038501546002860154604051631c9c3ca760e31b81526001600160a01b03808b169463e4e1e538946128a9949190921692600401613997565b600060405180830381600087803b1580156128c357600080fd5b505af11580156128d7573d6000803e3d6000fd5b50506040516325d2bc4160e11b81526001600160a01b038a169250634ba578829150612907908590600401613ea4565b600060405180830381600087803b15801561292157600080fd5b505af1158015612935573d6000803e3d6000fd5b5050604051630257733360e21b81526001600160a01b038a16925063095dcccc91506107199033908690600401613964565b600080606080876001600160a01b031663cc77828d6040518163ffffffff1660e01b815260040160006040518083038186803b1580156129a657600080fd5b505afa1580156129ba573d6000803e3d6000fd5b505050506040513d6000823e601f3d908101601f191682016040526129e29190810190613575565b80519091508514612a055760405162461bcd60e51b815260040161061490613b6a565b6000896001600160a01b03166318160ddd6040518163ffffffff1660e01b815260040160206040518083038186803b158015612a4057600080fd5b505afa158015612a54573d6000803e3d6000fd5b505050506040513d601f19601f82011682018060405250810190612a7891906138da565b9050612a85886000613035565b9450612a9188866131e7565b93506000612aa48561041d846001613220565b905080612ac35760405162461bcd60e51b815260040161061490613aeb565b825167ffffffffffffffff81118015612adb57600080fd5b50604051908082528060200260200182016040528015612b05578160200160208202803683370190505b50935060005b8351811015612c31576000848281518110612b2257fe5b6020026020010151905060008c6001600160a01b031663f8b2cb4f836040518263ffffffff1660e01b8152600401612b5a919061392c565b60206040518083038186803b158015612b7257600080fd5b505afa158015612b86573d6000803e3d6000fd5b505050506040513d601f19601f82011682018060405250810190612baa91906138da565b90506000612bbd856103a78460016131e7565b905080612bdc5760405162461bcd60e51b815260040161061490613aeb565b8b8b85818110612be857fe5b90506020020135811015612c0e5760405162461bcd60e51b815260040161061490613b98565b80888581518110612c1b57fe5b6020908102919091010152505050600101612b0b565b50505050955095509592505050565b600080856001600160a01b0316632f37b624866040518263ffffffff1660e01b8152600401612c6f919061392c565b60206040518083038186803b158015612c8757600080fd5b505afa158015612c9b573d6000803e3d6000fd5b505050506040513d601f19601f82011682018060405250810190612cbf9190613620565b612cdb5760405162461bcd60e51b815260040161061490613cbc565b60405163f8b2cb4f60e01b8152612d0b906001600160a01b0388169063f8b2cb4f9061162090899060040161392c565b841115612d2a5760405162461bcd60e51b815260040161061490613c91565b60405163f8b2cb4f60e01b81526001600160a01b038716906382f652ad90829063f8b2cb4f90612d5e908a9060040161392c565b60206040518083038186803b158015612d7657600080fd5b505afa158015612d8a573d6000803e3d6000fd5b505050506040513d601f19601f82011682018060405250810190612dae91906138da565b604051634a46c67360e11b81526001600160a01b038a169063948d8ce690612dda908b9060040161392c565b60206040518083038186803b158015612df257600080fd5b505afa158015612e06573d6000803e3d6000fd5b505050506040513d601f19601f82011682018060405250810190612e2a91906138da565b8a6001600160a01b03166318160ddd6040518163ffffffff1660e01b815260040160206040518083038186803b158015612e6357600080fd5b505afa158015612e77573d6000803e3d6000fd5b505050506040513d601f19601f82011682018060405250810190612e9b91906138da565b8a6001600160a01b031663936c34776040518163ffffffff1660e01b815260040160206040518083038186803b158015612ed457600080fd5b505afa158015612ee8573d6000803e3d6000fd5b505050506040513d601f19601f82011682018060405250810190612f0c91906138da565b898c6001600160a01b031663d4cadf686040518163ffffffff1660e01b815260040160206040518083038186803b158015612f4657600080fd5b505afa158015612f5a573d6000803e3d6000fd5b505050506040513d601f19601f82011682018060405250810190612f7e91906138da565b6040518763ffffffff1660e01b8152600401612f9f96959493929190613eda565b60206040518083038186803b158015612fb757600080fd5b505afa158015612fcb573d6000803e3d6000fd5b505050506040513d601f19601f82011682018060405250810190612fef91906138da565b90508061300e5760405162461bcd60e51b815260040161061490613aeb565b8281111561302e5760405162461bcd60e51b815260040161061490613c3d565b6116a88160005b600082613044575060006130ae565b8282028284828161305157fe5b041461306f5760405162461bcd60e51b815260040161061490613d70565b6706f05b59d3b2000081018181101561309a5760405162461bcd60e51b815260040161061490613d70565b6000670de0b6b3a7640000825b0493505050505b92915050565b6000816130d35760405162461bcd60e51b815260040161061490613dd1565b826130e0575060006130ae565b670de0b6b3a7640000838102908482816130f657fe5b04146131145760405162461bcd60e51b815260040161061490613c13565b6002830481018181101561313a5760405162461bcd60e51b815260040161061490613c13565b60008482816130a757fe5b60405163a9059cbb60e01b81526000906001600160a01b0383169063a9059cbb906131769033908590600401613964565b602060405180830381600087803b15801561319057600080fd5b505af11580156131a4573d6000803e3d6000fd5b505050506040513d601f19601f820116820180604052508101906131c89190613620565b905080611c2b5760405162461bcd60e51b815260040161061490613d9a565b60008060006131f685856133f0565b9150915080156132185760405162461bcd60e51b815260040161061490613e4f565b509392505050565b6000828201838110156132455760405162461bcd60e51b815260040161061490613e7a565b9392505050565b600080846001600160a01b031663dd62ed3e30866040518363ffffffff1660e01b815260040161327d92919061397d565b60206040518083038186803b15801561329557600080fd5b505afa1580156132a9573d6000803e3d6000fd5b505050506040513d601f19601f820116820180604052508101906132cd91906138da565b9050828114156132e1576001915050613245565b80156133705760405163095ea7b360e01b81526001600160a01b0386169063095ea7b390613316908790600090600401613964565b602060405180830381600087803b15801561333057600080fd5b505af1158015613344573d6000803e3d6000fd5b505050506040513d601f19601f820116820180604052508101906133689190613620565b915050613245565b60405163095ea7b360e01b81526001600160a01b0386169063095ea7b39061339e9087908790600401613964565b602060405180830381600087803b1580156133b857600080fd5b505af11580156133cc573d6000803e3d6000fd5b505050506040513d601f19601f82011682018060405250810190610bac9190613620565b600080838311613406575050808203600061340e565b505081810360015b9250929050565b828054828255906000526020600020908101928215613450579160200282015b82811115613450578251825591602001919060010190613435565b5061345c92915061349b565b5090565b828054828255906000526020600020908101928215613450579160200282015b82811115613450578235825591602001919060010190613480565b5b8082111561345c576000815560010161349c565b80516130ae81613f29565b60008083601f8401126134cc578182fd5b50813567ffffffffffffffff8111156134e3578182fd5b602083019150836020808302850101111561340e57600080fd5b60006020828403121561350e578081fd5b813561324581613f29565b60006020828403121561352a578081fd5b815161324581613f29565b60008060208385031215613547578081fd5b823567ffffffffffffffff81111561355d578182fd5b613569858286016134bb565b90969095509350505050565b60006020808385031215613587578182fd5b825167ffffffffffffffff8082111561359e578384fd5b818501915085601f8301126135b1578384fd5b8151818111156135bf578485fd5b83810291506135cf848301613f02565b8181528481019084860184860187018a10156135e9578788fd5b8795505b83861015613613576135ff8a826134b0565b8352600195909501949186019186016135ed565b5098975050505050505050565b600060208284031215613631578081fd5b81518015158114613245578182fd5b600080600060608486031215613654578081fd5b833561365f81613f29565b9250602084013561366f81613f29565b9150604084013561367f81613f29565b809150509250925092565b6000806000806080858703121561369f578081fd5b84356136aa81613f29565b935060208501356136ba81613f29565b925060408501356136ca81613f29565b9396929550929360600135925050565b600080600080600060a086880312156136f1578081fd5b85356136fc81613f29565b9450602086013561370c81613f29565b9350604086013561371c81613f29565b94979396509394606081013594506080013592915050565b60008060008060006080868803121561374b578081fd5b853561375681613f29565b9450602086013561376681613f29565b935060408601359250606086013567ffffffffffffffff811115613788578182fd5b613794888289016134bb565b969995985093965092949392505050565b600080600080608085870312156137ba578384fd5b84356137c581613f29565b935060208501356137d581613f29565b93969395505050506040820135916060013590565b600080600080600060a08688031215613801578283fd5b853561380c81613f29565b9450602086013561381c81613f29565b94979496505050506040830135926060810135926080909101359150565b6000806040838503121561384c578182fd5b823561385781613f29565b946020939093013593505050565b600080600080600080600060c0888a03121561387f578485fd5b873561388a81613f29565b965060208801359550604088013567ffffffffffffffff8111156138ac578586fd5b6138b88a828b016134bb565b989b979a50986060810135976080820135975060a09091013595509350505050565b6000602082840312156138eb578081fd5b5051919050565b6000815180845260208085019450808401835b8381101561392157815187529582019590820190600101613905565b509495945050505050565b6001600160a01b0391909116815260200190565b6001600160a01b039384168152919092166020820152604081019190915260600190565b6001600160a01b03929092168252602082015260400190565b6001600160a01b0392831681529116602082015260400190565b6001600160a01b039390931683526020830191909152604082015260600190565b60006020825261324560208301846138f2565b60208082526013908201527211549497d393d7d513d2d15397d0d3d3535255606a1b604082015260600190565b6020808252601e908201527f4552525f4752414455414c5f5550444154455f54494d455f54524156454c0000604082015260600190565b6020808252818101527f4552525f5745494748545f4348414e47455f54494d455f42454c4f575f4d494e604082015260600190565b6020808252601a908201527f4552525f53544152545f574549474854535f4d49534d41544348000000000000604082015260600190565b6020808252600c908201526b11549497d254d7d093d5539160a21b604082015260600190565b60208082526010908201526f4552525f4d41585f494e5f524154494f60801b604082015260600190565b6020808252600f908201526e08aa4a4be9a82a890be82a0a0a49eb608b1b604082015260600190565b6020808252600e908201526d11549497d3505617d5d15251d21560921b604082015260600190565b60208082526014908201527311549497d3505617d513d5105317d5d15251d21560621b604082015260600190565b60208082526014908201527308aa4a4be829a9eaa9ca8a6be9a92a69a82a886960631b604082015260600190565b6020808252600d908201526c11549497d31253525517d3d555609a1b604082015260600190565b6020808252600f908201526e4552525f4d494e5f42414c414e434560881b604082015260600190565b60208082526011908201527011549497d0d0539517d413d2d157d65155607a1b604082015260600190565b60208082526010908201526f11549497d1125597d25395115493905360821b604082015260600190565b6020808252600c908201526b22a9292fa624a6a4aa2fa4a760a11b604082015260600190565b60208082526014908201527322a9292faba2a4a3a42a2fa122a627abafa6a4a760611b604082015260600190565b6020808252601190820152704552525f4d41585f4f55545f524154494f60781b604082015260600190565b6020808252600d908201526c11549497d393d517d093d55391609a1b604082015260600190565b6020808252600e908201526d11549497d3525397d5d15251d21560921b604082015260600190565b60208082526014908201527308aa4a4beae8a928e90a8be82849eac8abe9a82b60631b604082015260600190565b6020808252601b908201527f4552525f54494d454c4f434b5f5354494c4c5f434f554e54494e470000000000604082015260600190565b60208082526010908201526f4552525f4d554c5f4f564552464c4f5760801b604082015260600190565b60208082526017908201527f4552525f4e4f4e434f4e464f524d494e475f544f4b454e000000000000000000604082015260600190565b6020808252600c908201526b4552525f4449565f5a45524f60a01b604082015260600190565b60208082526015908201527422a9292fa120a620a721a2afa122a627abafa6a4a760591b604082015260600190565b6020808252600f908201526e4552525f45524332305f46414c534560881b604082015260600190565b6020808252601190820152704552525f5355425f554e444552464c4f5760781b604082015260600190565b60208082526010908201526f4552525f4144445f4f564552464c4f5760801b604082015260600190565b90815260200190565b918252602082015260400190565b600084825283602083015260606040830152610bac60608301846138f2565b958652602086019490945260408501929092526060840152608083015260a082015260c00190565b60405181810167ffffffffffffffff81118282101715613f2157600080fd5b604052919050565b6001600160a01b038116811461075d57600080fdfea2646970667358221220a01abf416f9b3efefc2f7808444cbb87af8353b4c97ea7e3040e3ca758d0098764736f6c634300060c0033",
  "immutableReferences": {},
  "source": "// SPDX-License-Identifier: GPL-3.0-or-later\npragma solidity 0.6.12;\n\n// Needed to pass in structs\npragma experimental ABIEncoderV2;\n\n// Imports\n\nimport \"./IERC20.sol\";\nimport \"./ConfigurableRightsPool.sol\";\nimport \"./IKFactory.sol\";\nimport \"./KalancerConstants.sol\";\nimport \"./KalancerSafeMath.sol\";\nimport \"./SafeApprove.sol\";\n\n\n/**\n * @author Kalancer Labs\n * @title Factor out the weight updates\n */\nlibrary SmartPoolManager {\n    // Type declarations\n\n    struct NewTokenParams {\n        address addr;\n        bool isCommitted;\n        uint commitBlock;\n        uint denorm;\n        uint balance;\n    }\n\n    // updateWeight and pokeWeights are unavoidably long\n    /* solhint-disable function-max-lines */\n\n    /**\n     * @notice Update the weight of an existing token\n     * @dev Refactored to library to make CRPFactory deployable\n     * @param self - ConfigurableRightsPool instance calling the library\n     * @param KPool - Core KPool the CRP is wrapping\n     * @param token - token to be reweighted\n     * @param newWeight - new weight of the token\n    */\n    function updateWeight(\n        ConfigurableRightsPool self,\n        IKPool KPool,\n        address token,\n        uint newWeight\n    )\n        external\n    {\n        require(newWeight >= KalancerConstants.MIN_WEIGHT, \"ERR_MIN_WEIGHT\");\n        require(newWeight <= KalancerConstants.MAX_WEIGHT, \"ERR_MAX_WEIGHT\");\n\n        uint currentWeight = KPool.getDenormalizedWeight(token);\n        // Save gas; return immediately on NOOP\n        if (currentWeight == newWeight) {\n             return;\n        }\n\n        uint currentBalance = KPool.getBalance(token);\n        uint totalSupply = self.totalSupply();\n        uint totalWeight = KPool.getTotalDenormalizedWeight();\n        uint poolShares;\n        uint deltaBalance;\n        uint deltaWeight;\n        uint newBalance;\n\n        if (newWeight < currentWeight) {\n            // This means the controller will withdraw tokens to keep price\n            // So they need to redeem PCTokens\n            deltaWeight = KalancerSafeMath.bsub(currentWeight, newWeight);\n\n            // poolShares = totalSupply * (deltaWeight / totalWeight)\n            poolShares = KalancerSafeMath.bmul(totalSupply,\n                                               KalancerSafeMath.bdiv(deltaWeight, totalWeight));\n\n            // deltaBalance = currentBalance * (deltaWeight / currentWeight)\n            deltaBalance = KalancerSafeMath.bmul(currentBalance,\n                                                 KalancerSafeMath.bdiv(deltaWeight, currentWeight));\n\n            // New balance cannot be lower than MIN_BALANCE\n            newBalance = KalancerSafeMath.bsub(currentBalance, deltaBalance);\n\n            require(newBalance >= KalancerConstants.MIN_BALANCE, \"ERR_MIN_BALANCE\");\n\n            // First get the tokens from this contract (Pool Controller) to msg.sender\n            KPool.rebind(token, newBalance, newWeight);\n\n            // Now with the tokens this contract can send them to msg.sender\n            bool xfer = IERC20(token).transfer(msg.sender, deltaBalance);\n            require(xfer, \"ERR_ERC20_FALSE\");\n\n            self.pullPoolShareFromLib(msg.sender, poolShares);\n            self.burnPoolShareFromLib(poolShares);\n        }\n        else {\n            // This means the controller will deposit tokens to keep the price.\n            // They will be minted and given PCTokens\n            deltaWeight = KalancerSafeMath.bsub(newWeight, currentWeight);\n\n            require(KalancerSafeMath.badd(totalWeight, deltaWeight) <= KalancerConstants.MAX_TOTAL_WEIGHT,\n                    \"ERR_MAX_TOTAL_WEIGHT\");\n\n            // poolShares = totalSupply * (deltaWeight / totalWeight)\n            poolShares = KalancerSafeMath.bmul(totalSupply,\n                                               KalancerSafeMath.bdiv(deltaWeight, totalWeight));\n            // deltaBalance = currentBalance * (deltaWeight / currentWeight)\n            deltaBalance = KalancerSafeMath.bmul(currentBalance,\n                                                 KalancerSafeMath.bdiv(deltaWeight, currentWeight));\n\n            // First gets the tokens from msg.sender to this contract (Pool Controller)\n            bool xfer = IERC20(token).transferFrom(msg.sender, address(this), deltaBalance);\n            require(xfer, \"ERR_ERC20_FALSE\");\n\n            // Now with the tokens this contract can bind them to the pool it controls\n            KPool.rebind(token, KalancerSafeMath.badd(currentBalance, deltaBalance), newWeight);\n\n            self.mintPoolShareFromLib(poolShares);\n            self.pushPoolShareFromLib(msg.sender, poolShares);\n        }\n    }\n\n    /**\n     * @notice External function called to make the contract update weights according to plan\n     * @param KPool - Core KPool the CRP is wrapping\n     * @param gradualUpdate - gradual update parameters from the CRP\n    */\n    function pokeWeights(\n        IKPool KPool,\n        ConfigurableRightsPool.GradualUpdateParams storage gradualUpdate\n    )\n        external\n    {\n        // Do nothing if we call this when there is no update plan\n        if (gradualUpdate.startBlock == 0) {\n            return;\n        }\n\n        // Error to call it before the start of the plan\n        require(block.number >= gradualUpdate.startBlock, \"ERR_CANT_POKE_YET\");\n        // Proposed error message improvement\n        // require(block.number >= startBlock, \"ERR_NO_HOKEY_POKEY\");\n\n        // This allows for pokes after endBlock that get weights to endWeights\n        // Get the current block (or the endBlock, if we're already past the end)\n        uint currentBlock;\n        if (block.number > gradualUpdate.endBlock) {\n            currentBlock = gradualUpdate.endBlock;\n        }\n        else {\n            currentBlock = block.number;\n        }\n\n        uint blockPeriod = KalancerSafeMath.bsub(gradualUpdate.endBlock, gradualUpdate.startBlock);\n        uint blocksElapsed = KalancerSafeMath.bsub(currentBlock, gradualUpdate.startBlock);\n        uint weightDelta;\n        uint deltaPerBlock;\n        uint newWeight;\n\n        address[] memory tokens = KPool.getCurrentTokens();\n\n        // This loop contains external calls\n        // External calls are to math libraries or the underlying pool, so low risk\n        for (uint i = 0; i < tokens.length; i++) {\n            // Make sure it does nothing if the new and old weights are the same (saves gas)\n            // It's a degenerate case if they're *all* the same, but you certainly could have\n            // a plan where you only change some of the weights in the set\n            if (gradualUpdate.startWeights[i] != gradualUpdate.endWeights[i]) {\n                if (gradualUpdate.endWeights[i] < gradualUpdate.startWeights[i]) {\n                    // We are decreasing the weight\n\n                    // First get the total weight delta\n                    weightDelta = KalancerSafeMath.bsub(gradualUpdate.startWeights[i],\n                                                        gradualUpdate.endWeights[i]);\n                    // And the amount it should change per block = total change/number of blocks in the period\n                    deltaPerBlock = KalancerSafeMath.bdiv(weightDelta, blockPeriod);\n                    //deltaPerBlock = bdivx(weightDelta, blockPeriod);\n\n                     // newWeight = startWeight - (blocksElapsed * deltaPerBlock)\n                    newWeight = KalancerSafeMath.bsub(gradualUpdate.startWeights[i],\n                                                      KalancerSafeMath.bmul(blocksElapsed, deltaPerBlock));\n                }\n                else {\n                    // We are increasing the weight\n\n                    // First get the total weight delta\n                    weightDelta = KalancerSafeMath.bsub(gradualUpdate.endWeights[i],\n                                                        gradualUpdate.startWeights[i]);\n                    // And the amount it should change per block = total change/number of blocks in the period\n                    deltaPerBlock = KalancerSafeMath.bdiv(weightDelta, blockPeriod);\n                    //deltaPerBlock = bdivx(weightDelta, blockPeriod);\n\n                     // newWeight = startWeight + (blocksElapsed * deltaPerBlock)\n                    newWeight = KalancerSafeMath.badd(gradualUpdate.startWeights[i],\n                                                      KalancerSafeMath.bmul(blocksElapsed, deltaPerBlock));\n                }\n\n                uint bal = KPool.getBalance(tokens[i]);\n\n                KPool.rebind(tokens[i], bal, newWeight);\n            }\n        }\n\n        // Reset to allow add/remove tokens, or manual weight updates\n        if (block.number >= gradualUpdate.endBlock) {\n            gradualUpdate.startBlock = 0;\n        }\n    }\n\n    /* solhint-enable function-max-lines */\n\n    /**\n     * @notice Schedule (commit) a token to be added; must call applyAddToken after a fixed\n     *         number of blocks to actually add the token\n     * @param KPool - Core KPool the CRP is wrapping\n     * @param token - the token to be added\n     * @param balance - how much to be added\n     * @param denormalizedWeight - the desired token weight\n     * @param newToken - NewTokenParams struct used to hold the token data (in CRP storage)\n     */\n    function commitAddToken(\n        IKPool KPool,\n        address token,\n        uint balance,\n        uint denormalizedWeight,\n        NewTokenParams storage newToken\n    )\n        external\n    {\n        require(!KPool.isBound(token), \"ERR_IS_BOUND\");\n\n        require(denormalizedWeight <= KalancerConstants.MAX_WEIGHT, \"ERR_WEIGHT_ABOVE_MAX\");\n        require(denormalizedWeight >= KalancerConstants.MIN_WEIGHT, \"ERR_WEIGHT_BELOW_MIN\");\n        require(KalancerSafeMath.badd(KPool.getTotalDenormalizedWeight(),\n                                      denormalizedWeight) <= KalancerConstants.MAX_TOTAL_WEIGHT,\n                \"ERR_MAX_TOTAL_WEIGHT\");\n        require(balance >= KalancerConstants.MIN_BALANCE, \"ERR_BALANCE_BELOW_MIN\");\n\n        newToken.addr = token;\n        newToken.balance = balance;\n        newToken.denorm = denormalizedWeight;\n        newToken.commitBlock = block.number;\n        newToken.isCommitted = true;\n    }\n\n    /**\n     * @notice Add the token previously committed (in commitAddToken) to the pool\n     * @param self - ConfigurableRightsPool instance calling the library\n     * @param KPool - Core KPool the CRP is wrapping\n     * @param addTokenTimeLockInBlocks -  Wait time between committing and applying a new token\n     * @param newToken - NewTokenParams struct used to hold the token data (in CRP storage)\n     */\n    function applyAddToken(\n        ConfigurableRightsPool self,\n        IKPool KPool,\n        uint addTokenTimeLockInBlocks,\n        NewTokenParams storage newToken\n    )\n        external\n    {\n        require(newToken.isCommitted, \"ERR_NO_TOKEN_COMMIT\");\n        require(KalancerSafeMath.bsub(block.number, newToken.commitBlock) >= addTokenTimeLockInBlocks,\n                                      \"ERR_TIMELOCK_STILL_COUNTING\");\n\n        uint totalSupply = self.totalSupply();\n\n        // poolShares = totalSupply * newTokenWeight / totalWeight\n        uint poolShares = KalancerSafeMath.bdiv(KalancerSafeMath.bmul(totalSupply, newToken.denorm),\n                                                KPool.getTotalDenormalizedWeight());\n\n        // Clear this to allow adding more tokens\n        newToken.isCommitted = false;\n\n        // First gets the tokens from msg.sender to this contract (Pool Controller)\n        bool returnValue = IERC20(newToken.addr).transferFrom(self.getController(), address(self), newToken.balance);\n        require(returnValue, \"ERR_ERC20_FALSE\");\n\n        // Now with the tokens this contract can bind them to the pool it controls\n        // Approves KPool to pull from this controller\n        // Approve unlimited, same as when creating the pool, so they can join pools later\n        returnValue = SafeApprove.safeApprove(IERC20(newToken.addr), address(KPool), KalancerConstants.MAX_UINT);\n        require(returnValue, \"ERR_ERC20_FALSE\");\n\n        KPool.bind(newToken.addr, newToken.balance, newToken.denorm);\n\n        self.mintPoolShareFromLib(poolShares);\n        self.pushPoolShareFromLib(msg.sender, poolShares);\n    }\n\n     /**\n     * @notice Remove a token from the pool\n     * @dev Logic in the CRP controls when ths can be called. There are two related permissions:\n     *      AddRemoveTokens - which allows removing down to the underlying KPool limit of two\n     *      RemoveAllTokens - which allows completely draining the pool by removing all tokens\n     *                        This can result in a non-viable pool with 0 or 1 tokens (by design),\n     *                        meaning all swapping or binding operations would fail in this state\n     * @param self - ConfigurableRightsPool instance calling the library\n     * @param KPool - Core KPool the CRP is wrapping\n     * @param token - token to remove\n     */\n    function removeToken(\n        ConfigurableRightsPool self,\n        IKPool KPool,\n        address token\n    )\n        external\n    {\n        uint totalSupply = self.totalSupply();\n\n        // poolShares = totalSupply * tokenWeight / totalWeight\n        uint poolShares = KalancerSafeMath.bdiv(KalancerSafeMath.bmul(totalSupply,\n                                                                      KPool.getDenormalizedWeight(token)),\n                                                KPool.getTotalDenormalizedWeight());\n\n        // this is what will be unbound from the pool\n        // Have to get it before unbinding\n        uint balance = KPool.getBalance(token);\n\n        // Unbind and get the tokens out of Kalancer pool\n        KPool.unbind(token);\n\n        // Now with the tokens this contract can send them to msg.sender\n        bool xfer = IERC20(token).transfer(self.getController(), balance);\n        require(xfer, \"ERR_ERC20_FALSE\");\n\n        self.pullPoolShareFromLib(self.getController(), poolShares);\n        self.burnPoolShareFromLib(poolShares);\n    }\n\n    /**\n     * @notice Non ERC20-conforming tokens are problematic; don't allow them in pools\n     * @dev Will revert if invalid\n     * @param token - The prospective token to verify\n     */\n    function verifyTokenCompliance(address token) external {\n        verifyTokenComplianceInternal(token);\n    }\n\n    /**\n     * @notice Non ERC20-conforming tokens are problematic; don't allow them in pools\n     * @dev Will revert if invalid - overloaded to save space in the main contract\n     * @param tokens - The prospective tokens to verify\n     */\n    function verifyTokenCompliance(address[] calldata tokens) external {\n        for (uint i = 0; i < tokens.length; i++) {\n            verifyTokenComplianceInternal(tokens[i]);\n         }\n    }\n\n    /**\n     * @notice Update weights in a predetermined way, between startBlock and endBlock,\n     *         through external cals to pokeWeights\n     * @param KPool - Core KPool the CRP is wrapping\n     * @param newWeights - final weights we want to get to\n     * @param startBlock - when weights should start to change\n     * @param endBlock - when weights will be at their final values\n     * @param minimumWeightChangeBlockPeriod - needed to validate the block period\n    */\n    function updateWeightsGradually(\n        IKPool KPool,\n        ConfigurableRightsPool.GradualUpdateParams storage gradualUpdate,\n        uint[] calldata newWeights,\n        uint startBlock,\n        uint endBlock,\n        uint minimumWeightChangeBlockPeriod\n    )\n        external\n    {\n        // Enforce a minimum time over which to make the changes\n        // The also prevents endBlock <= startBlock\n        require(KalancerSafeMath.bsub(endBlock, startBlock) >= minimumWeightChangeBlockPeriod,\n                \"ERR_WEIGHT_CHANGE_TIME_BELOW_MIN\");\n        require(block.number < endBlock, \"ERR_GRADUAL_UPDATE_TIME_TRAVEL\");\n\n        address[] memory tokens = KPool.getCurrentTokens();\n\n        // Must specify weights for all tokens\n        require(newWeights.length == tokens.length, \"ERR_START_WEIGHTS_MISMATCH\");\n\n        uint weightsSum = 0;\n        gradualUpdate.startWeights = new uint[](tokens.length);\n\n        // Check that endWeights are valid now to avoid reverting in a future pokeWeights call\n        //\n        // This loop contains external calls\n        // External calls are to math libraries or the underlying pool, so low risk\n        for (uint i = 0; i < tokens.length; i++) {\n            require(newWeights[i] <= KalancerConstants.MAX_WEIGHT, \"ERR_WEIGHT_ABOVE_MAX\");\n            require(newWeights[i] >= KalancerConstants.MIN_WEIGHT, \"ERR_WEIGHT_BELOW_MIN\");\n\n            weightsSum = KalancerSafeMath.badd(weightsSum, newWeights[i]);\n            gradualUpdate.startWeights[i] = KPool.getDenormalizedWeight(tokens[i]);\n        }\n        require(weightsSum <= KalancerConstants.MAX_TOTAL_WEIGHT, \"ERR_MAX_TOTAL_WEIGHT\");\n\n        if (block.number > startBlock && block.number < endBlock) {\n            // This means the weight update should start ASAP\n            // Moving the start block up prevents a big jump/discontinuity in the weights\n            //\n            // Only valid within the startBlock - endBlock period!\n            // Should not happen, but defensively check that we aren't\n            // setting the start point past the end point\n            gradualUpdate.startBlock = block.number;\n        }\n        else{\n            gradualUpdate.startBlock = startBlock;\n        }\n\n        gradualUpdate.endBlock = endBlock;\n        gradualUpdate.endWeights = newWeights;\n    }\n\n    /**\n     * @notice Join a pool\n     * @param self - ConfigurableRightsPool instance calling the library\n     * @param KPool - Core KPool the CRP is wrapping\n     * @param poolAmountOut - number of pool tokens to receive\n     * @param maxAmountsIn - Max amount of asset tokens to spend\n     * @return actualAmountsIn - calculated values of the tokens to pull in\n     */\n    function joinPool(\n        ConfigurableRightsPool self,\n        IKPool KPool,\n        uint poolAmountOut,\n        uint[] calldata maxAmountsIn\n    )\n         external\n         view\n         returns (uint[] memory actualAmountsIn)\n    {\n        address[] memory tokens = KPool.getCurrentTokens();\n\n        require(maxAmountsIn.length == tokens.length, \"ERR_AMOUNTS_MISMATCH\");\n\n        uint poolTotal = self.totalSupply();\n        // Subtract  1 to ensure any rounding errors favor the pool\n        uint ratio = KalancerSafeMath.bdiv(poolAmountOut,\n                                           KalancerSafeMath.bsub(poolTotal, 1));\n\n        require(ratio != 0, \"ERR_MATH_APPROX\");\n\n        // We know the length of the array; initialize it, and fill it below\n        // Cannot do \"push\" in memory\n        actualAmountsIn = new uint[](tokens.length);\n\n        // This loop contains external calls\n        // External calls are to math libraries or the underlying pool, so low risk\n        for (uint i = 0; i < tokens.length; i++) {\n            address t = tokens[i];\n            uint bal = KPool.getBalance(t);\n            // Add 1 to ensure any rounding errors favor the pool\n            uint tokenAmountIn = KalancerSafeMath.bmul(ratio,\n                                                       KalancerSafeMath.badd(bal, 1));\n\n            require(tokenAmountIn != 0, \"ERR_MATH_APPROX\");\n            require(tokenAmountIn <= maxAmountsIn[i], \"ERR_LIMIT_IN\");\n\n            actualAmountsIn[i] = tokenAmountIn;\n        }\n    }\n\n    /**\n     * @notice Exit a pool - redeem pool tokens for underlying assets\n     * @param self - ConfigurableRightsPool instance calling the library\n     * @param KPool - Core KPool the CRP is wrapping\n     * @param poolAmountIn - amount of pool tokens to redeem\n     * @param minAmountsOut - minimum amount of asset tokens to receive\n     * @return exitFee - calculated exit fee\n     * @return pAiAfterExitFee - final amount in (after accounting for exit fee)\n     * @return actualAmountsOut - calculated amounts of each token to pull\n     */\n    function exitPool(\n        ConfigurableRightsPool self,\n        IKPool KPool,\n        uint poolAmountIn,\n        uint[] calldata minAmountsOut\n    )\n        external\n        view\n        returns (uint exitFee, uint pAiAfterExitFee, uint[] memory actualAmountsOut)\n    {\n        address[] memory tokens = KPool.getCurrentTokens();\n\n        require(minAmountsOut.length == tokens.length, \"ERR_AMOUNTS_MISMATCH\");\n\n        uint poolTotal = self.totalSupply();\n\n        // Calculate exit fee and the final amount in\n        exitFee = KalancerSafeMath.bmul(poolAmountIn, KalancerConstants.EXIT_FEE);\n        pAiAfterExitFee = KalancerSafeMath.bsub(poolAmountIn, exitFee);\n\n        uint ratio = KalancerSafeMath.bdiv(pAiAfterExitFee,\n                                           KalancerSafeMath.badd(poolTotal, 1));\n\n        require(ratio != 0, \"ERR_MATH_APPROX\");\n\n        actualAmountsOut = new uint[](tokens.length);\n\n        // This loop contains external calls\n        // External calls are to math libraries or the underlying pool, so low risk\n        for (uint i = 0; i < tokens.length; i++) {\n            address t = tokens[i];\n            uint bal = KPool.getBalance(t);\n            // Subtract 1 to ensure any rounding errors favor the pool\n            uint tokenAmountOut = KalancerSafeMath.bmul(ratio,\n                                                        KalancerSafeMath.bsub(bal, 1));\n\n            require(tokenAmountOut != 0, \"ERR_MATH_APPROX\");\n            require(tokenAmountOut >= minAmountsOut[i], \"ERR_LIMIT_OUT\");\n\n            actualAmountsOut[i] = tokenAmountOut;\n        }\n    }\n\n    /**\n     * @notice Join by swapping a fixed amount of an external token in (must be present in the pool)\n     *         System calculates the pool token amount\n     * @param self - ConfigurableRightsPool instance calling the library\n     * @param KPool - Core KPool the CRP is wrapping\n     * @param tokenIn - which token we're transferring in\n     * @param tokenAmountIn - amount of deposit\n     * @param minPoolAmountOut - minimum of pool tokens to receive\n     * @return poolAmountOut - amount of pool tokens minted and transferred\n     */\n    function joinswapExternAmountIn(\n        ConfigurableRightsPool self,\n        IKPool KPool,\n        address tokenIn,\n        uint tokenAmountIn,\n        uint minPoolAmountOut\n    )\n        external\n        view\n        returns (uint poolAmountOut)\n    {\n        require(KPool.isBound(tokenIn), \"ERR_NOT_BOUND\");\n        require(tokenAmountIn <= KalancerSafeMath.bmul(KPool.getBalance(tokenIn),\n                                                       KalancerConstants.MAX_IN_RATIO),\n                                                       \"ERR_MAX_IN_RATIO\");\n\n        poolAmountOut = KPool.calcPoolOutGivenSingleIn(\n                            KPool.getBalance(tokenIn),\n                            KPool.getDenormalizedWeight(tokenIn),\n                            self.totalSupply(),\n                            KPool.getTotalDenormalizedWeight(),\n                            tokenAmountIn,\n                            KPool.getSwapFee()\n                        );\n\n        require(poolAmountOut >= minPoolAmountOut, \"ERR_LIMIT_OUT\");\n    }\n\n    /**\n     * @notice Join by swapping an external token in (must be present in the pool)\n     *         To receive an exact amount of pool tokens out. System calculates the deposit amount\n     * @param self - ConfigurableRightsPool instance calling the library\n     * @param KPool - Core KPool the CRP is wrapping\n     * @param tokenIn - which token we're transferring in (system calculates amount required)\n     * @param poolAmountOut - amount of pool tokens to be received\n     * @param maxAmountIn - Maximum asset tokens that can be pulled to pay for the pool tokens\n     * @return tokenAmountIn - amount of asset tokens transferred in to purchase the pool tokens\n     */\n    function joinswapPoolAmountOut(\n        ConfigurableRightsPool self,\n        IKPool KPool,\n        address tokenIn,\n        uint poolAmountOut,\n        uint maxAmountIn\n    )\n        external\n        view\n        returns (uint tokenAmountIn)\n    {\n        require(KPool.isBound(tokenIn), \"ERR_NOT_BOUND\");\n\n        tokenAmountIn = KPool.calcSingleInGivenPoolOut(\n                            KPool.getBalance(tokenIn),\n                            KPool.getDenormalizedWeight(tokenIn),\n                            self.totalSupply(),\n                            KPool.getTotalDenormalizedWeight(),\n                            poolAmountOut,\n                            KPool.getSwapFee()\n                        );\n\n        require(tokenAmountIn != 0, \"ERR_MATH_APPROX\");\n        require(tokenAmountIn <= maxAmountIn, \"ERR_LIMIT_IN\");\n\n        require(tokenAmountIn <= KalancerSafeMath.bmul(KPool.getBalance(tokenIn),\n                                                       KalancerConstants.MAX_IN_RATIO),\n                                                       \"ERR_MAX_IN_RATIO\");\n    }\n\n    /**\n     * @notice Exit a pool - redeem a specific number of pool tokens for an underlying asset\n     *         Asset must be present in the pool, and will incur an EXIT_FEE (if set to non-zero)\n     * @param self - ConfigurableRightsPool instance calling the library\n     * @param KPool - Core KPool the CRP is wrapping\n     * @param tokenOut - which token the caller wants to receive\n     * @param poolAmountIn - amount of pool tokens to redeem\n     * @param minAmountOut - minimum asset tokens to receive\n     * @return exitFee - calculated exit fee\n     * @return tokenAmountOut - amount of asset tokens returned\n     */\n    function exitswapPoolAmountIn(\n        ConfigurableRightsPool self,\n        IKPool KPool,\n        address tokenOut,\n        uint poolAmountIn,\n        uint minAmountOut\n    )\n        external\n        view\n        returns (uint exitFee, uint tokenAmountOut)\n    {\n        require(KPool.isBound(tokenOut), \"ERR_NOT_BOUND\");\n\n        tokenAmountOut = KPool.calcSingleOutGivenPoolIn(\n                            KPool.getBalance(tokenOut),\n                            KPool.getDenormalizedWeight(tokenOut),\n                            self.totalSupply(),\n                            KPool.getTotalDenormalizedWeight(),\n                            poolAmountIn,\n                            KPool.getSwapFee()\n                        );\n\n        require(tokenAmountOut >= minAmountOut, \"ERR_LIMIT_OUT\");\n        require(tokenAmountOut <= KalancerSafeMath.bmul(KPool.getBalance(tokenOut),\n                                                        KalancerConstants.MAX_OUT_RATIO),\n                                                        \"ERR_MAX_OUT_RATIO\");\n\n        exitFee = KalancerSafeMath.bmul(poolAmountIn, KalancerConstants.EXIT_FEE);\n    }\n\n    /**\n     * @notice Exit a pool - redeem pool tokens for a specific amount of underlying assets\n     *         Asset must be present in the pool\n     * @param self - ConfigurableRightsPool instance calling the library\n     * @param KPool - Core KPool the CRP is wrapping\n     * @param tokenOut - which token the caller wants to receive\n     * @param tokenAmountOut - amount of underlying asset tokens to receive\n     * @param maxPoolAmountIn - maximum pool tokens to be redeemed\n     * @return exitFee - calculated exit fee\n     * @return poolAmountIn - amount of pool tokens redeemed\n     */\n    function exitswapExternAmountOut(\n        ConfigurableRightsPool self,\n        IKPool KPool,\n        address tokenOut,\n        uint tokenAmountOut,\n        uint maxPoolAmountIn\n    )\n        external\n        view\n        returns (uint exitFee, uint poolAmountIn)\n    {\n        require(KPool.isBound(tokenOut), \"ERR_NOT_BOUND\");\n        require(tokenAmountOut <= KalancerSafeMath.bmul(KPool.getBalance(tokenOut),\n                                                        KalancerConstants.MAX_OUT_RATIO),\n                                                        \"ERR_MAX_OUT_RATIO\");\n        poolAmountIn = KPool.calcPoolInGivenSingleOut(\n                            KPool.getBalance(tokenOut),\n                            KPool.getDenormalizedWeight(tokenOut),\n                            self.totalSupply(),\n                            KPool.getTotalDenormalizedWeight(),\n                            tokenAmountOut,\n                            KPool.getSwapFee()\n                        );\n\n        require(poolAmountIn != 0, \"ERR_MATH_APPROX\");\n        require(poolAmountIn <= maxPoolAmountIn, \"ERR_LIMIT_IN\");\n\n        exitFee = KalancerSafeMath.bmul(poolAmountIn, KalancerConstants.EXIT_FEE);\n    }\n\n    // Internal functions\n\n    // Check for zero transfer, and make sure it returns true to returnValue\n    function verifyTokenComplianceInternal(address token) internal {\n        bool returnValue = IERC20(token).transfer(msg.sender, 0);\n        require(returnValue, \"ERR_NONCONFORMING_TOKEN\");\n    }\n}\n",
  "sourcePath": "/home/vyper/Downloads/Work Projects/avengers/kalancer-action/contracts/test/SmartPoolManager.sol",
  "compiler": {
    "name": "solc",
    "version": "0.6.12+commit.27d51765.Emscripten.clang"
  },
  "schemaVersion": "3.3.4",
  "updatedAt": "2021-03-26T12:33:52.972Z",
  "devdoc": {
    "author": "Kalancer Labs",
    "kind": "dev",
    "methods": {
      "applyAddToken(ConfigurableRightsPool,IKPool,uint256,SmartPoolManager.NewTokenParams storage)": {
        "params": {
          "KPool": "- Core KPool the CRP is wrapping",
          "addTokenTimeLockInBlocks": "-  Wait time between committing and applying a new token",
          "newToken": "- NewTokenParams struct used to hold the token data (in CRP storage)",
          "self": "- ConfigurableRightsPool instance calling the library"
        }
      },
      "commitAddToken(IKPool,address,uint256,uint256,SmartPoolManager.NewTokenParams storage)": {
        "params": {
          "KPool": "- Core KPool the CRP is wrapping",
          "balance": "- how much to be added",
          "denormalizedWeight": "- the desired token weight",
          "newToken": "- NewTokenParams struct used to hold the token data (in CRP storage)",
          "token": "- the token to be added"
        }
      },
      "exitPool(ConfigurableRightsPool,IKPool,uint256,uint256[])": {
        "params": {
          "KPool": "- Core KPool the CRP is wrapping",
          "minAmountsOut": "- minimum amount of asset tokens to receive",
          "poolAmountIn": "- amount of pool tokens to redeem",
          "self": "- ConfigurableRightsPool instance calling the library"
        },
        "returns": {
          "actualAmountsOut": "- calculated amounts of each token to pull",
          "exitFee": "- calculated exit fee",
          "pAiAfterExitFee": "- final amount in (after accounting for exit fee)"
        }
      },
      "exitswapExternAmountOut(ConfigurableRightsPool,IKPool,address,uint256,uint256)": {
        "params": {
          "KPool": "- Core KPool the CRP is wrapping",
          "maxPoolAmountIn": "- maximum pool tokens to be redeemed",
          "self": "- ConfigurableRightsPool instance calling the library",
          "tokenAmountOut": "- amount of underlying asset tokens to receive",
          "tokenOut": "- which token the caller wants to receive"
        },
        "returns": {
          "exitFee": "- calculated exit fee",
          "poolAmountIn": "- amount of pool tokens redeemed"
        }
      },
      "exitswapPoolAmountIn(ConfigurableRightsPool,IKPool,address,uint256,uint256)": {
        "params": {
          "KPool": "- Core KPool the CRP is wrapping",
          "minAmountOut": "- minimum asset tokens to receive",
          "poolAmountIn": "- amount of pool tokens to redeem",
          "self": "- ConfigurableRightsPool instance calling the library",
          "tokenOut": "- which token the caller wants to receive"
        },
        "returns": {
          "exitFee": "- calculated exit fee",
          "tokenAmountOut": "- amount of asset tokens returned"
        }
      },
      "joinPool(ConfigurableRightsPool,IKPool,uint256,uint256[])": {
        "params": {
          "KPool": "- Core KPool the CRP is wrapping",
          "maxAmountsIn": "- Max amount of asset tokens to spend",
          "poolAmountOut": "- number of pool tokens to receive",
          "self": "- ConfigurableRightsPool instance calling the library"
        },
        "returns": {
          "actualAmountsIn": "- calculated values of the tokens to pull in"
        }
      },
      "joinswapExternAmountIn(ConfigurableRightsPool,IKPool,address,uint256,uint256)": {
        "params": {
          "KPool": "- Core KPool the CRP is wrapping",
          "minPoolAmountOut": "- minimum of pool tokens to receive",
          "self": "- ConfigurableRightsPool instance calling the library",
          "tokenAmountIn": "- amount of deposit",
          "tokenIn": "- which token we're transferring in"
        },
        "returns": {
          "poolAmountOut": "- amount of pool tokens minted and transferred"
        }
      },
      "joinswapPoolAmountOut(ConfigurableRightsPool,IKPool,address,uint256,uint256)": {
        "params": {
          "KPool": "- Core KPool the CRP is wrapping",
          "maxAmountIn": "- Maximum asset tokens that can be pulled to pay for the pool tokens",
          "poolAmountOut": "- amount of pool tokens to be received",
          "self": "- ConfigurableRightsPool instance calling the library",
          "tokenIn": "- which token we're transferring in (system calculates amount required)"
        },
        "returns": {
          "tokenAmountIn": "- amount of asset tokens transferred in to purchase the pool tokens"
        }
      },
      "pokeWeights(IKPool,ConfigurableRightsPool.GradualUpdateParams storage)": {
        "params": {
          "KPool": "- Core KPool the CRP is wrapping",
          "gradualUpdate": "- gradual update parameters from the CRP"
        }
      },
      "removeToken(ConfigurableRightsPool,IKPool,address)": {
        "details": "Logic in the CRP controls when ths can be called. There are two related permissions:      AddRemoveTokens - which allows removing down to the underlying KPool limit of two      RemoveAllTokens - which allows completely draining the pool by removing all tokens                        This can result in a non-viable pool with 0 or 1 tokens (by design),                        meaning all swapping or binding operations would fail in this state",
        "params": {
          "KPool": "- Core KPool the CRP is wrapping",
          "self": "- ConfigurableRightsPool instance calling the library",
          "token": "- token to remove"
        }
      },
      "updateWeight(ConfigurableRightsPool,IKPool,address,uint256)": {
        "details": "Refactored to library to make CRPFactory deployable",
        "params": {
          "KPool": "- Core KPool the CRP is wrapping",
          "newWeight": "- new weight of the token",
          "self": "- ConfigurableRightsPool instance calling the library",
          "token": "- token to be reweighted"
        }
      },
      "updateWeightsGradually(IKPool,ConfigurableRightsPool.GradualUpdateParams storage,uint256[],uint256,uint256,uint256)": {
        "params": {
          "KPool": "- Core KPool the CRP is wrapping",
          "endBlock": "- when weights will be at their final values",
          "minimumWeightChangeBlockPeriod": "- needed to validate the block period",
          "newWeights": "- final weights we want to get to",
          "startBlock": "- when weights should start to change"
        }
      },
      "verifyTokenCompliance(address)": {
        "details": "Will revert if invalid",
        "params": {
          "token": "- The prospective token to verify"
        }
      },
      "verifyTokenCompliance(address[])": {
        "details": "Will revert if invalid - overloaded to save space in the main contract",
        "params": {
          "tokens": "- The prospective tokens to verify"
        }
      }
    },
    "title": "Factor out the weight updates",
    "version": 1
  },
  "userdoc": {
    "kind": "user",
    "methods": {
      "applyAddToken(ConfigurableRightsPool,IKPool,uint256,SmartPoolManager.NewTokenParams storage)": {
        "notice": "Add the token previously committed (in commitAddToken) to the pool"
      },
      "commitAddToken(IKPool,address,uint256,uint256,SmartPoolManager.NewTokenParams storage)": {
        "notice": "Schedule (commit) a token to be added; must call applyAddToken after a fixed         number of blocks to actually add the token"
      },
      "exitPool(ConfigurableRightsPool,IKPool,uint256,uint256[])": {
        "notice": "Exit a pool - redeem pool tokens for underlying assets"
      },
      "exitswapExternAmountOut(ConfigurableRightsPool,IKPool,address,uint256,uint256)": {
        "notice": "Exit a pool - redeem pool tokens for a specific amount of underlying assets         Asset must be present in the pool"
      },
      "exitswapPoolAmountIn(ConfigurableRightsPool,IKPool,address,uint256,uint256)": {
        "notice": "Exit a pool - redeem a specific number of pool tokens for an underlying asset         Asset must be present in the pool, and will incur an EXIT_FEE (if set to non-zero)"
      },
      "joinPool(ConfigurableRightsPool,IKPool,uint256,uint256[])": {
        "notice": "Join a pool"
      },
      "joinswapExternAmountIn(ConfigurableRightsPool,IKPool,address,uint256,uint256)": {
        "notice": "Join by swapping a fixed amount of an external token in (must be present in the pool)         System calculates the pool token amount"
      },
      "joinswapPoolAmountOut(ConfigurableRightsPool,IKPool,address,uint256,uint256)": {
        "notice": "Join by swapping an external token in (must be present in the pool)         To receive an exact amount of pool tokens out. System calculates the deposit amount"
      },
      "pokeWeights(IKPool,ConfigurableRightsPool.GradualUpdateParams storage)": {
        "notice": "External function called to make the contract update weights according to plan"
      },
      "removeToken(ConfigurableRightsPool,IKPool,address)": {
        "notice": "Remove a token from the pool"
      },
      "updateWeight(ConfigurableRightsPool,IKPool,address,uint256)": {
        "notice": "Update the weight of an existing token"
      },
      "updateWeightsGradually(IKPool,ConfigurableRightsPool.GradualUpdateParams storage,uint256[],uint256,uint256,uint256)": {
        "notice": "Update weights in a predetermined way, between startBlock and endBlock,         through external cals to pokeWeights"
      },
      "verifyTokenCompliance(address)": {
        "notice": "Non ERC20-conforming tokens are problematic; don't allow them in pools"
      },
      "verifyTokenCompliance(address[])": {
        "notice": "Non ERC20-conforming tokens are problematic; don't allow them in pools"
      }
    },
    "version": 1
  }
}