{
  "contractName": "TToken",
  "abi": [
    {
      "inputs": [
        {
          "internalType": "bytes32",
          "name": "name",
          "type": "bytes32"
        },
        {
          "internalType": "bytes32",
          "name": "symbol",
          "type": "bytes32"
        },
        {
          "internalType": "uint8",
          "name": "decimals",
          "type": "uint8"
        }
      ],
      "stateMutability": "nonpayable",
      "type": "constructor"
    },
    {
      "anonymous": false,
      "inputs": [
        {
          "indexed": true,
          "internalType": "address",
          "name": "src",
          "type": "address"
        },
        {
          "indexed": true,
          "internalType": "address",
          "name": "dst",
          "type": "address"
        },
        {
          "indexed": false,
          "internalType": "uint256",
          "name": "amt",
          "type": "uint256"
        }
      ],
      "name": "Approval",
      "type": "event"
    },
    {
      "anonymous": false,
      "inputs": [
        {
          "indexed": true,
          "internalType": "address",
          "name": "src",
          "type": "address"
        },
        {
          "indexed": true,
          "internalType": "address",
          "name": "dst",
          "type": "address"
        },
        {
          "indexed": false,
          "internalType": "uint256",
          "name": "amt",
          "type": "uint256"
        }
      ],
      "name": "Transfer",
      "type": "event"
    },
    {
      "inputs": [],
      "name": "name",
      "outputs": [
        {
          "internalType": "bytes32",
          "name": "",
          "type": "bytes32"
        }
      ],
      "stateMutability": "view",
      "type": "function"
    },
    {
      "inputs": [],
      "name": "symbol",
      "outputs": [
        {
          "internalType": "bytes32",
          "name": "",
          "type": "bytes32"
        }
      ],
      "stateMutability": "view",
      "type": "function"
    },
    {
      "inputs": [],
      "name": "decimals",
      "outputs": [
        {
          "internalType": "uint8",
          "name": "",
          "type": "uint8"
        }
      ],
      "stateMutability": "view",
      "type": "function"
    },
    {
      "inputs": [
        {
          "internalType": "address",
          "name": "src",
          "type": "address"
        },
        {
          "internalType": "address",
          "name": "dst",
          "type": "address"
        }
      ],
      "name": "allowance",
      "outputs": [
        {
          "internalType": "uint256",
          "name": "",
          "type": "uint256"
        }
      ],
      "stateMutability": "view",
      "type": "function"
    },
    {
      "inputs": [
        {
          "internalType": "address",
          "name": "whom",
          "type": "address"
        }
      ],
      "name": "balanceOf",
      "outputs": [
        {
          "internalType": "uint256",
          "name": "",
          "type": "uint256"
        }
      ],
      "stateMutability": "view",
      "type": "function"
    },
    {
      "inputs": [],
      "name": "totalSupply",
      "outputs": [
        {
          "internalType": "uint256",
          "name": "",
          "type": "uint256"
        }
      ],
      "stateMutability": "view",
      "type": "function"
    },
    {
      "inputs": [
        {
          "internalType": "address",
          "name": "dst",
          "type": "address"
        },
        {
          "internalType": "uint256",
          "name": "amt",
          "type": "uint256"
        }
      ],
      "name": "approve",
      "outputs": [
        {
          "internalType": "bool",
          "name": "",
          "type": "bool"
        }
      ],
      "stateMutability": "nonpayable",
      "type": "function"
    },
    {
      "inputs": [
        {
          "internalType": "address",
          "name": "dst",
          "type": "address"
        },
        {
          "internalType": "uint256",
          "name": "amt",
          "type": "uint256"
        }
      ],
      "name": "mint",
      "outputs": [
        {
          "internalType": "bool",
          "name": "",
          "type": "bool"
        }
      ],
      "stateMutability": "nonpayable",
      "type": "function"
    },
    {
      "inputs": [
        {
          "internalType": "uint256",
          "name": "amt",
          "type": "uint256"
        }
      ],
      "name": "burn",
      "outputs": [
        {
          "internalType": "bool",
          "name": "",
          "type": "bool"
        }
      ],
      "stateMutability": "nonpayable",
      "type": "function"
    },
    {
      "inputs": [
        {
          "internalType": "address",
          "name": "dst",
          "type": "address"
        },
        {
          "internalType": "uint256",
          "name": "amt",
          "type": "uint256"
        }
      ],
      "name": "transfer",
      "outputs": [
        {
          "internalType": "bool",
          "name": "",
          "type": "bool"
        }
      ],
      "stateMutability": "nonpayable",
      "type": "function"
    },
    {
      "inputs": [
        {
          "internalType": "address",
          "name": "src",
          "type": "address"
        },
        {
          "internalType": "address",
          "name": "dst",
          "type": "address"
        },
        {
          "internalType": "uint256",
          "name": "amt",
          "type": "uint256"
        }
      ],
      "name": "transferFrom",
      "outputs": [
        {
          "internalType": "bool",
          "name": "",
          "type": "bool"
        }
      ],
      "stateMutability": "nonpayable",
      "type": "function"
    }
  ],
  "bytecode": "0x608060405234801561001057600080fd5b506040516107ca3803806107ca8339818101604052606081101561003357600080fd5b50805160208201516040909201516000919091556001919091556002805460ff90921660ff19909216919091179055610759806100716000396000f3fe608060405234801561001057600080fd5b50600436106100a95760003560e01c806340c10f191161007157806340c10f191461016457806342966c681461019057806370a08231146101ad57806395d89b41146101d3578063a9059cbb146101db578063dd62ed3e14610207576100a9565b806306fdde03146100ae578063095ea7b3146100c857806318160ddd1461010857806323b872dd14610110578063313ce56714610146575b600080fd5b6100b6610235565b60408051918252519081900360200190f35b6100f4600480360360408110156100de57600080fd5b506001600160a01b03813516906020013561023b565b604080519115158252519081900360200190f35b6100b66102a2565b6100f46004803603606081101561012657600080fd5b506001600160a01b038135811691602081013590911690604001356102a8565b61014e610414565b6040805160ff9092168252519081900360200190f35b6100f46004803603604081101561017a57600080fd5b506001600160a01b03813516906020013561041d565b6100f4600480360360208110156101a657600080fd5b5035610432565b6100b6600480360360208110156101c357600080fd5b50356001600160a01b0316610507565b6100b6610522565b6100f4600480360360408110156101f157600080fd5b506001600160a01b038135169060200135610528565b6100b66004803603604081101561021d57600080fd5b506001600160a01b0381358116916020013516610535565b60005490565b3360008181526005602090815260408083206001600160a01b038716808552908352818420869055815186815291519394909390927f8c5be1e5ebec7d5bd14f71427d1e84f3dd0314c0f7b2291e5b200ac8c7c3b925928290030190a35060015b92915050565b60035490565b6000336001600160a01b03851614806102e457506001600160a01b03841660009081526005602090815260408083203384529091529020548211155b61032d576040805162461bcd60e51b815260206004820152601560248201527422a9292fa12a27a5a2a72fa120a22fa1a0a62622a960591b604482015290519081900360640190fd5b610338848484610560565b336001600160a01b0385161480159061037657506001600160a01b038416600090815260056020908152604080832033845290915290205460001914155b1561040a576001600160a01b03841660009081526005602090815260408083203384529091529020546103a99083610672565b6001600160a01b03858116600090815260056020908152604080832033808552908352928190208590558051948552519287169391927f8c5be1e5ebec7d5bd14f71427d1e84f3dd0314c0f7b2291e5b200ac8c7c3b9259281900390910190a35b5060019392505050565b60025460ff1690565b60006104298383610682565b50600192915050565b3060009081526004602052604081205482111561048d576040805162461bcd60e51b815260206004820152601460248201527311549497d25394d551919250d251539517d0905360621b604482015290519081900360640190fd5b306000908152600460205260409020546104a79083610672565b306000908152600460205260409020556003546104c49083610672565b60035560408051838152905160009130917fddf252ad1be2c89b69c2b068fc378daa952ba7f163c4a11628f55a4df523b3ef9181900360200190a3506001919050565b6001600160a01b031660009081526004602052604090205490565b60015490565b6000610429338484610560565b6001600160a01b03918216600090815260056020908152604080832093909416825291909152205490565b6001600160a01b0383166000908152600460205260409020548111156105c4576040805162461bcd60e51b815260206004820152601460248201527311549497d25394d551919250d251539517d0905360621b604482015290519081900360640190fd5b6001600160a01b0383166000908152600460205260409020546105e79082610672565b6001600160a01b0380851660009081526004602052604080822093909355908416815220546106169082610713565b6001600160a01b0380841660008181526004602090815260409182902094909455805185815290519193928716927fddf252ad1be2c89b69c2b068fc378daa952ba7f163c4a11628f55a4df523b3ef92918290030190a3505050565b8082038281111561029c57600080fd5b6001600160a01b0382166000908152600460205260409020546106a59082610713565b6001600160a01b0383166000908152600460205260409020556003546106cb9082610713565b6003556040805182815290516001600160a01b038416916000917fddf252ad1be2c89b69c2b068fc378daa952ba7f163c4a11628f55a4df523b3ef9181900360200190a35050565b8082018281101561029c57600080fdfea2646970667358221220729f6740eb1be9e469b9d2490255d3da76e208310f44f16400e685d1751a89cc64736f6c634300060c0033",
  "immutableReferences": {},
  "source": "// SPDX-License-Identifier: GPL-3.0-or-later\npragma solidity 0.6.12;\n\n// Test Token\n// Public mint and burn functions!\n\ncontract TToken {\n\n    bytes32 private _name;\n    bytes32 private _symbol;\n    uint8   private _decimals;\n\n    uint internal _totalSupply;\n\n    mapping(address => uint)                   private _balance;\n    mapping(address => mapping(address=>uint)) private _allowance;\n\n    event Approval(address indexed src, address indexed dst, uint amt);\n    event Transfer(address indexed src, address indexed dst, uint amt);\n\n    // Math\n    function add(uint a, uint b) internal pure returns (uint c) {\n        require((c = a + b) >= a);\n    }\n    function sub(uint a, uint b) internal pure returns (uint c) {\n        require((c = a - b) <= a);\n    }\n\n    constructor(\n        bytes32 name,\n        bytes32 symbol,\n        uint8 decimals\n    ) public {\n        _name = name;\n        _symbol = symbol;\n        _decimals = decimals;\n    }\n\n    function name() public view returns (bytes32) {\n        return _name;\n    }\n\n    function symbol() public view returns (bytes32) {\n        return _symbol;\n    }\n\n    function decimals() public view returns(uint8) {\n        return _decimals;\n    }\n\n    function _move(address src, address dst, uint amt) internal {\n        require(_balance[src] >= amt, \"ERR_INSUFFICIENT_BAL\");\n        _balance[src] = sub(_balance[src], amt);\n        _balance[dst] = add(_balance[dst], amt);\n        emit Transfer(src, dst, amt);\n    }\n\n    function _push(address to, uint amt) internal {\n        _move(address(this), to, amt);\n    }\n\n    function _pull(address from, uint amt) internal {\n        _move(from, address(this), amt);\n    }\n\n    function _mint(address dst, uint amt) internal {\n        _balance[dst] = add(_balance[dst], amt);\n        _totalSupply = add(_totalSupply, amt);\n        emit Transfer(address(0), dst, amt);\n    }\n\n    function allowance(address src, address dst) external view returns (uint) {\n        return _allowance[src][dst];\n    }\n\n    function balanceOf(address whom) external view returns (uint) {\n        return _balance[whom];\n    }\n\n    function totalSupply() public view returns (uint) {\n        return _totalSupply;\n    }\n\n    function approve(address dst, uint amt) external returns (bool) {\n        _allowance[msg.sender][dst] = amt;\n        emit Approval(msg.sender, dst, amt);\n        return true;\n    }\n\n    function mint(address dst, uint amt) public returns (bool) {\n        _mint(dst, amt);\n        return true;\n    }\n\n    function burn(uint amt) public returns (bool) {\n        require(_balance[address(this)] >= amt, \"ERR_INSUFFICIENT_BAL\");\n        _balance[address(this)] = sub(_balance[address(this)], amt);\n        _totalSupply = sub(_totalSupply, amt);\n        emit Transfer(address(this), address(0), amt);\n        return true;\n    }\n\n    function transfer(address dst, uint amt) external returns (bool) {\n        _move(msg.sender, dst, amt);\n        return true;\n    }\n\n    function transferFrom(address src, address dst, uint amt) external returns (bool) {\n        require(msg.sender == src || amt <= _allowance[src][msg.sender], \"ERR_BTOKEN_BAD_CALLER\");\n        _move(src, dst, amt);\n        if (msg.sender != src && _allowance[src][msg.sender] != uint256(-1)) {\n            _allowance[src][msg.sender] = sub(_allowance[src][msg.sender], amt);\n            emit Approval(msg.sender, dst, _allowance[src][msg.sender]);\n        }\n        return true;\n    }\n}\n",
  "sourcePath": "/home/vyper/Downloads/Work Projects/avengers/kalancer-action/contracts/test/TToken.sol",
  "compiler": {
    "name": "solc",
    "version": "0.6.12+commit.27d51765.Emscripten.clang"
  },
  "schemaVersion": "3.3.4",
  "updatedAt": "2021-03-26T12:33:52.995Z",
  "devdoc": {
    "kind": "dev",
    "methods": {},
    "version": 1
  },
  "userdoc": {
    "kind": "user",
    "methods": {},
    "version": 1
  }
}