{
  "_format": "hh-sol-artifact-1",
  "contractName": "BPool",
  "sourceName": "contracts/test/BPool.sol",
  "abi": [
    {
      "inputs": [],
      "stateMutability": "nonpayable",
      "type": "constructor"
    },
    {
      "anonymous": false,
      "inputs": [
        {
          "indexed": true,
          "internalType": "address",
          "name": "owner",
          "type": "address"
        },
        {
          "indexed": true,
          "internalType": "address",
          "name": "spender",
          "type": "address"
        },
        {
          "indexed": false,
          "internalType": "uint256",
          "name": "value",
          "type": "uint256"
        }
      ],
      "name": "Approval",
      "type": "event"
    },
    {
      "anonymous": true,
      "inputs": [
        {
          "indexed": true,
          "internalType": "bytes4",
          "name": "sig",
          "type": "bytes4"
        },
        {
          "indexed": true,
          "internalType": "address",
          "name": "caller",
          "type": "address"
        },
        {
          "indexed": false,
          "internalType": "bytes",
          "name": "data",
          "type": "bytes"
        }
      ],
      "name": "LOG_CALL",
      "type": "event"
    },
    {
      "anonymous": false,
      "inputs": [
        {
          "indexed": true,
          "internalType": "address",
          "name": "caller",
          "type": "address"
        },
        {
          "indexed": true,
          "internalType": "address",
          "name": "tokenOut",
          "type": "address"
        },
        {
          "indexed": false,
          "internalType": "uint256",
          "name": "tokenAmountOut",
          "type": "uint256"
        }
      ],
      "name": "LOG_EXIT",
      "type": "event"
    },
    {
      "anonymous": false,
      "inputs": [
        {
          "indexed": true,
          "internalType": "address",
          "name": "caller",
          "type": "address"
        },
        {
          "indexed": true,
          "internalType": "address",
          "name": "tokenIn",
          "type": "address"
        },
        {
          "indexed": false,
          "internalType": "uint256",
          "name": "tokenAmountIn",
          "type": "uint256"
        }
      ],
      "name": "LOG_JOIN",
      "type": "event"
    },
    {
      "anonymous": false,
      "inputs": [
        {
          "indexed": true,
          "internalType": "address",
          "name": "caller",
          "type": "address"
        },
        {
          "indexed": true,
          "internalType": "address",
          "name": "tokenIn",
          "type": "address"
        },
        {
          "indexed": true,
          "internalType": "address",
          "name": "tokenOut",
          "type": "address"
        },
        {
          "indexed": false,
          "internalType": "uint256",
          "name": "tokenAmountIn",
          "type": "uint256"
        },
        {
          "indexed": false,
          "internalType": "uint256",
          "name": "tokenAmountOut",
          "type": "uint256"
        }
      ],
      "name": "LOG_SWAP",
      "type": "event"
    },
    {
      "anonymous": false,
      "inputs": [
        {
          "indexed": true,
          "internalType": "address",
          "name": "from",
          "type": "address"
        },
        {
          "indexed": true,
          "internalType": "address",
          "name": "to",
          "type": "address"
        },
        {
          "indexed": false,
          "internalType": "uint256",
          "name": "value",
          "type": "uint256"
        }
      ],
      "name": "Transfer",
      "type": "event"
    },
    {
      "inputs": [],
      "name": "BONE",
      "outputs": [
        {
          "internalType": "uint256",
          "name": "",
          "type": "uint256"
        }
      ],
      "stateMutability": "view",
      "type": "function"
    },
    {
      "inputs": [],
      "name": "BPOW_PRECISION",
      "outputs": [
        {
          "internalType": "uint256",
          "name": "",
          "type": "uint256"
        }
      ],
      "stateMutability": "view",
      "type": "function"
    },
    {
      "inputs": [],
      "name": "EXIT_FEE",
      "outputs": [
        {
          "internalType": "uint256",
          "name": "",
          "type": "uint256"
        }
      ],
      "stateMutability": "view",
      "type": "function"
    },
    {
      "inputs": [],
      "name": "INIT_POOL_SUPPLY",
      "outputs": [
        {
          "internalType": "uint256",
          "name": "",
          "type": "uint256"
        }
      ],
      "stateMutability": "view",
      "type": "function"
    },
    {
      "inputs": [],
      "name": "MAX_BOUND_TOKENS",
      "outputs": [
        {
          "internalType": "uint256",
          "name": "",
          "type": "uint256"
        }
      ],
      "stateMutability": "view",
      "type": "function"
    },
    {
      "inputs": [],
      "name": "MAX_BPOW_BASE",
      "outputs": [
        {
          "internalType": "uint256",
          "name": "",
          "type": "uint256"
        }
      ],
      "stateMutability": "view",
      "type": "function"
    },
    {
      "inputs": [],
      "name": "MAX_FEE",
      "outputs": [
        {
          "internalType": "uint256",
          "name": "",
          "type": "uint256"
        }
      ],
      "stateMutability": "view",
      "type": "function"
    },
    {
      "inputs": [],
      "name": "MAX_IN_RATIO",
      "outputs": [
        {
          "internalType": "uint256",
          "name": "",
          "type": "uint256"
        }
      ],
      "stateMutability": "view",
      "type": "function"
    },
    {
      "inputs": [],
      "name": "MAX_OUT_RATIO",
      "outputs": [
        {
          "internalType": "uint256",
          "name": "",
          "type": "uint256"
        }
      ],
      "stateMutability": "view",
      "type": "function"
    },
    {
      "inputs": [],
      "name": "MAX_TOTAL_WEIGHT",
      "outputs": [
        {
          "internalType": "uint256",
          "name": "",
          "type": "uint256"
        }
      ],
      "stateMutability": "view",
      "type": "function"
    },
    {
      "inputs": [],
      "name": "MAX_WEIGHT",
      "outputs": [
        {
          "internalType": "uint256",
          "name": "",
          "type": "uint256"
        }
      ],
      "stateMutability": "view",
      "type": "function"
    },
    {
      "inputs": [],
      "name": "MIN_BALANCE",
      "outputs": [
        {
          "internalType": "uint256",
          "name": "",
          "type": "uint256"
        }
      ],
      "stateMutability": "view",
      "type": "function"
    },
    {
      "inputs": [],
      "name": "MIN_BOUND_TOKENS",
      "outputs": [
        {
          "internalType": "uint256",
          "name": "",
          "type": "uint256"
        }
      ],
      "stateMutability": "view",
      "type": "function"
    },
    {
      "inputs": [],
      "name": "MIN_BPOW_BASE",
      "outputs": [
        {
          "internalType": "uint256",
          "name": "",
          "type": "uint256"
        }
      ],
      "stateMutability": "view",
      "type": "function"
    },
    {
      "inputs": [],
      "name": "MIN_FEE",
      "outputs": [
        {
          "internalType": "uint256",
          "name": "",
          "type": "uint256"
        }
      ],
      "stateMutability": "view",
      "type": "function"
    },
    {
      "inputs": [],
      "name": "MIN_WEIGHT",
      "outputs": [
        {
          "internalType": "uint256",
          "name": "",
          "type": "uint256"
        }
      ],
      "stateMutability": "view",
      "type": "function"
    },
    {
      "inputs": [
        {
          "internalType": "address",
          "name": "src",
          "type": "address"
        },
        {
          "internalType": "address",
          "name": "dst",
          "type": "address"
        }
      ],
      "name": "allowance",
      "outputs": [
        {
          "internalType": "uint256",
          "name": "",
          "type": "uint256"
        }
      ],
      "stateMutability": "view",
      "type": "function"
    },
    {
      "inputs": [
        {
          "internalType": "address",
          "name": "dst",
          "type": "address"
        },
        {
          "internalType": "uint256",
          "name": "amt",
          "type": "uint256"
        }
      ],
      "name": "approve",
      "outputs": [
        {
          "internalType": "bool",
          "name": "",
          "type": "bool"
        }
      ],
      "stateMutability": "nonpayable",
      "type": "function"
    },
    {
      "inputs": [
        {
          "internalType": "address",
          "name": "whom",
          "type": "address"
        }
      ],
      "name": "balanceOf",
      "outputs": [
        {
          "internalType": "uint256",
          "name": "",
          "type": "uint256"
        }
      ],
      "stateMutability": "view",
      "type": "function"
    },
    {
      "inputs": [
        {
          "internalType": "address",
          "name": "token",
          "type": "address"
        },
        {
          "internalType": "uint256",
          "name": "balance",
          "type": "uint256"
        },
        {
          "internalType": "uint256",
          "name": "denorm",
          "type": "uint256"
        }
      ],
      "name": "bind",
      "outputs": [],
      "stateMutability": "nonpayable",
      "type": "function"
    },
    {
      "inputs": [
        {
          "internalType": "uint256",
          "name": "tokenBalanceIn",
          "type": "uint256"
        },
        {
          "internalType": "uint256",
          "name": "tokenWeightIn",
          "type": "uint256"
        },
        {
          "internalType": "uint256",
          "name": "tokenBalanceOut",
          "type": "uint256"
        },
        {
          "internalType": "uint256",
          "name": "tokenWeightOut",
          "type": "uint256"
        },
        {
          "internalType": "uint256",
          "name": "tokenAmountOut",
          "type": "uint256"
        },
        {
          "internalType": "uint256",
          "name": "swapFee",
          "type": "uint256"
        }
      ],
      "name": "calcInGivenOut",
      "outputs": [
        {
          "internalType": "uint256",
          "name": "tokenAmountIn",
          "type": "uint256"
        }
      ],
      "stateMutability": "pure",
      "type": "function"
    },
    {
      "inputs": [
        {
          "internalType": "uint256",
          "name": "tokenBalanceIn",
          "type": "uint256"
        },
        {
          "internalType": "uint256",
          "name": "tokenWeightIn",
          "type": "uint256"
        },
        {
          "internalType": "uint256",
          "name": "tokenBalanceOut",
          "type": "uint256"
        },
        {
          "internalType": "uint256",
          "name": "tokenWeightOut",
          "type": "uint256"
        },
        {
          "internalType": "uint256",
          "name": "tokenAmountIn",
          "type": "uint256"
        },
        {
          "internalType": "uint256",
          "name": "swapFee",
          "type": "uint256"
        }
      ],
      "name": "calcOutGivenIn",
      "outputs": [
        {
          "internalType": "uint256",
          "name": "tokenAmountOut",
          "type": "uint256"
        }
      ],
      "stateMutability": "pure",
      "type": "function"
    },
    {
      "inputs": [
        {
          "internalType": "uint256",
          "name": "tokenBalanceOut",
          "type": "uint256"
        },
        {
          "internalType": "uint256",
          "name": "tokenWeightOut",
          "type": "uint256"
        },
        {
          "internalType": "uint256",
          "name": "poolSupply",
          "type": "uint256"
        },
        {
          "internalType": "uint256",
          "name": "totalWeight",
          "type": "uint256"
        },
        {
          "internalType": "uint256",
          "name": "tokenAmountOut",
          "type": "uint256"
        },
        {
          "internalType": "uint256",
          "name": "swapFee",
          "type": "uint256"
        }
      ],
      "name": "calcPoolInGivenSingleOut",
      "outputs": [
        {
          "internalType": "uint256",
          "name": "poolAmountIn",
          "type": "uint256"
        }
      ],
      "stateMutability": "pure",
      "type": "function"
    },
    {
      "inputs": [
        {
          "internalType": "uint256",
          "name": "tokenBalanceIn",
          "type": "uint256"
        },
        {
          "internalType": "uint256",
          "name": "tokenWeightIn",
          "type": "uint256"
        },
        {
          "internalType": "uint256",
          "name": "poolSupply",
          "type": "uint256"
        },
        {
          "internalType": "uint256",
          "name": "totalWeight",
          "type": "uint256"
        },
        {
          "internalType": "uint256",
          "name": "tokenAmountIn",
          "type": "uint256"
        },
        {
          "internalType": "uint256",
          "name": "swapFee",
          "type": "uint256"
        }
      ],
      "name": "calcPoolOutGivenSingleIn",
      "outputs": [
        {
          "internalType": "uint256",
          "name": "poolAmountOut",
          "type": "uint256"
        }
      ],
      "stateMutability": "pure",
      "type": "function"
    },
    {
      "inputs": [
        {
          "internalType": "uint256",
          "name": "tokenBalanceIn",
          "type": "uint256"
        },
        {
          "internalType": "uint256",
          "name": "tokenWeightIn",
          "type": "uint256"
        },
        {
          "internalType": "uint256",
          "name": "poolSupply",
          "type": "uint256"
        },
        {
          "internalType": "uint256",
          "name": "totalWeight",
          "type": "uint256"
        },
        {
          "internalType": "uint256",
          "name": "poolAmountOut",
          "type": "uint256"
        },
        {
          "internalType": "uint256",
          "name": "swapFee",
          "type": "uint256"
        }
      ],
      "name": "calcSingleInGivenPoolOut",
      "outputs": [
        {
          "internalType": "uint256",
          "name": "tokenAmountIn",
          "type": "uint256"
        }
      ],
      "stateMutability": "pure",
      "type": "function"
    },
    {
      "inputs": [
        {
          "internalType": "uint256",
          "name": "tokenBalanceOut",
          "type": "uint256"
        },
        {
          "internalType": "uint256",
          "name": "tokenWeightOut",
          "type": "uint256"
        },
        {
          "internalType": "uint256",
          "name": "poolSupply",
          "type": "uint256"
        },
        {
          "internalType": "uint256",
          "name": "totalWeight",
          "type": "uint256"
        },
        {
          "internalType": "uint256",
          "name": "poolAmountIn",
          "type": "uint256"
        },
        {
          "internalType": "uint256",
          "name": "swapFee",
          "type": "uint256"
        }
      ],
      "name": "calcSingleOutGivenPoolIn",
      "outputs": [
        {
          "internalType": "uint256",
          "name": "tokenAmountOut",
          "type": "uint256"
        }
      ],
      "stateMutability": "pure",
      "type": "function"
    },
    {
      "inputs": [
        {
          "internalType": "uint256",
          "name": "tokenBalanceIn",
          "type": "uint256"
        },
        {
          "internalType": "uint256",
          "name": "tokenWeightIn",
          "type": "uint256"
        },
        {
          "internalType": "uint256",
          "name": "tokenBalanceOut",
          "type": "uint256"
        },
        {
          "internalType": "uint256",
          "name": "tokenWeightOut",
          "type": "uint256"
        },
        {
          "internalType": "uint256",
          "name": "swapFee",
          "type": "uint256"
        }
      ],
      "name": "calcSpotPrice",
      "outputs": [
        {
          "internalType": "uint256",
          "name": "spotPrice",
          "type": "uint256"
        }
      ],
      "stateMutability": "pure",
      "type": "function"
    },
    {
      "inputs": [],
      "name": "decimals",
      "outputs": [
        {
          "internalType": "uint8",
          "name": "",
          "type": "uint8"
        }
      ],
      "stateMutability": "view",
      "type": "function"
    },
    {
      "inputs": [
        {
          "internalType": "address",
          "name": "dst",
          "type": "address"
        },
        {
          "internalType": "uint256",
          "name": "amt",
          "type": "uint256"
        }
      ],
      "name": "decreaseApproval",
      "outputs": [
        {
          "internalType": "bool",
          "name": "",
          "type": "bool"
        }
      ],
      "stateMutability": "nonpayable",
      "type": "function"
    },
    {
      "inputs": [
        {
          "internalType": "uint256",
          "name": "poolAmountIn",
          "type": "uint256"
        },
        {
          "internalType": "uint256[]",
          "name": "minAmountsOut",
          "type": "uint256[]"
        }
      ],
      "name": "exitPool",
      "outputs": [],
      "stateMutability": "nonpayable",
      "type": "function"
    },
    {
      "inputs": [
        {
          "internalType": "address",
          "name": "tokenOut",
          "type": "address"
        },
        {
          "internalType": "uint256",
          "name": "tokenAmountOut",
          "type": "uint256"
        },
        {
          "internalType": "uint256",
          "name": "maxPoolAmountIn",
          "type": "uint256"
        }
      ],
      "name": "exitswapExternAmountOut",
      "outputs": [
        {
          "internalType": "uint256",
          "name": "poolAmountIn",
          "type": "uint256"
        }
      ],
      "stateMutability": "nonpayable",
      "type": "function"
    },
    {
      "inputs": [
        {
          "internalType": "address",
          "name": "tokenOut",
          "type": "address"
        },
        {
          "internalType": "uint256",
          "name": "poolAmountIn",
          "type": "uint256"
        },
        {
          "internalType": "uint256",
          "name": "minAmountOut",
          "type": "uint256"
        }
      ],
      "name": "exitswapPoolAmountIn",
      "outputs": [
        {
          "internalType": "uint256",
          "name": "tokenAmountOut",
          "type": "uint256"
        }
      ],
      "stateMutability": "nonpayable",
      "type": "function"
    },
    {
      "inputs": [],
      "name": "finalize",
      "outputs": [],
      "stateMutability": "nonpayable",
      "type": "function"
    },
    {
      "inputs": [
        {
          "internalType": "address",
          "name": "token",
          "type": "address"
        }
      ],
      "name": "getBalance",
      "outputs": [
        {
          "internalType": "uint256",
          "name": "",
          "type": "uint256"
        }
      ],
      "stateMutability": "view",
      "type": "function"
    },
    {
      "inputs": [],
      "name": "getController",
      "outputs": [
        {
          "internalType": "address",
          "name": "",
          "type": "address"
        }
      ],
      "stateMutability": "view",
      "type": "function"
    },
    {
      "inputs": [],
      "name": "getCurrentTokens",
      "outputs": [
        {
          "internalType": "address[]",
          "name": "tokens",
          "type": "address[]"
        }
      ],
      "stateMutability": "view",
      "type": "function"
    },
    {
      "inputs": [
        {
          "internalType": "address",
          "name": "token",
          "type": "address"
        }
      ],
      "name": "getDenormalizedWeight",
      "outputs": [
        {
          "internalType": "uint256",
          "name": "",
          "type": "uint256"
        }
      ],
      "stateMutability": "view",
      "type": "function"
    },
    {
      "inputs": [],
      "name": "getFinalTokens",
      "outputs": [
        {
          "internalType": "address[]",
          "name": "tokens",
          "type": "address[]"
        }
      ],
      "stateMutability": "view",
      "type": "function"
    },
    {
      "inputs": [
        {
          "internalType": "address",
          "name": "token",
          "type": "address"
        }
      ],
      "name": "getNormalizedWeight",
      "outputs": [
        {
          "internalType": "uint256",
          "name": "",
          "type": "uint256"
        }
      ],
      "stateMutability": "view",
      "type": "function"
    },
    {
      "inputs": [],
      "name": "getNumTokens",
      "outputs": [
        {
          "internalType": "uint256",
          "name": "",
          "type": "uint256"
        }
      ],
      "stateMutability": "view",
      "type": "function"
    },
    {
      "inputs": [
        {
          "internalType": "address",
          "name": "tokenIn",
          "type": "address"
        },
        {
          "internalType": "address",
          "name": "tokenOut",
          "type": "address"
        }
      ],
      "name": "getSpotPrice",
      "outputs": [
        {
          "internalType": "uint256",
          "name": "spotPrice",
          "type": "uint256"
        }
      ],
      "stateMutability": "view",
      "type": "function"
    },
    {
      "inputs": [
        {
          "internalType": "address",
          "name": "tokenIn",
          "type": "address"
        },
        {
          "internalType": "address",
          "name": "tokenOut",
          "type": "address"
        }
      ],
      "name": "getSpotPriceSansFee",
      "outputs": [
        {
          "internalType": "uint256",
          "name": "spotPrice",
          "type": "uint256"
        }
      ],
      "stateMutability": "view",
      "type": "function"
    },
    {
      "inputs": [],
      "name": "getSwapFee",
      "outputs": [
        {
          "internalType": "uint256",
          "name": "",
          "type": "uint256"
        }
      ],
      "stateMutability": "view",
      "type": "function"
    },
    {
      "inputs": [],
      "name": "getTotalDenormalizedWeight",
      "outputs": [
        {
          "internalType": "uint256",
          "name": "",
          "type": "uint256"
        }
      ],
      "stateMutability": "view",
      "type": "function"
    },
    {
      "inputs": [
        {
          "internalType": "address",
          "name": "token",
          "type": "address"
        }
      ],
      "name": "gulp",
      "outputs": [],
      "stateMutability": "nonpayable",
      "type": "function"
    },
    {
      "inputs": [
        {
          "internalType": "address",
          "name": "dst",
          "type": "address"
        },
        {
          "internalType": "uint256",
          "name": "amt",
          "type": "uint256"
        }
      ],
      "name": "increaseApproval",
      "outputs": [
        {
          "internalType": "bool",
          "name": "",
          "type": "bool"
        }
      ],
      "stateMutability": "nonpayable",
      "type": "function"
    },
    {
      "inputs": [
        {
          "internalType": "address",
          "name": "t",
          "type": "address"
        }
      ],
      "name": "isBound",
      "outputs": [
        {
          "internalType": "bool",
          "name": "",
          "type": "bool"
        }
      ],
      "stateMutability": "view",
      "type": "function"
    },
    {
      "inputs": [],
      "name": "isFinalized",
      "outputs": [
        {
          "internalType": "bool",
          "name": "",
          "type": "bool"
        }
      ],
      "stateMutability": "view",
      "type": "function"
    },
    {
      "inputs": [],
      "name": "isPublicSwap",
      "outputs": [
        {
          "internalType": "bool",
          "name": "",
          "type": "bool"
        }
      ],
      "stateMutability": "view",
      "type": "function"
    },
    {
      "inputs": [
        {
          "internalType": "uint256",
          "name": "poolAmountOut",
          "type": "uint256"
        },
        {
          "internalType": "uint256[]",
          "name": "maxAmountsIn",
          "type": "uint256[]"
        }
      ],
      "name": "joinPool",
      "outputs": [],
      "stateMutability": "nonpayable",
      "type": "function"
    },
    {
      "inputs": [
        {
          "internalType": "address",
          "name": "tokenIn",
          "type": "address"
        },
        {
          "internalType": "uint256",
          "name": "tokenAmountIn",
          "type": "uint256"
        },
        {
          "internalType": "uint256",
          "name": "minPoolAmountOut",
          "type": "uint256"
        }
      ],
      "name": "joinswapExternAmountIn",
      "outputs": [
        {
          "internalType": "uint256",
          "name": "poolAmountOut",
          "type": "uint256"
        }
      ],
      "stateMutability": "nonpayable",
      "type": "function"
    },
    {
      "inputs": [
        {
          "internalType": "address",
          "name": "tokenIn",
          "type": "address"
        },
        {
          "internalType": "uint256",
          "name": "poolAmountOut",
          "type": "uint256"
        },
        {
          "internalType": "uint256",
          "name": "maxAmountIn",
          "type": "uint256"
        }
      ],
      "name": "joinswapPoolAmountOut",
      "outputs": [
        {
          "internalType": "uint256",
          "name": "tokenAmountIn",
          "type": "uint256"
        }
      ],
      "stateMutability": "nonpayable",
      "type": "function"
    },
    {
      "inputs": [],
      "name": "name",
      "outputs": [
        {
          "internalType": "string",
          "name": "",
          "type": "string"
        }
      ],
      "stateMutability": "view",
      "type": "function"
    },
    {
      "inputs": [
        {
          "internalType": "address",
          "name": "token",
          "type": "address"
        },
        {
          "internalType": "uint256",
          "name": "balance",
          "type": "uint256"
        },
        {
          "internalType": "uint256",
          "name": "denorm",
          "type": "uint256"
        }
      ],
      "name": "rebind",
      "outputs": [],
      "stateMutability": "nonpayable",
      "type": "function"
    },
    {
      "inputs": [
        {
          "internalType": "address",
          "name": "manager",
          "type": "address"
        }
      ],
      "name": "setController",
      "outputs": [],
      "stateMutability": "nonpayable",
      "type": "function"
    },
    {
      "inputs": [
        {
          "internalType": "bool",
          "name": "public_",
          "type": "bool"
        }
      ],
      "name": "setPublicSwap",
      "outputs": [],
      "stateMutability": "nonpayable",
      "type": "function"
    },
    {
      "inputs": [
        {
          "internalType": "uint256",
          "name": "swapFee",
          "type": "uint256"
        }
      ],
      "name": "setSwapFee",
      "outputs": [],
      "stateMutability": "nonpayable",
      "type": "function"
    },
    {
      "inputs": [
        {
          "internalType": "address",
          "name": "tokenIn",
          "type": "address"
        },
        {
          "internalType": "uint256",
          "name": "tokenAmountIn",
          "type": "uint256"
        },
        {
          "internalType": "address",
          "name": "tokenOut",
          "type": "address"
        },
        {
          "internalType": "uint256",
          "name": "minAmountOut",
          "type": "uint256"
        },
        {
          "internalType": "uint256",
          "name": "maxPrice",
          "type": "uint256"
        }
      ],
      "name": "swapExactAmountIn",
      "outputs": [
        {
          "internalType": "uint256",
          "name": "tokenAmountOut",
          "type": "uint256"
        },
        {
          "internalType": "uint256",
          "name": "spotPriceAfter",
          "type": "uint256"
        }
      ],
      "stateMutability": "nonpayable",
      "type": "function"
    },
    {
      "inputs": [
        {
          "internalType": "address",
          "name": "tokenIn",
          "type": "address"
        },
        {
          "internalType": "uint256",
          "name": "maxAmountIn",
          "type": "uint256"
        },
        {
          "internalType": "address",
          "name": "tokenOut",
          "type": "address"
        },
        {
          "internalType": "uint256",
          "name": "tokenAmountOut",
          "type": "uint256"
        },
        {
          "internalType": "uint256",
          "name": "maxPrice",
          "type": "uint256"
        }
      ],
      "name": "swapExactAmountOut",
      "outputs": [
        {
          "internalType": "uint256",
          "name": "tokenAmountIn",
          "type": "uint256"
        },
        {
          "internalType": "uint256",
          "name": "spotPriceAfter",
          "type": "uint256"
        }
      ],
      "stateMutability": "nonpayable",
      "type": "function"
    },
    {
      "inputs": [],
      "name": "symbol",
      "outputs": [
        {
          "internalType": "string",
          "name": "",
          "type": "string"
        }
      ],
      "stateMutability": "view",
      "type": "function"
    },
    {
      "inputs": [],
      "name": "totalSupply",
      "outputs": [
        {
          "internalType": "uint256",
          "name": "",
          "type": "uint256"
        }
      ],
      "stateMutability": "view",
      "type": "function"
    },
    {
      "inputs": [
        {
          "internalType": "address",
          "name": "dst",
          "type": "address"
        },
        {
          "internalType": "uint256",
          "name": "amt",
          "type": "uint256"
        }
      ],
      "name": "transfer",
      "outputs": [
        {
          "internalType": "bool",
          "name": "",
          "type": "bool"
        }
      ],
      "stateMutability": "nonpayable",
      "type": "function"
    },
    {
      "inputs": [
        {
          "internalType": "address",
          "name": "src",
          "type": "address"
        },
        {
          "internalType": "address",
          "name": "dst",
          "type": "address"
        },
        {
          "internalType": "uint256",
          "name": "amt",
          "type": "uint256"
        }
      ],
      "name": "transferFrom",
      "outputs": [
        {
          "internalType": "bool",
          "name": "",
          "type": "bool"
        }
      ],
      "stateMutability": "nonpayable",
      "type": "function"
    },
    {
      "inputs": [
        {
          "internalType": "address",
          "name": "token",
          "type": "address"
        }
      ],
      "name": "unbind",
      "outputs": [],
      "stateMutability": "nonpayable",
      "type": "function"
    }
  ],
  "bytecode": "0x60c0604052600f60808190526e25b4bbb4902837b7b6102a37b5b2b760891b60a0908152620000329160039190620000cc565b506040805180820190915260038082526212d41560ea1b60209092019182526200005f91600491620000cc565b506005805460ff191660121790553480156200007a57600080fd5b50600680546005805462010000600160b01b031916336201000081029190911790915564e8d4a510006007556001600160a01b03199091161760ff60a01b191690556008805460ff1916905562000168565b828054600181600116156101000203166002900490600052602060002090601f016020900481019282601f106200010f57805160ff19168380011785556200013f565b828001600101855582156200013f579182015b828111156200013f57825182559160200191906001019062000122565b506200014d92915062000151565b5090565b5b808211156200014d576000815560010162000152565b61572f80620001786000396000f3fe608060405234801561001057600080fd5b50600436106103d05760003560e01c80638d4e4083116101ff578063be3bbd2e1161011a578063dd62ed3e116100ad578063f1b8a9b71161007c578063f1b8a9b714610c63578063f8b2cb4f14610c89578063f8d6aed414610caf578063fde924f714610cea576103d0565b8063dd62ed3e14610bfb578063e4a28a52146104d6578063e4e1e53814610c29578063ec09302114610c5b576103d0565b8063cd2ed8fb116100e9578063cd2ed8fb14610b99578063cf5e7bd314610ba1578063d4cadf6814610bc7578063d73dd62314610bcf576103d0565b8063be3bbd2e14610b31578063c36596a61461054a578063c6580d1214610b89578063cc77828d14610b91576103d0565b8063a9059cbb11610192578063ba019dab11610161578063ba019dab14610ade578063ba9530a614610ae6578063bc063e1a14610b21578063bc694ea214610b29576103d0565b8063a9059cbb14610a2b578063b02f0b7314610a57578063b0e0d13614610ace578063b7b800a414610ad6576103d0565b8063948d8ce6116101ce578063948d8ce6146109c057806395d89b41146109e6578063992e2a92146109ee578063a221ee49146109f6576103d0565b80638d4e40831461098257806392eefe9b1461098a578063936c3477146109b05780639381cd2b146109b8576103d0565b806349b59552116102ef57806376c7a3c7116102825780638656b653116102515780638656b653146108de578063867378c51461091957806389298012146109215780638c28cbe81461095c576103d0565b806376c7a3c7146108025780637c5e9ea41461080a5780638201aa3f1461086357806382f652ad146108a3576103d0565b80635db34277116102be5780635db342771461074c578063661884631461077e5780636d06dfa0146107aa57806370a08231146107dc576103d0565b806349b59552146106735780634bb278f3146106925780634f69c0d41461069a5780635c1bbaf714610711576103d0565b8063218b538211610367578063313ce56711610336578063313ce567146105d257806334e19907146105f05780633fdddaa21461060f57806346ab38f114610641576103d0565b8063218b53821461054a57806323b872dd146105525780632f37b624146105885780633018205f146105ae576103d0565b80631446a7ff116103a35780631446a7ff146104de57806315e84af91461050c57806318160ddd1461053a578063189d00ca14610542576103d0565b806302c96748146103d557806306fdde0314610419578063095ea7b31461049657806309a3bbe4146104d6575b600080fd5b610407600480360360608110156103eb57600080fd5b506001600160a01b038135169060208101359060400135610cf2565b60408051918252519081900360200190f35b610421611052565b6040805160208082528351818301528351919283929083019185019080838360005b8381101561045b578181015183820152602001610443565b50505050905090810190601f1680156104885780820380516001836020036101000a031916815260200191505b509250505060405180910390f35b6104c2600480360360408110156104ac57600080fd5b506001600160a01b0381351690602001356110e8565b604080519115158252519081900360200190f35b61040761114f565b610407600480360360408110156104f457600080fd5b506001600160a01b038135811691602001351661115c565b6104076004803603604081101561052257600080fd5b506001600160a01b03813581169160200135166112b1565b6104076113fd565b610407611403565b610407611417565b6104c26004803603606081101561056857600080fd5b506001600160a01b03813581169160208101359091169060400135611423565b6104c26004803603602081101561059e57600080fd5b50356001600160a01b0316611597565b6105b66115b5565b604080516001600160a01b039092168252519081900360200190f35b6105da611613565b6040805160ff9092168252519081900360200190f35b61060d6004803603602081101561060657600080fd5b503561161c565b005b61060d6004803603606081101561062557600080fd5b506001600160a01b03813516906020810135906040013561183d565b6104076004803603606081101561065757600080fd5b506001600160a01b038135169060208101359060400135611c7f565b61060d6004803603602081101561068957600080fd5b50351515611f7e565b61060d612101565b61060d600480360360408110156106b057600080fd5b813591908101906040810160208201356401000000008111156106d257600080fd5b8201836020820111156106e457600080fd5b8035906020019184602083028401116401000000008311171561070657600080fd5b509092509050612307565b610407600480360360c081101561072757600080fd5b5080359060208101359060408101359060608101359060808101359060a00135612600565b6104076004803603606081101561076257600080fd5b506001600160a01b0381351690602081013590604001356126b8565b6104c26004803603604081101561079457600080fd5b506001600160a01b03813516906020013561299b565b610407600480360360608110156107c057600080fd5b506001600160a01b038135169060208101359060400135612a85565b610407600480360360208110156107f257600080fd5b50356001600160a01b0316612d96565b610407612db1565b61084a600480360360a081101561082057600080fd5b506001600160a01b0381358116916020810135916040820135169060608101359060800135612dc3565b6040805192835260208301919091528051918290030190f35b61084a600480360360a081101561087957600080fd5b506001600160a01b03813581169160208101359160408201351690606081013590608001356132a8565b610407600480360360c08110156108b957600080fd5b5080359060208101359060408101359060608101359060808101359060a00135613774565b610407600480360360c08110156108f457600080fd5b5080359060208101359060408101359060608101359060808101359060a00135613833565b6104076138d4565b610407600480360360c081101561093757600080fd5b5080359060208101359060408101359060608101359060808101359060a001356138e8565b61060d6004803603602081101561097257600080fd5b50356001600160a01b0316613998565b6104c2613b65565b61060d600480360360208110156109a057600080fd5b50356001600160a01b0316613b6e565b610407613cb9565b610407613d0e565b610407600480360360208110156109d657600080fd5b50356001600160a01b0316613d1b565b610421613de5565b610407613e46565b610407600480360360a0811015610a0c57600080fd5b5080359060208101359060408101359060608101359060800135613e52565b6104c260048036036040811015610a4157600080fd5b506001600160a01b038135169060200135613eb7565b61060d60048036036040811015610a6d57600080fd5b81359190810190604081016020820135640100000000811115610a8f57600080fd5b820183602082011115610aa157600080fd5b80359060200191846020830284011164010000000083111715610ac357600080fd5b509092509050613ecd565b610407614214565b610407614219565b61040761421e565b610407600480360360c0811015610afc57600080fd5b5080359060208101359060408101359060608101359060808101359060a00135614223565b6104076142a4565b6104076142b4565b610b396142c0565b60408051602080825283518183015283519192839290830191858101910280838360005b83811015610b75578181015183820152602001610b5d565b505050509050019250505060405180910390f35b6104076143b8565b610b396143bd565b61040761440b565b61060d60048036036020811015610bb757600080fd5b50356001600160a01b0316614411565b6104076147a0565b6104c260048036036040811015610be557600080fd5b506001600160a01b0381351690602001356147f5565b61040760048036036040811015610c1157600080fd5b506001600160a01b0381358116916020013516614888565b61060d60048036036060811015610c3f57600080fd5b506001600160a01b0381351690602081013590604001356148b3565b610407614b37565b61040760048036036020811015610c7957600080fd5b50356001600160a01b0316614b47565b61040760048036036020811015610c9f57600080fd5b50356001600160a01b0316614c23565b610407600480360360c0811015610cc557600080fd5b5080359060208101359060408101359060608101359060808101359060a00135614ced565b6104c2614d70565b6000336001600160a01b03166000356001600160e01b0319166001600160e01b03191660003660405180806020018281038252848482818152602001925080828437600083820152604051601f909101601f19169092018290039550909350505050a2600554610100900460ff1615610da0576040805162461bcd60e51b815260206004820152600b60248201526a4552525f5245454e54525960a81b604482015290519081900360640190fd5b6005805461ff00191661010017905560085460ff16610dfa576040805162461bcd60e51b815260206004820152601160248201527011549497d393d517d19253905312569151607a1b604482015290519081900360640190fd5b6001600160a01b0384166000908152600a602052604090205460ff16610e57576040805162461bcd60e51b815260206004820152600d60248201526c11549497d393d517d093d55391609a1b604482015290519081900360640190fd5b6001600160a01b0384166000908152600a60205260409020600390810154610e8c91670de0b6b3a76400005b04600101614d80565b831115610ed4576040805162461bcd60e51b81526020600482015260116024820152704552525f4d41585f4f55545f524154494f60781b604482015290519081900360640190fd5b6001600160a01b0384166000908152600a6020526040902060038101546002808301549054600b54600754610f0e94939291908990613774565b915081610f54576040805162461bcd60e51b815260206004820152600f60248201526e08aa4a4be9a82a890be82a0a0a49eb608b1b604482015290519081900360640190fd5b82821115610f98576040805162461bcd60e51b815260206004820152600c60248201526b22a9292fa624a6a4aa2fa4a760a11b604482015290519081900360640190fd5b610fa6816003015485614e63565b60038201556000610fb78382614d80565b6040805187815290519192506001600160a01b0388169133917fe74c91552b64c2e2e7bd255639e004e693bd3e1d01cc33e65610b86afcc1ffed919081900360200190a36110053384614ed1565b6110176110128483614e63565b614edf565b600554611033906201000090046001600160a01b031682614eeb565b61103e863387614ef5565b50506005805461ff00191690559392505050565b60038054604080516020601f60026000196101006001881615020190951694909404938401819004810282018101909252828152606093909290918301828280156110de5780601f106110b3576101008083540402835291602001916110de565b820191906000526020600020905b8154815290600101906020018083116110c157829003601f168201915b5050505050905090565b3360008181526001602090815260408083206001600160a01b038716808552908352818420869055815186815291519394909390927f8c5be1e5ebec7d5bd14f71427d1e84f3dd0314c0f7b2291e5b200ac8c7c3b925928290030190a35060015b92915050565b6802b5e3af16b188000081565b600554600090610100900460ff16156111aa576040805162461bcd60e51b815260206004820152600b60248201526a4552525f5245454e54525960a81b604482015290519081900360640190fd5b6001600160a01b0383166000908152600a602052604090205460ff16611207576040805162461bcd60e51b815260206004820152600d60248201526c11549497d393d517d093d55391609a1b604482015290519081900360640190fd5b6001600160a01b0382166000908152600a602052604090205460ff16611264576040805162461bcd60e51b815260206004820152600d60248201526c11549497d393d517d093d55391609a1b604482015290519081900360640190fd5b6001600160a01b038084166000908152600a602052604080822092851682528120600380840154600280860154928401549084015493946112a89492939290613e52565b95945050505050565b600554600090610100900460ff16156112ff576040805162461bcd60e51b815260206004820152600b60248201526a4552525f5245454e54525960a81b604482015290519081900360640190fd5b6001600160a01b0383166000908152600a602052604090205460ff1661135c576040805162461bcd60e51b815260206004820152600d60248201526c11549497d393d517d093d55391609a1b604482015290519081900360640190fd5b6001600160a01b0382166000908152600a602052604090205460ff166113b9576040805162461bcd60e51b815260206004820152600d60248201526c11549497d393d517d093d55391609a1b604482015290519081900360640190fd5b6001600160a01b038084166000908152600a60205260408082209285168252902060038083015460028085015492840154908401546007546112a894929190613e52565b60025490565b6402540be400670de0b6b3a76400005b0481565b670de0b6b3a764000081565b6000336001600160a01b038516148061145f57506001600160a01b03841660009081526001602090815260408083203384529091529020548211155b6114b0576040805162461bcd60e51b815260206004820152601560248201527f4552525f42544f4b454e5f4241445f43414c4c45520000000000000000000000604482015290519081900360640190fd5b6114bb848484614fd4565b336001600160a01b038516148015906114f957506001600160a01b038416600090815260016020908152604080832033845290915290205460001914155b1561158d576001600160a01b038416600090815260016020908152604080832033845290915290205461152c9083614e63565b6001600160a01b03858116600090815260016020908152604080832033808552908352928190208590558051948552519287169391927f8c5be1e5ebec7d5bd14f71427d1e84f3dd0314c0f7b2291e5b200ac8c7c3b9259281900390910190a35b5060019392505050565b6001600160a01b03166000908152600a602052604090205460ff1690565b600554600090610100900460ff1615611603576040805162461bcd60e51b815260206004820152600b60248201526a4552525f5245454e54525960a81b604482015290519081900360640190fd5b506006546001600160a01b031690565b60055460ff1690565b336001600160a01b03166000356001600160e01b0319166001600160e01b03191660003660405180806020018281038252848482818152602001925080828437600083820152604051601f909101601f19169092018290039550909350505050a2600554610100900460ff16156116c8576040805162461bcd60e51b815260206004820152600b60248201526a4552525f5245454e54525960a81b604482015290519081900360640190fd5b6005805461ff00191661010017905560085460ff1615611722576040805162461bcd60e51b815260206004820152601060248201526f11549497d254d7d1925390531256915160821b604482015290519081900360640190fd5b6006546001600160a01b03163314611776576040805162461bcd60e51b815260206004820152601260248201527122a9292fa727aa2fa1a7a72a2927a62622a960711b604482015290519081900360640190fd5b64e8d4a510008110156117d0576040805162461bcd60e51b815260206004820152600b60248201527f4552525f4d494e5f464545000000000000000000000000000000000000000000604482015290519081900360640190fd5b67016345785d8a000081111561182d576040805162461bcd60e51b815260206004820152600b60248201527f4552525f4d41585f464545000000000000000000000000000000000000000000604482015290519081900360640190fd5b6007556005805461ff0019169055565b336001600160a01b03166000356001600160e01b0319166001600160e01b03191660003660405180806020018281038252848482818152602001925080828437600083820152604051601f909101601f19169092018290039550909350505050a2600554610100900460ff16156118e9576040805162461bcd60e51b815260206004820152600b60248201526a4552525f5245454e54525960a81b604482015290519081900360640190fd5b6005805461ff001916610100179055600654336001600160a01b039091161461194e576040805162461bcd60e51b815260206004820152601260248201527122a9292fa727aa2fa1a7a72a2927a62622a960711b604482015290519081900360640190fd5b6001600160a01b0383166000908152600a602052604090205460ff166119ab576040805162461bcd60e51b815260206004820152600d60248201526c11549497d393d517d093d55391609a1b604482015290519081900360640190fd5b60085460ff16156119f6576040805162461bcd60e51b815260206004820152601060248201526f11549497d254d7d1925390531256915160821b604482015290519081900360640190fd5b670de0b6b3a7640000811015611a53576040805162461bcd60e51b815260206004820152600e60248201527f4552525f4d494e5f574549474854000000000000000000000000000000000000604482015290519081900360640190fd5b6802b5e3af16b1880000811115611ab1576040805162461bcd60e51b815260206004820152600e60248201527f4552525f4d41585f574549474854000000000000000000000000000000000000604482015290519081900360640190fd5b620f4240821015611b09576040805162461bcd60e51b815260206004820152600f60248201527f4552525f4d494e5f42414c414e43450000000000000000000000000000000000604482015290519081900360640190fd5b6001600160a01b0383166000908152600a602052604090206002015480821115611ba957611b42600b54611b3d8484614e63565b6150ed565b600b8190556802b5e3af16b18800001015611ba4576040805162461bcd60e51b815260206004820152601460248201527f4552525f4d41585f544f54414c5f574549474854000000000000000000000000604482015290519081900360640190fd5b611bca565b80821015611bca57611bc6600b54611bc18385614e63565b614e63565b600b555b6001600160a01b0384166000908152600a602052604090206002810183905560030180549084905580841115611c1357611c0e8533611c098785614e63565b615147565b611c6d565b80841015611c6d576000611c278286614e63565b90506000611c36826000614d80565b9050611c4c8733611c478585614e63565b614ef5565b600554611c6a9088906201000090046001600160a01b031683614ef5565b50505b50506005805461ff0019169055505050565b6000336001600160a01b03166000356001600160e01b0319166001600160e01b03191660003660405180806020018281038252848482818152602001925080828437600083820152604051601f909101601f19169092018290039550909350505050a2600554610100900460ff1615611d2d576040805162461bcd60e51b815260206004820152600b60248201526a4552525f5245454e54525960a81b604482015290519081900360640190fd5b6005805461ff00191661010017905560085460ff16611d87576040805162461bcd60e51b815260206004820152601160248201527011549497d393d517d19253905312569151607a1b604482015290519081900360640190fd5b6001600160a01b0384166000908152600a602052604090205460ff16611de4576040805162461bcd60e51b815260206004820152600d60248201526c11549497d393d517d093d55391609a1b604482015290519081900360640190fd5b6001600160a01b0384166000908152600a6020526040902060038101546002808301549054600b54600754611e1e949392919089906138e8565b915082821015611e65576040805162461bcd60e51b815260206004820152600d60248201526c11549497d31253525517d3d555609a1b604482015290519081900360640190fd5b6001600160a01b0385166000908152600a60205260409020600390810154611e9591670de0b6b3a7640000610e83565b821115611edd576040805162461bcd60e51b81526020600482015260116024820152704552525f4d41585f4f55545f524154494f60781b604482015290519081900360640190fd5b611eeb816003015483614e63565b60038201556000611efc8582614d80565b6040805185815290519192506001600160a01b0388169133917fe74c91552b64c2e2e7bd255639e004e693bd3e1d01cc33e65610b86afcc1ffed919081900360200190a3611f4a3386614ed1565b611f576110128683614e63565b600554611f73906201000090046001600160a01b031682614eeb565b61103e863385614ef5565b336001600160a01b03166000356001600160e01b0319166001600160e01b03191660003660405180806020018281038252848482818152602001925080828437600083820152604051601f909101601f19169092018290039550909350505050a2600554610100900460ff161561202a576040805162461bcd60e51b815260206004820152600b60248201526a4552525f5245454e54525960a81b604482015290519081900360640190fd5b6005805461ff00191661010017905560085460ff1615612084576040805162461bcd60e51b815260206004820152601060248201526f11549497d254d7d1925390531256915160821b604482015290519081900360640190fd5b6006546001600160a01b031633146120d8576040805162461bcd60e51b815260206004820152601260248201527122a9292fa727aa2fa1a7a72a2927a62622a960711b604482015290519081900360640190fd5b60068054911515600160a01b0260ff60a01b199092169190911790556005805461ff0019169055565b336001600160a01b03166000356001600160e01b0319166001600160e01b03191660003660405180806020018281038252848482818152602001925080828437600083820152604051601f909101601f19169092018290039550909350505050a2600554610100900460ff16156121ad576040805162461bcd60e51b815260206004820152600b60248201526a4552525f5245454e54525960a81b604482015290519081900360640190fd5b6005805461ff001916610100179055600654336001600160a01b0390911614612212576040805162461bcd60e51b815260206004820152601260248201527122a9292fa727aa2fa1a7a72a2927a62622a960711b604482015290519081900360640190fd5b60085460ff161561225d576040805162461bcd60e51b815260206004820152601060248201526f11549497d254d7d1925390531256915160821b604482015290519081900360640190fd5b600954600211156122b5576040805162461bcd60e51b815260206004820152600e60248201527f4552525f4d494e5f544f4b454e53000000000000000000000000000000000000604482015290519081900360640190fd5b6008805460ff191660011790556006805460ff60a01b1916600160a01b1790556122e768056bc75e2d631000006151b9565b6122fa3368056bc75e2d63100000614eeb565b6005805461ff0019169055565b336001600160a01b03166000356001600160e01b0319166001600160e01b03191660003660405180806020018281038252848482818152602001925080828437600083820152604051601f909101601f19169092018290039550909350505050a2600554610100900460ff16156123b3576040805162461bcd60e51b815260206004820152600b60248201526a4552525f5245454e54525960a81b604482015290519081900360640190fd5b6005805461ff00191661010017905560085460ff1661240d576040805162461bcd60e51b815260206004820152601160248201527011549497d393d517d19253905312569151607a1b604482015290519081900360640190fd5b60006124176113fd565b9050600061242585836151c2565b90508061246b576040805162461bcd60e51b815260206004820152600f60248201526e08aa4a4be9a82a890be82a0a0a49eb608b1b604482015290519081900360640190fd5b60005b6009548110156125ec5760006009828154811061248757fe5b60009182526020808320909101546001600160a01b0316808352600a9091526040822060030154909250906124bc8583614d80565b905080612502576040805162461bcd60e51b815260206004820152600f60248201526e08aa4a4be9a82a890be82a0a0a49eb608b1b604482015290519081900360640190fd5b87878581811061250e57fe5b90506020020135811115612558576040805162461bcd60e51b815260206004820152600c60248201526b22a9292fa624a6a4aa2fa4a760a11b604482015290519081900360640190fd5b6001600160a01b0383166000908152600a602052604090206003015461257e90826150ed565b6001600160a01b0384166000818152600a60209081526040918290206003019390935580518481529051919233927f63982df10efd8dfaaaa0fcc7f50b2d93b7cba26ccc48adee2873220d485dc39a9281900390910190a36125e1833383615147565b50505060010161246e565b506125f6856151b9565b611c6d3386614eeb565b60008061260d87866151c2565b9050600061261b87866150ed565b9050600061262982896151c2565b9050600061263f670de0b6b3a7640000856151c2565b9050600061264d83836152f5565b9050600061265b828e614d80565b90506000612669828f614e63565b90506000612688612682670de0b6b3a76400008a614e63565b8b614d80565b90506126a5826126a0670de0b6b3a764000084614e63565b6151c2565b9f9e505050505050505050505050505050565b6000336001600160a01b03166000356001600160e01b0319166001600160e01b03191660003660405180806020018281038252848482818152602001925080828437600083820152604051601f909101601f19169092018290039550909350505050a2600554610100900460ff1615612766576040805162461bcd60e51b815260206004820152600b60248201526a4552525f5245454e54525960a81b604482015290519081900360640190fd5b6005805461ff00191661010017905560085460ff166127c0576040805162461bcd60e51b815260206004820152601160248201527011549497d393d517d19253905312569151607a1b604482015290519081900360640190fd5b6001600160a01b0384166000908152600a602052604090205460ff1661281d576040805162461bcd60e51b815260206004820152600d60248201526c11549497d393d517d093d55391609a1b604482015290519081900360640190fd5b6001600160a01b0384166000908152600a602052604090206003015461284f906002670de0b6b3a76400005b04614d80565b831115612896576040805162461bcd60e51b815260206004820152601060248201526f4552525f4d41585f494e5f524154494f60801b604482015290519081900360640190fd5b6001600160a01b0384166000908152600a6020526040902060038101546002808301549054600b546007546128d094939291908990613833565b915082821015612917576040805162461bcd60e51b815260206004820152600d60248201526c11549497d31253525517d3d555609a1b604482015290519081900360640190fd5b6129258160030154856150ed565b60038201556040805185815290516001600160a01b0387169133917f63982df10efd8dfaaaa0fcc7f50b2d93b7cba26ccc48adee2873220d485dc39a9181900360200190a3612973826151b9565b61297d3383614eeb565b612988853386615147565b506005805461ff00191690559392505050565b3360009081526001602090815260408083206001600160a01b0386168452909152812054808311156129f0573360009081526001602090815260408083206001600160a01b0388168452909152812055612a1f565b6129fa8184614e63565b3360009081526001602090815260408083206001600160a01b03891684529091529020555b3360008181526001602090815260408083206001600160a01b0389168085529083529281902054815190815290519293927f8c5be1e5ebec7d5bd14f71427d1e84f3dd0314c0f7b2291e5b200ac8c7c3b925929181900390910190a35060019392505050565b6000336001600160a01b03166000356001600160e01b0319166001600160e01b03191660003660405180806020018281038252848482818152602001925080828437600083820152604051601f909101601f19169092018290039550909350505050a2600554610100900460ff1615612b33576040805162461bcd60e51b815260206004820152600b60248201526a4552525f5245454e54525960a81b604482015290519081900360640190fd5b6005805461ff00191661010017905560085460ff16612b8d576040805162461bcd60e51b815260206004820152601160248201527011549497d393d517d19253905312569151607a1b604482015290519081900360640190fd5b6001600160a01b0384166000908152600a602052604090205460ff16612bea576040805162461bcd60e51b815260206004820152600d60248201526c11549497d393d517d093d55391609a1b604482015290519081900360640190fd5b6001600160a01b0384166000908152600a6020526040902060038101546002808301549054600b54600754612c2494939291908990612600565b915081612c6a576040805162461bcd60e51b815260206004820152600f60248201526e08aa4a4be9a82a890be82a0a0a49eb608b1b604482015290519081900360640190fd5b82821115612cae576040805162461bcd60e51b815260206004820152600c60248201526b22a9292fa624a6a4aa2fa4a760a11b604482015290519081900360640190fd5b6001600160a01b0385166000908152600a6020526040902060030154612cde906002670de0b6b3a7640000612849565b821115612d25576040805162461bcd60e51b815260206004820152601060248201526f4552525f4d41585f494e5f524154494f60801b604482015290519081900360640190fd5b612d338160030154836150ed565b60038201556040805183815290516001600160a01b0387169133917f63982df10efd8dfaaaa0fcc7f50b2d93b7cba26ccc48adee2873220d485dc39a9181900360200190a3612d81846151b9565b612d8b3385614eeb565b612988853384615147565b6001600160a01b031660009081526020819052604090205490565b620f4240670de0b6b3a7640000611413565b60408051602080825236908201819052600092839233926001600160e01b03198535169285929081908101848480828437600083820152604051601f909101601f19169092018290039550909350505050a2600554610100900460ff1615612e60576040805162461bcd60e51b815260206004820152600b60248201526a4552525f5245454e54525960a81b604482015290519081900360640190fd5b6005805461ff0019166101001790556001600160a01b0387166000908152600a602052604090205460ff16612ecc576040805162461bcd60e51b815260206004820152600d60248201526c11549497d393d517d093d55391609a1b604482015290519081900360640190fd5b6001600160a01b0385166000908152600a602052604090205460ff16612f29576040805162461bcd60e51b815260206004820152600d60248201526c11549497d393d517d093d55391609a1b604482015290519081900360640190fd5b600654600160a01b900460ff16612f87576040805162461bcd60e51b815260206004820152601360248201527f4552525f535741505f4e4f545f5055424c494300000000000000000000000000604482015290519081900360640190fd5b6001600160a01b038088166000908152600a602052604080822092881682529020600380820154612fc091670de0b6b3a7640000610e83565b861115613008576040805162461bcd60e51b81526020600482015260116024820152704552525f4d41585f4f55545f524154494f60781b604482015290519081900360640190fd5b60006130298360030154846002015484600301548560020154600754613e52565b905085811115613080576040805162461bcd60e51b815260206004820152601360248201527f4552525f4241445f4c494d49545f505249434500000000000000000000000000604482015290519081900360640190fd5b6130a083600301548460020154846003015485600201548b600754614ced565b9450888511156130e6576040805162461bcd60e51b815260206004820152600c60248201526b22a9292fa624a6a4aa2fa4a760a11b604482015290519081900360640190fd5b6130f48360030154866150ed565b836003018190555061310a826003015488614e63565b60038084018290558401546002808601549085015460075461312d949190613e52565b935080841015613176576040805162461bcd60e51b815260206004820152600f60248201526e08aa4a4be9a82a890be82a0a0a49eb608b1b604482015290519081900360640190fd5b858411156131cb576040805162461bcd60e51b815260206004820152600f60248201527f4552525f4c494d49545f50524943450000000000000000000000000000000000604482015290519081900360640190fd5b6131d585886151c2565b81111561321b576040805162461bcd60e51b815260206004820152600f60248201526e08aa4a4be9a82a890be82a0a0a49eb608b1b604482015290519081900360640190fd5b876001600160a01b03168a6001600160a01b0316336001600160a01b03167f908fb5ee8f16c6bc9bc3690973819f32a4d4b10188134543c88706e0e1d43378888b604051808381526020018281526020019250505060405180910390a46132838a3387615147565b61328e883389614ef5565b5050506005805461ff001916905590969095509350505050565b60408051602080825236908201819052600092839233926001600160e01b03198535169285929081908101848480828437600083820152604051601f909101601f19169092018290039550909350505050a2600554610100900460ff1615613345576040805162461bcd60e51b815260206004820152600b60248201526a4552525f5245454e54525960a81b604482015290519081900360640190fd5b6005805461ff0019166101001790556001600160a01b0387166000908152600a602052604090205460ff166133b1576040805162461bcd60e51b815260206004820152600d60248201526c11549497d393d517d093d55391609a1b604482015290519081900360640190fd5b6001600160a01b0385166000908152600a602052604090205460ff1661340e576040805162461bcd60e51b815260206004820152600d60248201526c11549497d393d517d093d55391609a1b604482015290519081900360640190fd5b600654600160a01b900460ff1661346c576040805162461bcd60e51b815260206004820152601360248201527f4552525f535741505f4e4f545f5055424c494300000000000000000000000000604482015290519081900360640190fd5b6001600160a01b038088166000908152600a60205260408082209288168252902060038201546134a6906002670de0b6b3a7640000612849565b8811156134ed576040805162461bcd60e51b815260206004820152601060248201526f4552525f4d41585f494e5f524154494f60801b604482015290519081900360640190fd5b600061350e8360030154846002015484600301548560020154600754613e52565b905085811115613565576040805162461bcd60e51b815260206004820152601360248201527f4552525f4241445f4c494d49545f505249434500000000000000000000000000604482015290519081900360640190fd5b61358583600301548460020154846003015485600201548d600754614223565b9450868510156135cc576040805162461bcd60e51b815260206004820152600d60248201526c11549497d31253525517d3d555609a1b604482015290519081900360640190fd5b6135da83600301548a6150ed565b83600301819055506135f0826003015486614e63565b600380840182905584015460028086015490850154600754613613949190613e52565b93508084101561365c576040805162461bcd60e51b815260206004820152600f60248201526e08aa4a4be9a82a890be82a0a0a49eb608b1b604482015290519081900360640190fd5b858411156136b1576040805162461bcd60e51b815260206004820152600f60248201527f4552525f4c494d49545f50524943450000000000000000000000000000000000604482015290519081900360640190fd5b6136bb89866151c2565b811115613701576040805162461bcd60e51b815260206004820152600f60248201526e08aa4a4be9a82a890be82a0a0a49eb608b1b604482015290519081900360640190fd5b876001600160a01b03168a6001600160a01b0316336001600160a01b03167f908fb5ee8f16c6bc9bc3690973819f32a4d4b10188134543c88706e0e1d433788c89604051808381526020018281526020019250505060405180910390a46137698a338b615147565b61328e883387614ef5565b60008061378187866151c2565b90506000613797670de0b6b3a764000083614e63565b905060006137a58286614d80565b905060006137bf876126a0670de0b6b3a764000085614e63565b905060006137cd8c83614e63565b905060006137db828e6151c2565b905060006137e982886152f5565b905060006137f7828e614d80565b905060006138058e83614e63565b905061381e816126a0670de0b6b3a76400006000614e63565b99505050505050505050509695505050505050565b60008061384087866151c2565b9050600061385f613859670de0b6b3a764000084614e63565b85614d80565b9050600061387e86613879670de0b6b3a764000085614e63565b614d80565b9050600061388c8b836150ed565b9050600061389a828d6151c2565b905060006138a882876152f5565b905060006138b6828d614d80565b90506138c2818d614e63565b9e9d5050505050505050505050505050565b64e8d4a51000670de0b6b3a7640000611413565b6000806138f587866151c2565b9050600061391085613879670de0b6b3a76400006000614e63565b9050600061391e8883614e63565b9050600061392c828a6151c2565b9050600061394b82613946670de0b6b3a7640000886151c2565b6152f5565b90506000613959828e614d80565b905060006139678e83614e63565b90506000613980612682670de0b6b3a76400008a614e63565b90506126a582613879670de0b6b3a764000084614e63565b336001600160a01b03166000356001600160e01b0319166001600160e01b03191660003660405180806020018281038252848482818152602001925080828437600083820152604051601f909101601f19169092018290039550909350505050a2600554610100900460ff1615613a44576040805162461bcd60e51b815260206004820152600b60248201526a4552525f5245454e54525960a81b604482015290519081900360640190fd5b6005805461ff0019166101001790556001600160a01b0381166000908152600a602052604090205460ff16613ab0576040805162461bcd60e51b815260206004820152600d60248201526c11549497d393d517d093d55391609a1b604482015290519081900360640190fd5b604080517f70a0823100000000000000000000000000000000000000000000000000000000815230600482015290516001600160a01b038316916370a08231916024808301926020929190829003018186803b158015613b0f57600080fd5b505afa158015613b23573d6000803e3d6000fd5b505050506040513d6020811015613b3957600080fd5b50516001600160a01b039091166000908152600a60205260409020600301556005805461ff0019169055565b60085460ff1690565b336001600160a01b03166000356001600160e01b0319166001600160e01b03191660003660405180806020018281038252848482818152602001925080828437600083820152604051601f909101601f19169092018290039550909350505050a2600554610100900460ff1615613c1a576040805162461bcd60e51b815260206004820152600b60248201526a4552525f5245454e54525960a81b604482015290519081900360640190fd5b6005805461ff001916610100179055600654336001600160a01b0390911614613c7f576040805162461bcd60e51b815260206004820152601260248201527122a9292fa727aa2fa1a7a72a2927a62622a960711b604482015290519081900360640190fd5b6006805473ffffffffffffffffffffffffffffffffffffffff19166001600160a01b03929092169190911790556005805461ff0019169055565b600554600090610100900460ff1615613d07576040805162461bcd60e51b815260206004820152600b60248201526a4552525f5245454e54525960a81b604482015290519081900360640190fd5b50600b5490565b68056bc75e2d6310000081565b600554600090610100900460ff1615613d69576040805162461bcd60e51b815260206004820152600b60248201526a4552525f5245454e54525960a81b604482015290519081900360640190fd5b6001600160a01b0382166000908152600a602052604090205460ff16613dc6576040805162461bcd60e51b815260206004820152600d60248201526c11549497d393d517d093d55391609a1b604482015290519081900360640190fd5b506001600160a01b03166000908152600a602052604090206002015490565b60048054604080516020601f60026000196101006001881615020190951694909404938401819004810282018101909252828152606093909290918301828280156110de5780601f106110b3576101008083540402835291602001916110de565b6704a03ce68d21555681565b600080613e5f87876151c2565b90506000613e6d86866151c2565b90506000613e7b83836151c2565b90506000613e9d670de0b6b3a76400006126a0670de0b6b3a764000089614e63565b9050613ea98282614d80565b9a9950505050505050505050565b6000613ec4338484614fd4565b50600192915050565b336001600160a01b03166000356001600160e01b0319166001600160e01b03191660003660405180806020018281038252848482818152602001925080828437600083820152604051601f909101601f19169092018290039550909350505050a2600554610100900460ff1615613f79576040805162461bcd60e51b815260206004820152600b60248201526a4552525f5245454e54525960a81b604482015290519081900360640190fd5b6005805461ff00191661010017905560085460ff16613fd3576040805162461bcd60e51b815260206004820152601160248201527011549497d393d517d19253905312569151607a1b604482015290519081900360640190fd5b6000613fdd6113fd565b90506000613fec856000614d80565b90506000613ffa8683614e63565b9050600061400882856151c2565b90508061404e576040805162461bcd60e51b815260206004820152600f60248201526e08aa4a4be9a82a890be82a0a0a49eb608b1b604482015290519081900360640190fd5b6140583388614ed1565b600554614074906201000090046001600160a01b031684614eeb565b61407d82614edf565b60005b6009548110156141ff5760006009828154811061409957fe5b60009182526020808320909101546001600160a01b0316808352600a9091526040822060030154909250906140ce8583614d80565b905080614114576040805162461bcd60e51b815260206004820152600f60248201526e08aa4a4be9a82a890be82a0a0a49eb608b1b604482015290519081900360640190fd5b89898581811061412057fe5b9050602002013581101561416b576040805162461bcd60e51b815260206004820152600d60248201526c11549497d31253525517d3d555609a1b604482015290519081900360640190fd5b6001600160a01b0383166000908152600a60205260409020600301546141919082614e63565b6001600160a01b0384166000818152600a60209081526040918290206003019390935580518481529051919233927fe74c91552b64c2e2e7bd255639e004e693bd3e1d01cc33e65610b86afcc1ffed9281900390910190a36141f4833383614ef5565b505050600101614080565b50506005805461ff0019169055505050505050565b600881565b600281565b600181565b60008061423087866151c2565b90506000614246670de0b6b3a764000085614e63565b90506142528582614d80565b905060006142648a6126a08c856150ed565b9050600061427282856152f5565b90506000614288670de0b6b3a764000083614e63565b90506142948a82614d80565b9c9b505050505050505050505050565b600a670de0b6b3a7640000611413565b671bc16d674ec7ffff81565b600554606090610100900460ff161561430e576040805162461bcd60e51b815260206004820152600b60248201526a4552525f5245454e54525960a81b604482015290519081900360640190fd5b60085460ff16614359576040805162461bcd60e51b815260206004820152601160248201527011549497d393d517d19253905312569151607a1b604482015290519081900360640190fd5b60098054806020026020016040519081016040528092919081815260200182805480156110de57602002820191906000526020600020905b81546001600160a01b03168152600190910190602001808311614391575050505050905090565b600081565b600554606090610100900460ff1615614359576040805162461bcd60e51b815260206004820152600b60248201526a4552525f5245454e54525960a81b604482015290519081900360640190fd5b60095490565b336001600160a01b03166000356001600160e01b0319166001600160e01b03191660003660405180806020018281038252848482818152602001925080828437600083820152604051601f909101601f19169092018290039550909350505050a2600554610100900460ff16156144bd576040805162461bcd60e51b815260206004820152600b60248201526a4552525f5245454e54525960a81b604482015290519081900360640190fd5b6005805461ff001916610100179055600654336001600160a01b0390911614614522576040805162461bcd60e51b815260206004820152601260248201527122a9292fa727aa2fa1a7a72a2927a62622a960711b604482015290519081900360640190fd5b6001600160a01b0381166000908152600a602052604090205460ff1661457f576040805162461bcd60e51b815260206004820152600d60248201526c11549497d393d517d093d55391609a1b604482015290519081900360640190fd5b60085460ff16156145ca576040805162461bcd60e51b815260206004820152601060248201526f11549497d254d7d1925390531256915160821b604482015290519081900360640190fd5b6001600160a01b0381166000908152600a6020526040812060030154906145f18282614d80565b600b546001600160a01b0385166000908152600a602052604090206002015491925061461c91614e63565b600b556001600160a01b0383166000908152600a602052604090206001015460098054600019810191908290811061465057fe5b600091825260209091200154600980546001600160a01b03909216918490811061467657fe5b9060005260206000200160006101000a8154816001600160a01b0302191690836001600160a01b0316021790555081600a6000600985815481106146b657fe5b60009182526020808320909101546001600160a01b0316835282019290925260400190206001015560098054806146e957fe5b600082815260208082206000199084018101805473ffffffffffffffffffffffffffffffffffffffff1916905590920190925560408051608081018252838152808301848152818301858152606083018681526001600160a01b038c168752600a909552929094209051815460ff191690151517815592516001840155516002830155516003909101556147828533611c478787614e63565b600554611c6d9086906201000090046001600160a01b031685614ef5565b600554600090610100900460ff16156147ee576040805162461bcd60e51b815260206004820152600b60248201526a4552525f5245454e54525960a81b604482015290519081900360640190fd5b5060075490565b3360009081526001602090815260408083206001600160a01b038616845290915281205461482390836150ed565b3360008181526001602090815260408083206001600160a01b0389168085529083529281902085905580519485525191937f8c5be1e5ebec7d5bd14f71427d1e84f3dd0314c0f7b2291e5b200ac8c7c3b925929081900390910190a350600192915050565b6001600160a01b03918216600090815260016020908152604080832093909416825291909152205490565b336001600160a01b03166000356001600160e01b0319166001600160e01b03191660003660405180806020018281038252848482818152602001925080828437600083820152604051601f909101601f19169092018290039550909350505050a26006546001600160a01b03163314614968576040805162461bcd60e51b815260206004820152601260248201527122a9292fa727aa2fa1a7a72a2927a62622a960711b604482015290519081900360640190fd5b6001600160a01b0383166000908152600a602052604090205460ff16156149d6576040805162461bcd60e51b815260206004820152600c60248201527f4552525f49535f424f554e440000000000000000000000000000000000000000604482015290519081900360640190fd5b60085460ff1615614a21576040805162461bcd60e51b815260206004820152601060248201526f11549497d254d7d1925390531256915160821b604482015290519081900360640190fd5b600954600811614a78576040805162461bcd60e51b815260206004820152600e60248201527f4552525f4d41585f544f4b454e53000000000000000000000000000000000000604482015290519081900360640190fd5b6040805160808101825260018082526009805460208085019182526000858701818152606087018281526001600160a01b038c16808452600a9094529782209651875460ff1916901515178755925186860155915160028601559451600390940193909355805491820181559091527f6e1540171b6c0c960b71a7020d9f60077f6af931a8bbf590da0223dacf75c7af01805473ffffffffffffffffffffffffffffffffffffffff19169091179055614b3283838361183d565b505050565b6002670de0b6b3a7640000611413565b600554600090610100900460ff1615614b95576040805162461bcd60e51b815260206004820152600b60248201526a4552525f5245454e54525960a81b604482015290519081900360640190fd5b6001600160a01b0382166000908152600a602052604090205460ff16614bf2576040805162461bcd60e51b815260206004820152600d60248201526c11549497d393d517d093d55391609a1b604482015290519081900360640190fd5b6001600160a01b0382166000908152600a6020526040902060020154600b54614c1c9082906151c2565b9392505050565b600554600090610100900460ff1615614c71576040805162461bcd60e51b815260206004820152600b60248201526a4552525f5245454e54525960a81b604482015290519081900360640190fd5b6001600160a01b0382166000908152600a602052604090205460ff16614cce576040805162461bcd60e51b815260206004820152600d60248201526c11549497d393d517d093d55391609a1b604482015290519081900360640190fd5b506001600160a01b03166000908152600a602052604090206003015490565b600080614cfa85886151c2565b90506000614d088786614e63565b90506000614d1688836151c2565b90506000614d2482856152f5565b9050614d3881670de0b6b3a7640000614e63565b9050614d4c670de0b6b3a764000087614e63565b9450614d61614d5b8c83614d80565b866151c2565b9b9a5050505050505050505050565b600654600160a01b900460ff1690565b6000828202831580614d9a575082848281614d9757fe5b04145b614deb576040805162461bcd60e51b815260206004820152601060248201527f4552525f4d554c5f4f564552464c4f5700000000000000000000000000000000604482015290519081900360640190fd5b6706f05b59d3b20000810181811015614e4b576040805162461bcd60e51b815260206004820152601060248201527f4552525f4d554c5f4f564552464c4f5700000000000000000000000000000000604482015290519081900360640190fd5b6000670de0b6b3a7640000825b049695505050505050565b6000806000614e728585615412565b915091508015614ec9576040805162461bcd60e51b815260206004820152601160248201527f4552525f5355425f554e444552464c4f57000000000000000000000000000000604482015290519081900360640190fd5b509392505050565b614edb8282615437565b5050565b614ee881615442565b50565b614edb828261551b565b6000836001600160a01b031663a9059cbb84846040518363ffffffff1660e01b815260040180836001600160a01b0316815260200182815260200192505050602060405180830381600087803b158015614f4e57600080fd5b505af1158015614f62573d6000803e3d6000fd5b505050506040513d6020811015614f7857600080fd5b5051905080614fce576040805162461bcd60e51b815260206004820152600f60248201527f4552525f45524332305f46414c53450000000000000000000000000000000000604482015290519081900360640190fd5b50505050565b6001600160a01b038316600090815260208190526040902054811115615041576040805162461bcd60e51b815260206004820152601460248201527f4552525f494e53554646494349454e545f42414c000000000000000000000000604482015290519081900360640190fd5b6001600160a01b0383166000908152602081905260409020546150649082614e63565b6001600160a01b03808516600090815260208190526040808220939093559084168152205461509390826150ed565b6001600160a01b038084166000818152602081815260409182902094909455805185815290519193928716927fddf252ad1be2c89b69c2b068fc378daa952ba7f163c4a11628f55a4df523b3ef92918290030190a3505050565b600082820183811015614c1c576040805162461bcd60e51b815260206004820152601060248201527f4552525f4144445f4f564552464c4f5700000000000000000000000000000000604482015290519081900360640190fd5b604080517f23b872dd0000000000000000000000000000000000000000000000000000000081526001600160a01b0384811660048301523060248301526044820184905291516000928616916323b872dd91606480830192602092919082900301818787803b158015614f4e57600080fd5b614ee881615526565b600081615216576040805162461bcd60e51b815260206004820152600c60248201527f4552525f4449565f5a45524f0000000000000000000000000000000000000000604482015290519081900360640190fd5b670de0b6b3a7640000830283158061523e5750670de0b6b3a764000084828161523b57fe5b04145b61528f576040805162461bcd60e51b815260206004820152601060248201527f4552525f4449565f494e5445524e414c00000000000000000000000000000000604482015290519081900360640190fd5b600283048101818110156152ea576040805162461bcd60e51b815260206004820152601060248201527f4552525f4449565f494e5445524e414c00000000000000000000000000000000604482015290519081900360640190fd5b6000848281614e5857fe5b6000600183101561534d576040805162461bcd60e51b815260206004820152601560248201527f4552525f42504f575f424153455f544f4f5f4c4f570000000000000000000000604482015290519081900360640190fd5b671bc16d674ec7ffff8311156153aa576040805162461bcd60e51b815260206004820152601660248201527f4552525f42504f575f424153455f544f4f5f4849474800000000000000000000604482015290519081900360640190fd5b60006153b58361559b565b905060006153c38483614e63565b905060006153d9866153d4856155b6565b6155c4565b9050816153ea579250611149915050565b60006153fb87846305f5e10061561b565b90506154078282614d80565b979650505050505050565b6000808284106154285750508082036000615430565b505081810360015b9250929050565b614edb823083614fd4565b306000908152602081905260409020548111156154a6576040805162461bcd60e51b815260206004820152601460248201527f4552525f494e53554646494349454e545f42414c000000000000000000000000604482015290519081900360640190fd5b306000908152602081905260409020546154c09082614e63565b306000908152602081905260409020556002546154dd9082614e63565b60025560408051828152905160009130917fddf252ad1be2c89b69c2b068fc378daa952ba7f163c4a11628f55a4df523b3ef9181900360200190a350565b614edb308383614fd4565b3060009081526020819052604090205461554090826150ed565b3060009081526020819052604090205560025461555d90826150ed565b60025560408051828152905130916000917fddf252ad1be2c89b69c2b068fc378daa952ba7f163c4a11628f55a4df523b3ef9181900360200190a350565b6000670de0b6b3a76400006155af836155b6565b0292915050565b670de0b6b3a7640000900490565b600080600283066155dd57670de0b6b3a76400006155df565b835b90506002830492505b8215614c1c576155f88485614d80565b935060028306156156105761560d8185614d80565b90505b6002830492506155e8565b600082818061563287670de0b6b3a7640000615412565b9092509050670de0b6b3a764000080600060015b8884106156ea576000670de0b6b3a76400008202905060008061567a8a61567585670de0b6b3a7640000614e63565b615412565b9150915061568c87613879848c614d80565b965061569887846151c2565b9650866156a7575050506156ea565b87156156b1579315935b80156156bb579315935b84156156d2576156cb8688614e63565b95506156df565b6156dc86886150ed565b95505b505050600101615646565b5090999850505050505050505056fea26469706673582212206f25a6ac366e61efce8d240ec59ba74479ac33c2e83637ab82156ac7b6266c6e64736f6c634300060c0033",
  "linkReferences": {},
  "deployedLinkReferences": {}
}